:020000040800F2
:10000000485F002005030008AD4100086D3F00086F
:10001000A9410008C1180008894600080000000036
:100020000000000000000000000000002142000865
:100030000D19000800000000B14100084D42000801
:100040001F0300081F0300081F0300081F03000808
:100050001F0300081F0300081F0300081F030008F8
:100060001F0300081F0300081F0300081F030008E8
:100070001F0300081F0300081F0300081F030008D8
:100080001F0300081F0300081F0300081F030008C8
:10009000C5180008D11800081F0300081F03000836
:1000A0001F0300081F0300081F0300081F030008A8
:1000B0001F0300081F030008294300081F0300084E
:1000C0001F0300081F0300081F0300081F03000888
:1000D0001F0300087D4600081F0300081F030008D7
:1000E0001F0300081F0300081F0300081F03000868
:1000F0001F0300081F0300081F0300081F03000858
:100100001F0300081F0300081F0300081F03000847
:100110001F0300081F03000835430008414300087F
:100120001F0300081F030008F51800081F0300083C
:100130001F0300081F0300081F0300081F03000817
:10014000DD180008E91800081F0300081F03000855
:100150001F0300081F030008011900081F030008FF
:100160001F0300081F0300081F0300081F030008E7
:100170001F0300081F0300081F0300080000000001
:100180001F0300081F03000800F002F800F0AAF89F
:1001900014A696E8000CB244B344DA4501D100F04D
:1001A000A1F8BAE80F000FA696E83000A5EB040509
:1001B00004EB0607AAEB0704A7F101074FEA1515A0
:1001C0004FEA3414A4F10104AC4201D300F08AF8E0
:1001D00013F0010F18BFFB1A43F0010300F001F800
:1001E000DBE718470088000020880000103A24BF91
:1001F00078C878C1FAD8520724BF30C830C144BF8C
:1002000004680C6070470000704700000023002461
:1002100000250026103A28BF78C1FBD8520728BF16
:1002200030C148BF0B6070476E2900F0938270297F
:1002300000F0D783662908F0AA82652908F0A78212
:10024000672908F0A482612908F0A38203681B0AC9
:1002500028BF41F08001692900F04082642900F044
:100260003D82752900F03A826F2900F06583782974
:1002700000F0A383E92900F0FF82E42900F0FC826A
:10028000F52900F0F982EF2900F06283F82900F0E7
:10029000A2830368DB0928BF41F08001632901F0D4
:1002A000D980732901F0DE80E32901F0E980F32988
:1002B00001F0EE80002070471FB508F056FA01F0FB
:1002C00053F904000020002107F002FF401C606089
:1002D0000020002107F0E6FEE06000F05FF91FBD9E
:1002E00010B510BD01F012F91146FFF7E5FF05F05A
:1002F000B9FA01F0EFF903B4FFF7F2FF03BC01F024
:10030000FBF800000948804709480047FEE7FEE780
:10031000FEE7FEE7FEE7FEE7FEE7FEE7FEE7FEE7B5
:1003200004480549054A064B70470000154300087C
:100330008901000848590020485F0020485B0020E0
:10034000485B002053EA020C00F069802DE9F04B75
:100350004FF00006002B1FBFB3FA83F503FA05F434
:1003600024FA05F65E4012BF1643B2FA82F502FA8D
:1003700005F4C5F120051EBF22FA05FC44EA0C0471
:10038000203556EA044C4FEA144418BF641C4FF061
:1003900000084FF00009904271EB030C39D300299B
:1003A00019BFB1FA81F701FA07F6B0FA80F700FA3F
:1003B00007F6C7F120071EBF20FA07FC46EA0C0625
:1003C0002037B6FBF4FCA7EB0507103F07F01F0B27
:1003D000CBF120062CFA06F60CFA0BFB44BFB34611
:1003E0000026202FA4BF5E464FF0000B5BEA060CF0
:1003F00008BF4FF0010B19EB0B0948EB0608ABFBEC
:10040000027C06FB02CC0BFB03CCC01B71EB0C0186
:10041000C1E70B46024641464846BDE8F08B13B59E
:10042000084318BF4FF0FF300146AFF30080BDE82E
:100430001C4070477CB51D4616460C00009007D046
:100440004142A14202D32044401E01E04FF0FF3060
:10045000064B7B442A4669460190304600F093F9EA
:10046000002C02D0009A002111707CBD57030000BF
:1004700010B5431C02E010F8011B71B18107FAD1DD
:100480004FF0013202C88C1A8C4314EAC211F9D021
:10049000C01A0A0603D0C01E10BDC01A10BD0A043F
:1004A00001D0801E10BD0902FCD0401E10BD032AE1
:1004B00040F2308010F0030C00F0158011F8013B81
:1004C000BCF1020F624498BF11F801CB00F8013B68
:1004D00038BF11F8013BA2F1040298BF00F801CB2C
:1004E00038BF00F8013B11F0030300F04983083ADC
:1004F000C0F0088051F8043B083A51F804CBA0E85A
:100500000810F5E7121D5CBF51F8043B40F8043BAE
:10051000AFF30080D20724BF11F8013B11F801CBE3
:1005200048BF11F8012B24BF00F8013B00F801CBB4
:1005300048BF00F8012B704702F0FF0343EA032293
:1005400042EA024200F002B84FF0000200B5134642
:1005500094469646203922BFA0E80C50A0E80C50E3
:10056000B1F12001BFF4F7AF090728BFA0E80C5094
:1005700048BF0CC05DF804EB890028BF40F8042B8D
:1005800008BF704748BF20F8022B11F0804F18BFFA
:1005900000F8012B704770477047704708487CB5DA
:1005A0007844009007487844009C0546019004E098
:1005B0002046016808448047241DAC42F8D17CBD28
:1005C0008C8500008A85000070B50446051F00F088
:1005D00009FB0068002C14BF446870BD002C18BFD4
:1005E000AC423CBF20466468F8D301680A18AA42AE
:1005F00018BF456003D12A68054611440160286888
:100600004119A1421CBF6C6070BD616869602168BE
:100610000844286070BD70B5044685690068C1064D
:1006200001D5302600E02026C00707D070BDD4E9F0
:10063000012130469047206A401C20626D1EF6D58D
:1006400070BD70B5044685690078C00707D170BDDC
:10065000D4E9012120209047206A401C20626D1EB1
:10066000F6D570BD09684A0501D540B27047C90585
:10067000FCD500B2704709684A0501D5C0B2704781
:10068000C905FCD580B2704770B50C460546012AF5
:1006900005D02878800600D5EA69002302E001230E
:1006A00005E05B1C934202D2E05C0028F9D1A86906
:1006B000E618C01AA861286A184428622846FFF77D
:1006C000AAFF04E0D5E9012114F8010B9047B442D8
:1006D000F8D32846FFF7B5FF70BD00002DE9F041C3
:1006E0000646002410687529314616A510D0FFF77C
:1006F000B9FF002802DA404213A507E031688A07F3
:1007000001D512A502E0490704D511A5012401E095
:10071000FFF7B1FF00210A2206F1240709E0B0FB30
:10072000F2FCB0FBF2F302FB1C00303078541846A8
:10073000491C0028F3D123462A463046BDE8F04143
:1007400000F099BA000000002D0000002B0000000E
:100750002000000011680268006A530501D5087086
:100760000AE0D30501D5088006E0130603D5C217B9
:10077000C1E9000200E008600120704701694A1CDD
:1007800002610878704700B58FB0CDE901310021D2
:10079000059105497944CDE903101146684600F0FA
:1007A0002BF90FB000BD0000E5FFFFFFD1E90023EA
:1007B0009A4202D2531C0B60107070472DE9FF5F04
:1007C00015468A460446DFF8AC80F8440027D8E98D
:1007D00000103E46CDE9001010E03AF816106A46C7
:1007E00002A800F059FE411C07D02178890603D5E4
:1007F000E269391891420DD80744761C20788006AA
:1008000002D5E069B84205DDAE42E6DB3AF81600F3
:100810000028E2D1A069C01BA0612046FFF7FBFEC3
:10082000D8E90010CDE90010002017E03AF81810C0
:100830006A4602A800F030FEB0F1FF3F81460BD0BF
:1008400000250DF1080B05E0D4E901211BF8050096
:1008500090476D1C4D45F7D308F10100B04280462A
:10086000E4DB206A384420622046FFF7EAFEBDE858
:10087000FF9F0000CA7F00002DE9F0418046D21D95
:1008800022F007020025D2E90002F52915A614D0AE
:10089000011E72F1000106DA0023D0EB030063EBC6
:1008A000020211A608E0D8F800108B0701D50FA6A8
:1008B00002E0490701D50EA601251146002408F1E2
:1008C000240704E000F092F930323A55641C50EAF3
:1008D0000102F7D12B46324621464046BDE8F041A1
:1008E00000F0C9B9000000002D0000002B0000003E
:1008F0002000000030B4002100F1240408E002F0E0
:100900000705D208303542EA4372DB086554491CBA
:1009100052EA0305F3D10468002310A2250708D585
:1009200004F020040C4304D0C46901230CA2641E0B
:10093000C46130BC00F09FB910B504462146106870
:10094000FFF799FE02462046BDE810400023D1E79C
:10095000D21D22F00701D1E90023CBE700000000FF
:1009600030000000F0B40D460188090502D5214C85
:100970007C4402E01F4C7C440E34002100F124062C
:1009800008E002F00F071209E75D42EA03721B0953
:100990007754491C52EA0307F3D102780023120767
:1009A00004D5702D06D009B1022311342246F0BCC3
:1009B00000F061B901231034F8E770B504460D4624
:1009C00021461068FFF757FE024629462046BDE83B
:1009D00070400023C6E7D21D22F00703D3E90023AD
:1009E000C0E70368126843F0200303600823C36173
:1009F0000023B7E72C7E00002DE9F05F894604460E
:100A00004FF0000ADFF874B1FB44C0F820A0204684
:100A1000E1688847002874D0252806D0D4E9012150
:100A20009047206A401C2062F1E700265F4620467E
:100A3000E16888472028054607DB312D05D2781963
:100A400010F8200C08B10643F1E7B00701D526F0F5
:100A50000406C4F81CA00027C4F818A02A2D09D049
:100A6000284607F017FB38B304EB8708303DC8F879
:100A7000185019E059F8041B204604EB87029161D5
:100A8000E1688847012F054618D1E069002820DA7F
:100A900026F020061DE0D8F8180000EB800005EBDA
:100AA00040003038C8F818002046E16888470546FD
:100AB00007F0F0FA0028EED1012F0AD02E2D08D130
:100AC0002046E16888477F1C0546022F46F0200635
:100AD000C4DBA069002803DA404246F00106A061A9
:100AE000F00701D026F010066C2D0BD0682D09D030
:100AF0004C2D39D06A2D35D0742D35D07A2D33D088
:100B000016E038E0E1682F4620468847B84205469F
:100B100009D16C2F26D04FF48060E168064320464F
:100B20008847054604E06C2F1AD04FF480700643C6
:100B30000DB3A5F14100192802D8203546F400660E
:100B40004A462946204626604E46FFF76DFB80B197
:100B500001280BD0F61D26F0070000F1080956E722
:100B60004020E4E78020D8E70020D6E706F104091A
:100B70004DE7284652E7206ABDE8F09FBC7D0000A3
:100B800010B5203AC0F00B80B1E81850A0E818501A
:100B9000B1E81850A0E81850203ABFF4F5AF5FEA6A
:100BA000027C24BFB1E81850A0E8185044BF18C90F
:100BB00018C0BDE810405FEA827C24BF51F8043BB6
:100BC00040F8043B08BF7047D20728BF31F8023B0A
:100BD00048BF11F8012B28BF20F8023B48BF00F89E
:100BE000012B7047004870472000002030B5B0F15D
:100BF0000A0271F100034FEA900E4EEA817EB0EBDB
:100C00000E0061EB91014FEA101E4EEA017E10EBDF
:100C10000E0041EB11114FEA102E4EEA016E10EB5F
:100C20000E0041EB11214FEA104E4EEA014E10EB3F
:100C30000E0041EB1141401841F100014FEAD00094
:100C400040EA41704FEAD1014FEA810444EA9074CE
:100C500010EB800544EB01046D1944EB0404521BB6
:100C6000A3414FF0000348BF0A3200D530BD401CFD
:100C700041F1000130BD2DE9F0470D4699469246FD
:100C8000044600F124080168880604D5E06921F0D3
:100C90001001216000E00120A84201DD471B00E0B7
:100CA0000027A1697A1902EB0900081AA0612078CF
:100CB000C00602D42046FFF7AEFC002608E0D4E9C7
:100CC00001211AF806009047206A401C761C206219
:100CD0004E45F4DB2078C0060AD52046FFF79BFC82
:100CE00006E0D4E9012130209047206A401C2062B0
:100CF000381EA7F10107F4DC07E0D4E9012118F858
:100D000005009047206A401C2062281EA5F10105BD
:100D1000F3DC2046FFF795FC2078000602D5022080
:100D2000BDE8F0870120FBE72DE9FF4F0C461E468A
:100D30004FF0FF378BB0D2E90001DDF860800A90F8
:100D40008A46C1F30A5505B93D46002108464FF0D1
:100D50000000BAF1000F00F4400005DA00EB80005B
:100D60004FF4400101EA50004FEA9059B9F1010FE8
:100D700000DDB9460A9850EA4A000ED044F61050F9
:100D8000A5F2FF3545432F14B8F1000F1ED0754270
:100D9000291E1EDDC9F100021CE0B8F1010F4FF061
:100DA000000001D0302103E0F24305E02154401C53
:100DB000B042FBDB30460022002121540B99C1F8E0
:100DC0000880C1E900200FB0BDE8F08FBD1B6D1C8D
:100DD000DEE74A4600DA694206A800F009FC06ABE5
:100DE00093E8070003AB83E8070050460A9906F032
:100DF00071FD8DE80700A0F500501F3800900398A2
:100E0000002D0ADD42F21F014A460844002303A9CF
:100E10000390684606F0DAFF09E0A0F500504A4664
:100E20001F38002303A90390684606F0E4FF8DE80D
:100E300007000004000C03D04FF0FF30410800E031
:100E40001046B8F1000F03D00022009215461EE0B4
:100E5000751E05D4FFF7CAFE303262556D1EF9D5F6
:100E6000B3460122084302D000227F1C04E0207810
:100E7000302801D100227F1E002A099784D01DE06E
:100E8000112D07DAFFF7B2FE303262556D1C50EAC1
:100E90000102F5D1084302D00098C8B10EE000214C
:100EA000681E05E0235C625C63542254401E491CAA
:100EB0008142F7DBAB46A81B401E0990002004F8D6
:100EC0000B000B98099AC0F80880C0E9002B7AE75C
:100ED00011264FF0000857E72DE9F04F88460446E9
:100EE000D21D22F0070191B0D1E90001CDE90A013C
:100EF00007F0B8F802460B98C00F01D02D2007E08C
:100F00002068810701D52B2002E0202101EAC000E2
:100F1000032A099001D0072A05DB034641462046F3
:100F200000F026FB0BE12078800601D5E06900E0A7
:100F30000620B8F1650F814606D0B8F1660F18D0CB
:100F4000B8F1670F70D131E00020B9F1110F0090B6
:100F500001DB112301E009F101030AAA01A90CA890
:100F6000FFF7E2FEDDE90C70002609F1010583467A
:100F700047E001204B4600904FF000470AAA01A924
:100F80000CA8FFF7D1FEDDE90DB00C995D460026F7
:100F900010B909F101000D18B9EB050003D4C0F137
:100FA000FF3609F10105A5EB09002BE0B9F1010FAE
:100FB00001DA4FF001090020B9F1110F0090484605
:100FC00001DD112300E003460AAA01A90CA8FFF7DE
:100FD000ABFEDDE90C704D46002683462078000705
:100FE0000AD4AB4500DA5D4601A8012D04DD4119A4
:100FF00011F8011C302907D04F4502DA17F1040F10
:1010000004DA012082460FE06D1EEEE7002F02DCBD
:10101000ED1B3E4403E0781CA84200DD7D1CB81B9C
:1010200000F1010A4FF000472078000703D4AA45D9
:1010300001DB4FF0FF3A0021B7F1004F0DF14308FB
:101040008DF8431024D002202B23002F01DA7F4299
:101050002D230A21021EA0F1010000DC5FB197FBE5
:10106000F1FC97FBF1F201FB1C7C17460CF1300CF4
:1010700008F801CDEEE7A8F1010003702188090509
:1010800001D5452100E06521A0F1010800F8011C0F
:1010900009980FA9A1EB0807FF1D00B10120411914
:1010A00001EBEA70A1693844081A401EA06120785B
:1010B000C00602D42046FFF7AEFA099828B1D4E959
:1010C00001219047206A401C20622078C00622D56A
:1010D0002046FFF7A0FA1EE0002E04DBB34502DD38
:1010E00001A8805D00E03020D4E901219047206A0A
:1010F000401C2062761CAAF101005FEA000A0AD1B6
:1011000000F032FAC0680168405CD4E901219047E0
:10111000206A401C2062281EA5F10105DCDC07E0E6
:10112000D4E9012118F8010B9047206A401C206285
:10113000381EA7F10107F3DC2046FFF782FA0320EF
:1011400011B041E62DE9F04F04460D46D21D22F0C4
:10115000070089B0D0E900974846394606F082FF7B
:101160000246F80F01D02D2307E02068810701D542
:101170002B2302E0202101EAC0038DF820300BB1BF
:10118000012000E00020032A824601D0072A04DB68
:101190002946204600F0ECF93FE12078800601D492
:1011A0000D2500E0E569C7F30A560D2D49DA002147
:1011B0004FEA175B08464FF00000002F00F4400094
:1011C00007DA00EB80004FF4400100EBD07001EA39
:1011D00060008115012901DD4FF0FF3100224FEA47
:1011E000850CBCF1180F06D31346ACF118004FF074
:1011F0008052C24003E04FF4801323FA0CF30CF149
:101200000C0CBCF1200F04D3ACF1200C09FA0CF04B
:1012100001E007FA0CF000294FF0004801DD18B991
:101220000FE00ED140450CD319EB02095F4121B903
:10123000404502D19F4329EA0209BBEB175F00D06A
:10124000761C2088000502D57B48784402E07A4865
:101250007844193808AA302302F80A30037C0AF1CE
:101260000101002E0AF1020A53546A4602DC4FF0D3
:10127000300101E04FF031014FF001088DF800100E
:1012800002D0A6F2FF3603E059EA470100D06B4EC8
:10129000002D02DC2178090704D54FF002082E2129
:1012A0008DF80110C44600210BE0C7F303433F0152
:1012B000C35C491C6D1E02F80830052908F10108BD
:1012C00001DA002DF1DC00210CE000EB1973491C60
:1012D0001B786D1E082902F808304FEA091908F139
:1012E000010801DA002DF0DC21688B0602D516E03A
:1012F000A8F10108E04505DD02EB080313F8013C05
:10130000302BF5D0B8F1000F09DD02EB080313F81C
:10131000013C2E2B03D1090701D4A8F10108002DAF
:1013200005DD3E2102F808106D1E08F10108407C21
:10133000002E02F8080008F1010804DA2D20764298
:1013400002F8080002E02B2002F808000A214FF4FE
:101350007A70864208F101080BDB96FBF0F330331C
:1013600002F8083096FBF0F308F1010800FB136661
:1013700001E0642E0CDB642096FBF0F3303302F8BE
:10138000083096FBF0F308F1010800FB136601E05A
:101390000A2E06DB96FBF1F0303002F8080008F167
:1013A000010896FBF1F001FB1060303002F80800F4
:1013B000A16908F1010808EB050202EB0A00081A0E
:1013C000A0612078C00602D42046FFF724F9216AE4
:1013D00008AE01EB0A00206204E0D4E9012116F80E
:1013E000010B9047BAF1010AF7D22078C00602D566
:1013F0002046FFF710F96E4609E016F8010B3E286B
:101400000FD0D4E901219047206A401C2062B8F136
:101410000108F2D22046FFF714F909B00320BDE815
:10142000F08F206A2844206203E0D4E901213020B3
:1014300090476D1EEBD3F8E79E75000002FCFFFF9E
:1014400010B5436913B1AFF3008001E0FFF71CF959
:10145000012010BD127800F124010A7000224A70A8
:101460000122EDE711684FF0FF32E9E710B543695B
:1014700013B1AFF3008001E0FFF7A0F9012010BD28
:10148000128800F1240182840022C2840122EDE747
:1014900011684FF0FF32E9E72DE9F04116460C469E
:1014A000054600F059F8036893F80101012807D0B8
:1014B000FF2C12D8185D80B101202C70BDE8F0819E
:1014C000D3F807013246214603F20713C71828460E
:1014D000BC46BDE8F041002360474FF0FF30EDE728
:1014E00010B5002000F0FFF8FEF7FAFEBDE810404E
:1014F000012000F001B8000001491820ABBEFEE752
:101500002600020000487047180000207546FFF7CB
:10151000F9FFAE4605006946534620F007008546B0
:1015200018B020B5FEF7FCFEBDE820404FF00006E5
:101530004FF000074FF000084FF0000BAC46ACE84E
:10154000C009ACE8C009ACE8C009ACE8C00921F0AA
:1015500007018D467047000010B500F005F8001D2A
:1015600010BD00BF6D6B00000048704738000020C0
:101570002DE9F0411F46044603260168072A01F4BD
:10158000006004DB08B116A505E016A503E008B16C
:1015900015A500E015A521F010002060A069C01E6F
:1015A000A0610FB1401EA0612046FFF734F84FB193
:1015B000D4E9012138469047206A401C2062C01CB3
:1015C000206206E0206AFAE7D4E9012115F8010B50
:1015D0009047761EF8D22046FFF733F8BDE8F08139
:1015E0004E414E006E616E00494E4600696E6600C7
:1015F0002DE9F047814616468AB0354878440DC833
:101600008DE80D0032487844801C03AC0DC884E896
:101610000D0041F69B300844372190FBF1F290FB1E
:10162000F1F5A5F1800501FB12041B3C02D56442D3
:10163000012000E00020DFF898A080460027FA444F
:10164000AAF1BE0A0EE0E0070AD03246684607EB70
:10165000470101230AEB810106F0CDFB8DE807006D
:1016600064107F1C002CEED1194F7F44AE3F19E06F
:10167000E80715D007EB04100DF1180A90E80E00EA
:101680008AE80E00C068F04201D1981908903246ED
:10169000012306A903A806F0AEFB03AB83E807000D
:1016A0006D10641C002DE3D14FF0010332466946F2
:1016B000B8F1000F03A802D006F088FB01E006F0A5
:1016C0009AFBC9E90001C9F808200AB0BDE8F08713
:1016D0007C72000010B50446AFF300802046BDE8E0
:1016E0001040FEF708BE10B500F00AF8BDE8104043
:1016F00000F001B87047002801D0FFF7FDBE704729
:1017000010B5002102A000F051F8012010BD00002A
:10171000534947414252543A2041626E6F726D61A3
:101720006C207465726D696E6174696F6E00000083
:1017300030B44FF0013C50F8042B51F8043BCCFA84
:1017400052F4D51A20D1FCB950F8042B51F8043BBF
:10175000CCFA52F4D51A17D1B4B950F8042B51F879
:10176000043BCCFA52F4D51A0ED16CB950F8042BC4
:1017700051F8043BCCFA52F4D51A05D1002CDAD03A
:1017800030BC4FF00000704729BAB1FA81F111F076
:101790001801D1F120008440F2D1CA40CB4012F0B0
:1017A000FF0213F0FF0330BCD01A704770B5054636
:1017B0000C460A2000E06D1C00F011F835B12878C5
:1017C0000028F8D102E0641C00F009F814B1207878
:1017D0000028F8D1BDE870400A20AFF3008008B5BA
:1017E00069468DF800000320ABBE08BDB0B584B0DB
:1017F00040F26C25C2F20005002428460121002297
:101800000023CDE90044029403F00AF9284603F0CE
:1018100025F941F20060C2F2000003F081FB40F2C2
:10182000D010C2F20000203004B0BDE8B04003F098
:1018300077BB000040F29811C2F200010A78002A3A
:1018400008BF7047B0B501F11004013A54F80C1C00
:101850004B68834218D052B354F8081C4B6883423B
:1018600016D0012A23D054F8041C4B68834221D09F
:10187000022A1CD021684B6883420AD0043A511CCA
:1018800004F11004E2D112E00C3C088918B90EE012
:10189000083C088958B1002501EB8500C068016843
:1018A000896888472168013508898542F4D3BDE8F5
:1018B000B0407047043C08890028ECD1F7E70000ED
:1018C000FEE7000040F2A040C2F2000000F0ACB918
:1018D00040F2A040C2F2000000F0A6B940F2C840B9
:1018E000C2F2000000F0A0B940F2C840C2F200000D
:1018F00000F09AB940F2F040C2F2000000F0D0BD12
:1019000040F25050C2F2000000F0CABD7047000023
:1019100072B600BFFEE7000090F82020013A012ACD
:1019200008D8006800F11402002013681943116000
:10193000704700BF00F1240201204FF4802113689A
:10194000194311607047000010B590F820E0D0F8FE
:1019500000C0AEF1010EBEF1010FDCF808E011D8B5
:101960001EF0E05F18D0CEF301640120A0401860A3
:101970008B68DBB1D1F804E0C86840EACE0040EAE9
:10198000030E17E000F1240301204FF480211A68B0
:101990001143196010BD00BF00F1240301204FF472
:1019A00000111A681143196010BD00BF0868CB68A8
:1019B00043EA405E0CF5C07000EB0413240140F8CC
:1019C00004E00C69184640F8044F097D012903D151
:1019D000016841F48071016050680121D86010688D
:1019E000986000201A681143196010BD90F82020FB
:1019F000013A012A30D8B0B546F20060C4F20000C6
:101A0000026842F001020260026822F47C52026025
:101A1000D1F814E0CC694A6A0368012C43EA022237
:101A200002600EF01F024FF0010303FA02F2C369D5
:101A30006FEA020C23EA0203C36113D02CBBC36814
:101A400003EA0C03C360CB688C8844EA034300EBD1
:101A5000CE0423640B4611E0416A41F480214162C7
:101A600001207047C3681343C3600B688C8844EA45
:101A7000034300EBCE04236401F10C038C681B8844
:101A800043EA044300EBCE04636443688D6943EA90
:101A90000204D1F810E0096A002D08BF03EA0C0423
:101AA00044604369BEF1000F43EA020408BF03EA41
:101AB0000C040129446102D1C1691143C16101686B
:101AC00021F0010101600020B0BD0000704700005E
:101AD000B0B590F82040013C012C7DD8D0F800C072
:101AE00000290CBFDCF80C40DCF81040A4077DD0C6
:101AF0000CF5D8754FEA011C55F80C4014F004049D
:101B0000946055F80CE005EB011C19BF4FEADE05A7
:101B100055604FEA5E551560DCF80050E64605F06A
:101B20000205D5605EF8044F24075ABFDEF8004076
:101B300004F00F0408241461DEF800400029C4F307
:101B400007249461DEF800504FEA15455561DCF832
:101B500008201A70026802EB0112D2F8B8214FEA8D
:101B600012225A70026802EB0112D2F8B8214FEA31
:101B700012429A70026802EB0112D2F8B8214FEAC1
:101B80001262DA70026802EB0112D2F8BC211A71FB
:101B9000026802EB0112D2F8BC214FEA12225A71FC
:101BA000026802EB0112D2F8BC214FEA12429A718C
:101BB000026802EB0112D2F8BC214FEA1262DA711C
:101BC00000680CBF00F10C0100F110010020202280
:101BD0000B681A430A60B0BD00F1240101204FF4E4
:101BE00080220B681A430A60B0BD00BF00F12401D7
:101BF00001204FF400120B681A430A60B0BD0000C8
:101C000090F820100139012984BF00207047006836
:101C1000816882688068C1F38061C2F3C062114448
:101C2000C0F30070084470472DE9F04F81B00446BE
:101C300000684669D0F804908768D0F80CB0D0F8F6
:101C400010A0D0F81880F10704D1002530071DD46A
:101C500024E000BFF90710D00121BA07816009D440
:101C6000780700F1AF80380700F1B680204600F019
:101C7000AFFB02E0204600F0ADFB0025F80500F1C7
:101C80008780F80300F1B180300707D51BF0100002
:101C900004D0206845F400751021C160700708D594
:101CA0001BF0080005D020680821C160204600F024
:101CB000FFF9B00706D52068C068800702D020462B
:101CC00000F0F8F9700607D51AF0100004D020686B
:101CD00045F4806510210161B00608D51AF00800AE
:101CE00005D0206808210161204600F091FAF00635
:101CF00006D520680069800702D0204600F08AFAE5
:101D0000B00308D519F0100005D0206810214160FB
:101D1000204600F02DFBF00308D519F0080005D08F
:101D2000206808214160204600F05EFB300440F14D
:101D30009B805FEA497040F1948006F4807008EA65
:101D4000102028435FEA8871014648BF41F0020134
:101D5000B20558BF01465FEA48700D4648BF45F0DE
:101D60000405700558BF0D46300540F17A8018F023
:101D7000700000F076801038000905286CD8DFE884
:101D800000F003655D61596945F0080564E000BF36
:101D900020684FF48071BA0581600BD4780515D4A2
:101DA00038051DD4204600F017FBF8037FF56CAF13
:101DB0001BE000BF204600F011FBF8037FF564AF85
:101DC00013E000BF4FF4006558E700BF05F500556C
:101DD000F8037FF559AF08E04FF480554EE700BF98
:101DE00005F58045F8037FF54FAF20684FF480314B
:101DF000BA0381600AD4780310D4380314D420467F
:101E000000F0EEFA30073FF541AF47E7204600F01B
:101E1000E9FA30073FF53AAF40E700BF05F5004566
:101E200030073FF533AF39E705F5803530073FF52B
:101E30002DAF33E745F080050EE000BF45F02005EB
:101E40000AE000BF45F0400506E000BF45F0100580
:101E500002E000BF45F480752068816921F07001BF
:101E6000816120680421416055B1606A40EA050142
:101E70002046616201B0BDE8F04FFFF727BE00BF0A
:101E800001B0BDE8F08F0000002804BF01207047BA
:101E9000B0B5044690F8200010B9204600F06EF866
:101EA0002068016841F00101016000F05DFD054618
:101EB00020684168C90705D100F056FD401B0B287A
:101EC000F6D310E0016821F00201016000F04CFD42
:101ED000054600BF2068416889070DD500F044FD24
:101EE000401B0B28F6D3606A052140F40030606285
:101EF000012084F82010B0BD217E0268012922F063
:101F0000800208BF80320260617E0268012922F0EF
:101F1000400208BF40320260A17E0268012922F01F
:101F2000200208BF20320260E17E0268012922F00F
:101F3000100218BF10320260217F0268012922F0CE
:101F4000080208BF08320260617F0268012922F09E
:101F5000040208BF04320260D4E901C2D4E90335A7
:101F600061691A432A431143ACF101021143C16173
:101F700000200121606284F82010B0BDB0B586B0A9
:101F8000006846F60002C4F2000200219042CDE94A
:101F90000411CDE90211019134D046F20041C4F29E
:101FA0000001884240F0828040F26421C2F20001C8
:101FB0000A6843F64000C4F20200531C0B6052B999
:101FC00000210091016841F000710160016801F099
:101FD0000071009100990021009150F8101C152407
:101FE00041F0010140F8101C50F8100C142500F0CD
:101FF00001000090009800204FF4C051C4F202008C
:1020000038E000BF43F64000C4F2020000910168CE
:1020100041F080610160016801F0806100910099E8
:1020200040F26421C2F200010A68531C0B6052B9ED
:1020300000210091016841F000710160016801F028
:102040000071009100990021009150F8101C41246A
:1020500041F0020140F8101C50F8100C402500F02F
:102060000200009000980020C4F2020000F5806099
:102070004FF440510191022102910021039103216B
:1020800004910921059101A900F09EFB2846052134
:10209000002200F027FD284600F012FD2046052111
:1020A000002200F01FFD204600F00AFD06B0B0BD82
:1020B0007047000040F28811C2F200010A78002A3D
:1020C00008BF7047F0B589B001F11004511E54F8F3
:1020D0000C2CD2F8F02082421ED0C9B154F8082C42
:1020E000D2F8F020824219D0012911D054F8042CE2
:1020F000D2F8F020824213D0022909D02268D2F807
:10210000F02082420DD004394A1C04F11004DED1C3
:1021100009B0BDE8F04070470C3C02E0083C00E02C
:10212000043C02AA6B460021FFF7D2FC0028EFD145
:10213000216891F8EC20002AEAD0049804282FD1D5
:10214000039BC2F1000CA2F1010E002403E000BFCA
:102150000434A242DCD001EB8405D5F8F80010B1BC
:102160000669B3424CD0A645D2D0D5F8FC0010B1D8
:102170000669B34244D00CEB0406B01CC8D0D5F8B5
:10218000000110B10769BB423AD0F01CC0D0D5F8AD
:1021900004010028DCD00569AB42D9D130E000BF92
:1021A000029BC2F1000CA2F1010E002403E000BF6B
:1021B0000434A242ACD001EB8405D5F8F80010B18C
:1021C0000669B3421CD0A645A2D0D5F8FC0010B1D8
:1021D0000669B34214D00CEB0406B01C3FF498AF70
:1021E000D5F8000110B10769BB4209D0F01C3FF4DB
:1021F0008FAFD5F804010028DAD00569AB42D7D1FA
:102200000168CA686946904709B0BDE8F040704768
:102210007047000040F28811C2F200010A78002ADB
:1022200008BF7047F0B589B001F11004511E54F891
:102230000C2CD2F8F02082421ED0C9B154F8082CE0
:10224000D2F8F020824219D0012911D054F8042C80
:10225000D2F8F020824213D0022909D02268D2F8A5
:10226000F02082420DD004394A1C04F11004DED162
:1022700009B0BDE8F04070470C3C02E0083C00E0CB
:10228000043C02AA6B460121FFF722FC0028EFD193
:10229000216891F8EC20002AEAD0049804282FD174
:1022A000039BC2F1000CA2F1010E002403E000BF69
:1022B0000434A242DCD001EB8405D5F8F80010B15B
:1022C0000669B3424CD0A645D2D0D5F8FC0010B177
:1022D0000669B34244D00CEB0406B01CC8D0D5F854
:1022E000000110B10769BB423AD0F01CC0D0D5F84C
:1022F00004010028DCD00569AB42D9D130E000BF31
:10230000029BC2F1000CA2F1010E002403E000BF09
:102310000434A242ACD001EB8405D5F8F80010B12A
:102320000669B3421CD0A645A2D0D5F8FC0010B176
:102330000669B34214D00CEB0406B01C3FF498AF0E
:10234000D5F8000110B10769BB4209D0F01C3FF479
:102350008FAFD5F804010028DAD00569AB42D7D198
:102360000168CA686946904709B0BDE8F040704707
:1023700070470000B0B5044690F8200001281DD138
:10238000022084F820002068016821F0010101602A
:1023900000F0EAFA054600BF20684068C00713D085
:1023A00000F0E2FA401B0B28F6D3606A40F40030DC
:1023B0006062052084F820000120B0BD606A40F40E
:1023C000002060620120B0BD00206062B0BD00004E
:1023D0007047000070470000704700007047000021
:1023E00070470000704700007047000070B5866DB0
:1023F000044600F0B9FA94F83510022928D10546B0
:102400002068216C026822F016020260426922F004
:102410008002426109B9A16C19B1016821F008017B
:102420000160016821F00101016000BF20680068BF
:10243000C00715D000F098FA401B0628F6D32020DC
:102440006065032084F83500002184F8341070BDE5
:10245000802060650120002184F8341070BD00BF29
:10246000E06D3F2101FA00F0B060012084F83500F2
:102470000020002184F8341070BD000090F8351061
:10248000022909D1052180F835100068016821F082
:1024900001010160002070478021416501207047E3
:1024A000F0B581B00021009140F20801C2F20001B4
:1024B0000B68D0E9166148F2B51537680822C1F6F5
:1024C0004E358A403A42A3FB05350CD003681C68A0
:1024D000640708D51C6824F004041C60B260426DD7
:1024E00042F00102426501228A403A4208D0036864
:1024F0005B691B0604D5B260426D42F00202426580
:1025000004228A403A4208D003681B689B0704D51E
:10251000B260426D42F00402426510228A403A42A3
:1025200019D001680B681B0715D5B2600B680A68E3
:102530005B0309D4D20509D40A6822F008020A60B4
:10254000016C29B907E000BF110341D4016C11B13E
:10255000044688472046C26D202101FA02F33B421F
:1025600043D001680F68FF063FD5B36090F835701F
:102570000B68052F1CD123F016030B604B6923F069
:1025800080034B61036C0BB9836C1BB10B6823F0A8
:1025900008030B603F219140B160012180F83510A4
:1025A000016D0022002980F8342054D158E000BF8A
:1025B0000A685B0310D4D20512D40A6822F0100214
:1025C0000A60012180F83510002180F8341007E0FE
:1025D000816C0029BCD1BEE7110301D4416C00E03D
:1025E000C16B11B1044688472046416DC1B3416DAE
:1025F000C9072ED0052180F835100168AA0A0B689A
:1026000023F001030B60009B0133934200931AD81F
:102610000B68DB0717D0009B01339342009312D85D
:102620000B68DB070FD0009B0133934200930AD85D
:102630000B68DB0707D0009B01339342009302D85D
:102640000B68DB07DFD1012180F83510002180F80D
:102650003410C16C21B101B0BDE8F040084700BFA3
:1026600001B0F0BD2DE9F041044600F07DF9ECB178
:102670000546022084F835000020216884F83400E3
:10268000086820F00100086021680868C00711D0C0
:1026900000F06AF9401B0528F6D903252023032002
:1026A000636584F83550BDE8F08100BF0120BDE8C6
:1026B000F08100BF086848F23F02CFF21002D4E96F
:1026C000013500EA020C04F10C0898E8C10143EA64
:1026D0000C032B431843D4E9072E304338431043EF
:1026E000626A40EA0E00042A40EA08031CD1206B0B
:1026F000D4E90A2E40EA0E00184308604869BEF18A
:10270000000F20F0030040EA020040F0040C11D05A
:10271000B8F5005F36D0B8F1000F45D1022A46D097
:10272000012A3BD032B942E00B60486920F0070033
:1027300040EA020C01F0F8004AF6AB221038CAF663
:10274000AA22A0FB02231A0948F6A413C1F814C058
:10275000C0F600039A5C40F2FF335F284FF03F0061
:1027600021EA030100FA02F088BF0431C4E916121D
:102770008860002301250020636584F83550BDE89A
:10278000F08100BF032AD5D8012540230120DFE8CE
:1027900002F0030E030500BF82E700BFAEF1C07078
:1027A000B0FA80F0400904E0032A04D3C2D1CEF38A
:1027B00000600028BED0012540230120636584F815
:1027C0003550BDE8F08100002DE9F04F83B000F1F5
:1027D000200200F13E4741F60045009207F1FF77E5
:1027E000C4F2020508224FEAB726A84208BF072212
:1027F00000254FF000084FF00009072E38BF4FEAC0
:10280000B72201920AE000BF09F1010908F10208AC
:10281000B9F1100F05F1040500F0A2800F68012244
:1028200002FA09FE17EA0E0AEED0D1F804C003221C
:102830000CF003077E1E02FA08F4012E6FEA040B67
:1028400012D88468CE6804EA0B0406FA08F634430A
:102850008460446824EA0E06CCF3001404FA09F4F8
:102860002643466004E000BF032F01D103271EE08A
:10287000C6688C6806EA0B0604FA08F42643022FA1
:10288000C66014D16FF00302009E02EA590756F8A1
:1028900007C005F01C040F220B69A2402CEA0202BB
:1028A000A3401A43F251D1F804C00CF003070268A8
:1028B00007FA08F302EA0B021A431CF4403F0260D5
:1028C000A2D0002243F644030292C4F202031A6823
:1028D00043F6004442F480421A601A68C4F20104CC
:1028E00002F480420292029A29F003024FF6084C49
:1028F0002244CFF6FF7C52F80C3005F00C070F266F
:10290000BE40B343019E06FA07F73B4342F80C3042
:10291000A2684B6842EA0A0743F60C4CDE0258BF35
:1029200022EA0A07A760C4F2010CDCF800209E022C
:1029300042EA0A0758BF22EA0A07CCF80070626828
:102940009E0342EA0A0758BF22EA0A076760226824
:10295000DB0342EA0A0758BF22EA0A07276053E767
:1029600003B0BDE8F08F000045F24C20C2F2000039
:102970000068704740F2000045F24C21C2F20000AE
:10298000C2F2000100780A68104408607047000035
:1029900080B543F60040C4F20200016841F40071C2
:1029A0000160016841F480610160016841F4807157
:1029B0000160032000F0C2F80F2000F005F800F0DD
:1029C0005DF8002080BD000070B586B0002543F69C
:1029D00040010195C4F202010A68044642F0100267
:1029E0000A60096801A801F0100101910199694686
:1029F00000F066F9049E002E18BF012600F080F951
:102A00004DF68361B040C4F21B31A0FB01014FF0D1
:102A1000FF3000EB914140F2F85041F20002C2F267
:102A20000000C4F2000240F2E733C0E90021C0E92F
:102A300002530561856100F0F9FB08B106B070BD75
:102A400040F2F850C2F2000000F05CFC0028F5D122
:102A5000362000F035F80F2C0CD836202146002205
:102A600000F040F840F204010020C2F200010C60C6
:102A700006B070BD012006B070BD000082B000201D
:102A800043F640010190C4F202014A6842F48042D8
:102A90004A604A6802F480420192019A00900868F4
:102AA000002240F08050086008680F2100F080503C
:102AB000009000986FF0010002B000F013B8000021
:102AC000002848BF704700F01F01012202FA01F1FF
:102AD0001C2202EAD0004EF20012CEF20002815017
:102AE0007047000010B54EF60C5CCEF2000CDCF81E
:102AF0000030C3F3022E8EF00704042C28BF0424F8
:102B0000BEF103034FF0FF3E0EFA04F438BF00237A
:102B1000A14399400EFA03F39A43114300F00F02C8
:102B200000F160430901043A03F56443624400285C
:102B300048BF02F10C03197010BD00004EF60C5195
:102B4000CEF200010A684FF6FF031A4060F30A2232
:102B500042F0806040F0FD7008607047002804BFBC
:102B6000012070472DE9F04143F60808C4F202083D
:102B70000446D8F8F8030D4600F00700884207D253
:102B800088F8F853D8F8F80300F00700A84277D186
:102B90002068810717D5410705D5D8F8001041F402
:102BA000E051C8F80010010705D5D8F8001041F42D
:102BB0006041C8F80010D8F80010A26821F0F001B8
:102BC0001143C8F80010C00740D1D8F8F80300F04E
:102BD0000700A84207D988F8F853D8F8F80300F09E
:102BE0000700A8424CD12068410707D5D8F800104B
:102BF000E26821F4E0511143C8F80010000708D53D
:102C0000D8F80000216920F4604040EAC100C8F80B
:102C1000000000F09DF8D8F8001048F69402C1F3C7
:102C20000311C0F60002515C40F2080220FA01F1E3
:102C300040F20400C2F200000068C2F2000211601B
:102C4000FFF7C2FE0020BDE8F08100BF6068811E72
:102C5000022907D258F8081C89015CBF0120BDE891
:102C6000F08111E0012807D158F8081C89035CBFE6
:102C70000120BDE8F08107E058F8081C890703D45B
:102C80000120BDE8F08100BFD8F8001021F0030159
:102C90000843C8F80000FFF767FE064641F2883790
:102CA000D8F80000616800F00C00B0EB810F8CD008
:102CB000FFF75AFE801BB842F2D90320BDE8F0812D
:102CC0000F22026043F60802C4F20202136803F006
:102CD00003034360136803F0F0038360136803F495
:102CE000E053C360D2F800C04FF4E05303EADC03C2
:102CF0000361D2F8F80300F0070008607047000095
:102D000040F2080043F60801C2F20000C4F20201DA
:102D10000068096848F6A402C1F38221C0F60002E7
:102D2000515CC8407047000040F2080043F60801BB
:102D3000C2F20000C4F202010068096848F6A40269
:102D4000C1F34231C0F60002515CC8407047000038
:102D500010B543F60404C4F20204606800F00C00ED
:102D600008280BD0042819BF42F20040C0F2F4003A
:102D700047F64000C0F27D1010BD00BF20682168FA
:102D80002368490247F64001C0F27D1100F03F027E
:102D9000C3F388105CBF42F20041C0F2F401A1FB12
:102DA00000010023FDF7CEFA21680222C1F30141A0
:102DB00002EB4101B0FBF1F010BD0000002804BFA0
:102DC000012070472DE9F04182B00446007843F6B7
:102DD0000006C007C4F202060CD0B06800F00C0078
:102DE000042840F081803068800303D560680028A3
:102DF00000F06881207880071BD5B06810F00C0FB8
:102E000009D0B06800F00C00082840F08780706896
:102E1000400200F183803068800703D5E068012814
:102E200040F050813068216920F0F80040EAC1008C
:102E300030602078000713D4207840072AD4A56991
:102E4000002D00F03A81B06800F00C00082840F036
:102E5000A580012D40F00E81012002B0BDE8F08177
:102E60006069002800F082800020C4F24720012120
:102E7000C0F8801EFFF778FD054600BF706F800721
:102E8000DAD4FFF771FD401B0228F7D9032002B006
:102E9000BDE8F081306C5FEAC0080AD400200190E0
:102EA000306C40F080503064306C00F08050019005
:102EB000019847F20007C4F200073868C00547D4FC
:102EC000386840F480703860FFF74EFD054600BF5B
:102ED0003868C0053CD4FFF747FD401B0228F7D9EE
:102EE000032002B0BDE8F081B06800F00C000828B3
:102EF00003D1706840023FF576AF61683068B1F584
:102F0000803F07D0B1F5A02F40F09A8040F4802098
:102F10003060306840F4803030609AE0E06800282B
:102F200040F20000C4F247205CD001210160FFF7AD
:102F30001BFD0546306880073FF574AFFFF714FDB1
:102F4000401B0228F6D9032002B0BDE8F08100BF83
:102F5000A168306F012905D0052955D140F0040042
:102F60003067306F40F00100306756E00020C4F257
:102F700047200021C0F8801EFFF7F6FC054600BF81
:102F8000706F80077FF558AFFFF7EEFC401B0228FB
:102F9000F6D9032002B0BDE8F08100BF0027C4F2DB
:102FA000472700203866FFF7DFFC022D05460DD1CC
:102FB0003068800140F18A80FFF7D6FC401B022870
:102FC0004FF00300F4D902B0BDE8F0813068800111
:102FD00073D5FFF7C9FC401B02284FF00300F5D959
:102FE000F1E700BF00210160FFF7BEFC054600BF0E
:102FF000306880077FF51DAFFFF7B6FC401B022845
:103000004FF00300F4D9DEE720F001003067306FA5
:10301000002920F0040030677AD0FFF7A5FC0546B0
:1030200041F28837306F800700F18480FFF79CFC05
:10303000401BB842F6D9032002B0BDE8F08100BFC2
:1030400020F4803030603068002920F48020306027
:103050007AD0FFF789FC0546306880033FF5CAAE99
:10306000FFF782FC401B6428F6D9032002B0BDE8BC
:10307000F08100BF7068E16900F480028A4221D1CA
:10308000216A00F03F028A421CD147F6C071626A91
:103090000140B1EB821F15D1A16A4FF6FF73C9033E
:1030A000994300F44032A1F580318A420AD1E16AA5
:1030B00000F07060B0EB016F04D1002002B0BDE8F9
:1030C000F08100BF012002B0BDE8F08104F11C05D1
:1030D0002FCD084340EA8210D9034FF6FF72914387
:1030E000A1F5803140EA0560084370600120386630
:1030F000FFF73AFC044600BF30688001DDD4FFF7DB
:1031000033FC001B02284FF00300F5D95BE700BF3A
:10311000FFF72AFC054641F2883700BF306F800771
:1031200008D5FFF721FC401BB8424FF00300F5D94A
:1031300049E700BFB8F1000F3FF581AE306C20F0D9
:10314000805030647BE600BFFFF70EFC054600BFF1
:10315000306880037FF54EAEFFF706FC401B642805
:103160004FF00300F4D92EE77047000070470000CD
:1031700090F83C20012A4FF0020254D010B580F89C
:103180003D200268D2F804E0D2F808C00C682EF0A6
:103190007003234341F2FF74C4F20004A24253605F
:1031A0000EDC40F2FF73C4F200039A4216DCB2F167
:1031B000804F2BD040F20043C4F2000324E000BF54
:1031C00040F2FF33C4F201039A4213DC41F60003DC
:1031D000C4F200039A4219D0002313E040F6000322
:1031E000C4F200039A4211D040F60043C4F2000337
:1031F0000AE000BF44F20003C4F201039A4205D082
:1032000040F20043C4F201039A4204D149682CF011
:103210008003194391600121002280F83D1080F85D
:103220003C20BDE81040104670470000002804BF55
:103230000120704710B5044690F83D0028B90020E1
:1032400084F83C00204600F01FF8022084F83D007E
:103250002068211D01F07AF8012084F8460084F8E6
:103260003E0084F83F0084F8400084F8410084F870
:10327000420084F8430084F8440084F8450084F850
:103280003D00002010BD000010B582B0006841F282
:103290000041C4F20001884216D040F60001C4F299
:1032A000000188422CD10020019043F64000C4F276
:1032B000020001681E2441F004010160006800F072
:1032C0000400019001980FE00020009043F64000B8
:1032D000C4F202000168372441F020010160006857
:1032E00000F0200000900098204605210022FFF702
:1032F000F9FB204602B0BDE81040FFF7E1BB00BF7C
:1033000002B010BD90F83D1001291CBF012070478C
:10331000022180F83D10006841F2FF72C168C4F2DA
:103320000002904241F00101C1600DDC40F2FF71EA
:10333000C4F20001884215DCB0F1804F2AD040F27F
:103340000041C4F2000123E040F2FF31C4F2010168
:10335000884213DC41F60001C4F20001884219D012
:10336000002113E040F60001C4F20001884211D0B0
:1033700040F60041C4F200010AE000BF44F200013F
:10338000C4F20101884205D040F20041C4F20101BB
:10339000884206D1816801F00701062904BF002098
:1033A0007047016841F00101016000207047000092
:1033B00090F83C20012A4FF002026CD080B580F8D2
:1033C0003D20D0F800C04FF67772DCF8083023EAD1
:1033D0000202CCF808200B684F2B29DC1F2B45DD9F
:1033E000202B46D0302B44D0402B40F0AF80D1F87A
:1033F00004E0C968DCF82030DCF8202022F001026B
:10340000CCF82020DCF8182022F0F00242EA01116A
:1034100023F00A0242EA0E02CCF81810CCF8202061
:10342000DCF8081041F0470121F0300128E000BF2E
:103430006F2B33DDB3F5005F74D0B3F5805F21D01F
:10344000702B40F08380D1E901E3C968DCF80820E3
:1034500043EA0E0322F47F4243EA01211143CCF8F0
:103460000810DCF8081041F0770109E00BB1102BCF
:103470006CD1DCF8081021F07001194341F007010C
:10348000CCF808100022012180F83D10002180F8BE
:103490003C10BDE880401046704700BF502B21D043
:1034A000602B53D1D1F804E0C968DCF82030DCF897
:1034B000202022F01002CCF82020DCF8182022F482
:1034C000704242EA013123F0A00242EA0E12CCF827
:1034D0001810CCF82020DCF8081041F0670121F02A
:1034E0001001CDE7D1F804E0C968DCF82030DCF841
:1034F000202022F00102CCF82020DCF8182022F055
:10350000F00242EA011123F00A0242EA0E02CCF86C
:103510001810CCF82020DCF8081041F0570121F0F9
:103520002001ADE7D1E901E3C968DCF8082043EAEE
:103530000E0322F47F4243EA01211143CCF8081024
:10354000DCF8081041F480419AE700BF01229AE7B5
:103550007047000070B504460068C5680669B10789
:1035600016D515F0020113D06FF00201016101219F
:1035700021778069800703D02046FFF7E9FF05E047
:10358000204600F08FF8204600F08EF800202077CB
:10359000700719D515F0040016D020686FF00401EB
:1035A000016102212177806910F4407F04D0204618
:1035B000FFF7CEFF06E000BF204600F073F820467C
:1035C00000F072F800202077300717D515F00800BA
:1035D00014D020686FF00801016104212177C069CF
:1035E000800703D02046FFF7B3FF05E0204600F038
:1035F00059F8204600F058F800202077F00619D539
:1036000015F0100016D020686FF01001016108213C
:103610002177C06910F4407F04D02046FFF798FF5F
:1036200006E000BF204600F03DF8204600F03CF8E0
:1036300000202077F00718BF15F0010002D13006F6
:1036400009D412E020686FF001010161204600F00A
:103650002DF8300609D515F0800006D020686FF0EF
:10366000800101612046FFF77FFD700609D515F046
:10367000400006D020686FF040010161204600F054
:1036800025F8B00658BF70BD15F0200008D021689D
:103690006FF0200220460A61BDE87040FFF766BD6A
:1036A00070BD0000704700007047000010B5044670
:1036B000FEF7C0F8206841F20001C4F20001884220
:1036C00018BF10BDBDE81040FFF754B970470000A7
:1036D0007047000070470000B0B582B001680A680A
:1036E000CC684B6902F02F05202D04F0200505D190
:1036F00025B102B0BDE8B04000F0CCBE5FEA027C6C
:103700001EBF03F0010E04F4907313EB0E0341D1BE
:10371000036BD50618D5012B16D114F0100313D066
:10372000002201920A6801924A680192019A49694D
:1037300049064BD4818DC28DC38D002B18BF914299
:1037400040F0068202B0B0BD13062DD514F0800300
:103750002AD090F84120212AF4D18268B2F5805F06
:1037600003D10269002A00F07982026A531C0362C5
:1037700012784A60C28C013A1304C284E2D1C8684C
:1037800020F08000C860C86840F04000C86002B007
:10379000B0BD00BFD30718BF14F4807340F0E280BF
:1037A000530700F1E580EAE05206CBD514F0400261
:1037B000C8D0CA6822F04002CA60202180F84110B7
:1037C00002B0BDE8B04000F0CFBB00BFC26B1168D3
:1037D0004B68858D99B2002900F0B480A94280F031
:1037E000B180C385D169B1F5807F00F0A080016808
:1037F00051E8031F026821F4807142E80313DBB132
:10380000016851E8031F026821F4807142E8031344
:1038100093B1016851E8031F026821F4807142E806
:1038200003134BB1016851E8031F026821F4807152
:1038300042E80313002BDAD1016851E8051F026842
:1038400021F0010142E80513BBB3016851E8051FEF
:10385000026821F0010142E8051373B3016851E8E1
:10386000051F026821F0010142E805132BB301682E
:1038700051E8051F026821F0010142E80513002B01
:10388000DAD11AE0016851E8051F026821F0400111
:1038900042E80513DBB1016851E8051F026821F019
:1038A000400142E8051393B1016851E8051F026821
:1038B00021F0400142E805134BB1016851E8051FB2
:1038C000026821F0400142E80513002BDAD12021E3
:1038D00080F8421000210163016851E8031F02686B
:1038E00021F0100142E80313DBB1016851E8031F26
:1038F000026821F0100142E8031393B1016851E816
:10390000031F026821F0100142E803134BB1016864
:1039100051E8031F026821F0100142E80313002B55
:10392000DAD1C16B04460846FEF760FD204602214D
:103930004163818DC28D891A89B202B0BDE8B04061
:10394000FFF7C6BE8D427FF4FDAED269B2F5807F2F
:103950007FF4F8AE0222426302B0BDE8B040FFF748
:10396000B7BE00BF436C43F001034364530706D561
:10397000BEF1000F03D0436C43F00203436493078E
:1039800006D5BEF1000F03D0436C43F0040343643B
:10399000BCF1000F06D55EEA050303D0436C43F08B
:1039A00008034364436C002B3FF4CCAE920605D56C
:1039B00025B1044600F06EFD216820464969426C3D
:1039C00001F0400102F00802891800F0B98000BF40
:1039D000016851E8031F026821F4907142E8031363
:1039E000BBB3016851E8031F026821F4907142E8FB
:1039F000031373B3016851E8031F026821F4907147
:103A000042E803132BB3016851E8031F026821F455
:103A1000907142E80313002BDAD11AE0016851E8F3
:103A2000051F026821F0010142E80513DBB10168BE
:103A300051E8051F026821F0010142E8051393B126
:103A4000016851E8051F026821F0010142E80513F1
:103A50004BB1016851E8051F026821F0010142E8FD
:103A60000513002BDAD1016B012924D1016851E83B
:103A7000031F026821F0100142E80313DBB1016863
:103A800051E8031F026821F0100142E8031393B1CB
:103A9000016851E8031F026821F0100142E8031396
:103AA0004BB1016851E8031F026821F0100142E8A0
:103AB0000313002BDAD1202180F84210002101638A
:103AC00001684969490640F1C380016851E8051F52
:103AD000026821F0400142E80513DBB1016851E8BA
:103AE000051F026821F0400142E8051393B1016807
:103AF00051E8051F026821F0400142E805134BB16F
:103B0000016851E8051F026821F0400142E80513F1
:103B1000002BDAD1C16B002900F09A8044F289426F
:103B2000C0F60002044608460A65FEF7A7FC002816
:103B30003FF408AEE06B016D02B0BDE8B04008474D
:103B40000446FFF7C7FD0020606402B0B0BD00BFAF
:103B5000891A00BF026852E8032F036822F49072AA
:103B600043E80325BDB3026852E8032F036822F43B
:103B7000907243E8032575B3026852E8032F036887
:103B800022F4907243E803252DB3026852E8032F14
:103B9000036822F4907243E80325002DDAD11AE07D
:103BA000026852E8052F036822F0010243E8052568
:103BB000DDB1026852E8052F036822F0010243E8F4
:103BC000052595B1026852E8052F036822F001022D
:103BD00043E805254DB1026852E8052F036822F03D
:103BE000010243E80525002DDAD1202280F8422089
:103BF00000220263026852E8032F036822F01002D9
:103C000043E80325DDB1026852E8032F036822F080
:103C1000100243E8032595B1026852E8032F0368B8
:103C200022F0100243E803254DB1026852E8032F49
:103C3000036822F0100243E80325002DDAD10222A6
:103C400089B2426302B0BDE8B040FFF741BD00BF9A
:103C500002B0BDE8B040FFF73DBD00BF026A32F8D8
:103C6000023B6FF35F234B60026283E5002804BFD1
:103C70000120704710B5044690F8410028B9002093
:103C800084F84000204600F021F8242084F8410008
:103C90002068C16821F40051C160204600F07AFC20
:103CA0002068016921F490410161416921F02A01F4
:103CB0004161C16841F40051C1600020202160646D
:103CC00084F8411084F84210606310BD2DE9F04380
:103CD00087B0044641F200002168C4F201000026CA
:103CE00081420696CDE904660396029602D007B09B
:103CF000BDE8F08343F630010196C4F202014A693F
:103D000046F2404842F010024A614A6900F57040AC
:103D100002F010020192019A01960A68C4F20208A8
:103D200042F001020A60096801F001010191019964
:103D30004FF4C06102910221CDE9031603210591E0
:103D40000721069102A9FEF73FFD40F2F045C2F2BD
:103D500000054FF000674FF480692846C5E90087E9
:103D6000C5E90266C5E90496C5E90666C5E90866BF
:103D7000FEF778FC002818BFFDF7CAFDE563AC63C9
:103D800040F2505508F17800C2F200054021C5E923
:103D9000000705F10800002280E806022846C5E970
:103DA0000522C5E907226A62FEF75CFC002818BFFD
:103DB000FDF7AEFD252005210022A563AC63FEF7CB
:103DC00091FE2520FEF77CFE07B0BDE8F0830000E1
:103DD000704700002DE9F04381B0044690F841009F
:103DE000202809D100294FF0010018BF002A07D16F
:103DF00001B0BDE8F08300BF022001B0BDE8F08350
:103E00000020606421201D460E4684F841001746BC
:103E1000FEF7AAFDA784E784A1688146B1F5805F1B
:103E200002D1206900285DD037460020E28C21684D
:103E3000002A5DD06A1C24D0002D4AD0804600BFE5
:103E40000868000608D4FEF78FFDA0EB0900A84221
:103E50007AD82168C868F3E717B117F8010B04E0B6
:103E600038F8020B00276FF35F204860E08C0138C0
:103E7000E084E08C0028E3D13AE000BF0A68120633
:103E800009D40A68120606D40A6812065CBF0A68DA
:103E90005FEA0262F2D51FB117F8012B05E000BFFF
:103EA00030F8022B00276FF35F224A60E28C013A60
:103EB000E284E28C002AE4D11AE000BF30F8022B41
:103EC00000276FF35F224A60E28C013AE284E28CC1
:103ED00072B10A68120635D5002FEFD017F8012B02
:103EE000F1E700BF00273046E28C2168002AA1D10B
:103EF000086840061ED42DB3681C14D1086840061B
:103F00002AD40868400627D40868400624D40868E4
:103F100040064FF00000F1D50DE000BF2068C168F9
:103F20000068400618D4FEF71FFDA0EB0900A84268
:103F3000F4D909E00020202184F8411001B0BDE847
:103F4000F08300BFFEF710FD0320202184F841100C
:103F500001B0BDE8F08300BF0020202184F84110AB
:103F600001B0BDE8F083000070470000FEE70000EC
:103F700080B540F2A04046F20041C2F20000C4F217
:103F800000010322002380E80E0000F10C014FF431
:103F9000002C4FF4401E81E8085083618383FDF7B5
:103FA00073FF002808BF80BDBDE88040FDF7B0BCAE
:103FB00080B540F2C84046F60001C2F20000C4F2EB
:103FC00000010322002380E80E0000F10C014FF4F1
:103FD000002C4FF4401E81E8085083618383FDF775
:103FE00053FF002808BF80BDBDE88040FDF790BCAE
:103FF00080B582B00020019043F63000C4F2020088
:104000000168002241F4800101600068052100F48C
:104010008000019001983A20FEF764FD3A20FEF7F7
:104020004FFD462005210022FEF75CFD462002B030
:10403000BDE88040FEF744BD80B544F2452048F617
:10404000AC12C0F60000C0F60002002101F068FCCE
:1040500040F29C41C2F20001086080BD83B00020A4
:1040600043F630010290C4F202010A6842F0800275
:104070000A600A6802F080020292029A01900A68BD
:1040800042F002020A600A6802F002020192019AFA
:104090000090086840F001000860086800F0010026
:1040A0000090009803B0704780B586B040F2B050E1
:1040B00040F600020021C2F20000C4F200025323C5
:1040C00040F2E73C0591CDE90311CDE90011C0E9CB
:1040D0000023C0E9021C01618161FFF7A7F80028F5
:1040E00018BFFDF715FC4FF48050029040F2B0501D
:1040F000C2F2000002A9FFF75BF9002818BFFDF724
:1041000007FC40F2B050C2F200006946FFF730F8F9
:10411000002818BFFDF7FCFB06B080BD80B582B05B
:1041200040F2406041F200420021C2F20000C4F2BD
:104130000002532340F2E73CCDE90011C0E900231F
:10414000C0E9021C8161FFF771F8002818BFFDF774
:10415000DFFB40F24060C2F200006946FFF708F85A
:10416000002818BFFDF7D4FB02B080BD80B540F237
:10417000886041F20001C2F20000C4F20101002394
:104180004FF00C0C4FF4E13280E80E00C0E903332D
:10419000C0E905C3C361FFF769FD002808BF80BD02
:1041A000BDE88040FDF7B4BBFEE70000FEE700007D
:1041B000EFF30980BFF36F8F154B1A681EF0100FD5
:1041C00008BF20ED108A20E9F04F10602DE90900AA
:1041D0004FF0500080F31188BFF34F8FBFF36F8F04
:1041E00002F0A2FC4FF0000080F31188BDE8090046
:1041F00019680868B0E8F04F1EF0100F08BFB0EC67
:10420000108A80F30988BFF36F8F704700BF00BF2B
:104210007800002000000000000000000000000006
:10422000074B19680868B0E8F04F80F30988BFF3BE
:104230006F8F4FF0000080F31188704700BF00BF00
:1042400078000020012001F029FBFBE780B54EF249
:104250001000CEF20000006803F050F9012808BFFA
:1042600080BDBDE8804002F089BD000070B592B00D
:1042700006AC20463021FCF767F9002543F64000E4
:104280000595CDE90355CDE901550095C4F202002D
:104290000168022641F080510160006800F0805002
:1042A0000090009847F200000095C4F200000168F9
:1042B00041F480410160006800F480400090009863
:1042C0000120099010200A9008200E90A820CDE926
:1042D0000F060420119020460696CDE90C65FEF7E6
:1042E0006DFD18B172B600BFFEE700BF0F20CDE92B
:1042F00001064FF4A05004904FF48050059001A89F
:1043000005210395FEF72AFC10B172B6FEE700BF47
:1043100012B070BD4EF68850CEF20000016841F434
:10432000700101607047000040F2B050C2F200001E
:10433000FFF710B940F2F850C2F20000FFF70AB9D7
:1043400040F24060C2F20000FFF704B9B0B540F699
:10435000FF3E0568C4F2000E40F2004C7045C4F206
:10436000010C25DCB0F1804F2FD040F20043C4F2A5
:104370000003984229D040F60003C4F2000398429B
:1043800023D041F6FF73C4F20003984228DC704545
:104390003ADCB0F1804F5BD040F20043C4F200033E
:1043A000984255D040F60003C4F200034EE000BF2F
:1043B00040F60043C4F20003984206D0604504D0A2
:1043C0000023C4F201039842DBD14B6825F0700250
:1043D00043EA020541F6FF73C4F200039842D6DDBA
:1043E00043F6FF73C4F2010398421FDC42F200035C
:1043F000C4F2000398422BD00023C4F20103984278
:1044000026D0604524D028E040F60043C4F20003E3
:1044100098421DD041F60003C4F20003984217D021
:1044200041F60043C4F2000310E000BF44F2000371
:10443000C4F2010398420BD044F60003C4F2010316
:10444000984205D044F20043C4F20103984204D1DB
:10445000CB6825F4407243EA02050A688C684B6910
:10446000C46240F480648262644504BF09690163E8
:10447000026825F0800142F0040219430260012223
:1044800042610160B0BD0000806B0021C185FFF773
:1044900021B9000081B090F84210222921D183680F
:1044A0000246B3F5805F09D152F8281F52F8183C34
:1044B000002B63D003685B680AE000BF52F8281F36
:1044C00013B90369002BF5D003685B6803F07F0321
:1044D0000B70116801311160C18D01390A04C18569
:1044E00002D001B0704700BF0168CA6822F0200204
:1044F000CA60CA6822F48072CA604A6922F0010266
:104500004A61202180F8421000214163026B012A98
:104510003CD10163016851E8031F026821F01001DA
:1045200042E80313DBB1016851E8031F026821F080
:10453000100142E8031393B1016851E8031F0268B8
:1045400021F0100142E803134BB1016851E8031F49
:10455000026821F0100142E80313002BDAD1016850
:104560000A68D20606D5002200920A6800924968BD
:1045700000910099818D01B0FFF7AAB802685268D6
:104580006FF35F2221F8022B8162A5E701B0FFF7EC
:104590001FBC0000B0B50446006804F108030ECB50
:1045A0000569194325F440552A4302616269E369AC
:1045B0001143C268194349F20C639A431143C16025
:1045C0004169A26921F4407141F20043114340F472
:1045D0008062C4F201039A42416103D1FEF7A4FB59
:1045E00002E000BFFEF78CFBE1694FF69C75636843
:1045F0001922C0F6FF75B1F5004FA0FB02011FD1D3
:104600005A00DB0FFBF79EFE48F21F51C5F2EB117B
:10461000A0FB01235A0905F1805302FB030032235A
:1046200003EBC000A0FB01014FF4F87000EA111089
:1046300000EB0210C1F34211084421688860B0BD4C
:104640009A009B0FFBF77EFE48F21F51C5F2EB115B
:10465000A0FB01235A0902FB0500322303EB0010E3
:10466000A0FB0101F02000EA511000EB0210C1F3A1
:104670004311084421688860B0BD000040F28860A2
:10468000C2F20000FFF728B8FEE7000070B582B064
:1046900040F2D016C2F2000606F1200440F240615A
:1046A000C2F20001204600F047FC41F2006040F2F7
:1046B000B051C2F20000C2F2000100F03DFC40F235
:1046C0006C25C2F2000540F2A041C2F2000128466A
:1046D00000F0E4F940F2843040F2C841C2F2000038
:1046E000C2F2000100F0DAF940F6C030C2F2000078
:1046F00005212A46234600F09FFE40F2D060C2F218
:10470000000001212A46234600F096FE40F6842050
:10471000C2F2000004212A46234600F08DFE40F636
:104720000C00C2F2000002212A46234600F084FE5B
:1047300040F64810C2F2000003212A46234600F04A
:104740007BFE40F6FC40C2F2000006212A462346CA
:1047500000F072FE40F63860C2F2000007212A46DF
:10476000234600F069FE40F67470C2F20000082192
:104770002A46234600F060FE9FED0B0A06F10C006E
:1047800040F6B83100F0B6F844F2B5740025C0F632
:104790000004301D05A114224FF48073CDE90045BB
:1047A00000F070FC02B070BD00007A447465737450
:1047B0000000000086B040F2D01BC2F2000B0BF1EB
:1047C0000C00059000F08EF840F2D06440F6386995
:1047D00040F67478C2F2000440F2011AC2F20009F5
:1047E000C2F2000840F20C00C2F200000068CBF8F0
:1047F0001400059800F05CF810EE100A8BED000A2A
:1048000003F042FF0646E06865680F4603F03CFF90
:1048100041EC180B284603F037FF41EC100B21A0A8
:1048200032463B468DED008B8DED020B01F004FE10
:104830009BED000A40F60C00C2F20000A0F834A084
:1048400080ED070A40F64810C2F20000A0F834A03C
:1048500080ED070A40F68420C2F20000A0F834A0E0
:1048600080ED070A40F6C030C2F20000A0F834A084
:1048700080ED070A40F6FC40C2F20000A0F834A028
:1048800080ED070A0120A4F834A084ED070AA9F8F6
:1048900034A089ED070AA8F834A088ED070A00F0D3
:1048A000FDFF9FE725662C25662C25660A00000083
:1048B00010B50446007978B1FEF756F8D4E9032123
:1048C00094ED021A401AB0FBF2F0B1EE410AC007B3
:1048D00008BFB0EE410A10BD9FED010A10BD00BF38
:1048E0000000000010B50446FEF73EF820610120EC
:1048F000207110BD48F6AC02C0F60002083202601A
:104900000022027180ED020AC1607047142100F09C
:1049100090BF00007047000048F6BC02C0F60002DD
:1049200091F8EC300832C0E900215A1C81F8EC20E3
:1049300001EB8301C1F8F80043727047FEDE00000E
:10494000704700002DE9F04F89B0044690F8ED0063
:10495000002861D004F10C0004F1F80904F11E06EE
:104960004FF0000B03AD0DF1080A019008E000BF05
:1049700094F8ED000BF1010B834506F11C064BD2B8
:104980000199CBEBCB0001EB8007387CA84660B1E6
:10499000002500BF36F8150059F820000168896825
:1049A0008847387C01358542F4D3B97E38680029C0
:1049B00019BF0490042003900020796845464FF009
:1049C0000008083705900791CDF818808DF82080F1
:1049D00008E000BF012008F1010800F05FFFB8F116
:1049E000150FC5D2D4F8F000FDF70AF90006F1D092
:1049F000D4F8F00029463A465346FCF7A5FF0028B4
:104A0000B6D000F0FE000228E4D0FCF781FFB8F138
:104A1000150FE7D3ACE700BF09B0BDE8F08F000089
:104A200070B58AB00026CDE905160E21D0F8F00049
:104A30000DF1380E0125099169469EE81050089540
:104A400007958DE81840CDE903C2FCF7CFFF002899
:104A500018BFFCF75DFF0AB070BD000010B504463A
:104A6000D0F8F000FDF786FC002818BFFCF750FFD7
:104A7000D4F8F0000221FCF74FFF002818BFFCF724
:104A800047FFD4F8F0001021FCF746FF002808BFCC
:104A900010BDBDE81040FCF73BBF000070B582B010
:104AA0000E4601251CA1282280230446009501956D
:104AB00000F096FA48F6D800C0F6000008302060F2
:104AC00004F10C00E221FBF73FFD0020C4F8F06088
:104AD000C4E93E00C4E94000C4E94200C4E944001E
:104AE00001F05CFD40F28815C2F200052878411CF7
:104AF000CAB2042A297003D3FCF70AFF28780138C8
:104B000084F8F400C0B205EB8000446001F06AFD57
:104B1000204602B070BD00BF43616E004FF48C713F
:104B200000F087BE000000002DE9F04F81B02DEDB0
:104B30000E8B82B0B1EE401AB5EE400AF1EE10FADB
:104B4000B8BFB0EE410A90ED118A90ED181A38EE18
:104B5000411AA1B1B4EE401AF1EE10FA04DD30EEC4
:104B6000002A31EE421A0AE0B1EE402AB4EE421AAF
:104B7000F1EE10FABCBF30EE002A32EE011A90EDD1
:104B80000BDA90ED043A81EE0D2A90ED091AB5EE9C
:104B9000401AF1EE10FA22EE03BA80ED10BA0FD0EF
:104BA000B4EE41BAF1EE10FA06DCB1EE411AB4EE01
:104BB00041BAF1EE10FA03DAB0EE41BA80ED101A04
:104BC00090ED129A38EE49AA80ED14AAB9B1B4EE6C
:104BD00040AAF1EE10FA05DD30EE001A3AEE41AAD5
:104BE0000BE000BFB1EE401AB4EE41AAF1EE10FAAC
:104BF00005DA30EE001A31EE0AAA80ED14AA90ED23
:104C00000A1AB0EECA2AB4EE412AF1EE10FA03DA1B
:104C10009FED93AA0022026590F8312032B390ED07
:104C2000160A90ED013A3AEE401A90ED024A21EE52
:104C300003CA30EE000A90ED1B1A90ED035A3AEECB
:104C4000400A2AEE043A30EE010A90ED152A20EED1
:104C5000051A3CEE030A30EE010A80ED0D3A80EDB4
:104C60000E1A80ED0FCA30EE020AC3E090ED051A6D
:104C700090ED012AB5EE401A2AEE02CAF1EE10FAC2
:104C800080ED0FCA06D0B0EECA2AB4EE412AF1EE8A
:104C900010FA39DA82465AF8348FB0EE40EA9AEDCB
:104CA000090A83463AEE000A2DEE000A10EE100AB9
:104CB000019103F0E9FC9FED680B53EC102B03F01E
:104CC000F7FA05465AF82C0C0E4603F0DDFC0746B1
:104CD00040460C4603F0D8FC8046894628463146BB
:104CE0003A46234603F0E4FA42464B4603F038FACC
:104CF00041EC100B51EC100B03F000FA0199CAF8CB
:104D000000005846B0EE4E0A90ED061AB5EE401A75
:104D1000F1EE10FA08D090ED0D2AB4EE412AF1EE32
:104D200010FA13DD80ED0D1A90F83020DAB190ED15
:104D3000171A39EE411A51B3B4EE401AF1EE10FAD7
:104D40001ADD30EE000A31EE401A20E0B1EE411AD1
:104D5000B4EE412AF1EE10FAB8BF80ED0D1A90F8CA
:104D60003020002AE3D190ED160A90ED031A3AEEB6
:104D7000400A80EE0D0A0EE0B1EE402AB4EE421A6F
:104D8000F1EE10FABCBF30EE000A30EE011A90EDE1
:104D9000030A81EE0D1A90ED1C3A21EE001A90EDF7
:104DA000080A90ED192AB7EE004A34EE434A24EE81
:104DB000011A23EE022AB5EE400A32EE011AF1EE94
:104DC00010FA80ED0E1A0FD0B4EE401AF1EE10FA80
:104DD00006DCB1EE400AB4EE401AF1EE10FA03DA46
:104DE000B0EE401A80ED0E0A90ED0D0A3CEE000A7E
:104DF00030EE010A90ED072A30EE0B0AB5EE402A9C
:104E0000F1EE10FA80ED130A0FD0B4EE420AF1EE83
:104E100010FA06DCB1EE422AB4EE420AF1EE10FAC4
:104E200003DAB0EE420A80ED132A816D80ED150A97
:104E3000C16680ED16AA80ED179A80ED188A80ED84
:104E4000191A80ED1ACA02B0BDEC0E8B01B0BDE894
:104E5000F08F00BF00BF00BF000000000000E03F77
:104E600000000000B0EEC00AB7EE001A9FED072A5E
:104E7000B4EE410A80F8311080F83020F1EE10FADB
:104E8000B8BFB0EE402A80ED1C2A70470000000039
:104E9000011DB0EEE36AB0EEC33AB0EEE47AB0EED4
:104EA000C55AB0EEC44A81EC040AB0EEE20AB5EE8F
:104EB000402A80ED054A80ED066A80ED073A80EDD4
:104EC000087A80ED095AF1EE10FA80ED0A0A1CBF4B
:104ED000B0EEC20A80ED0B0A70470000742100F0AA
:104EE000A8BC000070470000B0B5044648F6FC00BE
:104EF0000D46C0F60000098908302060481C81B2C8
:104F00001129288102D3FCF703FD288980B205EB23
:104F1000800120468C60B0BDFEDE000070470000BE
:104F200080B54068FEF7EEF9002808BF80BDBDE8F7
:104F30008040FCF7EDBC000070B5044648F6101048
:104F4000C0F600000830C4E90001002604F10C009E
:104F500040212681FBF7F8FA01F020FB40F298157A
:104F6000C2F20005287826810130C1B20E292870CE
:104F700002D3FCF7CDFC2878C0B245F8204001F000
:104F800031FB204670BD00004C2100F052BC0000F7
:104F90007047000082B004780C2C28BFFCF7B8FCE6
:104FA00040F25410C2F2000000EB8405686800284B
:104FB00008BFFCF7ADFC02F0B1FA01AC019002E0D1
:104FC000204601F041FC6868016889688847686884
:104FD000427A017A002AF3D1084600F05FFCF2E73A
:104FE000F0B589B0044600F10A0C48F63410C0F65A
:104FF000000008302060372A28BF37229800082A8E
:1050000098BF082200910021CDE9050244F6957071
:10501000CDE90111CDE90311CDE90711C0F600007A
:105020006A46614600F07CFC0028606008BFFCF71F
:105030006FFC48F62010C0F60000DDE90E5608307F
:10504000206001F0ABFA40F25417C2F20007387842
:10505000411CCAB20D2A397003D3FCF759FC3878C9
:105060000138A072C0B207EB8000446001F0BAFAC8
:10507000012E98BF012626722046657209B0F0BD48
:10508000FEDE0000B0B58AB048F63414C0F6000465
:1050900005460834DDE90E0C2C60372A28BF37227C
:1050A000082A98BF0822019199000DF1180E0023DB
:1050B0008EE80E0001AA6146CDE90233CDE9043342
:1050C000099300F02DFC0028686008BFFCF720FC65
:1050D00028460AB0B0BD0000082100F0AABB0000BD
:1050E0007047000080B590ED080AB6EE002AB5EED4
:1050F000400A90F838C1BEEE001AF1EE10FAB8BFBF
:10510000B0EE412A30EE020ABDEEC00A10EE103AAF
:105110004CF20001CFF6FF7113F5804FC8BF19465E
:10512000B1F5804F4FEA112EA8BF4FF48041B3F57F
:10513000804FACF101039AB203EB923222F00302EA
:10514000C8BF4FF0400E9A1A90F84030D0F83CC0DB
:10515000C3EBC30352000CEB830313FA82F383F80F
:1051600014E090F84030C06BC3EBC30300EB830046
:1051700010FA82F0417580BD10B5044690F83400F5
:10518000022813D0012803D0E0B994ED050A1BE0F2
:1051900094F83500E268E369B0FA80F094ED0C0A07
:1051A000410904F1C400C4E9423208E0A168A269DF
:1051B0009FED0E0A04F1C400C4E942210121FFF76A
:1051C000B3FC01E09FED080A616884ED250A9FEDBC
:1051D000070A04F15000C4F898100021FFF7A4FC5E
:1051E00084ED080A10BD00BF00000000DB0F49403D
:1051F0000A889FED3A1AD2BA00EE102AB8EEC00A19
:1052000080EE010A9FED361A20EE010A80ED020AB7
:105210004A88D2BA02EE102AB8EEC22A80ED012ADC
:105220008A88D2BA02EE102AB8EEC22A80ED042A89
:1052300091F9061002EE101A90F83911B8EEC22A50
:1052400080ED0B2A21B1002180F8391123E000BF45
:1052500090ED0A3A9FED232AB4EE423AF1EE10FAAD
:105260000ADA9FED214AB4EE440AF1EE10FA03DDAA
:10527000416A01390EE000BF9FED1B4AB4EE443A8B
:10528000F1EE10FA07DDB4EE420AF1EE10FA02DA9E
:10529000416A0131416290ED092AB8EEC22A22EE3C
:1052A000012A9FED121A32EE002AB4EE412AF1EEE5
:1052B00010FA80ED032A05DD80ED031A80ED0A0A5D
:1052C000704700BF9FED0A1AB4EE412AF1EE10FAC2
:1052D000B8BF80ED031A80ED0A0A704700F8FF4559
:1052E000DB0FC940DB0FC93FE4CB96400010C94536
:1052F0000010C9C52DE9F0418046C06B90F8EC0064
:10530000092828BFFCF704FB98F8380140F2FF1386
:10531000052838BF4FF4007300F50071D8F83C0041
:10532000C8E9113190F8EDE00021BEF1000F88F8D6
:10533000421047D000F10C0CCEF1000203210025F1
:1053400006E000BF04315418032C05F1700521D08C
:10535000461996F8267017B9F7689F4242D0571839
:10536000022F17D096F8424014B9B46A9C423BD041
:10537000012F0FD096F85E4014B9746C9C4235D062
:1053800047B196F87A40002CDCD1346E9C42D9D1DA
:105390002DE000BF0EF1010180F8ED10CEEBCE0044
:1053A0000CEB800100228A764CF82030082098F817
:1053B00041204860012088F840E008744A82BDE836
:1053C000F08100BF88F8401080F826100821C0E95D
:1053D000033198F84110012280F8ED200277C18353
:1053E000BDE8F081033902E0023900E001398AB2F8
:1053F000C2EBC2020CEB8202137C88F8401001332E
:105400001374CAB2C2EBC2020CEB8202127C052AF0
:1054100005D3FCF77DFAD8F83C0098F84010C9B2E3
:10542000C1EBC10100EB8100017F98F8412000EB46
:1054300041008283BDE8F0812DE9F04F81B02DED70
:10544000048B1D4616468846044600F0B7F83830EF
:105450003146FFF761FA04F14C002946FFF744FD9D
:1054600048F64410C0F6000000F1080900F12801D8
:105470004430E06448F6EC00C0F60000A16300F19F
:105480000807264604F154002821C4F8009046F885
:10549000507FFBF759F841F26F2AC3F6832A4FF485
:1054A000807B04F184004021C4F87CA0A4F880B083
:1054B000FBF74AF8254645F8C47F281D2821FBF74D
:1054C00043F805F134004021C5F82CA0A5F830B010
:1054D000FBF73AF8A8F101010120072985F87500CA
:1054E00002D884F8388103E0FCF712FAD4F800906F
:1054F000D9F80810204688479FED248A30460121BC
:105500000022B0EE480AFFF7ADFC9FED229A9FED16
:10551000223A9FED224ADFED1E0AB2EE040A30461F
:10552000B0EE481AF0EE481AB0EE492AF0EE482ADA
:10553000F0EE433AF0EE444AB0EE445AFFF7A8FCCE
:10554000284600210022B0EE480AFFF78BFC9FEDB1
:10555000163A9FED164A9FED120A9FED121A284641
:10556000F0EE480AF0EE481AB0EE492AF0EE482A6A
:10557000F0EE433AF0EE444AB0EE445AFFF788FCAE
:105580002046BDEC048B01B0BDE8F08F00000000A8
:10559000713D0A3F6F12833A00401C4600409C4513
:1055A0000000C8420AD7A33B00007A440000FA4337
:1055B0004FF49E7100F03DB97047000010B50446ED
:1055C00048F69410C0F6000008302060201D2C2101
:1055D000FAF7BAFF41F20000C4F2C95020634FF459
:1055E00080712046A18610BD382100F022B900004C
:1055F0007047000080B510ED060AB6EE002AB5EE41
:10560000400A90F800C1BEEE001AF1EE10FAB8BFE1
:10561000B0EE412A30EE020ABDEEC00A10EE103A9A
:105620004CF20001CFF6FF7113F5804FC8BF194649
:10563000B1F5804F4FEA112EA8BF4FF48041B3F56A
:10564000804FACF101039AB203EB923222F00302D5
:10565000C8BF4FF0400E9A1A037AD0F804C0C3EBCB
:10566000C30352000CEB830313FA82F383F814E0B4
:10567000037A4068C3EBC30300EB830010FA82F0A7
:10568000417580BD0A889FED3B1AD2BA00EE102A00
:10569000B8EEC00A80EE010A9FED371A20EE010A2B
:1056A00000ED0C0A4A88D2BA02EE102AB8EEC22ADD
:1056B00000ED0D2A8A88D2BA02EE102AB8EEC22A6C
:1056C00000ED0A2A91F9061002EE101A90F8011165
:1056D000B8EEC22A00ED032A21B1002180F80111A1
:1056E00025E000BF10ED043A9FED242AB4EE423AC3
:1056F000F1EE10FA0ADA9FED224AB4EE440AF1EE16
:1057000010FA03DD50F8141C01390EE09FED1C4A1D
:10571000B4EE443AF1EE10FA09DDB4EE420AF1EECD
:1057200010FA04DA50F8141C013140F8141C10ED82
:10573000052AB8EEC22A22EE012A9FED121A32EE95
:10574000002AB4EE412AF1EE10FA00ED0B2A05DD35
:1057500000ED0B1A00ED040A704700BF9FED0A1A16
:10576000B4EE412AF1EE10FAB8BF00ED0B1A00EDCD
:10577000040A704700F8FF45DB0FC940DB0FC93F43
:10578000E4CB96400010C9450010C9C53838FFF772
:10579000B1BD000038384FF49E7100F04AB80000E7
:1057A0007047000010B5044610F8180C022815D0F8
:1057B000012803D000BB14ED0E0A1FE014F8170CEB
:1057C00054F8402C54F8303CB0FA80F014ED070A3D
:1057D000410904F17800C4E92F320AE054F8441C6E
:1057E00054F8342C9FED0D0A04F17800C4E92F2100
:1057F0000121FFF799F901E09FED070A54F8481CD1
:1058000084ED120A9FED050A201DE1640021FFF7D7
:105810008BF904ED0B0A10BD00000000DB0F4940BE
:105820004C384FF49E7100F004B800007047FAF74E
:10583000CBBEFFF7FCBF000001A000F011F800BFD5
:1058400050757265207669727475616C2066756E2C
:105850006374696F6E2063616C6C65642100000085
:10586000FBF73EFEFDF794F8FEF700FDFEF7F6FBB2
:10587000FEF7BEFBFEF77CFBFEF79AFBFEF714FC7F
:10588000FEF74CFCFEF772FC00F018F8FEF7D4FBB4
:10589000FBF7ACFF00F026F8FEE70000EFF3058110
:1058A00000291CBF6FF005007047002804BF0020CE
:1058B000704780B500F088FF002080BDEFF30580C1
:1058C00000281CBF6FF00500704740F26820C2F24C
:1058D00000000168002911BF4FF0FF300121016075
:1058E00000207047EFF3058000281CBF6FF0050013
:1058F000704740F26820C2F20000016801291CBF15
:105900004FF0FF30704780B54EF61F51CEF20001C8
:1059100000220A700221016001F086F8002080BD9B
:10592000F0B585B08C4600230493EFF30581B0B346
:10593000A9BB2AB39469002C08BF1824382C2ED890
:105940001179C9072BD15669D2E902574FEA960E51
:105950001168002E734608BF80231DB35C2F25D32A
:1059600012690023002A18BF002E18D0CDE900428A
:1059700072466346029501F085FD05B0F0BD00BF9B
:1059800080231824002104AF9AB26346CDE9004772
:1059900001F048FD00230499012808BF0B46184672
:1059A00005B0F0BD17B91269002AECD000231846E3
:1059B00005B0F0BD2DE9F041044600F0EFFD40F2E6
:1059C0007806C2F20006F06841F2A0150130F060DE
:1059D0003068C2F2000558B13069002840F00781F4
:1059E0003068E16AC06A884298BF3460FFE000BF57
:1059F0003460F068012840F0FA80284600F074FD19
:105A000005F1140000F070FD05F1280000F06CFDB8
:105A100005F13C0000F068FD05F1500000F064FD68
:105A200005F1640000F060FD05F1780000F05CFD18
:105A300005F18C0000F058FD05F1A00000F054FDC8
:105A400005F1B40000F050FD05F1C80000F04CFD78
:105A500005F1DC0000F048FD05F1F00000F044FD28
:105A600005F5827000F040FD05F58C7000F03CFDFE
:105A700005F5967000F038FD05F5A07000F034FDD6
:105A800005F5AA7000F030FD05F5B47000F02CFDAE
:105A900005F5BE7000F028FD05F5C87000F024FD86
:105AA00005F5D27000F020FD05F5DC7000F01CFD5E
:105AB00005F5E67000F018FD05F5F07000F014FD36
:105AC00005F5FA7000F010FD05F5027000F00CFD10
:105AD00005F5077000F008FD05F50C7000F004FDF9
