:020000040800F2
:10000000A0B500249D030008B97D0008F176000822
:10001000B17D00082109000841B10008000000007E
:1000200000000000000000000000000081800008C7
:10003000D90E000800000000D17D0008B98000083A
:10004000BB030008BB030008BB030008BB03000898
:10005000BB030008BB030008BB030008BB03000888
:10006000F90E0008BB030008BB030008690A00087A
:10007000790A0008890A0008990A0008A90A0008F4
:10008000B90A0008BB030008BB030008490F0008B9
:10009000690F0008590F0008790F0008010F0008C8
:1000A000BB030008BB030008BB030008BB03000838
:1000B00069820008BB03000879820008BB030008BE
:1000C000BB030008BB030008BB030008BB03000818
:1000D000BB030008D9930008BB030008E99300089C
:1000E000E10E0008BB03000800000000BB0300088D
:1000F000A9820008BB030008BB030008BB0300087B
:10010000BB030008BB030008BB030008BB030008D7
:10011000BB030008BB03000889820008998200081D
:10012000BB030008BB030008BB030008BB030008B7
:10013000BB030008BB030008BB030008BB030008A7
:1001400000000000000000000000000000000000AF
:10015000BB030008BB030008BB030008BB03000887
:10016000BB030008BB030008BB030008BB03000877
:10017000BB030008C17D0008BB03000800000000AD
:10018000BB030008BB030008BB030008BB03000857
:10019000BB030008BB030008BB030008BB03000847
:1001A000BB030008BB030008BB03000800000000FD
:1001B000BB030008BB030008BB030008BB03000827
:1001C000BB030008BB0300080000000000000000A3
:1001D0000000000000000000BB0300080000000059
:1001E000000000000000000000000000000000000F
:1001F0000000000000000000BB030008BB03000873
:10020000BB030008BB03000800000000BB0300089C
:10021000BB030008BB030008BB030008BB030008C6
:10022000BB03000800000000BB0300080000000042
:10023000BB030008BB03000800000000BB0300086C
:10024000BB030008BB030008BB030008BB03000896
:10025000BB030008BB030008BB030008BB03000886
:10026000BB030008BB030008BB030008BB03000876
:10027000BB030008BB030008BB030008000000002C
:10028000BB030008BB030008BB030008BB03000856
:1002900000000000BB030008BB03000800000000D2
:1002A00000000000BB030008590A0008BB03000857
:1002B000BB030008BB030008BB030008890F00084C
:1002C000990F0008BB030008BB03000800F002F808
:1002D00000F054F814A696E8000CB244B344DA4592
:1002E00001D100F04BF8BAE80F000FA696E83000F5
:1002F000A5EB040504EB0607AAEB0704A7F1010729
:100300004FEA15154FEA3414A4F10104AC4201D3AD
:1003100000F034F813F0010F18BFFB1A43F001038B
:1003200000F001F8DBE71847B0850100D085010037
:10033000103A24BF78C878C1FAD8520724BF30C811
:1003400030C144BF04680C60704700007047000073
:100350000023002400250026103A28BF78C1FBD8CE
:10036000520728BF30C148BF0B6070471FB517F058
:10037000A3FB00F07BF91FBD10B510BD00F0B2F972
:100380001146FFF7F3FF14F09FFF00F0D0F903B41C
:10039000FFF7F2FF03BC00F09BF900000A4880471A
:1003A0000A4880470A480047FEE7FEE7FEE7FEE707
:1003B000FEE7FEE7FEE7FEE7FEE7FEE70548064943
:1003C000064A074B70470000290F0008918100087A
:1003D000CD020008A0AF0024A0B50024A0B10024E5
:1003E000A0B1002453EA020C00F069802DE9F04B23
:1003F0004FF00006002B1FBFB3FA83F503FA05F494
:1004000024FA05F65E4012BF1643B2FA82F502FAEC
:1004100005F4C5F120051EBF22FA05FC44EA0C04D0
:10042000203556EA044C4FEA144418BF641C4FF0C0
:1004300000084FF00009904271EB030C39D30029FA
:1004400019BFB1FA81F701FA07F6B0FA80F700FA9E
:1004500007F6C7F120071EBF20FA07FC46EA0C0684
:100460002037B6FBF4FCA7EB0507103F07F01F0B86
:10047000CBF120062CFA06F60CFA0BFB44BFB34670
:100480000026202FA4BF5E464FF0000B5BEA060C4F
:1004900008BF4FF0010B19EB0B0948EB0608ABFB4B
:1004A000027C06FB02CC0BFB03CCC01B71EB0C01E6
:1004B000C1E70B46024641464846BDE8F08B13B5FE
:1004C000084318BF4FF0FF300146AFF30080BDE88E
:1004D0001C407047032A40F2308010F0030C00F0FB
:1004E000158011F8013BBCF1020F624498BF11F86E
:1004F00001CB00F8013B38BF11F8013BA2F1040227
:1005000098BF00F801CB38BF00F8013B11F003039E
:1005100000F02580083AC0F0088051F8043B083A02
:1005200051F804CBA0E80810F5E7121D5CBF51F8A4
:10053000043B40F8043BAFF30080D20724BF11F81E
:10054000013B11F801CB48BF11F8012B24BF00F883
:10055000013B00F801CB48BF00F8012B704710B5F4
:10056000203AC0F00B80B1E81850A0E81850B1E86C
:100570001850A0E81850203ABFF4F5AF5FEA027CAB
:1005800024BFB1E81850A0E8185044BF18C918C0DB
:10059000BDE810405FEA827C24BF51F8043B40F87C
:1005A000043B08BF7047D20728BF31F8023B48BF61
:1005B00011F8012B28BF20F8023B48BF00F8012B9F
:1005C000704702F0FF0343EA032242EA024200F0CE
:1005D00024B84FF000020429C0F0128010F0030C80
:1005E00000F01B80CCF1040CBCF1020F18BF00F826
:1005F000012BA8BF20F8022BA1EB0C0100F00DB8D5
:100600005FEAC17C24BF00F8012B00F8012B48BF32
:1006100000F8012B70474FF0000200B513469446D6
:100620009646203922BFA0E80C50A0E80C50B1F14A
:100630002001BFF4F7AF090728BFA0E80C5048BF5E
:100640000CC05DF804EB890028BF40F8042B08BFFC
:10065000704748BF20F8022B11F0804F18BF00F8F8
:10066000012B7047704770477047000008487CB501
:100670007844009007487844009C0546019004E0C7
:100680002046016808448047241DAC42F8D17CBD57
:10069000848201009682010010B500F009F800681C
:1006A00010BD10B5044600F003F8046010BD000052
:1006B000004870471001002410B5002000F040F8F9
:1006C000FFF75AFEBDE81040012000F001B800001D
:1006D00001491820ABBEFEE7260002000048704723
:1006E000100100247546FFF7F9FFAE460500694684
:1006F000534620F00700854618B020B5FFF75EFE90
:10070000BDE820404FF000064FF000074FF0000812
:100710004FF0000BAC46ACE8C009ACE8C009ACE84F
:10072000C009ACE8C00921F007018D46704710B53B
:100730000446AFF300802046BDE81040FFF727BE17
:1007400010B500F00BF8BDE8104000F001B870479C
:10075000002801D0FFF7BCBF7047000010B5002192
:1007600002A000F013F8012010BD000053494741DA
:100770004252543A2041626E6F726D616C20746512
:10078000726D696E6174696F6E00000070B5054628
:100790000C460A2000E06D1C00F011F835B12878F5
:1007A0000028F8D102E0641C00F009F814B12078A8
:1007B0000028F8D1BDE870400A20AFF3008008B5EA
:1007C00069468DF800000320ABBE08BD00000000A4
:1007D000B0B582B041F698140021C2F20044012263
:1007E000012320460025009501950BF03DFD4FF0BB
:1007F0008041022202232046009501950BF034FD32
:1008000020460BF04DFD41F6F0240021C2F20044D9
:10081000032201232046009501950BF025FD4FF0A2
:100820008041042202232046009501950BF01CFD17
:1008300020460BF035FD41F648440021C2F2004449
:10084000052201232046009501950BF00DFD4FF088
:100850008041062202232046009501950BF004FDFD
:1008600020460BF01DFD46F64C20C2F20040006809
:1008700005F04EFF08B100F04FFB46F6B020C2F283
:100880000040006805F044FF08B100F045FB46F663
:10089000E810C2F20040006805F03AFF08B100F02D
:1008A0003BFB42F6A040C2F2004005F0CDFE42F60E
:1008B000F860C2F2004011F023FA01200CF070FC45
:1008C00002B0BDE8B0400BF06FB9000000000000BE
:1008D00040F6D071C2F200410978002908BF704784
:1008E000B0B540F6D474C2F2004400BF2268136869
:1008F000834204D0013904F10404F7D10DE090885B
:1009000058B1002502EB85008068016809688847B6
:100910002268013590888542F4D3BDE8B040704725
:10092000FEE700000000000000207047000000000B
:10093000002070470000000010B541F6787440F6C2
:10094000F831C2F20044C2F200410022204608F011
:1009500023FF40F6F8112046C2F2004108F00CFFD8
:10096000002010BD00000000402940D82DE9F041D2
:1009700040F6C8780446C2F20048D8F80000A0B398
:100980000D46B0F85813B0F85A73FA43114401F504
:10099000007101EBD15202F47E42891A89B2A94258
:1009A00023D3C7F500718EB2AE4210D238446D1A0F
:1009B00000F2571021463246FFF78CFDD8F8007040
:1009C000A119AAB207F25710FFF784FD09E03844D5
:1009D000214600F257102A46FFF77CFD3D44D8F827
:1009E00000706FF35F25A7F85A53BDE8F0417047D8
:1009F000B0B509680446FFF7B7FF41F678752146A0
:100A0000C2F20045284608F0B7FE284608F090FEDE
:100A10000020B0BD00000000002070470000000072
:100A200041F67872C2F20042D2F8BC22D2F8142207
:100A3000002A1CBF0120704710B541F678740A46A1
:100A4000C2F200440146204608F0A6FE2046BDE85A
:100A5000104008F01DBF000042F25420C2F20040D6
:100A600000F0E6BA0000000042F26C30C2F2004032
:100A700000F05EBF0000000042F2E430C2F200402D
:100A800000F056BF0000000042F25C40C2F200409D
:100A900000F04EBF0000000042F2D440C2F200401D
:100AA00000F046BF0000000042F27C20C2F200408D
:100AB00000F03EBF0000000042F2F420C2F200400D
:100AC00000F036BF0000000040F20F42D0F800C036
:100AD000C4F20202944510DC6F22C4F20202944573
:100AE00020DC3F22C4F20202944536DC1022C4F21C
:100AF0000202944554D028224EE040F26F42C4F2E4
:100B0000020294451ADC40F23F42C4F202029445CC
:100B10002ADC40F21042C4F20202944540D040F276
:100B2000284239E09F22C4F20202944525DC70225B
:100B3000C4F20202944533D088222DE040F29F4255
:100B4000C4F2020294451FDC40F27042C4F2020279
:100B5000944525D040F288421EE04022C4F20202B1
:100B600094451DD0582217E040F24042C4F20202E0
:100B7000944515D040F258420EE0A022C4F2020281
:100B800094450DD0B82207E040F2B842C4F2020208
:100B9000944505D040F2A042C4F20202944517D118
:100BA0000CF0F8024AF6AB23103ACAF6AA23A2FBCD
:100BB000033109A35F2AC1F302115B5C40F2FF31EC
:100BC0002CEA0101C36588BF04318165084670477E
:100BD0002CF0FF01F9E700BF000610160006101602
:100BE00070B540F26F44D0F800C0C4F20204D0F8EF
:100BF00058E0A44519DC9F25C4F20205AC4531DC60
:100C00005725C4F20205AC4556DC1025C4F2020596
:100C1000AC4500F092802825C4F20205AC4500F0F6
:100C20008C804025C4F2020584E045F22F45C5F6CC
:100C30000205AC452BDC40F2B745C4F20205AC45D9
:100C400048DC40F27045C4F20205AC4575D040F274
:100C50008845C4F20205AC456FD040F2A045C4F20D
:100C6000020567E040F22745C4F20205AC4540DCCE
:100C7000A025C4F20205AC455FD0B825C4F2020538
:100C8000AC455AD040F21045C4F2020552E045F29C
:100C90006B45C5F60205AC453CDC45F23045C5F672
:100CA0000205AC4549D045F24445C5F60205AC45C0
:100CB00043D045F258453BE05825C4F20205AC4507
:100CC0003BD07025C4F20205AC4536D08825C4F26D
:100CD00002052FE040F2B845C4F20205AC452CD025
:100CE00045F20845C5F60205AC4526D045F21C453F
:100CF0001EE040F22845C4F20205AC451DD040F28A
:100D00004045C4F20205AC4517D040F25845C4F244
:100D100002050FE045F26C45C5F60205AC450CD066
:100D200045F29445C5F60205AC4506D045F280452E
:100D3000C5F60205AC4540F0CC80456EC66E002E6F
:100D4000866E6E601CBFD0E91C566E60A44515DC33
:100D50009F24C4F20204A4452BDC5724C4F20204ED
:100D6000A4454EDC1024C4F20204A44576D0282405
:100D7000C4F20204A44571D040246BE045F22F4434
:100D8000C5F60204A44527DC40F2B744C4F20204CD
:100D9000A44542DC40F27044C4F20204A4455DD094
:100DA00040F28844C4F20204A44557D040F2A04463
:100DB00050E040F22744C4F20204A4453CDCA024E5
:100DC000C4F20204A44549D0B824C4F20204A445E4
:100DD00044D040F210443DE045F26B44C5F60204B5
:100DE000A44553DC45F23044C5F60204A4455FD067
:100DF00045F24444C5F60204A44559D045F258448E
:100E000052E05824C4F20204A44527D07024C4F24E
:100E10000204A44522D088241CE040F2B844C4F265
:100E20000204A4451AD045F20844C5F60204A445BC
:100E30003ED045F21C4437E040F22844C4F202049C
:100E4000A4450BD040F24044C4F20204A44505D0AE
:100E500040F25844C4F20204A4453AD18468C06DFB
:100E600000F01F003F2505FA00F0CEF80800DCF87E
:100E70000000402C20F48020CCF80000CCF8043096
:100E800023D1CCF80820CCF80C1070BD45F26C448E
:100E9000C5F60204A4450BD045F28044C5F6020411
:100EA000A44505D045F29444C5F60204A44510D1EA
:100EB000C46D012504F01F04806805FA04F4CEF81F
:100EC00004404028CCF80430DBD0CCF80810CCF833
:100ED0000C2070BD00000000704700000000000002
:100EE00080B54FF4804002F073FE4FF40040BDE83F
:100EF000804002F06DBE0000042002F069BE0000D8
:100F000080B54FF4807002F063FE4FF40070BDE8CE
:100F1000804002F05DBE0000EFF3108072B600BFAB
:100F2000FEE700000000000044F60C00C5F60200D9
:100F3000016841F00201016050F8081C8904FBD5EA
:100F4000704700000000000042F29050C2F20040E2
:100F500002F0C6B80000000042F29050C2F2004019
:100F600002F0BEB80000000042F23060C2F2004061
:100F700002F0B6B80000000042F23060C2F2004059
:100F800002F0AEB80000000042F2D060C2F20040B1
:100F900002F0A6B80000000042F2D060C2F20040A9
:100FA00002F09EB800000000F0B5D1E900C4D1F80D
:100FB00008E00D692CB14EEA0C04254345F0804C45
:100FC00003E045EA8C4444EA0E0C856ED0F8847048
:100FD000D1E907466B438D6944EA0660D1F814E015
:100FE000CC68054307EB830045EA0E0647F823C0AB
:100FF00046EA04434360CB68002B08BFF0BD47F6C8
:10100000E87C083001320023C0F6010CD71857F8ED
:10101000017CC750CF6804331CF80770BB42F5D37E
:10102000F0BD00000000000070470000000000005C
:1010300001680A68D2032DD50A68B2F1FF3FC8BF24
:101040007047D0F808C003696246013B03618B68B2
:1010500042F8043B82600A68120305D58A68CCF81E
:1010600004200CF108028260C3688BB1D0F804C080
:10107000013BC360634653F8042B4A6043600A682F
:10108000D20205D5DCF804204A600CF10802426067
:10109000026902B170470A6822F480320A600121B5
:1010A00080F82110FFF7C0BFA8B110B5044690F832
:1010B000210028B9002084F82000204600F010F814
:1010C00000206062C4E90100C4E9030060610121FD
:1010D00084F8211010BD01207047000000000000BE
:1010E0002DE9F04182B044F2004104460068C4F6A4
:1010F000020188421CBF02B0BDE8F08144F2DC402E
:1011000042F27C25C5F60200C2F2004540F27008AA
:1011100000260168C4F2020841F400310160006851
:101120004FF4806700F40030019001987A206860E5
:101130002846C5F80080C5E90266C5E90476C5E918
:101140000666C5E9086601F033F908B1FFF7E4FE69
:10115000E56108F11800AC6342F2F425C2F20045E3
:1011600005F1080128607B2068604020C1C1284645
:101170006E62C5E90566C5E9076601F019F908B1AF
:10118000FFF7CAFE9A2005210022A561AC6302F098
:1011900023FF9A2002B0BDE8F04102F00DBF00002D
:1011A0002DE9F041044602F0FFFD14B3054694F822
:1011B0003500022820D140F20F462768C4F202060B
:1011C00040F26F48B7426FF00E00C4F2020817DC1D
:1011D0006F21C4F202018F4223DC3F21C4F20201DD
:1011E0008F4239DC1021C4F202018F4258D02821ED
:1011F00051E00120BDE8F08180206065012040E2DF
:1012000047451ADC40F23F41C4F202018F422ADC1A
:1012100040F21041C4F202018F4241D040F2284115
:1012200039E09F21C4F202018F4225DC7021C4F213
:1012300002018F4234D088212DE040F29F41C4F258
:1012400002018F421FDC40F27041C4F202018F4262
:1012500026D040F288411EE04021C4F202018F42B4
:101260001ED0582117E040F24041C4F202018F42E3
:1012700016D040F258410EE0A021C4F202018F4284
:101280000ED0B82107E040F2B841C4F202018F420B
:1012900006D040F2A041C4F202018F42394607D184
:1012A0003946386820F01E0041F8140B6FF08000BA
:1012B0000A68474500EA0200086019DC9F20C4F272
:1012C0000200874231DC5720C4F20200874256DC1C
:1012D0001020C4F20200874200F091802820C4F25E
:1012E0000200874200F08B804020C4F2020084E0BC
:1012F00045F22F40C5F6020087422BDC40F2B74092
:10130000C4F20200874248DC40F27040C4F202009E
:10131000874274D040F28840C4F2020087426ED007
:1013200040F2A040C4F2020067E040F22740C4F25D
:101330000200874240DCA020C4F2020087425ED057
:10134000B820C4F20200874259D040F21040C4F2E3
:10135000020052E045F26B40C5F6020087423CDCD9
:1013600045F23040C5F60200874248D045F244407D
:10137000C5F60200874242D045F258403BE0582073
:10138000C4F2020087423AD07020C4F202008742C1
:1013900035D08820C4F202002FE040F2B840C4F2F9
:1013A000020087422BD045F20840C5F60200874272
:1013B00025D045F21C401EE040F22840C4F2020055
:1013C00087421CD040F24040C4F20200874216D04F
:1013D00040F25840C4F202000FE045F26C40C5F6FE
:1013E000020087420BD045F29440C5F602008742C6
:1013F00005D045F28040C5F60200874204D1206E38
:10140000016821F480710160386820F001003860C3
:101410003868C0070BD002F0C7FC401B0628F7D382
:1014200020206065032084F83500012029E1206830
:10143000B04210DC6F21C4F2020188421CDC3F2163
:10144000C4F20201884232DC1021C4F20201884257
:1014500050D028214AE040451ADC40F23F41C4F216
:10146000020188422ADC40F21041C4F202018842A3
:1014700040D040F2284139E09F21C4F20201884265
:1014800025DC7021C4F20201884233D088212DE08E
:1014900040F29F41C4F2020188421FDC40F27041D9
:1014A000C4F20201884225D040F288411EE040216A
:1014B000C4F2020188421DD0582117E040F2404199
:1014C000C4F20201884215D040F258410EE0A0213A
:1014D000C4F2020188420DD0B82107E040F2B841C1
:1014E000C4F20201884205D040F2A041C4F20201D8
:1014F000884259D1D4E9161202F01F023F2303FAA1
:1015000002F28A60404559DC9F21C4F20201884200
:1015100014DC5721C4F20201884226DC1021C4F2F7
:101520000201884200F09D802821C4F20201884215
:1015300000F097804021C4F2020190E040F2274180
:10154000C4F2020188421EDCA021C4F202018842DA
:1015500000F08780B821C4F20201884200F0818047
:1015600040F21041C4F2020179E05821C4F20201B4
:10157000884276D07021C4F20201884271D088215D
:10158000C4F202016BE040F22841C4F20201884239
:1015900067D040F24041C4F20201884261D040F27B
:1015A0005841C4F202015AE0D4E9161202F01F02B7
:1015B000012303FA02F24A604045A5DD45F22F41BE
:1015C000C5F60201884216DC40F2B741C4F20201BE
:1015D000884225DC40F27041C4F20201884240D0CA
:1015E00040F28841C4F2020188423AD040F2A04160
:1015F000C4F2020133E045F26B41C5F602018842B4
:101600001DDC45F23041C5F60201884229D045F281
:101610004441C5F60201884223D045F258411CE0FE
:1016200040F2B841C4F2020188421AD045F20841A2
:10163000C5F60201884214D045F21C410DE045F286
:101640006C41C5F6020188420BD045F29441C5F6C3
:101650000201884205D045F28041C5F60201884268
:101660000BD1616EA26EE06E4A6030B1016821F468
:1016700080710160D4E91C014160012084F83500CB
:101680000020002184F83410BDE8F0810000000043
:10169000F0B190F83510022918D180B540F20F4210
:1016A0000168C4F20202914214DC6F23C4F2020307
:1016B000994224DC3F23C4F2020399423ADC10230E
:1016C000C4F20203994258D0282352E08021416598
:1016D0000120704740F26F43C4F2020399421ADCC2
:1016E00040F23F43C4F2020399422ADC40F2104325
:1016F000C4F20203994240D040F2284339E09F23CC
:10170000C4F20203994225DC7023C4F20203994219
:1017100033D088232DE040F29F43C4F20203994264
:101720001FDC40F27043C4F20203994225D040F21C
:1017300088431EE04023C4F2020399421DD058237F
:1017400017E040F24043C4F20203994215D040F240
:1017500058430EE0A023C4F2020399420DD0B823EF
:1017600007E040F2B843C4F20203994205D040F2C8
:10177000A043C4F20203994271D191424FF0040296
:1017800080F8352010DC6F20C4F20200814220DC9A
:101790003F20C4F20200814236DC1020C4F2020075
:1017A000814253D028204EE040F26F40C4F2020044
:1017B00081421ADC40F23F40C4F2020081422ADC3E
:1017C00040F21040C4F2020081423FD040F2284073
:1017D00039E09F20C4F20200814225DC7020C4F26F
:1017E0000200814232D088202DE040F29F40C4F2B6
:1017F000020081421FDC40F27040C4F202008142CC
:1018000024D040F288401EE04020C4F20200814211
:101810001CD0582017E040F24040C4F20200814240
:1018200014D040F258400EE0A020C4F202008142E1
:101830000CD0B82007E040F2B840C4F20200814268
:1018400004D040F2A040C4F202008142086820F0B7
:10185000010008600021BDE88040084670470A6822
:1018600022F00E020A6045F25742C5F6020291428A
:101870000A6822F001020A600EDC45F22F42C5F62A
:101880000202914217DC45F20842C5F6020291427B
:1018900026D045F21C421FE045F27F42C5F6020207
:1018A000914211DC45F25842C5F60202914217D02E
:1018B00045F26C4210E045F23042C5F60202914218
:1018C0000ED045F2444207E045F29442C5F60202CA
:1018D000914205D045F28042C5F6020291421AD1EA
:1018E000D0E9181CD0E916E30A6822F480720A6075
:1018F00003F01F01012202FA01F1CEF80410816EFB
:10190000CCF80410C16E31B10A6822F480720A600A
:10191000D0E91C124A60012180F83510026D0021C7
:10192000002A80F8341096D0904793E7000000001A
:101930002DE9F04381B00021009140F220010446DE
:10194000C2F2004148F2B512C1F64E32A56D0968E7
:1019500040F26F490068C4F20209A1FB0218484531
:101960002E682A6815DC9F21C4F2020188422BDC14
:101970005721C4F2020188424FDC1021C4F2020157
:10198000884278D02821C4F20201884273D04021D5
:101990006CE045F22F41C5F60201884227DC40F297
:1019A000B741C4F20201884243DC40F27041C4F204
:1019B000020188425FD040F28841C4F202018842AD
:1019C00059D040F2A04151E040F22741C4F2020157
:1019D00088423DDCA021C4F2020188424BD0B821EC
:1019E000C4F20201884246D040F210413EE045F286
:1019F0006B41C5F60201884275DC45F23041C5F6FF
:101A00000201884200F0828045F24441C5F602019D
:101A100088427BD045F2584173E05821C4F202015C
:101A2000884228D07021C4F20201884223D0882144
:101A30001CE040F2B841C4F2020188421BD045F2DA
:101A40000841C5F60201884260D045F21C4158E0C9
:101A500040F22841C4F2020188420CD040F24041D9
:101A6000C4F20201884206D040F25841C4F2020199
:101A7000884240F04E84E16D082201F01F018A4047
:101A8000324200F0168140F20F43C4F20203984242
:101A90004FF0040313DC6F27C4F20207B84200F3CF
:101AA00091803F27C4F20207B84200F3D28010278A
:101AB000C4F20207B84200F0F0802827E8E0484569
:101AC00000F38C8040F23F47C4F20207B84200F3B3
:101AD000C78040F21047C4F20207B84200F0DD8030
:101AE00040F22847D4E045F26C41C5F60201884235
:101AF0000CD045F28041C5F60201884206D045F27D
:101B00009441C5F60201884240F003840368E16D08
:101B100001F01F01042707FA01F6164218BF13F05F
:101B200004072CD1022707FA01F6164218BF13F05A
:101B3000020762D1CA40120740F1EB8313F008029A
:101B400000F0E78340F20F42C4F2020290426FF0CD
:101B50001C0200F305836F23C4F20203984200F3D2
:101B600024833F23C4F20203984200F369831023C5
:101B7000C4F20203984200F0BB832823B2E31904A5
:101B80006E605ED4990600F1D88340F20F41C4F232
:101B9000020188426FF0080100F3F5826F22C4F25F
:101BA0000202904200F30E833F22C4F202029042EE
:101BB00000F34D831022C4F20202904200F0BA8377
:101BC0002822B1E39F27C4F20207B84251DC7027F4
:101BD000C4F20207B84260D0882759E040F29F471C
:101BE000C4F20207B8424BDC40F27047C4F202076D
:101BF000B84252D040F288474AE019046E6000F1C2
:101C00009B82990600F1CA8340F20F41C4F202019F
:101C100088426FF0140100F3E2826F22C4F20202E4
:101C2000904200F31B833F22C4F20202904200F371
:101C300087831022C4F20202904200F0A683282279
:101C40009DE3D80300F17983A16C002940F0A983BA
:101C50005FE34027C4F20207B8421ED0582717E0BE
:101C600040F24047C4F20207B84216D040F258474B
:101C70000EE0A027C4F20207B8420ED0B82707E052
:101C800040F2A047C4F20207B84206D040F2B8477B
:101C9000C4F20207B84218BF082307681F4208D0E1
:101CA000036823F004030360AA60626D42F001023E
:101CB000626501228A4032426FD040F20F43C4F283
:101CC0000203984210DC6F23C4F2020398421CDC2A
:101CD0003F23C4F20203984232DC1023C4F2020311
:101CE000984251D028234AE048451ADC40F23F434D
:101CF000C4F2020398422ADC40F21043C4F2020309
:101D0000984241D040F2284339E09F23C4F20203B5
:101D1000984225DC7023C4F20203984234D0882311
:101D20002DE040F29F43C4F2020398421FDC40F2D0
:101D30007043C4F20203984226D040F288431EE06A
:101D40004023C4F2020398421ED0582317E040F209
:101D50004043C4F20203984216D040F258430EE0CA
:101D6000A023C4F2020398420ED0B82307E040F249
:101D7000B843C4F20203984206D040F2A043C4F232
:101D80000203984240F0E081436903F0800323B1ED
:101D9000AA60626D42F00202626504228A40324209
:101DA0006FD040F20F43C4F20203984210DC6F235D
:101DB000C4F2020398421CDC3F23C4F2020398429F
:101DC00032DC1023C4F20203984251D028234AE0A7
:101DD00048451ADC40F23F43C4F2020398422ADC31
:101DE00040F21043C4F20203984241D040F228432B
:101DF00039E09F23C4F20203984225DC7023C4F229
:101E00000203984234D088232DE040F29F43C4F26D
:101E1000020398421FDC40F27043C4F2020398426E
:101E200026D040F288431EE04023C4F202039842C9
:101E30001ED0582317E040F24043C4F202039842F8
:101E400016D040F258430EE0A023C4F20203984299
:101E50000ED0B82307E040F2B843C4F20203984220
:101E600006D040F2A043C4F20203984240F07281CF
:101E7000036803F0020323B1AA60626D42F004021A
:101E80006265102202FA01F131427DD040F20F4228
:101E9000C4F2020290424FF0080210DC6F23C4F239
:101EA000020398421CDC3F23C4F20203984232DC56
:101EB0001023C4F20203984251D028234AE0484537
:101EC0001ADC40F23F43C4F2020398422ADC40F29B
:101ED0001043C4F20203984241D040F2284339E053
:101EE0009F23C4F20203984225DC7023C4F202034C
:101EF000984234D088232DE040F29F43C4F202037D
:101F000098421FDC40F27043C4F20203984226D08C
:101F100040F288431EE04023C4F2020398421ED0E0
:101F2000582317E040F24043C4F20203984216D00F
:101F300040F258430EE0A023C4F2020398420ED0B0
:101F4000B82307E040F2A043C4F20203984206D04F
:101F500040F2B843C4F20203984218BF0422036857
:101F6000134211D0A96001684903016806D4C9056C
:101F700006D4016821F00801016001E0080352D491
:101F8000216C09B120468847E06D00F01F01202038
:101F900000FA01F2324200F0A68040F20F432068BE
:101FA000C4F2020398424FF0100310DC6F27C4F212
:101FB0000207B8421CDC3F27C4F20207B84236DCF5
:101FC0001027C4F20207B84255D028274EE04845F2
:101FD0001ADC40F23F47C4F20207B8422EDC40F25E
:101FE0001047C4F20207B84245D040F228473DE00E
:101FF0009F27C4F20207B84229DC7027C4F2020707
:10200000B84238D0882731E040F29F47C4F2020737
:10201000B84223DC40F27047C4F20207B8422AD02B
:1020200040F2884722E0A16C0029ABD1ACE7402701
:10203000C4F20207B8421ED0582717E040F24047CA
:10204000C4F20207B84216D040F258470EE0A0276B
:10205000C4F20207B8420ED0B82707E040F2A0470A
:10206000C4F20207B84206D040F2B847C4F20207F1
:10207000B84218BF022307681F4234D0AA6094F800
:102080003520042A026816D122F016020260426945
:1020900022F080024261226C0AB9A26C1AB1026875
:1020A00022F0080202603F208840A860012084F8E6
:1020B0003500216D27E1510301680CD4C9050ED408
:1020C000016821F010010160012084F83500002032
:1020D00084F8340003E0080301D4616C00E0E16B94
:1020E00009B120468847606D002800F01281606DBC
:1020F000C0071CD0042084F8350020684FEA9821DE
:10210000026822F001020260009A013200928A42C3
:1021100002D80268D207F7D10068C0074FF0030069
:1021200008BF012084F83500002084F83400E16CF9
:10213000002940F03681ECE0D80300F12F81616C7A
:10214000002940F02E81E4E003680023002B7FF497
:102150001FAE22E603680023002B7FF48DAE90E6CD
:1021600048454FDC40F23F43C4F20203984200F37B
:10217000828040F21043C4F20203984200F0B8801B
:1021800040F22843AEE048454BDC40F23F42C4F207
:102190000202904278DC40F21042C4F20202904205
:1021A00000F0C88040F22842BEE09F23C4F2020340
:1021B000984272DC7023C4F20203984200F09880C7
:1021C00088238FE09F22C4F2020290426CDC7022CE
:1021D000C4F20202904200F0AD808822A4E048459B
:1021E00069DC40F23F42C4F20202904200F3AF8049
:1021F00040F21042C4F20202904200F0C68040F267
:102200002842BCE040F29F43C4F20203984261DCE2
:1022100040F27043C4F20203984269D040F288430E
:1022200060E040F29F42C4F20202904274DC40F24D
:102230007042C4F2020290427CD040F2884273E0C5
:102240004023C4F20203984252D058234AE040226D
:10225000C4F2020290426DD0582265E09F22C4F27F
:10226000020290427CDC7022C4F20202904200F032
:102270008C80882283E040F24043C4F202039842FB
:1022800036D040F258432DE040F24042C4F2020200
:1022900090424FD040F2584246E0A023C4F20203DD
:1022A000984225D0B8231DE0A022C4F20202904239
:1022B00040D0B82238E040F29F42C4F2020290427D
:1022C00055DC40F27042C4F2020290425DD040F20E
:1022D000884254E040F2A043C4F20203984207D07F
:1022E00040F2B843C4F20203984218BF6FF00E02E6
:1022F00003681A400260012000FA01F1696060651C
:1023000084F83500E16C00294FF0000084F83400B7
:1023100047D101B0BDE8F08340F2A042C4F202020E
:10232000904207D040F2B842C4F20202904218BF75
:102330006FF00401026811400160216C89BBE8E77D
:102340004022C4F2020290421FD0582217E040F20D
:102350004042C4F20202904217D040F258420EE0CE
:10236000A022C4F2020290420FD0B82207E040F24D
:10237000A042C4F20202904207D040F2B842C4F236
:102380000202904218BF6FF00A010268114001601A
:10239000012084F83500002084F83400E16B002926
:1023A000B7D0204601B0BDE8F04308470000000068
:1023B0002DE9F041044601F0F7FCECB140F26F4822
:1023C00005462068C4F20208404518DC9F21C4F28B
:1023D000020188422EDC5721C4F20201884254DCFB
:1023E0001021C4F2020188427ED02821C4F20201E9
:1023F000884279D0402172E00120BDE8F08145F2A9
:102400002F41C5F60201884227DC40F2B741C4F2F1
:102410000201884245DC40F27041C4F20201884268
:1024200062D040F28841C4F2020188425CD040F29E
:10243000A04154E040F22741C4F20201884240DC4E
:10244000A021C4F2020188424ED0B821C4F2020198
:10245000884249D040F2104141E045F26B41C5F657
:102460000201884200F3B88045F23041C5F602010E
:10247000884200F0C38045F24441C5F6020188421B
:1024800000F0BC8045F25841B4E05821C4F202018A
:10249000884229D07021C4F20201884224D08821C8
:1024A0001DE040F2B841C4F2020188421CD045F25E
:1024B0000841C5F60201884200F0A08045F21C41A7
:1024C00098E040F22841C4F2020188420CD040F268
:1024D0004041C4F20201884206D040F25841C4F2A1
:1024E0000201884240F0DE80022184F8351000218C
:1024F00084F83410016821F001010160206801684E
:10250000C9070CD001F050FC401B0628F6D3202050
:102510006065032084F835000120BDE8F08148F2B1
:102520003F0204F108070168CFF6106211406669A6
:102530008CCF1143D4F818C01943E3693943276A93
:102540000E43616A3343042943EA070343EA0C0359
:1025500003D1D4E90B7637433B436568A5F12906DF
:10256000292E00F2A1800127DFE806F015151515C8
:1025700015159E9E9E9E9E9E9E9E9E9E9E9E9E9E8D
:102580009E9E151515159E9E9E9E15159E9E9E9EA1
:102590009E9E15151515002F18BF43F480130429AE
:1025A0000360426922F0070241EA020140F0908094
:1025B000D4E90A53002B41EA050100F08980BCF5FB
:1025C000005F5FD0BCF1000F68D1022D74D0012DE7
:1025D0005ED0002D70D072E045F26C41C5F602016C
:1025E00088420BD045F28041C5F60201884205D0F1
:1025F00045F29441C5F60201884253D104F1080E18
:10260000022184F83510002184F834100168A36990
:102610009EE80450A2F18005E769B5FA85F5666980
:102620006D09402A4FEA853543EA07026FF310111E
:1026300042EA060208BF102541EADC0142EA0E0226
:102640002943236A41EAD2014AF6F832CAF2FD72FE
:102650004CF6CD470244CCF6CC4741EA1311A2FB1D
:10266000072301606FF0030000EA9300E065204655
:10267000FEF72AFAE16D012201F01F0102FA01F1D1
:10268000416030E0032D1AD8DFE805F00A160A028F
:10269000A3F1C072B2FA82F2520911E0032D0AD2FC
:1026A00001220DE0402033E725F00302743AB2FA2C
:1026B00082F257096FE702D1C3F3006200E0002203
:1026C00032B140206065012084F83500BDE8F0811A
:1026D00041612046FEF7F8F9E16D3F2201F01F014C
:1026E00002FA01F181602068404519DC9F21C4F2A3
:1026F0000201884231DC5721C4F20201884256DCD3
:102700001021C4F20201884200F092802821C4F214
:102710000201884200F08C804021C4F2020184E072
:1027200045F22F41C5F6020188422BDC40F2B74149
:10273000C4F20201884248DC40F27041C4F2020156
:10274000884275D040F28841C4F2020188426FD0BD
:1027500040F2A041C4F2020167E040F22741C4F216
:102760000201884240DCA021C4F2020188425FD00D
:10277000B821C4F2020188425AD040F21041C4F29A
:10278000020152E045F26B41C5F6020188423CDC91
:1027900045F23041C5F60201884249D045F2444134
:1027A000C5F60201884243D045F258413BE058212A
:1027B000C4F2020188423BD07021C4F20201884277
:1027C00036D08821C4F202012FE040F2B841C4F2B1
:1027D000020188422CD045F20841C5F60201884228
:1027E00026D045F21C411EE040F22841C4F202010D
:1027F00088421DD040F24041C4F20201884217D005
:1028000040F25841C4F202010FE045F26C41C5F6B6
:10281000020188420CD045F29441C5F6020188427B
:1028200006D045F28041C5F60201884240F0D080D2
:1028300045F2574C45F6FC01C5F6020CC5F60201FF
:1028400060450EDC45F22F43C5F60203984217DCC3
:1028500045F20843C5F60203984226D045F21C43D0
:102860001FE045F27F43C5F60203984211DC45F2B2
:102870005843C5F60203984217D045F26C4310E066
:1028800045F23043C5F6020398420ED045F2444368
:1028900007E045F29443C5F60203984205D045F29D
:1028A0008043C5F60203984250D100F0FC034CF679
:1028B000CD47083BCCF6CC47A3FB0737A1F1FC057D
:1028C000A1F17C063B0905EB83022266A26803F0B6
:1028D0001F030127802A666607FA03F2A26601D168
:1028E000002262606268A56ED4E91876D3B2013A1C
:1028F000072A3B60756015D85E1E072E62D86045BA
:1029000001F1440213DC45F22F47C5F60207B84235
:102910003CDC45F20847C5F60207B8424BD045F209
:102920001C4744E000206067C4E91B0050E045F20A
:102930007F47C5F60207B84231DC45F25847C5F675
:102940000207B84237D045F26C4730E000F0F80398
:102950004AF6AB27103BCAF6AA27A3FB073740F27B
:102960000F43C4F2020308253E09984203F1AA026C
:10297000334688BF05EB171340F600059042C4F2BA
:10298000020528BF334605F180069CE745F2304733
:10299000C5F60207B8420ED045F2444707E045F2BB
:1029A0008047C5F60207B84205D045F29447C5F600
:1029B0000207B84213D101EB8300E06601202267D1
:1029C000B040606704F16C02002307CA03604A60EC
:1029D00000206065012184F83510BDE8F08140F6E3
:1029E0000000C4F2020000F1FC0100F5A072E2E771
:1029F00038B1B0B5054690F83400012803D1022063
:102A0000B0BD01207047012085F8340095F83500ED
:102A1000012828D1022085F8350000206865286843
:102A2000046824F0010404602846FEF7D9F840F257
:102A30000F422868C4F2020240F26F419042C4F291
:102A4000020118DC6F23C4F20203984224DC3F2306
:102A5000C4F2020398423ADC1023C4F20203984203
:102A600059D0282352E04FF400606865002085F8B3
:102A700034000120B0BD88421ADC40F23F43C4F26A
:102A8000020398422ADC40F21043C4F20203984247
:102A900041D040F2284339E09F23C4F20203984218
:102AA00025DC7023C4F20203984234D088232DE041
:102AB00040F29F43C4F2020398421FDC40F270438D
:102AC000C4F20203984226D040F288431EE040231D
:102AD000C4F2020398421ED0582317E040F240434C
:102AE000C4F20203984216D040F258430EE0A023ED
:102AF000C4F2020398420ED0B82307E040F2B84374
:102B0000C4F20203984206D040F2A043C4F202038A
:102B1000984240F0238103680B2464F3440303606C
:102B20002B6C1BB10823046823430360884219DC23
:102B30009F23C4F20203984231DC5723C4F20203FC
:102B4000984256DC1023C4F20203984200F09180B0
:102B50002823C4F20203984200F08B804023C4F281
:102B6000020384E045F22F43C5F6020398422BDCB2
:102B700040F2B743C4F20203984248DC40F270438B
:102B8000C4F20203984274D040F28843C4F20203B4
:102B900098426ED040F2A043C4F2020367E040F2D4
:102BA0002743C4F20203984240DCA023C4F202038C
:102BB00098425ED0B823C4F20203984259D040F242
:102BC0001043C4F2020352E045F26B43C5F6020320
:102BD00098423CDC45F23043C5F60203984248D0A7
:102BE00045F24443C5F60203984242D045F25843A9
:102BF0003BE05823C4F2020398423AD07023C4F257
:102C00000203984235D08823C4F202032FE040F239
:102C1000B843C4F2020398422BD045F20843C5F6EC
:102C20000203984225D045F21C431EE040F228439F
:102C3000C4F2020398421CD040F24043C4F20203A3
:102C4000984216D040F25843C4F202030FE045F216
:102C50006C43C5F6020398420BD045F29443C5F687
:102C60000203984205D045F28043C5F6020398421C
:102C70006ED12B6E1C68E40303D51C6844F4807489
:102C80001C60EB6E1BB11D6845F480751D609042A1
:102C900010DC6F21C4F2020188421CDC3F21C4F227
:102CA0000201884232DC1021C4F2020188424FD076
:102CB00028214AE088421ADC40F23F41C4F2020176
:102CC00088422ADC40F21041C4F2020188423FD01F
:102CD00040F2284139E09F21C4F20201884225DCFC
:102CE0007021C4F20201884232D088212DE040F2E6
:102CF0009F41C4F2020188421FDC40F27041C4F2DD
:102D00000201884224D040F288411EE04021C4F2F2
:102D1000020188421CD0582117E040F24041C4F221
:102D20000201884214D040F258410EE0A021C4F2C2
:102D3000020188420CD0B82107E040F2B841C4F249
:102D40000201884204D040F2A041C4F2020188424C
:102D5000016841F0010101600020B0BD0368052455
:102D600064F3430303602B6C002B3FF4DFAE0423BA
:102D7000D9E6000000000000B0B5044601F014F8E8
:102D800040F206110546C2F20041621C097818BFE4
:102D90000C4400BF01F008F8401BA042FAD3B0BDBC
:102DA00090F89830013B012B0BD80068836D0B42E3
:102DB0000CD0836D0B408B420CD1C36D43F00203EA
:102DC00009E000F19C010120022221E0C36D43F0E3
:102DD000010300E00323C3658B0504D5D0F8E03080
:102DE0001343C0F8E0304B0504D5D0F8E4301A4363
:102DF000C0F8E4204FF6FF72436DC3F6CF720A406D
:102E00001A4342658A0F4AF614010020C4F20001F9
:102E10000B681A430A607047B0B5044690F89800F2
:102E200002281AD12068D0F8C03013F07C5F19D086
:102E3000D0F8C4309B021AD4D0F8C400C0F30445C3
:102E400020462B46FEF7B0F820680121A940C0F8C3
:102E5000D0100020C4F89410B0BDD4F89C0040F00D
:102E6000080008E0D4F89C0040F0200003E0D4F80B
:102E70009C0040F40070C4F89C000120B0BD00002C
:102E8000704700000000000090F89820013A012AE5
:102E90000BD880B50A68002ACA680ED00B69072AC9
:102EA00043EA427E16D18B6919E0D0F89C1041F0BC
:102EB0000201C0F89C1001207047072A18D10A6946
:102EC000D1E906C3120442EA032242EA0C0242F0AC
:102ED000605217E0D1F808C04B6943EA8C73006F69
:102EE000496800EBC10240F831E05360002080BD2A
:102EF0008B68D1E904CE9B0743EAC26242EA0C42E6
:102F000042EA0E024968C06E40F82120002080BDD0
:102F100010B5044600F0E0FD2046BDE8104000F08A
:102F2000BFBD00000000000070470000000000006E
:102F300070B590F89850022D11D1402914D1046831
:102F4000D4F8A05015F4FE0F2BD0D4F8A4506D0681
:102F50002CD0D4F8A450ED0130D4002531E0D0F8C5
:102F60009C1041F0080125E041290FD10468D4F8F4
:102F7000B05015F4FE0F14D0D4F8B4506D0615D02F
:102F8000D4F8B450ED0126D4002527E0056D8D421C
:102F900007D900F17C04D0F854E04FF0000C0D4646
:102FA00026E0D0F89C1041F0200103E0D0F89C10FE
:102FB00041F48071C0F89C10012070BDD4F8A0507D
:102FC000ED0FD4F8A440C4F3052404EB050E00F182
:102FD0007404456C0BE0D4F8B050ED0FD4F8B44055
:102FE000C4F3052404EB050E00F17804C56CF44627
:102FF00005FB0EF6246854F8265015F08045556000
:1030000054F826E02EF0604508BFCEF38A4504EB65
:10301000860E156054F8265005F00055956054F85A
:10302000264004F000441461BEF80440D461BEF8A8
:10303000064014F00F04D460DEF8044004F4801459
:103040005461DEF8044004F4001494619EF80740D3
:1030500004F07F041462DEF804404FEAD474546232
:103060000ED00EF1080547F6E87E0024C0F6010EEA
:103070002E5D1E550134D6681EF80660B442F7D3A3
:10308000402904D10068C0F8A8C0002070BD4129C3
:1030900004D10068C0F8B8C0002070BD1F2907D84F
:1030A0000068012202FA01F1C0F89810002070BDFA
:1030B000006801F01F01012202FA01F1C0F89C1022
:1030C000002070BD000000000068D0F8C40000F0CF
:1030D0003F00704700000000704700000000000043
:1030E0002DE9F04F89B004464AF61000C4F2000002
:1030F00001684AF61400C4F200000268206802EA7F
:103100000108056DD0F85490036D0293436D01934F
:10311000036D0493436D0393036D0893436D07930D
:10312000036D0693436D0593D0F854A0D0F850B0CA
:103130005FEACA530ED51BF480710BD04FF4807137
:1031400001654AF610010020C4F200010860204623
:10315000FFF7C2FF05EA09064AF610095FEA4A507E
:10316000C4F200094FEA887711D51BF480600ED0B5
:103170002068D0F8DC10D0F8E42011404FF48062D1
:1031800002650020C9F80000204600F0FDFCDDE9E2
:10319000011000EA010506F4704657B120680021CD
:1031A000016508F00300C9F8000020463946FFF722
:1031B00067FEDDE9031000EA010705F00F0546B1DF
:1031C0002068314606650020C9F80000204600F05E
:1031D000E3FC07F0F00645B12068294605650020AC
:1031E000C9F80000204600F0D3FB46B12068314604
:1031F00006650020C9F80000204600F00DFC5FEADB
:103200000A500CD51BF4006009D020684FF400610F
:1032100001650020C9F80000204600F0C1FC5FEA0B
:103220008A5011D51BF400700ED02068D0F8D81049
:10323000D0F8E02011404FF4007202650020C9F878
:103240000000204600F0A4FC5FEA0A300CD51BF415
:10325000002009D020684FF4002101650020C9F842
:103260000000204600F090FB5FEACA300CD51BF44A
:10327000803009D020684FF4803101650020C9F802
:103280000000204600F07CFC5FEA4A30DDE90510D2
:1032900000EA01050CD51BF4802009D020684FF40A
:1032A000802101650020C9F80000204600F064FC80
:1032B0005FEA8A30DDE9071000EA010005F060717D
:1032C0000FD51BF400320CD022684FF40033136585
:1032D0000022C9F80020D4F89C2042F08002C4F8F3
:1032E0009C2000F0715539B1206801650020C9F8B3
:1032F00000002046FFF718FE4DB12068056500204C
:10330000C9F80000D4F89C002843C4F89C00206849
:10331000A9F50161884209D0D4F89C00002867D043
:10332000204609B0BDE8F04FFFF7F2BD6068816844
:103330008907F1D0016A426A036A476A114003EAC9
:10334000070202F03005D0F82080D0F82490D0F8A1
:1033500020B0D0F824A0026A089211F00F01426A4E
:103360000792466A026A069203D00162204600F084
:10337000F7FB08EA09072DB1606829460562204677
:1033800000F0F6FB70060BEA0A0607F4C0750ED5CE
:10339000069810F040000AD060684023C16BC26BF1
:1033A000090C02F03F020362204600F0DDFBDDE97C
:1033B000071000EA010706F4FC462DB160682946B3
:1033C0000562204600F0C8FB07F4F02036B16168C2
:1033D0000E62D4F89C103143C4F89C1000289BD096
:1033E00061680862D4F89C100843C4F89C0093E715
:1033F00009B0BDE8F08F000040B32DE9F04F83B075
:103400004AF200080446C4F200080068404502D1B0
:1034100008F58070606094F8980028B9002084F85E
:103420009900204600F0CCF92068816921F0100154
:10343000816100F0B9FC054620688169090707D55C
:1034400000F0B2FC401B0B28F6D312E001207047BD
:10345000816941F00101816100F0A6FC054600BFD1
:1034600020688169C90711D100F09EFC401B0B2820
:10347000F6D30120D4F89C100843C4F89C00032024
:1034800084F89800012003B0BDE8F08F816941F015
:1034900002018161217C826922F04002012918BF6A
:1034A00040328261617C826922F48042012908BF36
:1034B00002F580428261A17C826922F48052012956
:1034C00018BF02F580528261816921F44073D4E90A
:1034D00002120B438361836923F0A40383610369B0
:1034E00023F0100303619AB1012A0DD0022A09D0FA
:1034F0008369032A43F080038361036943F0100268
:10350000026105D1202200E0042283691A4382610E
:10351000D4E90572E369561E6FF0FF02256A02EBDB
:103520000323B1F5407F43EA4663A5F1010646EA6D
:10353000030640F20003CFF6FF7303EB074746EAAA
:103540000701C16110D1D4E90B65D4E90917013F26
:1035500002EB06226FF00F063A4306EB05173A43DB
:1035600003EB01411143C160236E2BB1616ED0F8B2
:10357000C0201143C0F8C010E16DCDE90113D9425C
:1035800047F6E831C0F6010109D0D0F8C820A36E93
:1035900022F0070251F823301A43C0F8C820D4F8AB
:1035A00040A0BAF1000F09D0D0F8BC20636C22F023
:1035B000070251F823301A43C0F8BC20D4F848C0A1
:1035C000BCF1000F0AD0D0F8BC20E36C22F07002EE
:1035D00051F8233042EA0312C0F8BC20D4F850B0AE
:1035E000BBF1000F0AD0D0F8BC20636D22F4E0627A
:1035F00051F8231042EA0121C0F8BC10404504D123
:1036000061688A6822F003028A600021C4F894107D
:10361000C4F89C10012184F8981004F13409D0F802
:1036200084104FF6FC729143656C99E80C0200958A
:1036300041EA8201C0F88410D0F8841021F47F019F
:1036400041EA0341C0F884109918D0F888306FF32C
:103650008F0343EA8103C0F88830D0F8883023F420
:10366000FE0343EA0943C0F8883001EB4903D0F870
:10367000A0606FF38F0646EA8306C0F8A060D0F81A
:10368000A06026F4FE0646EA0A46C0F8A06005FBE4
:103690000A36D0F8B0306FF38F0343EA8603C0F8E0
:1036A000B030D0F8B03023F4FE0343EA0C43C0F846
:1036B000B030E36CD0F8AC506FF38F0503FB0C66B1
:1036C00045EA8605C0F8AC50D4F8548008FB0B6579
:1036D000D0F8F0606FF38F0646EA8506C0F8F06018
:1036E000D0F8F0E0A66D2EF47C1747EA0647C0F844
:1036F000F070F70007EB8507D0F8C0506FF38F0527
:103700002F43C0F8C070D0F8C070009D27F47C171C
:1037100005FB0AF5DDF804A003FB0C5347EA0A4752
:10372000C0F8C0704AF20007D0F8C0E0C4F2000749
:10373000DDF808C007F5406707EB820207EB81015F
:103740002EF07C5747EA0C67C0F8C07001EBC90047
:1037500008FB0B372167A16E00EB8505606700EB66
:103760008303E266C4E91E530AFB01F300EB870002
:103770000CFB01F1C4F8800000EBC600C4F8840023
:1037800000EB8300C4F8880000EB81004DF2FC31AF
:10379000C4F20001C4F89000884201D9202069E6F3
:1037A000824208D2002000BF42F8040BD4F89010E7
:1037B0008A42F9D367E6002003B0BDE8F08F00002D
:1037C000B0B5B6B0044602A8B8210025CDE93455FD
:1037D000CDE932553195FCF71EFF4DF200412068CE
:1037E000C4F20001884244D04AF20041C4F2000110
:1037F000884275D04AF20001C4F20001884240F0CC
:10380000BE80002003901D9002A84FF40041029159
:1038100001F04AFC08B1FDF77FFB40F2405144F251
:10382000E040C2F20041C5F602000A68002A02F137
:1038300001020A6008D1C16841F48071C160C168A9
:1038400001F48071019101990168152441F008018A
:1038500001600068132500F0080001900198032022
:10386000319040F20040C5F60200092100F50060E9
:103870006CE04FF40040029002A803951D9501F002
:1038800013FC08B1FDF748FB40F2405144F2E04020
:10389000C2F20041C5F602000A68002A02F10102E4
:1038A0000A6008D1C16841F48071C160C16801F447
:1038B0008071019101990168A02441F0200101600B
:1038C00000689F2500F0200001900198C0203190F1
:1038D00040F20040C5F60200022100F5805035E0BC
:1038E000002003901D9002A84FF40041029101F0C6
:1038F000DBFB08B1FDF710FB40F2405144F2E04021
:10390000C2F20041C5F602000A68002A02F1010273
:103910000A6008D1C16841F48071C160C16801F4D6
:103920008071019101990168162441F00201016042
:103930000068142500F00200019001984FF44050F7
:10394000319040F200400921C5F60200359131A9BD
:10395000022232920022CDE9332200F045F90521FE
:103960000022284600F038FB284600F025FB052100
:103970000022204600F030FB204600F01DFB36B050
:10398000B0BD000000000000704700000000000013
:10399000012920D140F6B871C2F20041097800290E
:1039A00008BF704710B58CB040F6BC74C2F200443A
:1039B0002268D2F83021824204D0013904F1040493
:1039C000F6D105E002AA6B464021FFF7B1FA18B123
:1039D0000CB0BDE810407047206890F82C21002AF8
:1039E000F6D0DDE9021C00F59C7403E0013A04F115
:1039F0000404EDD020680028F8D0C3686345F5D1F1
:103A0000D0E9053E0B407345F0D1026853686A4621
:103A10009847DDE700000000102920D140F6B8717A
:103A2000C2F200410978002908BF704710B58CB078
:103A300040F6BC74C2F200442268D2F830218242BF
:103A400004D0013904F10404F6D105E002AA6B4662
:103A50004121FFF76DFA18B10CB0BDE81040704776
:103A6000206890F82C21002AF6D0DDE9021C00F530
:103A70009C7403E0013A04F10404EDD020680028AE
:103A8000F8D0C3686345F5D1D0E9053E0B407345D6
:103A9000F0D1026853686A469847DDE700000000ED
:103AA00090F8981001290CD1022180F89810016833
:103AB0008A6922F001028A610021C0F89C10084640
:103AC0007047D0F89C1041F00401C0F89C10012010
:103AD000704700000000000090F89810022928D1DB
:103AE00001688A6942F001028A618A69D20706D1B7
:103AF000342200BF013A24D08B69DB07FAD08A69EF
:103B000022F010028A618A69120706D5342200BFAA
:103B1000013A16D08B691B07FAD48A6942F0020277
:103B20008A610021C0F89410012280F8982008468C
:103B30007047D0F89C1041F00801C0F89C1001209B
:103B40007047D0F89C1041F00101C0F89C1003218F
:103B500080F89810012070477047000000000000B6
:103B600070470000000000007047000000000000E7
:103B700070470000000000007047000000000000D7
:103B800070470000000000007047000000000000C7
:103B900070470000000000007047000000000000B7
:103BA000704700000000000090FAA0F0B0FA80F02A
:103BB0000F2888BF704741F20C01C2F2004151F852
:103BC000200010B101680968084770470000000034
:103BD0008821C5F600010A68024208BF70470860E4
:103BE000FFF7E2BF000000002DE9F04F82B00C6843
:103BF000002C00F0C58000F1264242F2004502F19F
:103C0000FF728305C5F602050A27A84243EA9222FD
:103C100008BF0927082A40F2040E38BF1746C5F628
:103C2000000E002200974FF0030C0026002709E049
:103C300001370C6834FA07F306F1020602F10402B8
:103C400000F09E80012303FA07FA14EA0A09EFD074
:103C5000D1F804B00BF00304A4F10108B8F1010F8E
:103C600011D8D0F808800CFA06F3CD6828EA0303CF
:103C7000B5402B438360CBF30015436823EA0A0366
:103C8000BD402B434360032C1DD0C3680CFA06F5DE
:103C9000AB438D68B540022C43EA0503C36012D1E3
:103CA0006FF0030302F01C0503EA57030F240344DB
:103CB00004FA05FAD3F820800C6928EA0A08AC4017
:103CC00044EA08041C6203680CFA06F44D68A34336
:103CD00005F0030415F4403F04FA06F443EA040334
:103CE0000360A5D044F2F44440F2084AC5F6020449
:103CF000C5F6000A0F25236843F0020323602368FA
:103D000003F00203019327F00303019C02F00C046B
:103D100053F80A80A54028EA0508009D05FA04F436
:103D200044EA080443F80A404FF0B04ADAF8008049
:103D30004C6848EA0905E30258BF28EA0905A302CE
:103D4000CAF80050DEF8008048EA090558BF28EAA2
:103D50000905A303CEF80050DEF8808048EA090583
:103D600058BF28EA0905E403CEF88050DEF87C301D
:103D700043EA090558BF23EA0905CEF87C5057E706
:103D800002B0BDE8F08F00000069084018BF0120B4
:103D90007047000000000000002A08BF090481618C
:103DA00070470000000000004AF2AC70C2F2004010
:103DB000006870470000000040F206104AF2AC7143
:103DC000C2F20040C2F2004100780A681044086064
:103DD000704700000000000080B5032000F02CF9BF
:103DE00002F002F844F2184147F66443C5F60201B6
:103DF000C0F601030A68C2F303229A5C096801F065
:103E00000F0102F01F02595CD04040F22402C2F2BE
:103E1000004201F01F0120FA01F1116040F220017F
:103E2000C2F2004108600F2000F00AF800281CBF11
:103E3000012080BD00F0A8F8002080BD0000000037
:103E40000F2847D8B0B58AB0044636200022214654
:103E5000002500F0C1F8362000F0AEF840F208105E
:103E6000C2F20040046044F2E840C5F60200016876
:103E700041F010010160006801A900F010000290FB
:103E8000029802A801F0FCFE079C002C18BF012438
:103E900001F04AFF4DF68361A040C4F21B3141F2AC
:103EA0000002A0FB010142F63850C2F200404FF080
:103EB000FF33C4F20002026003EB9141C0E9011537
:103EC00040F2E731C0E9031502F02AFB20B10120DE
:103ED0000AB0B0BD0120704742F63850C2F200402F
:103EE00002F016FC0AB0B0BD10B54EF6A05E4178E7
:103EF000CEF2000E90F800C04EF8081CDEF800105C
:103F000021F00101CEF8001041684EF8041C017B3D
:103F1000C37A827A447B1B0643EA0171837B41EAC0
:103F2000C241C27B41EA8441447A41EA4341007A7A
:103F300041EA024141EA042141EA400040EA0C0022
:103F4000CEF8000010BD00004EF62450CEF2000066
:103F5000BFF35F8F016821F48031016000210167A8
:103F600070470000000000004EF6245140F00100B0
:103F7000CEF200010867086840F480300860BFF3A3
:103F80004F8FBFF36F8F704781B044F2F44000222F
:103F9000C5F60200016841F00201016000680F21CE
:103FA00000F0020000906FF00100009B01B000F0F3
:103FB00013B8000000000000002848BF704700F060
:103FC0001F01012202FA01F14EF200124009CEF265
:103FD000000242F82010704770B54EF60C5C4FF0AE
:103FE000FF36CEF2000C00F1604505F56445DCF8C3
:103FF0000030C3F3022E8EF00703042B28BF0423E6
:10400000BEF1030406FA03F321EA030100F00F03F3
:1040100038BF0024043B0028634406FA04F048BF7C
:1040200003F10C05A14022EA0000084300012870BA
:1040300070BD0000000000004EF60C514FF6FF036B
:10404000CEF200010A681A4060F30A2242F0806052
:1040500040F0FD700860704701680122C0F8D82464
:10406000002280F8CC24886940F000608861486DA7
:1040700040F08052002042F003024A657047000081
:104080007047000000000000026800205162704785
:10409000B0B5D0F800E0DEF82400D1B1DEF8283069
:1040A000B1F1010C00EB13430BD05FFA8CF10EF56C
:1040B0008070002450F8045F01348C4203EB1543F8
:1040C000F8D30EEB8C0043EA0241C0F80411002043
:1040D000B0BD40EA0240CEF828000020B0BD00008C
:1040E000D0F8E00405F034BE01EBC10200EB82021F
:1040F000D0F8E004126A05F093BD00000000000053
:1041000001EBC10200EB8202D0F8E004D2F8602299
:1041100005F0DEBD00000000D0F8E00405F01CBE94
:1041200010B54AB2044601F00F00B2F1FF3F00EBB8
:10413000C00104EB810205DD02F51571002382F850
:10414000553203E002F114010123537594F89424CD
:104150000870012A01D1022010BD012084F89404C6
:10416000206806F049FB002084F8940410BD00008C
:10417000B0B50279044601F00F00904201D9012048
:10418000B0BD49B2B1F1FF3F09DD00EBC001002332
:1041900004EB810202F5157182F8553207E000EB5D
:1041A000C001012304EB810202F11401537594F85C
:1041B000942400258D70012A087001D10220B0BD21
:1041C000012084F89404206806F0A6FC284684F8B0
:1041D0009454B0BD0000000001F00F0101EBC101DB
:1041E00000EB8100D0F8680270470000000000007A
:1041F00070B54CB2064601F00F00B4F1FF3F00EB82
:10420000C00107DD06EB8104002504F5157184F873
:10421000555206E006EB810C01240CF114018CF8D8
:1042200015404D7808706FF3DF228A60002D0B7106
:1042300018BF4883022B01D10020487196F89404DE
:10424000012801D1022070BD012086F89404306855
:1042500006F0F2F9002086F8940470BD000000001A
:1042600080B501F00F0E0EEBCE0100EB810C0021AA
:10427000CCE998238379CCF868128CF855120CF5A8
:104280001571012B8CF854E208BFCCF8702200683D
:104290001A4606F089FC002080BD000000000000E6
:1042A000B0B50446007901F00F05854201D901201F
:1042B000B0BD48B2B0F1FF3F09DD01EBC100002203
:1042C00004EB800000F5157180F8552207E005EB3E
:1042D000C500012204EB800000F11401427594F83E
:1042E000942401208870012A0D7001D10220B0BDF4
:1042F00084F89404206806F037FC2DB9A179206871
:1043000004F29C4206F0D8FB002084F89404B0BD6F
:1043100010B501F00F0C01240CEBCC0100EB810E69
:10432000714601F814CF4FF0000CC1F814C090F89A
:1043300006C04C70CA60BCF1010F0B6108BFCEF81B
:1043400030200068624606F02FFC002010BD0000FF
:104350002DE9F04F89B005688246284606F0A4FD95
:1043600010B109B0BDE8F08FDAF8000006F0CCFD1E
:104370000028F6D0D5F80808C0F30D20CAF8D404F8
:10438000DAF8000006F0C0FD800705D5DAF8000075
:10439000416901F002014161DAF8000005F50066AB
:1043A00006F0B2FDC00605953ED5DAF80000816939
:1043B00021F0100181612C6A04F00F05C4F3434021
:1043C000062819D0022828D147F6F07014EA000810
:1043D00023D005EBC5004FEA18140AEB80070598B7
:1043E0002246D7F8601206F093FDD7F8600200EB82
:1043F0001810C7F8600207E00AF29C4108220598ED
:1044000006F086FDC4F30A1405EBC5000AEB800034
:10441000D0F868122144C0F86812DAF80000816907
:1044200041F010018161059DDAF80000039606F065
:104430006BFD000340F10381DAF8000006F040FD57
:10444000002800F0FC8006464FF4306800244FF04E
:10445000000B0AF29C40089009E000BF0BF1010B31
:10446000760808F1200804F1240400F0E880F00741
:10447000F4D05FFA8BF9DAF80000494606F03CFD0B
:104480000746C0075AD005EB080001218160DAF821
:10449000000008EB0001036C8A689AF80650012DB1
:1044A00018D1150729D4950642D412F0280F059D7E
:1044B00044D1AC4643F20B05C4F65475AB42C0F090
:1044C000A18012F4004200F09D804FF4004088600B
:1044D000654633E043F20B05C4F65475FF35AB4235
:1044E00019D1100426D49006059D01D5202088609E
:1044F00050464946FFF704FE20E043F20B00059DBD
:10450000C4F65470834219D312F4004016D04FF40D
:104510000040886012E034B9DAF8641219B9002159
:10452000089A06F0C9FA50464946FFF7E9FD04E04B
:10453000202001E04FF400408860059D380729D510
:1045400005EB08000821816043F20B01DAF8000056
:10455000C4F65471056C40448D42816805D311F452
:1045600000411CBF4FF400418160504600F0ECFB5D
:1045700043F20B00C4F654708542059D0AD39AF8A5
:104580000600012806D1DAF800000121089A06F099
:1045900093FA00BFF80607D4B8070BD4B80624D4A2
:1045A000B8047FF55BAF27E005EB080010218160C0
:1045B000B807F3D56869000604D50399486840F444
:1045C000806048600AEB040090F85712012906D178
:1045D000002180F857125046494600F0D1FA05EB09
:1045E000080002218160B806DAD505EB0800202119
:1045F0008160B8047FF532AF05EB08004FF400513D
:1046000081602BE70AEB0402002C6546D2F8743275
:1046100009696FF3DF41A3EB0101C2F868127FF46F
:1046200067AFD2F864322BB1D2F860020844C2F806
:1046300060025DE70121089A06F03EFA58E7DAF8D1
:10464000000006F061FC4003DDF80CB040F1E480AE
:10465000DAF8000006F02CFC002800F0DD800646A9
:10466000002705F5106004900AF29C400290CDF8F6
:1046700018A004E0760807F1010700F0CD80F007EC
:10468000F8D0F9B2DAF80000A846089106F020FC4C
:104690000446C007049D09D1200731D4E00635D473
:1046A000600639D4A0073DD452E000BF07F00F00E8
:1046B000012305EB4712DBF8341003FA00F021EA7E
:1046C0000000CBF8340093609AF80600012811D15D
:1046D00007EBC7000AEB8000D0E907121144016222
:1046E00047B9406A30B9DAF800000121029A06F0B1
:1046F000E3F900BF50460899FFF7F6FC2007CDD537
:1047000005EB471008218160E006C9D505EB47108D
:10471000102181606006C5D505EB471040218160FE
:10472000A00715D54046394606F08AFB07EBC700BF
:104730000AEB800010F8171F012905D10021017034
:104740005046089900F018FA05EB471002218160E5
:10475000200645467FF58EAF07EBC7000AEB8000C9
:10476000814659F8241FC84658F8042F9142FFF497
:1047700081AF8346DAF80030891A5BF81C2F91422A
:1047800038BF0A4603EB471107930332D1F81839B3
:104790009BB2B3EB920F27D301F5106A00F120050D
:1047A000D8F80000D9F8001081421DD9081A0699DE
:1047B000DBF80040A0428A7938BF0446296800929D
:1047C000A3B2DDE9070206F09BFC286820442860BC
:1047D000D8F800002044C8F80000E01CDAF81810EF
:1047E00089B2B1EB900FDBD2D9F80000D8F80010F5
:1047F0008842DDF80CB0DDE9055A3FF63BAF079A79
:1048000007F00F00012101FA00F0D2F8341821EA74
:104810000000C2F834082DE7DAF8000006F074FB57
:10482000B0F1FF3F1ADCDBF8040020F00100CBF808
:1048300004009AF8CC04012807D100208AF8CC049F
:1048400000215046FFF71CFC02E0504600F060FAE1
:10485000DAF80000416901F000414161DAF8000036
:1048600006F052FB00050CD5DBF80800C00702D0AB
:10487000504600F091FADAF80000416901F4006155
:104880004161DAF8000006F03FFB000117D5DAF8C5
:104890000000416901F0006141619AF8CC1419B13E
:1048A000504600F079FA0AE001218AF8CC14406DF4
:1048B000C0F38300CAF8D0045046FFF7E1FBDAF8F2
:1048C000000006F021FBC0045CD5DBF804001021D9
:1048D00020F00100CBF80400DAF8000006F0B0FA8E
:1048E0009AF80400D8B105F510614FF67F3200BF89
:1048F0008A6001380B6823F400130B60C1F80822AA
:10490000D1F8003223F40013C1F80032D1F800329C
:1049100043F00063C1F8003201F12001E8D1DBF877
:104920001C0040F00110CBF81C009AF80F0040B1B9
:10493000DBF8840040F00B00CBF884000BF144005E
:1049400008E0DBF8140042F22B010843CBF8140016
:104950000BF1100001680AF29C4241F00B0101606A
:10496000DBF8000020F4FE60CBF800009AF8061097
:10497000DAF8000006F0A0F8DAF80000416901F466
:1049800080514161DAF8000006F0BEFA80041CD5BF
:10499000DAF8000005F094FEDAF8000006F074FA88
:1049A0008AF80700DAF8004001F096F99AF8072033
:1049B0000146204606F01CFB504600F095F9DAF857
:1049C0000000416901F400514161DAF8000006F08D
:1049D0009BFA000708D5504600F09EF9DAF800006F
:1049E000416901F008014161DAF8000006F08CFA33
:1049F000000628D50599886920F0800088619AF81A
:104A0000040002281FD3012440F27B2506E000BFEA
:104A10009AF8040001342435844214D21AF80500AF
:104A20000128F5D104F00F00220600EBC0000AEBCC
:104A3000800000F1140158BF00F51571DAF800008C
:104A400006F0AEF9E4E7DAF8000006F05DFAC0021D
:104A500030D59AF80400022826D305980AF13C05BF
:104A600000F512640126012706E000BF9AF8040051
:104A700001372034874217D22846216815F8242BA5
:104A8000012AF3D1B1F1FF3FF0DC07F00F0100F88C
:104A9000016C01EBC1010AEB810000F11401DAF8AD
:104AA000000006F07DF9E1E7DAF80000416901F461
:104AB00080114161DAF8000006F026FA800234D550
:104AC0009AF8041002292AD30598013900F53260BA
:104AD0000AF51F72012303E0013900F120001ED006
:104AE0001746066812F8245B012DF5D1B6F1FF3F99
:104AF000F2DCDAF8D45485EA1646F607ECD1059EC6
:104B000007F8013CB76947F08007B76177693F064E
:104B1000E2D4DBF8040040F40070CBF80400DAF8CB
:104B20000000416901F400114161DAF8000006F06B
:104B3000EBF9400008D55046FFF7D2FADAF800004A
:104B4000416901F080414161DAF8000006F0DCF9CA
:104B500040077FF506ACDAF800004468600702D52C
:104B60005046FFF7D9FADAF8000041682143416066
:104B700009B0BDE8F08F0000D0F8E00405F050B9AE
:104B8000D0F8E00405F064B9002862D010B582B016
:104B9000044690F8950428B9002084F8940420462F
:104BA00000F06AF8032084F89504206805F07CFF83
:104BB000D4E9000194F810C0D4E90223CDF800C074
:104BC00005F08EFD00283ED12068002106F0C8F9CE
:104BD000C8BB207960B300EBC00000214FEA800E13
:104BE0004FF0010C00230022E01824339E4502758B
:104BF000C28502F1010280F815C00176C16101622F
:104C00004162F1D100210022002300BFA01824320C
:104C1000964580F8543203F1010380F8551280F86C
:104C20005812C0F85C12C0F86012C0F86412EDD1DE
:104C3000D4E9000194F810C0D4E90223CDF800C0F3
:104C400005F03EFE38B1022084F89504012002B040
:104C500010BD0120704700206074012084F8950485
:104C6000207B012802D12046FFF7F6F9206805F0E5
:104C700017FE002002B010BD10B5B0B0044602A867
:104C8000B821FBF7C8FC00212068C4F20401884267
:104C900001D030B010BD002003904FF4802002906E
:104CA0004FF44010239002A800F0FEF908B1FCF781
:104CB00033F900F0B1F844F2D8400022C5F6020002
:104CC000016841F0007101600068052100F000708A
:104CD000019001984D20FFF77FF94D20FFF76CF907
:104CE00030B010BD0000000010B5C179044621B1FC
:104CF000022901D0FCF710F90121D4F8E00405F0F5
:104D000033F9D4F8E004BDE8104005F0E1B8000044
:104D1000D0F8E00405F00CB9D0F8E00405F014B9BF
:104D200010B5044690F89404012801D1022010BD6A
:104D3000012084F894046174206806F045F900208D
:104D400084F8940410BD0000D0F8E02400F29C41E7
:104D5000104605F021B9000010B5044690F89404FF
:104D6000012801D1022010BD2068012184F894148B
:104D7000C168490606D5617B012903D1816B41F4E5
:104D80008031816306F054F8206805F079FD002039
:104D900084F8940410BD000010B50446D0F8E00477
:104DA00005F052F92068D0F8001E41F00101C0F86A
:104DB000001EE07A002808BF10BD4EF61050CEF25B
:104DC0000000016841F00601016010BD0000000014
:104DD000B0B544F60C05C5F60205296849072968EF
:104DE00005D401F00701081A18BF0120B0BD21F059
:104DF000070108432860FEF7D7FF044655F8080C62
:104E0000800407D4FEF7D0FF001BB0F57A7FF5D9F8
:104E10000120B0BD0020B0BD44F60C00C5F6020074
:104E2000016841F0807101607047000000000000DF
:104E300080B500F051FF44F2204147F66442C5F6C8
:104E40000201C0F601020968C1F30211515C01F0D0
:104E50001F01C84080BD000080B544F2384EC5F641
:104E6000020E5EF8103C5EF8101C5EF80C2CC1F3CC
:104E7000053CDEF80410BCF1000F15D0C908D206BD
:104E800001EAE2716FF35F3100EE101A03F00301E3
:104E90000229B8EE400A0CD071B95EF8381C8906B8
:104EA0000DD49FED351A18E000218160C0E9001192
:104EB00080BD9FED301A10E09FED2D1A0DE05EF8D9
:104EC000381C49F20002C0F2D032C1F3C10122FA0B
:104ED00001F101EE101AB8EE411ADEF800109FED54
:104EE000273A6FF35F2102EE101ADEF80010C1F3CB
:104EF0004621B8EE422A00EE032A00EE10CAB7EEB1
:104F0000003AB8EE400A81EE000A32EE031A02EED1
:104F1000101AB8EE422A20EE010A32EE031A80EE91
:104F2000011ABCEEC11A80ED001ADEF80010C1F3C0
:104F3000064101EE101AB8EE411A31EE031A80EE66
:104F4000011ABCEEC11A80ED011ADEF80010C1F39F
:104F5000066101EE101AB8EE411A31EE031A80EE26
:104F6000010ABCEEC00A10EE101A816080BD00BFBD
:104F70000024744A20BCBE4B0024744C000000394D
:104F800080B544F2404EC5F6020E5EF8183C5EF85D
:104F9000181C5EF8142CC1F3055CDEF80410BCF19B
:104FA000000F15D0C908D20501EAE2716FF35F3135
:104FB00000EE101A03F003010229B8EE400A0CD0EB
:104FC00071B95EF8401C89060DD49FED351A18E0C2
:104FD00000218160C0E9001180BD9FED301A10E012
:104FE0009FED2D1A0DE05EF8401C49F20002C0F260
:104FF000D032C1F3C10122FA01F101EE101AB8EE6C
:10500000411ADEF800109FED273A6FF35F2102EEA0
:10501000101ADEF80010C1F34621B8EE422A00EE65
:10502000032A00EE10CAB7EE003AB8EE400A81EE4D
:10503000000A32EE031A02EE101AB8EE422A20EEEF
:10504000010A32EE031A80EE011ABCEEC11A80ED9D
:10505000001ADEF80010C1F3064101EE101AB8EE96
:10506000411A31EE031A80EE011ABCEEC11A80ED2E
:10507000011ADEF80010C1F3066101EE101AB8EE55
:10508000411A31EE031A80EE010ABCEEC00A10EE9E
:10509000101A816080BD00BF0024744A20BCBE4B42
:1050A0000024744C000000392DE9F04381B004461F
:1050B000C07844F22C490007C5F6020901D4002546
:1050C0002DE0606E4FEA305003280CD80025DFE851
:1050D00000F0020D1613D9F8000040F40030C9F8B2
:1050E000000055B913E001253DB910E004F10800B6
:1050F000022102F0A1FE05464DB1A84611E004F1DF
:105100002800022102F028FF0546002DF5D1D9F82C
:105110002400616E20F440100843C9F824004FF0C9
:1051200000086078C00730D0A06D042807D8DFE8F9
:1051300000F00A131C030300FDB1A84625E0012579
:10514000002DFAD119E0D9F8000040F40030C9F878
:105150000000002DF1D110E004F10800002102F060
:105160006BFE0546002DE8D107E004F12800002180
:1051700002F0F2FE0546002DDFD1D9F82400A16D22
:1051800020F007000843C9F824006078400734D5B0
:10519000D4F8A4004FEA7050052807D8DFE800F0E3
:1051A0000A131C030303FDB1A84626E00125002DC8
:1051B000FAD119E0D9F8000040F40030C9F8000035
:1051C000002DF1D110E004F10800002102F034FEBE
:1051D0000546002DE8D107E004F12800002102F087
:1051E000BBFE0546002DDFD1D9F82C00D4F8A41061
:1051F00020F460000843C9F82C006078000734D51B
:10520000D4F8A8004FEA3060052807D8DFE800F09E
:105210000A131C030303FDB1A84626E00125002D57
:10522000FAD119E0D9F8000040F40030C9F80000C4
:10523000002DF1D110E004F10800002102F0FCFD86
:105240000546002DE8D107E004F12800002102F016
:1052500083FE0546002DDFD1D9F82C00D4F8A81024
:1052600020F0E0600843C9F82C00E078800728D5DA
:10527000E06C4FEA3010032806D8DFE800F002099E
:105280001202B5B1A8461CE00125002DFAD110E0AC
:10529000D9F8000040F40030C9F80000002DF1D129
:1052A00007E004F10800022102F0C6FD0546002DCA
:1052B000E8D1D9F82000E16C20F030000843C9F8AB
:1052C00020006078C00632D5E06D4FEA3030042807
:1052D00007D8DFE800F00A131C030300FDB1A8465D
:1052E00025E00125002DFAD119E0D9F8000040F49D
:1052F0000030C9F80000002DF1D110E004F10800E1
:10530000002102F099FD0546002DE8D107E004F1E7
:105310002800002102F020FE0546002DDFD1D9F83B
:105320002400E16D20F4E0400843C9F824006078CF
:10533000800626D5206E4FEA3040052807D8DFE8E2
:1053400000F0030A100303039DB1A84619E00125EC
:10535000002DFAD10DE004F10800012102F06CFDEE
:1053600004E004F12800012102F0F6FD0546002DBD
:10537000EBD1D9F82400216E20F4E0200843C9F8CD
:1053800024006078400628D5D4F8AC004FEA30708D
:10539000052807D8DFE800F0030A100303039DB1D6
:1053A000A8461AE00125002DFAD10DE004F108000D
:1053B000012102F041FD04E004F12800012102F086
:1053C000CBFD0546002DEBD1D9F82C00D4F8AC105C
:1053D00020F0E0400843C9F82C006078000620D592
:1053E000E06ED8B1B0F1005F12D0B0F1805F25D18E
:1053F000D9F8000040F40030C9F8000085B9D9F8A8
:105400002400E16E20F040500843C9F8240008E071
:1054100004F10800012102F00FFD0546002DEED039
:10542000A846E078C0072AD0A06C03280AD8DFE895
:1054300000F0020D1602D5B1A84620E00125002D8E
:10544000EED1DCE70125002DF6D110E0D9F80000FF
:1054500040F40030C9F80000002DEDD107E004F160
:105460000800022102F0E8FC0546002DE4D1D9F83D
:105470002000A16C20F003000843C9F82000A078A8
:10548000400643D5D9F8D40340F48070C9F8D4035A
:10549000FEF78AFC064600BFD9F8D403C00505D440
:1054A000FEF782FC801B6528F6D303256DBBD9F877
:1054B0004410D4F8B000414011F4407F11D0D9F825
:1054C0004410D9F8442042F48032C9F84420D9F875
:1054D000442021F4407122F48032C9F84420C9F8F4
:1054E0004410B0F5807F0FD1FEF75EFC064641F216
:1054F000893700BFD9F84400800705D4FEF754FC73
:10550000801BB842F6D3032585B1A8462078C00792
:1055100042D0A06F4FEAF000052823D8DFE800F062
:1055200003262C0303037DB3A84635E04FF6CF7363
:10553000D4F8B00059F81C2CC0F2FF0300F44071FD
:1055400022F47C5203EA1013B1F5407F08BF1A43DE
:105550006FF31F3049F81C2CD9F844100843C9F8E0
:105560004400D3E70125002DDED10DE004F1080051
:10557000012102F061FC04E004F12800012102F0A5
:10558000EBFC0546002DCFD1D9F82800A16F20F003
:1055900038000843C9F828002078800724D5606FB8
:1055A000052807D8DFE800F0030A100303039DB1C4
:1055B000A84619E00125002DFAD10DE004F10800FC
:1055C000012102F039FC04E004F12800012102F07D
:1055D000C3FC0546002DEBD1D9F82800616F20F0FF
:1055E00007000843C9F828002078400726D5D4F8DA
:1055F0009000052807D8DFE800F0030A1003030332
:105600009DB1A8461AE00125002DFAD10DE004F164
:105610000800012102F010FC04E004F1280001213F
:1056200002F09AFC0546002DEBD1D9F82C00D4F8F5
:10563000901020F007000843C9F82C00207880065D
:1056400028D5D4F88C004FEA3070052807D8DFE859
:1056500000F0030A100303039DB1A8461AE00125D8
:10566000002DFAD10DE004F10800002102F0E4FB66
:1056700004E004F12800022102F06EFC0546002D32
:10568000EBD1D9F82800D4F88C1020F0E040084382
:10569000C9F828002078400628D5D4F898004FEAA9
:1056A000B020052807D8DFE800F0030A1003030341
:1056B0009DB1A8461AE00125002DFAD10DE004F1B4
:1056C0000800002102F0B8FB04E004F128000221E8
:1056D00002F042FC0546002DEBD1D9F82C00D4F89D
:1056E000981020F4E0500843C9F82C0020780006F8
:1056F00028D5D4F89C004FEA7030052807D8DFE899
:1057000000F0030A100303039DB1A8461AE0012527
:10571000002DFAD10DE004F10800002102F08CFB0D
:1057200004E004F12800022102F016FC0546002DD9
:10573000EBD1D9F82C00D4F89C1020F46040084339
:10574000C9F82C002078000716D5D4F88000B0F5F1
:10575000805F08D104F12800022102F0FDFB00283F
:1057600018BF4FF00108D9F82800D4F8801020F4B1
:1057700040500843C9F828002078C00616D5D4F850
:105780009400B0F5807F08D104F12800022102F0D6
:10579000E3FB002818BF4FF00108D9F82C00D4F81B
:1057A000941020F440700843C9F82C00A07800073A
:1057B00022D5D4F8A000B0F5003F1AD0B0F5803F54
:1057C00011D0C8BB04F10800002102F035FB0546EA
:1057D0008DB9D9F82C00D4F8A01020F4403008433B
:1057E000C9F82C0008E004F12800022102F0B4FB03
:1057F0000546002DEDD0A846A078400729D5D4F85D
:105800008400B0F5401F21D0B0F5001F18D0B0F5CE
:10581000801F40F0BA80D9F8000040F40030C9F889
:105820000000ADB9D9F82800D4F8841020F4401055
:105830000843C9F828000CE00125002DDBD1C8E79A
:1058400004F12800012102F087FB0546002DE9D074
:10585000A846A078C00720D0206DB0F5803F10D0BA
:10586000B8B9D9F8000040F40030C9F800009DB97B
:10587000D9F82000216D20F480300843C9F82000B9
:105880000BE004F10800022102F0D6FA05461DB92A
:10589000EEE70125002DEBD0A846E078800608D57C
:1058A00004F12800022102F057FB002818BF4FF036
:1058B0000108D4E900108A0376D5E26F6FF0010386
:1058C00003EB3223022B0AD34FEA32233BB1012BE5
:1058D00060D1D9F8003043F40033C9F80030002D0E
:1058E0005BD0CA0263D48A026BD44A0073D4CA0F55
:1058F00040F08180090200F18980C00707D004F1DF
:105900000800002102F098FA002818BF0546207907
:10591000800707D504F10800012102F08DFA002864
:1059200018BF05462079400707D504F10800022179
:1059300002F082FA002818BF05462079000707D533
:1059400004F12800002102F007FB002818BF0546DB
:105950002079C00607D504F12800012102F0FCFAE5
:10596000002818BF05462079800607D504F12800D5
:10597000022102F0F1FA002818BF0125002D18BFFE
:105980000125284601B0BDE8F0830125002D7FF4F4
:105990005FAF47E70125002DA3D1D9F8283023F4C4
:1059A00040731A43C9F828204546CA029BD5D9F846
:1059B0002420236F22F000421A43C9F824208A02CF
:1059C00093D5D9F82420A36E22F080721A43C9F827
:1059D00024204A008BD559F81C2C22F4004249F8A7
:1059E0001C2CD4F8B42059F81C3C1A4349F81C2C40
:1059F000CA0F3FF47FAFD9F82020636D22F04052E8
:105A00001A43C9F8202009027FF577AFD9F828108A
:105A1000D4F8882021F440011143C9F82810C007A8
:105A20007FF46DAF73E700002DE9F04381B00028EB
:105A300000F0F68042F200080446C5F200288946CC
:105A4000D8F8000000F00F0088420ED2D8F800000D
:105A500020F00F0040EA0900C8F80000D8F8000064
:105A600000F00F00484540F0DB80206844F2184702
:105A70004107C5F602070AD521693A6802F07002AB
:105A8000914204D93A6822F070021143396001074B
:105A90000AD561697A6802F07002914204D97A6885
:105AA00022F0700211437960C1060AD5A1697A68B3
:105AB00002F4E062914204D97A6822F4E062114370
:105AC000796081060AD5E169BA6802F070029142F4
:105AD00004D9BA6822F070021143B96081070AD56F
