:020000040800F2
:100000003878002435040008613A0108C134010839
:10001000593A0108A91E000809BD010800000000A6
:10002000000000000000000000000000D1420108B4
:100030000925000800000000B13E0108C143010885
:100040005304000853040008530400085304000834
:100050005304000853040008530400085304000824
:100060005304000853040008530400085304000814
:100070005304000853040008530400085304000804
:1000800053040008530400085304000859250008CD
:100090007925000869250008892500081125000830
:1000A00053040008530400085304000853040008D4
:1000B0005304000853040008514901085304000880
:1000C00053040008530400085304000853040008B4
:1000D00053040008530400085304000853040008A4
:1000E00053040008530400080000000053040008F3
:1000F0005304000853040008530400085304000884
:100100005304000853040008530400085304000873
:1001100053040008530400086149010871490108AB
:100120005304000853040008530400085304000853
:100130005304000853040008530400085304000843
:1001400000000000000000000000000000000000AF
:100150005304000853040008530400085304000823
:100160005304000853040008530400085304000813
:1001700053040008E93A0108530400080000000095
:1001800053040008530400085304000853040008F3
:1001900053040008530400085304000853040008E3
:1001A0005304000853040008530400080000000032
:1001B00053040008530400085304000853040008C3
:1001C0005304000853040008000000000000000071
:1001D00000000000000000005304000800000000C0
:1001E000000000000000000000000000000000000F
:1001F0000000000000000000530400085304000841
:1002000053040008530400080000000053040008D1
:100210005304000853040008530400085304000862
:100220005304000800000000530400080000000010
:1002300053040008530400080000000053040008A1
:100240005304000853040008530400085304000832
:100250005304000853040008530400085304000822
:100260005304000853040008530400085304000812
:100270005304000853040008530400080000000061
:1002800053040008530400085304000853040008F2
:1002900000000000530400085304000800000000A0
:1002A0000000000053040008530400085304000831
:1002B000530400085304000853040008992500085B
:1002C000A9250008530400085304000800F002F8B0
:1002D00000F09FF80AA090E8000C82448344AAF141
:1002E0000107DA4501D100F094F8AFF2090EBAE83F
:1002F0000F0013F0010F18BFFB1A43F0010318475A
:100300004C7B02006C7B0200103A24BF78C878C195
:10031000FAD8520724BF30C830C144BF04680C600B
:10032000704700000023002400250026103A28BF53
:1003300078C1FBD8520728BF30C148BF0B60704757
:100340006E2900F04B83702900F09584662927F010
:100350000F80652927F00C80672927F00980612923
:1003600027F0088003681B0A28BF41F08001692933
:1003700000F0F882642900F0F582752900F0F2821D
:100380006F2900F02384782900F06184E92900F0C6
:10039000BD83E42900F0BA83F52900F0B783EF2983
:1003A00000F02084F82900F060840368DB0928BF8E
:1003B00041F08001632901F02982732901F02E8226
:1003C000E32901F03982F32901F03E8200207047D1
:1003D0001FB526F0B7FF9DE8030000F0ADFD01F06A
:1003E00059FB04000020002126F096FF401C6060AD
:1003F0000020002126F07AFFE06000F019F88DE877
:100400000F0000F08BF91FBD10B5002001F044FA79
:1004100010BD01F012FB1146FFF7DAFF20F0A8FD36
:1004200001F01EFC03B4FFF7EFFF03BC00F05EFD1C
:1004300001F05ABA0A4880470A4880470A480047EC
:10044000FEE7FEE7FEE7FEE7FEE7FEE7FEE7FEE784
:10045000FEE7FEE705480649064A074B70470000DD
:1004600031250008E9470108CD0200083872002450
:1004700038780024387400243874002453EA020CBD
:1004800000F069802DE9F04B4FF00006002B1FBFF4
:10049000B3FA83F503FA05F424FA05F65E4012BFB9
:1004A0001643B2FA82F502FA05F4C5F120051EBF23
:1004B00022FA05FC44EA0C04203556EA044C4FEAC3
:1004C000144418BF641C4FF000084FF0000990421C
:1004D00071EB030C39D3002919BFB1FA81F701FA86
:1004E00007F6B0FA80F700FA07F6C7F120071EBF3B
:1004F00020FA07FC46EA0C062037B6FBF4FCA7EB13
:100500000507103F07F01F0BCBF120062CFA06F66B
:100510000CFA0BFB44BFB3460026202FA4BF5E4657
:100520004FF0000B5BEA060C08BF4FF0010B19EB14
:100530000B0948EB0608ABFB027C06FB02CC0BFB6D
:1005400003CCC01B71EB0C01C1E70B4602464146D0
:100550004846BDE8F08B13B54FF000004FF00001A6
:10056000AFF30080BDE81C40704700007CB51D461D
:1005700016460C00009001D02044401E074B7B44DF
:100580002A4669460190304600F041FA05461CB102
:100590000020694600F04EFA28467CBDBD040000EC
:1005A0000B460146184600F040BC10B5431C02E063
:1005B00010F8011B71B18107FAD14FF0013202C866
:1005C0008C1A8C4314EAC211F9D0C01A0A0603D05F
:1005D000C01E10BDC01A10BD0A0401D0801E10BD7F
:1005E0000902FCD0401E10BD032A40F2308010F0FA
:1005F000030C00F0158011F8013BBCF1020F6244BE
:1006000098BF11F801CB00F8013B38BF11F8013B4E
:10061000A2F1040298BF00F801CB38BF00F8013BFB
:1006200011F0030300F01884083AC0F0088051F874
:10063000043B083A51F804CBA0E80810F5E7121D76
:100640005CBF51F8043B40F8043BAFF30080D20795
:1006500024BF11F8013B11F801CB48BF11F8012B61
:1006600024BF00F8013B00F801CB48BF00F8012B84
:10067000704702F0FF0343EA032242EA024200F01D
:1006800024B84FF000020429C0F0128010F0030CCF
:1006900000F01B80CCF1040CBCF1020F18BF00F875
:1006A000012BA8BF20F8022BA1EB0C0100F00DB824
:1006B0005FEAC17C24BF00F8012B00F8012B48BF82
:1006C00000F8012B70474FF0000200B51346944626
:1006D0009646203922BFA0E80C50A0E80C50B1F19A
:1006E0002001BFF4F7AF090728BFA0E80C5048BFAE
:1006F0000CC05DF804EB890028BF40F8042B08BF4C
:10070000704748BF20F8022B11F0804F18BF00F847
:10071000012B7047704770477047000070B5064C5A
:100720007C44064D7D4403E0206820448047241D1E
:10073000AC42F9D170BD00007478020074780200F8
:1007400070B5064600F0D8FB056806F10B0020F0F6
:100750000704B4429CBF002070BD2B466A68BAB142
:100760001068A04210D304F1080188423CBF5068D1
:10077000586007D35168101941601168091B016066
:1007800058601460101D70BD13465268002AE7D1EE
:100790002146284600F0BCFB0028DED170BD70B5B4
:1007A0000446051F00F0A8FB0068002C14BF446835
:1007B00070BD002C18BFAC423CBF20466468F8D323
:1007C00001680A18AA4218BF456003D12A68054685
:1007D0001144016028684119A1421CBF6C6070BDC2
:1007E0006168696021680844286070BD2DE9F047A0
:1007F00091460C46804600F07FFB0768604234EA71
:10080000000001D1042C02D20520BDE8F087601E53
:1008100040F0070609F10B0020F007054D459CBF8D
:100820000020BDE8F0873B467A6882B31468101D4B
:10083000404206EA000C644525D9A4EB0C00854231
:1008400021D8BCF1000F0BD0104601686244A1EB27
:100850000C01116041685160C0F800C05860034647
:10086000116805F10800814205D35019491B016048
:1008700015605860034652F8040F58600020C8F80D
:100880000020BDE8F08713465268002ACED12946E1
:10089000384600F03DFB0028C5D10620BDE8F087B2
:1008A00070B5044685690068C10601D5302600E0B0
:1008B0002026C00707D070BDD4E9012130469047FB
:1008C000206A401C20626D1EF6D570BD70B50446CE
:1008D00085690078C00707D170BDD4E901212020C7
:1008E0009047206A401C20626D1EF6D570BD0968D5
:1008F0004A0501D540B27047C905FCD500B2704722
:1009000009684A0501D5C0B27047C905FCD580B257
:10091000704770B50C460546012A05D02878800638
:1009200000D5EA69002302E0012305E05B1C934245
:1009300002D2E05C0028F9D1A869E618C01AA861C3
:10094000286A184428622846FFF7AAFF04E0D5E980
:10095000012114F8010B9047B442F8D32846FFF761
:10096000B5FF70BD2DE9F0410646002410687529D9
:10097000314616A510D0FFF7BAFF002802DA404230
:1009800013A507E031688A0701D512A502E04907DF
:1009900004D511A5012401E0FFF7B2FF00210A22CE
:1009A00006F1240709E0B0FBF2FCB0FBF2F302FB16
:1009B0001C00303078541846491C0028F3D12346D7
:1009C0002A463046BDE8F04100F031BB000000008F
:1009D0002D0000002B0000002000000011680268BC
:1009E000006A530501D508700AE0D30501D50880D7
:1009F00006E0130603D5C217C1E9000200E0086053
:100A00000120704701694A1C02610878704700B5EF
:100A10008FB0CDE901310021059105497944CDE937
:100A200003101146684600F031F90FB000BD000018
:100A3000E5FFFFFF0A6802F8010B0A607047D1E981
:100A400000239A4202D2531C0B60107070470000C2
:100A50002DE9FF5F15468A460446DFF8AC80F8446E
:100A60000027D8E900103E46CDE9001010E03AF822
:100A700016106A4602A800F0EBFE411C07D0217850
:100A8000890603D5E269391891420DD80744761CCE
:100A90002078800602D5E069B84205DDAE42E6DB8B
:100AA0003AF816000028E2D1A069C01BA0612046D8
:100AB000FFF7F6FED8E90010CDE90010002017E09E
:100AC0003AF818106A4602A800F0C2FEB0F1FF3FE3
:100AD00081460BD000250DF1080B05E0D4E901217A
:100AE0001BF8050090476D1C4D45F7D308F1010038
:100AF000B0428046E4DB206A384420622046FFF79B
:100B0000E5FEBDE8FF9F0000C66C02002DE9F04144
:100B10008046D21D22F007020025D2E90002F52905
:100B200015A614D0011E72F1000106DA0023D0EBE5
:100B3000030063EB020211A608E0D8F800108B074F
:100B400001D50FA602E0490701D50EA601251146E1
:100B5000002408F1240704E000F024FA30323A556A
:100B6000641C50EA0102F7D12B463246214640462A
:100B7000BDE8F04100F05BBA000000002D0000006D
:100B80002B0000002000000030B4002100F12404FC
:100B900008E002F00705D208303542EA4372DB086C
:100BA0006554491C52EA0305F3D10468002310A2DE
:100BB000250708D504F020040C4304D0C4690123A0
:100BC0000CA2641EC46130BC00F031BA10B50446FA
:100BD00021461068FFF794FE02462046BDE810400B
:100BE0000023D1E7D21D22F00701D1E90023CBE792
:100BF0000000000030000000F0B40D460188090537
:100C000002D5214C7C4402E01F4C7C440E34002170
:100C100000F1240608E002F00F071209E75D42EA3E
:100C200003721B097754491C52EA0307F3D1027877
:100C30000023120704D5702D06D009B10223113408
:100C40002246F0BC00F0F3B901231034F8E770B588
:100C500004460D4621461068FFF752FE024629461B
:100C60002046BDE870400023C6E7D21D22F00703EE
:100C7000D3E90023C0E70368126843F02003036050
:100C80000823C3610023B7E7286B02002DE9F05F5A
:100C9000894604464FF0000ADFF874B1FB44C0F8FF
:100CA00020A02046E1688847002874D0252806D077
:100CB000D4E901219047206A401C2062F1E7002618
:100CC0005F462046E16888472028054607DB312D2E
:100CD00005D2781910F8200C08B10643F1E7B007E7
:100CE00001D526F00406C4F81CA00027C4F818A0FB
:100CF0002A2D09D0284626F0F2FA38B304EB8708EB
:100D0000303DC8F8185019E059F8041B204604EB90
:100D100087029161E1688847012F054618D1E06993
:100D2000002820DA26F020061DE0D8F8180000EB95
:100D3000800005EB40003038C8F818002046E16814
:100D40008847054626F0CBFA0028EED1012F0AD0BD
:100D50002E2D08D12046E16888477F1C0546022FCA
:100D600046F02006C4DBA069002803DA404246F0C2
:100D70000106A061F00701D026F010066C2D0BD003
:100D8000682D09D04C2D39D06A2D35D0742D35D031
:100D90007A2D33D016E038E0E1682F4620468847A8
:100DA000B842054609D16C2F26D04FF48060E16827
:100DB000064320468847054604E06C2F1AD04FF4BE
:100DC000807006430DB3A5F14100192802D82035E3
:100DD00046F400664A462946204626604E46FFF7FE
:100DE000AFFA80B101280BD0F61D26F0070000F104
:100DF000080956E74020E4E78020D8E70020D6E73E
:100E000006F104094DE7284652E7206ABDE8F09F45
:100E1000B86A020010B5002000F05FFDFFF7F4FA99
:100E2000BDE81040012000F061B82DE9F04107460F
:100E300015460E461020FFF783FC04000AD06760B9
:100E4000C4E9026500F05CF80168216004600020DC
:100E5000BDE8F0810120FBE710B5203AC0F00B801F
:100E6000B1E81850A0E81850B1E81850A0E81850A0
:100E7000203ABFF4F5AF5FEA027C24BFB1E8185016
:100E8000A0E8185044BF18C918C0BDE810405FEA78
:100E9000827C24BF51F8043B40F8043B08BF7047F4
:100EA000D20728BF31F8023B48BF11F8012B28BFF9
:100EB00020F8023B48BF00F8012B704780E8FF1F75
:100EC000C0F834D0C0F838E0C0F83CE04FF0000083
:100ED000704700BF80EC200B704700BF80EC200BF8
:100EE000704700BFC0EC200B70470000014918207C
:100EF000ABBEFEE726000200004870472001002438
:100F00000048704750010024704770477047704791
:100F100038B504460A4600206946AFF30080002831
:100F200008BF38BD02460099204600F0CDFD0120E3
:100F300038BD012000F0BABEF8B5AFF30080054619
:100F400000200C46102000BF0646A819A0420DD96B
:100F5000324669460020AFF30080070008BF00F06A
:100F6000A5FE0098A04218BF0546C419FFF7C4FFAC
:100F700005600746F01D20F007004619284600F0DE
:100F80000AF8B44208BFF8BDA21B31463868BDE874
:100F9000F84000F099BD00210160C0E901107047E0
:100FA0001020704730B5B0F10A0271F100034FEA2A
:100FB000900E4EEA817EB0EB0E0061EB91014FEA9C
:100FC000101E4EEA017E10EB0E0041EB11114FEAAC
:100FD000102E4EEA016E10EB0E0041EB11214FEA8C
:100FE000104E4EEA014E10EB0E0041EB114140183D
:100FF00041F100014FEAD00040EA41704FEAD101CF
:101000004FEA810444EA907410EB800544EB01043C
:101010006D1944EB0404521BA3414FF0000348BF79
:101020000A3200D530BD401C41F1000130BD2DE930
:10103000F0470D4699469246044600F1240801689F
:10104000880604D5E06921F01001216000E001204C
:10105000A84201DD471B00E00027A1697A1902EBD5
:101060000900081AA0612078C00602D42046FFF7C4
:1010700017FC002608E0D4E901211AF80600904781
:10108000206A401C761C20624E45F4DB2078C006A6
:101090000AD52046FFF704FC06E0D4E90121302000
:1010A0009047206A401C2062381EA7F10107F4DC3B
:1010B00007E0D4E9012118F805009047206A401C98
:1010C0002062281EA5F10105F3DC2046FFF7FEFB98
:1010D0002078000602D50220BDE8F0870120FBE75A
:1010E0002DE9FF4F0C461E464FF0FF378BB0D2E97B
:1010F0000001DDF860800A908A46C1F30A5505B9FF
:101100003D460021084626F023F9BAF1000F00F40D
:10111000400005DA00EB80004FF4400101EA500086
:101120004FEA9059B9F1010F00DDB9460A9850EA2B
:101130004A000ED044F61050A5F2FF3545432F1457
:10114000B8F1000F1ED07542291E1EDDC9F1000244
:101150001CE0B8F1010F4FF0000001D0302103E096
:10116000F24305E02154401CB042FBDB3046002234
:10117000002121540B99C1F80880C1E900200FB06B
:10118000BDE8F08FBD1B6D1CDEE74A4600DA694200
:1011900006A800F0F3FC06AB93E8070003AB83E876
:1011A000070050460A9925F0BAFC8DE80700A0F523
:1011B00000501F3800900398002D0ADD42F21F01F5
:1011C0004A460844002303A90390684625F023FFFC
:1011D00009E0A0F500504A461F38002303A90390F8
:1011E000684625F02DFF8DE807000004000C03D0B1
:1011F0004FF0FF30410800E01046B8F1000F03D077
:101200000022009215461EE0751E05D4FFF7CAFEA7
:10121000303262556D1EF9D5B3460122084302D023
:1012200000227F1C04E02078302801D100227F1E9C
:10123000002A099784D01DE0112D07DAFFF7B2FECE
:10124000303262556D1C50EA0102F5D1084302D0DC
:101250000098C8B10EE00021681E05E0235C625CC6
:1012600063542254401E491C8142F7DBAB46A81B45
:10127000401E0990002004F80B000B98099AC0F852
:101280000880C0E9002B7AE711264FF0000857E7E5
:101290002DE9F04F88460446D21D22F0070191B097
:1012A000D1E90001CDE90A0126F001F802460B98C8
:1012B000C00F01D02D2007E02068810701D52B2029
:1012C00002E0202101EAC000032A099001D0072A88
:1012D00005DB03464146204600F010FC0BE1207878
:1012E000800601D5E06900E00620B8F1650F81466F
:1012F00006D0B8F1660F18D0B8F1670F70D131E0A1
:101300000020B9F1110F009001DB112301E009F178
:1013100001030AAA01A90CA8FFF7E2FEDDE90C709F
:10132000002609F10105834647E001204B46009065
:101330004FF000470AAA01A90CA8FFF7D1FEDDE98A
:101340000DB00C995D46002610B909F101000D1889
:10135000B9EB050003D4C0F1FF3609F10105A5EB97
:1013600009002BE0B9F1010F01DA4FF0010900206B
:10137000B9F1110F0090484601DD112300E003464A
:101380000AAA01A90CA8FFF7ABFEDDE90C704D46D7
:1013900000268346207800070AD4AB4500DA5D4674
:1013A00001A8012D04DD411911F8011C302907D0D5
:1013B0004F4502DA17F1040F04DA012082460FE0EC
:1013C0006D1EEEE7002F02DCED1B3E4403E0781CAF
:1013D000A84200DD7D1CB81B00F1010A4FF0004758
:1013E0002078000703D4AA4501DB4FF0FF3A002123
:1013F000B7F1004F0DF143088DF8431024D00220BF
:101400002B23002F01DA7F422D230A21021EA0F197
:10141000010000DC5FB197FBF1FC97FBF1F201FBEF
:101420001C7C17460CF1300C08F801CDEEE7A8F152
:10143000010003702188090501D5452100E06521DF
:10144000A0F1010800F8011C09980FA9A1EB0807F9
:10145000FF1D00B10120411901EBEA70A169384478
:10146000081A401EA0612078C00602D42046FFF76B
:1014700017FA099828B1D4E901219047206A401C45
:1014800020622078C00622D52046FFF709FA1EE028
:10149000002E04DBB34502DD01A8805D00E03020B2
:1014A000D4E901219047206A401C2062761CAAF1F1
:1014B00001005FEA000A0AD100F0ECFAC068016896
:1014C000405CD4E901219047206A401C2062281E1C
:1014D000A5F10105DCDC07E0D4E9012118F8010BD6
:1014E0009047206A401C2062381EA7F10107F3DCF8
:1014F0002046FFF7EBF9032011B041E62DE9F04F4C
:1015000004460D46D21D22F0070089B0D0E90097AD
:101510004846394625F0CBFE0246F80F01D02D2370
:1015200007E02068810701D52B2302E0202101EA92
:10153000C0038DF820300BB1012000E00020032A09
:10154000824601D0072A04DB2946204600F0D6FA5D
:101550003FE12078800601D40D2500E0E569C7F35E
:101560000A560D2D49DA00214FEA175B084625F08F
:10157000EFFE002F00F4400007DA00EB80004FF48C
:10158000400100EBD07001EA60008115012901DD06
:101590004FF0FF3100224FEA850CBCF1180F06D343
:1015A0001346ACF118004FF08052C24003E04FF4F4
:1015B000801323FA0CF30CF10C0CBCF1200F04D3B4
:1015C000ACF1200C09FA0CF001E007FA0CF000294C
:1015D0004FF0004801DD18B90FE00ED140450CD3A3
:1015E00019EB02095F4121B9404502D19F4329EA25
:1015F0000209BBEB175F00D0761C2088000502D5DE
:101600007B48784402E07A487844193808AA3023A5
:1016100002F80A30037C0AF10101002E0AF1020AE5
:1016200053546A4602DC4FF0300101E04FF03101C3
:101630004FF001088DF8001002D0A6F2FF3603E04B
:1016400059EA470100D06B4E002D02DC21780907D2
:1016500004D54FF002082E218DF80110C446002158
:101660000BE0C7F303433F01C35C491C6D1E02F846
:101670000830052908F1010801DA002DF1DC00210C
:101680000CE000EB1973491C1B786D1E082902F849
:1016900008304FEA091908F1010801DA002DF0DCE1
:1016A00021688B0602D516E0A8F10108E04505DDAA
:1016B00002EB080313F8013C302BF5D0B8F1000F12
:1016C00009DD02EB080313F8013C2E2B03D10907B7
:1016D00001D4A8F10108002D05DD3E2102F8081013
:1016E0006D1E08F10108407C002E02F8080008F188
:1016F000010804DA2D20764202F8080002E02B20CF
:1017000002F808000A214FF47A70864208F10108B5
:101710000BDB96FBF0F3303302F8083096FBF0F366
:1017200008F1010800FB136601E0642E0CDB642065
:1017300096FBF0F3303302F8083096FBF0F308F133
:10174000010800FB136601E00A2E06DB96FBF1F0B0
:10175000303002F8080008F1010896FBF1F001FBB7
:101760001060303002F80800A16908F1010808EBA8
:10177000050202EB0A00081AA0612078C00602D414
:101780002046FFF78DF8216A08AE01EB0A002062BF
:1017900004E0D4E9012116F8010B9047BAF1010ADF
:1017A000F7D22078C00602D52046FFF779F86E46BA
:1017B00009E016F8010B3E280FD0D4E9012190472B
:1017C000206A401C2062B8F10108F2D22046FFF7DF
:1017D0007DF809B00320BDE8F08F206A284420621C
:1017E00003E0D4E90121302090476D1EEBD3F8E7E8
:1017F0007661020002FCFFFF10B5436913B1AFF33D
:10180000008001E0FFF785F8012010BD127800F19B
:1018100024010A7000224A700122EDE711684FF09E
:10182000FF32E9E710B5436913B1AFF3008001E07F
:10183000FFF70EF9012010BD128800F12401828407
:101840000022C2840122EDE711684FF0FF32E9E780
:101850002DE9F04116460C46054600F013F90368E1
:1018600093F80101012807D0FF2C12D8185D80B130
:1018700001202C70BDE8F081D3F8070132462146E3
:1018800003F20713C7182846BC46BDE8F041002301
:1018900060474FF0FF30EDE72DE9F0410646FFF7D6
:1018A0002FFB8046454613E016B1E068B0420ED1EA
:1018B00020682860D4E90101D8F8007088472046E4
:1018C000FEF76DFFD8F80000B842EBD100E02546E6
:1018D0002C68002CE8D1BDE8F08110B500F0CEF9FD
:1018E000BDE8104000F0C5B92DE9FE4F00274FF4C8
:1018F0008074BA4620468DF80070FEF721FF5FEA3B
:10190000000801D100F0D2F92146404600F083F8EA
:10191000060009D04FF0010B4546C14616F8014BB1
:101920008FB15C2C16D01CE008F108004146C8F8C5
:1019300000000020C8F80400D8F800402070012002
:1019400003B0BDE8F08F222C01D0272C0FD1274601
:10195000BA462CE03078222807D05C2805D027280A
:1019600003D0BC4203D1002721E0761C04464CB1D1
:101970002FB9202C06D0A4F10900042802D905F8BB
:10198000014BCBE74D4502D1BAF1000F0FD05246C3
:101990004946002005F8010B6846AFF300809DF82A
:1019A000000068B14D464FF0000A0BF1010B002C0E
:1019B000B4D14FEA8B00FEF7C3FE040002D004E06E
:1019C000A946F0E7002000F071F900264046C4F86F
:1019D000008005E010F8011B11B9761C44F82600C0
:1019E000A842F7D32146002044F826003046A7E756
:1019F00086469EE8FF1FDEF834D0DEF83CE07047F4
:101A000090EC200B704700BF90EC200B704700BF9C
:101A1000D0EC200B70471CB50446CDE900016946A7
:101A20001520ABBE08B100201CBD20461CBD000027
:101A3000004870471801002470477546FFF7F8FF0B
:101A4000AE4605006946534620F00700854618B0AB
:101A500020B5FEF7FFFCBDE820404FF000064FF038
:101A600000074FF000084FF0000BAC46ACE8C0098F
:101A7000ACE8C009ACE8C009ACE8C00921F0070136
:101A80008D46704710B500F005F8001D10BD00BF71
:101A90008958020000487047380100247047704799
:101AA00070B5A0FB0140B4F1805170F1000024BF7B
:101AB000002070BD2046FEF743FE05001CBF2146F6
:101AC000FEF7DFFD284670BD034640688C460028BF
:101AD00018BF88423CBF03464068F8D318681844D2
:101AE000884207D00CF1030020F00700001D411AC6
:101AF000521A0146081D0A60FEF751BE2DE9F04159
:101B00001F46044603260168072A01F4006004DB2F
:101B100008B116A505E016A503E008B115A500E07B
:101B200015A521F010002060A069C01EA0610FB1B2
:101B3000401EA0612046FEF7B3FE4FB1D4E901215B
:101B400038469047206A401C2062C01C206206E094
:101B5000206AFAE7D4E9012115F8010B9047761EB7
:101B6000F8D22046FEF7B2FEBDE8F0814E414E00AD
:101B70006E616E00494E4600696E66002DE9F047C1
:101B8000814616468AB0354878440DC88DE80D0068
:101B900032487844801C03AC0DC884E80D0041F63F
:101BA0009B300844372190FBF1F290FBF1F5A5F151
:101BB000800501FB12041B3C02D56442012000E0B9
:101BC0000020DFF898A080460027FA44AAF1BE0A58
:101BD0000EE0E0070AD03246684607EB47010123D2
:101BE0000AEB810125F02CFA8DE8070064107F1CB8
:101BF000002CEED1194F7F44AE3F19E0E80715D015
:101C000007EB04100DF1180A90E80E008AE80E00A8
:101C1000C068F04201D1981908903246012306A904
:101C200003A825F00DFA03AB83E807006D10641CD0
:101C3000002DE3D14FF0010332466946B8F1000FA1
:101C400003A802D025F0E7F901E025F0F9F9C9E988
:101C50000001C9F808200AB0BDE8F087805C0200E6
:101C600010B50446AFF300802046BDE81040FEF7F3
:101C7000D9BB002801D0FFF739B9704710B5002152
:101C800002A000F05BF8012010BD0000534947415D
:101C90004252543A2041626E6F726D616C207465DD
:101CA000726D696E6174696F6E00000010B500F0AE
:101CB0005FF8BDE81040FFF7DCBF00000000000047
:101CC00030B44FF0013C50F8042BCCFA52F451F8E8
:101CD000043BD51A20D1FCB950F8042BCCFA52F4AD
:101CE00051F8043BD51A17D1B4B950F8042BCCFAEB
:101CF00052F451F8043BD51A0ED16CB950F8042BAC
:101D0000CCFA52F451F8043BD51A05D1002CDAD0A4
:101D100030BC4FF00000704729BAB1FA81F111F0E0
:101D20001801D1F120008440F2D1CA40CB4012F01A
:101D3000FF0213F0FF0330BCD01A704770B50546A0
:101D40000C460A2000E06D1C00F03AF835B1287806
:101D50000028F8D102E0641C00F032F814B12078B9
:101D60000028F8D1BDE870400A2000F029B8000032
:101D700010B5012805D0002103A0FFF7DFFF0120E7
:101D800010BD09A1F8E7000053494752544D454D95
:101D90003A204F7574206F662068656170206D650C
:101DA0006D6F7279000000003A2048656170206D07
:101DB000656D6F727920636F7272757074656400FF
:101DC00008B569468DF800000320ABBE08BD0000D1
:101DD00080B588B0684600214160016041F674001A
:101DE000C2F200400122079006910592059B1BF06C
:101DF0009BF868460699416001600220079A0490AA
:101E00001046049A049B1BF08FF807981BF0B4F956
:101E1000684606994160016041F68C10C2F20040AC
:101E200003220390059B1BF07FF8684606994160EA
:101E3000016004220398049B1BF076F803981BF0C2
:101E40009BF9684606994160016041F6A420C2F200
:101E5000004005220290059B1BF066F86846069933
:101E60004160016006220298049B1BF05DF8029815
:101E70001BF082F942F69C50C2F200401BF0B8FE03
:101E800042F6E850C2F200401BF0B2FE08B080BD3E
:101E900080B582B001460190019800911BF0E0FEF0
:101EA00002B080BD00000000FFE7FEE70000000078
:101EB00080B587B013468C4686468DF81B00059189
:101EC000ADF812209DF81B00014623280393CDF89E
:101ED00008C0CDF804E000911DD80099DFE801F0BA
:101EE00012131415161B1B1B1B1B1B1B1B1B1B1B65
:101EF0001B1B1B1B1B1B1B1B1B1B1B1B1B1B1B1B32
:101F00001718191A08E007E006E005E004E003E00E
:101F100002E001E000E0FFE7002007B080BD000024
:101F2000002070470000000080B584B041F6C0304A
:101F3000C2F2004040F6A451C2F2004100220390D8
:101F4000029215F0D1FD40F2A451C2F20041039A71
:101F50000190104615F0A4FD02990090084604B0C7
:101F600080BD00000000000080B588B00A4603462E
:101F700007900691079941F6C030C2F200400590E3
:101F80000492039315F08CFD05990290084615F014
:101F900023FD00210190084608B080BD000000002C
:101FA00080B586B013468C468646059004918DF820
:101FB0000F2000208DF80E009DF90E000293CDF841
:101FC00004C0CDF800E006B080BD000000000000B5
:101FD000B0B58DB09C4696460C4605460C900B91CC
:101FE0000A9209930C98816D0891816D07910068A0
:101FF00001211022C4F202029042CDF818C0CDF89F
:1020000014E004940395029100F00381FFE70C981B
:10201000006801212822C4F202029042029100F0DD
:10202000F880FFE70C98006801214022C4F2020208
:102030009042029100F0ED80FFE70C9800680121CA
:102040005822C4F202029042029100F0E280FFE7BF
:102050000C98006801217022C4F2020290420291A1
:1020600000F0D780FFE70C98006801218822C4F2B5
:1020700002029042029100F0CC80FFE70C980068C9
:102080000121A022C4F202029042029100F0C1801C
:10209000FFE70C9800680121B822C4F202029042C6
:1020A000029100F0B680FFE70C980068012140F231
:1020B0001042C4F202029042029100F0AA80FFE7AF
:1020C0000C980068012140F22842C4F202029042BA
:1020D000029100F09E80FFE70C980068012140F219
:1020E0004042C4F202029042029100F09280FFE767
:1020F0000C980068012140F25842C4F2020290425A
:10210000029100F08680FFE70C980068012140F200
:102110007042C4F20202904202917AD0FFE70C981A
:102120000068012140F28842C4F20202904202910A
:102130006FD0FFE70C980068012140F2A042C4F282
:1021400002029042029164D0FFE70C9800680121DE
:1021500040F2B842C4F202029042029159D0FFE725
:102160000C980068012145F20842C5F6020290422F
:1021700002914ED0FFE70C980068012145F21C4205
:10218000C5F602029042029143D0FFE70C98006826
:10219000012145F23042C5F602029042029138D048
:1021A000FFE70C980068012145F24442C5F602029F
:1021B000904202912DD0FFE70C980068012145F272
:1021C0005842C5F602029042029122D0FFE70C98D5
:1021D0000068012145F26C42C5F60202904202916C
:1021E00017D0FFE70C980068012145F28042C5F640
:1021F0000202904202910CD0FFE70C9800684AF668
:102200006C31CAF2FD710844B0FA80F040090290C6
:10221000FFE70298C00700280FD0FFE70C98416E37
:10222000806E48600C98C06E002805D0FFE70C98BF
:10223000016F406F4860FFE7FFE70C9800680121DD
:102240001022C4F202029042019100F0A380FFE745
:102250000C98006801212822C4F2020290420191E8
:1022600000F09880FFE70C98006801214022C4F23A
:1022700002029042019100F08D80FFE70C98006807
:1022800001215822C4F202029042019100F08280A2
:10229000FFE70C98006801217022C4F2020290420C
:1022A000019177D0FFE70C98006801218822C4F2E1
:1022B0000202904201916DD0FFE70C980068012165
:1022C000A022C4F202029042019163D0FFE70C9871
:1022D00000680121B822C4F202029042019159D053
:1022E000FFE70C980068012140F21042C4F202029C
:1022F000904201914ED0FFE70C980068012140F216
:102300002842C4F202029042019143D0FFE70C98A8
:102310000068012140F24042C4F202029042019161
:1023200038D0FFE70C980068012140F25842C4F20F
:102330000202904201912DD0FFE70C980068012124
:1023400040F27042C4F202029042019122D0FFE7B3
:102350000C980068012140F28842C4F202029042C7
:10236000019117D0FFE70C980068012140F2A042CC
:10237000C4F20202904201910CD0FFE70C98006871
:102380004FF64831CBF6FD710844B0FA80F04009B1
:102390000190FFE70198C00700282BD0FFE70C98B9
:1023A000C06D00F01F003F2101FA00F0089988601D
:1023B0000C980068016821F48021016009980C994B
:1023C000096848600C988068402809D1FFE70A989E
:1023D0000C99096888600B980C990968C86008E036
:1023E0000B980C99096888600A980C990968C8606C
:1023F000FFE784E00C980068012145F20842C5F629
:102400000202904200914ED0FFE70C980068012133
:1024100045F21C42C5F602029042009143D0FFE70C
:102420000C980068012145F23042C5F60202904244
:10243000009138D0FFE70C980068012145F2444232
:10244000C5F60202904200912DD0FFE70C9800687B
:10245000012145F25842C5F602029042009122D075
:10246000FFE70C980068012145F26C42C5F60202B4
:102470009042009117D0FFE70C980068012145F2C7
:102480008042C5F60202904200910CD0FFE70C9802
:1024900000684AF66C31CAF2FD710844B0FA80F067
:1024A00040090090FFE70098C007002825D0FFE70B
:1024B0000C98C06D00F01F00012101FA00F007998F
:1024C000486009980C99096848600C988068402811
:1024D00009D1FFE70A980C99096888600B980C9954
:1024E0000968C86008E00B980C99096888600A9828
:1024F0000C990968C860FFE700E0FFE7FFE70DB04F
:10250000B0BD0000000000007047000000000000A7
:1025100080B54FF4807004F033FA80BD00000000F5
:1025200081B0EFF3108072B60090FFE7FEE7000085
:1025300044F60C00C5F60200016841F0020101609A
:10254000FFE744F60400C5F60200006810F4005FDF
:1025500001D1FFE7F5E7704780B541F69C60C2F214
:10256000004003F021F980BD80B541F69C60C2F2C5
:10257000004003F019F980BD80B541F63C70C2F20D
:10258000004003F011F980BD80B541F63C70C2F205
:10259000004003F009F980BD80B541F6DC70C2F25D
:1025A000004003F001F980BD80B541F6DC70C2F255
:1025B000004003F0F9F880BD85B001460390039810
:1025C000426B01920068D0F884004FF6FC72904391
:1025D000019A40EA8200039A1268C2F884000398C4
:1025E0000068D0F8840020F47F00039A1368926B8F
:1025F00040EA0240C3F884000398826B019B1A44AE
:1026000001920068D0F888006FF38F00019A40EAC9
:102610008200039A1268C2F8880003980068D0F814
:10262000880020F4FE00039A1368D26B40EA02404F
:10263000C3F888000398C26B019B03EB420201922E
:102640000068D0F8A0006FF38F00019A40EA820082
:10265000039A1268C2F8A00003980068D0F8A0009E
:1026600020F4FE00039A1368126C40EA0240C3F89B
:10267000A0000398026C436CDDF804C002FB03C2A7
:1026800001920068D0F8B0006FF38F00019A40EA21
:102690008200039A1268C2F8B00003980068D0F86C
:1026A000B00020F4FE00039A1368926C40EA0240E6
:1026B000C3F8B0000398826CC36CDDF804C002FB61
:1026C00003C201920068D0F8AC006FF38F00019A4A
:1026D00040EA8200039A1268C2F8AC000398026DC7
:1026E000436DDDF804C002FB03C201920068D0F81C
:1026F000F0006FF38F00019A40EA8200039A12689B
:10270000C2F8F00003980068D0F8F00020F47C10C4
:10271000039A1368926D40EA0240C3F8F0000398F0
:10272000826D019B03EB420201920068D0F8C00069
:102730006FF38F00019A40EA8200039A1268C2F890
:10274000C00003980068D0F8C00020F47C10039A01
:102750001368D26D40EA0240C3F8C00003980068D5
:10276000D0F8C00020F07C50039A1368126E40EA43
:102770000260C3F8C0000398426B4AF60043C4F2FB
:10278000000303EB8202C2660398826BC36E03EB05
:10279000820202670398C26B036F03EBC2024267B7
:1027A0000398026C436CD0F874C05A430CEB82025D
:1027B00082670398826CC36CD0F878C05A430CEBE4
:1027C0008202C2670398026D436DD0F87CC05A4301
:1027D0000CEB8202C0F880200398826DD0F8803024
:1027E00003EBC202C0F884200398C26D836ED0F858
:1027F00084C05A430CEB8202C0F888200398026E12
:10280000836ED0F888C05A430CEB8202C0F8902047
:102810000398D0F890004DF2FD32C4F200029042CD
:1028200000910FD3FFE70398D0F89C1041F02001EE
:10283000C0F89C100398032180F8981001208DF8AF
:10284000130017E00398C06E0290FFE70298039907
:10285000D1F89010884208D2FFE702980021016069
:10286000FFE7029804300290F0E7FFE700208DF8C0
:102870001300FFE79DF8130005B07047000000004B
:10288000B0B58CB09C4696460C4605460B900A9116
:10289000099208930A9840680028CDF80CC0CDF83A
:1028A00008E00194009509D1FFE70A980168826861
:1028B0000069104340EA8140079009E00A980168E6
:1028C000826800691043084340F080400790FFE7AA
:1028D0000A98016AC2684369D0F818C0C06940EA22
:1028E000016040EA0C00184340EA024006900B9851
:1028F000816ED0F88400089A514300EB8100059066
:102900000798059908600598043005900698059980
:10291000086005980430059000200490FFE70498B3
:102920000A99C96847F63402C0F60202515C88422F
:102930000DD2FFE709980499405805990860059859
:1029400004300590FFE7049804300490E7E70CB0EA
:10295000B0BD00000000000080B584B04EF600005D
:10296000C1F6F170006803904EF60400C1F6F170F4
:10297000006802904EF60800C1F6F1700068019000
:1029800001980399084403900398002813D0FFE7A7
:10299000039840F2E001C2F200418A1C0823009132
:1029A00011461A4610F090FD029800991231042247
:1029B00010F08AFDFFE704B080BD000000000000B9
:1029C00080B58EB001460C90079104F0CDF90890C7
:1029D0000C98002805D1FFE701208DF8370000F0A2
:1029E000B6BC0C9890F8350002280ED0FFE70C9882
:1029F00080214165FFE70C98002180F83410FFE743
:102A000001208DF8370000F0A2BC0C98006801216D
:102A10001022C4F202029042069100F0A380FFE768
:102A20000C98006801212822C4F20202904206910B
:102A300000F09880FFE70C98006801214022C4F262
:102A400002029042069100F08D80FFE70C9800682A
:102A500001215822C4F202029042069100F08280C5
:102A6000FFE70C98006801217022C4F20202904234
:102A7000069177D0FFE70C98006801218822C4F204
:102A80000202904206916DD0FFE70C980068012188
:102A9000A022C4F202029042069163D0FFE70C9894
:102AA00000680121B822C4F202029042069159D076
:102AB000FFE70C980068012140F21042C4F20202C4
:102AC000904206914ED0FFE70C980068012140F239
:102AD0002842C4F202029042069143D0FFE70C98CC
:102AE0000068012140F24042C4F202029042069185
:102AF00038D0FFE70C980068012140F25842C4F238
:102B00000202904206912DD0FFE70C980068012147
:102B100040F27042C4F202029042069122D0FFE7D6
:102B20000C980068012140F28842C4F202029042EF
:102B3000069117D0FFE70C980068012140F2A042EF
:102B4000C4F20202904206910CD0FFE70C98006894
:102B50004FF64831CBF6FD710844B0FA80F04009D9
:102B60000690FFE70698C007002810D0FFE70C98F2
:102B70000068016821F01E0101600C98006841693D
:102B800021F0800141610C980068099009E00C98DF
:102B90000068016821F00E0101600C98006809903E
:102BA000FFE70C98006801211022C4F20202904253
:102BB000059100F00381FFE70C98006801212822AD
:102BC000C4F202029042059100F0F880FFE70C98F1
:102BD000006801214022C4F202029042059100F0F7
:102BE000ED80FFE70C98006801215822C4F2020230
:102BF0009042059100F0E280FFE70C980068012107
:102C00007022C4F202029042059100F0D780FFE7E3
:102C10000C98006801218822C4F2020290420591BA
:102C200000F0CC80FFE70C9800680121A022C4F2DC
:102C300002029042059100F0C180FFE70C98006805
:102C40000121B822C4F202029042059100F0B68040
:102C5000FFE70C980068012140F21042C4F2020222
:102C60009042059100F0AA80FFE70C9800680121CE
:102C700040F22842C4F202029042059100F09E8088
:102C8000FFE70C980068012140F24042C4F20202C2
:102C90009042059100F09280FFE70C9800680121B6
:102CA00040F25842C4F202029042059100F0868040
:102CB000FFE70C980068012140F27042C4F2020262
:102CC000904205917AD0FFE70C980068012140F20C
:102CD0008842C4F20202904205916FD0FFE70C983F
:102CE0000068012140F2A042C4F202029042059124
:102CF00064D0FFE70C980068012140F2B842C4F2AA
:102D000002029042059159D0FFE70C98006801211A
:102D100045F20842C5F60202904205914ED0FFE707
:102D20000C980068012145F21C42C5F6020290424F
:102D3000059143D0FFE70C980068012145F230422D
:102D4000C5F602029042059138D0FFE70C98006862
:102D5000012145F24442C5F60202904205912DD070
:102D6000FFE70C980068012145F25842C5F60202BF
:102D70009042059122D0FFE70C980068012145F2AE
:102D80006C42C5F602029042059117D0FFE70C98FD
:102D90000068012145F28042C5F602029042059189
:102DA0000CD0FFE70C9800684AF66C31CAF2FD714E
:102DB0000844B0FA80F040090590FFE70598C00785
:102DC000002807D0FFE70C98006E016821F480719D
:102DD0000160FFE70C9800681021C4F202018842EC
:102DE00000F08180FFE70C9800682821C4F20201FE
:102DF000884278D0FFE70C9800684021C4F20201B5
:102E0000884270D0FFE70C9800685821C4F2020194
:102E1000884268D0FFE70C9800687021C4F2020174
:102E2000884260D0FFE70C9800688821C4F2020154
:102E3000884258D0FFE70C980068A021C4F2020134
:102E4000884250D0FFE70C980068B821C4F2020114
:102E5000884248D0FFE70C98006840F21041C4F265
:102E6000020188423FD0FFE70C98006840F22841F9
:102E7000C4F20201884236D0FFE70C98006840F2A5
:102E80004041C4F2020188422DD0FFE70C9800684F
:102E900040F25841C4F20201884224D0FFE70C9866
:102EA000006840F27041C4F2020188421BD0FFE783
:102EB0000C98006840F28841C4F20201884212D0A6
:102EC000FFE70C98006840F2A041C4F2020188427A
:102ED00009D0FFE70C98006840F2B841C4F2020143
:102EE000884209D1FFE70C980068016821F00101D0
:102EF0000A460160049208E00C980068016821F01D
:102F000001010A4601600392FFE7FFE709980068A4
:102F100010F0010F1BD0FFE703F026FFDDF820E0E3
:102F2000A0EB0E00062811D3FFE70C982021416585
:102F30000C98032180F83510FFE70C98002180F8E9
:102F40003410FFE701208DF8370000E2DEE70C982F
:102F5000006801211022C4F202029042029100F0A6
:102F6000A380FFE70C98006801212822C4F2020226
:102F70009042029100F09880FFE70C9800680121D0
:102F80004022C4F202029042029100F08D80FFE7DD
:102F90000C98006801215822C4F20202904202916A
:102FA00000F08280FFE70C98006801217022C4F2D3
:102FB00002029042029177D0FFE70C98006801214D
:102FC0008822C4F20202904202916DD0FFE70C9871
:102FD00000680121A022C4F202029042029163D053
:102FE000FFE70C9800680121B822C4F20202904267
:102FF000029159D0FFE70C980068012140F210427D
:10300000C4F20202904202914ED0FFE70C98006891
:10301000012140F22842C4F202029042029143D0C0
:10302000FFE70C980068012140F24042C4F202021E
:103030009042029138D0FFE70C980068012140F2DD
:103040005842C4F20202904202912DD0FFE70C9840
:103050000068012140F27042C4F2020290420291E3
:1030600022D0FFE70C980068012140F28842C4F2A8
:1030700002029042029117D0FFE70C9800680121EC
:1030800040F2A042C4F20202904202910CD0FFE74B
:103090000C9800684FF64831CBF6FD710844B0FA41
:1030A00080F040090290FFE70298C00700280CD08A
:1030B000FFE70C98816D0B91C06D00F01F003F2160
:1030C00001FA00F00B9988600BE00C98816D0A9171
:1030D000C06D00F01F00012101FA00F00A9948605C
:1030E000FFE70C98006801211022C4F2020290420E
:1030F000019100F00381FFE70C980068012128226C
:10310000C4F202029042019100F0F880FFE70C98AF
:10311000006801214022C4F202029042019100F0B5
:10312000ED80FFE70C98006801215822C4F20202EA
:103130009042019100F0E280FFE70C9800680121C5
:103140007022C4F202029042019100F0D780FFE7A2
:103150000C98006801218822C4F202029042019179
:1031600000F0CC80FFE70C9800680121A022C4F297
:1031700002029042019100F0C180FFE70C980068C4
:103180000121B822C4F202029042019100F0B680FF
:10319000FFE70C980068012140F21042C4F20202DD
:1031A0009042019100F0AA80FFE70C98006801218D
:1031B00040F22842C4F202029042019100F09E8047
:1031C000FFE70C980068012140F24042C4F202027D
:1031D0009042019100F09280FFE70C980068012175
:1031E00040F25842C4F202029042019100F08680FF
:1031F000FFE70C980068012140F27042C4F202021D
:10320000904201917AD0FFE70C980068012140F2CA
:103210008842C4F20202904201916FD0FFE70C98FD
:103220000068012140F2A042C4F2020290420191E2
:1032300064D0FFE70C980068012140F2B842C4F264
:1032400002029042019159D0FFE70C9800680121D9
:1032500045F20842C5F60202904201914ED0FFE7C6
:103260000C980068012145F21C42C5F6020290420A
:10327000019143D0FFE70C980068012145F23042EC
:10328000C5F602029042019138D0FFE70C98006821
:10329000012145F24442C5F60202904201912DD02F
:1032A000FFE70C980068012145F25842C5F602027A
:1032B0009042019122D0FFE70C980068012145F26D
:1032C0006C42C5F602029042019117D0FFE70C98BC
:1032D0000068012145F28042C5F602029042019148
:1032E0000CD0FFE70C9800684AF66C31CAF2FD7109
:1032F0000844B0FA80F040090190FFE70198C00748
:10330000002815D0FFE70C98416E806E48600C983D
:10331000C06E00280BD0FFE70C98C06E016821F446
:10332000807101600C98016F406F4860FFE7FFE714
:103330000C98012180F83510FFE70C98002180F8E7
:103340003410FFE7FFE700208DF83700FFE79DF816
:1033500037000EB080BD000080B58AB001460890ED
:1033600008980028069104D1FFE701208DF8270076
:1033700051E3089890F83500022807D0FFE7089835
:103380008021416501208DF8270044E308980068FA
:1033900001211022C4F202029042059100F0A380A4
:1033A000FFE70898006801212822C4F20202904237
:1033B000059100F09880FFE70898006801214022FD
:1033C000C4F202029042059100F08D80FFE7089858
:1033D000006801215822C4F202029042059100F0D7
:1033E0008280FFE70898006801217022C4F202027F
:1033F0009042059177D0FFE7089800680121882264
:10340000C4F20202904205916DD0FFE7089800686F
:103410000121A022C4F202029042059163D0FFE78D
:10342000089800680121B822C4F202029042059176
:1034300059D0FFE708980068012140F21042C4F219
:103440000202904205914ED0FFE7089800680121E2
:1034500040F22842C4F202029042059143D0FFE7B5
:1034600008980068012140F24042C4F202029042F2
:10347000059138D0FFE708980068012140F25842D2
:10348000C4F20202904205912DD0FFE7089800682F
:10349000012140F27042C4F202029042059122D012
:1034A000FFE708980068012140F28842C4F2020256
:1034B0009042059117D0FFE708980068012140F27B
:1034C000A042C4F20202904205910CD0FFE7089896
:1034D00000684FF64831CBF6FD710844B0FA80F031
:1034E00040090590FFE70598C007002800F0A1807B
:1034F000FFE70898042180F835100898006810212B
:10350000C4F20201884200F08180FFE70898006859
:103510002821C4F20201884278D0FFE708980068A9
:103520004021C4F20201884270D0FFE70898006889
:103530005821C4F20201884268D0FFE70898006869
:103540007021C4F20201884260D0FFE70898006849
:103550008821C4F20201884258D0FFE70898006829
:10356000A021C4F20201884250D0FFE70898006809
:10357000B821C4F20201884248D0FFE708980068E9
:1035800040F21041C4F2020188423FD0FFE70898A0
:10359000006840F22841C4F20201884236D0FFE7B9
:1035A0000898006840F24041C4F2020188422DD0E0
:1035B000FFE70898006840F25841C4F202018842CF
:1035C00024D0FFE70898006840F27041C4F202017D
:1035D00088421BD0FFE70898006840F28841C4F297
:1035E0000201884212D0FFE70898006840F2A0412B
:1035F000C4F20201884209D0FFE70898006840F24F
:10360000B841C4F20201884209D1FFE70898006876
:10361000016821F001010A460160049208E008985F
:103620000068016821F001010A4601600392FFE78A
:10363000ECE108980068016821F00E01016008982B
:1036400000681021C4F20201884200F08180FFE787
:10365000089800682821C4F20201884278D0FFE768
:10366000089800684021C4F20201884270D0FFE748
:10367000089800685821C4F20201884268D0FFE728
:10368000089800687021C4F20201884260D0FFE708
:10369000089800688821C4F20201884258D0FFE7E8
:1036A00008980068A021C4F20201884250D0FFE7C8
:1036B00008980068B821C4F20201884248D0FFE7A8
:1036C0000898006840F21041C4F2020188423FD0DD
:1036D000FFE70898006840F22841C4F202018842DE
:1036E00036D0FFE70898006840F24041C4F202017A
:1036F00088422DD0FFE70898006840F25841C4F294
:103700000201884224D0FFE70898006840F2704127
:10371000C4F2020188421BD0FFE70898006840F21B
:103720008841C4F20201884212D0FFE7089800687D
:1037300040F2A041C4F20201884209D0FFE7089894
:10374000006840F2B841C4F20201884209D1FFE7A3
:1037500008980068016821F001010A4601600292A0
:1037600008E008980068016821F001010A4601603C
:103770000192FFE70898006801211022C4F20202BA
:103780009042009100F00381FFE708980068012152
:103790002822C4F202029042009100F0F880FFE774
:1037A0000898006801214022C4F202029042009170
:1037B00000F0ED80FFE70898006801215822C4F26C
:1037C00002029042009100F0E280FFE70898006852
:1037D00001217022C4F202029042009100F0D780D1
:1037E000FFE70898006801218822C4F20202904293
:1037F000009100F0CC80FFE7089800680121A0222A
:10380000C4F202029042009100F0C180FFE70898E4
:1038100000680121B822C4F202029042009100F037
:10382000B680FFE708980068012140F21042C4F218
:1038300002029042009100F0AA80FFE70898006819
:10384000012140F22842C4F202029042009100F0AD
:103850009E80FFE708980068012140F24042C4F2D0
:1038600002029042009100F09280FFE70898006801
:10387000012140F25842C4F202029042009100F04D
:103880008680FFE708980068012140F27042C4F288
:103890000202904200917AD0FFE708980068012167
:1038A00040F28842C4F20202904200916FD0FFE7DA
:1038B00008980068012140F2A042C4F2020290423E
:1038C000009164D0FFE708980068012140F2B842F7
:1038D000C4F202029042009159D0FFE708980068B4
:1038E000012145F20842C5F60202904200914ED0F5
:1038F000FFE708980068012145F21C42C5F6020264
:103900009042009143D0FFE708980068012145F2FA
:103910003042C5F602029042009138D0FFE7089885
:103920000068012145F24442C5F60202904200912E
:103930002DD0FFE708980068012145F25842C5F6EE
:1039400002029042009122D0FFE70898006801210E
:1039500045F26C42C5F602029042009117D0FFE793
:1039600008980068012145F28042C5F602029042A3
:1039700000910CD0FFE7089800684AF66C31CAF253
:10398000FD710844B0FA80F040090090FFE700980C
:10399000C007002826D0FFE70898006E016821F4D0
:1039A000807101600898816D0791C06D00F01F0063
:1039B000012101FA00F0079948600898416E806E75
:1039C00048600898C06E00280BD0FFE70898C06ECA
:1039D000016821F4807101600898016F406F4860B0
:1039E000FFE7FFE70898012180F83510FFE7089806
:1039F000002180F83410FFE70898006D002804D0FB
:103A0000FFE70898016D8847FFE7FFE7FFE7002021
:103A10008DF82700FFE79DF827000AB080BD000061
:103A200082B0014601900198406D009102B070474C
:103A300080B592B013468C46864610908DF83F10A4
:103A40000E9200208DF837000893CDF81CC0CDF8F9
:103A500018E003F089F90B901098002805D1FFE7D2
:103A600001208DF8470000F061BD109890F83500F6
:103A700002280ED0FFE7109880214165FFE71098DB
:103A8000002180F83410FFE701208DF8470000F096
:103A90004DBD1098006801211022C4F2020290422C
:103AA000059100F0A380FFE710980068012128220B
:103AB000C4F202029042059100F09880FFE710984E
:103AC000006801214022C4F202029042059100F0F8
:103AD0008D80FFE71098006801215822C4F202028D
:103AE0009042059100F08280FFE710980068012164
:103AF0007022C4F202029042059177D0FFE710983D
:103B0000006801218822C4F20202904205916DD022
:103B1000FFE7109800680121A022C4F2020290423F
:103B2000059163D0FFE7109800680121B822C4F224
:103B300002029042059159D0FFE7109800680121D8
:103B400040F21042C4F20202904205914ED0FFE7CB
:103B500010980068012140F22842C4F2020290420B
:103B6000059143D0FFE710980068012140F24042E0
:103B7000C4F202029042059138D0FFE71098006825
:103B8000012140F25842C4F20202904205912DD028
:103B9000FFE710980068012140F27042C4F202026F
:103BA0009042059122D0FFE710980068012140F271
:103BB0008842C4F202029042059117D0FFE71098A4
:103BC0000068012140F2A042C4F202029042059135
:103BD0000CD0FFE7109800684FF64831CBF6FD7126
:103BE0000844B0FA80F040090590FFE70598C00747
:103BF00000282ED0FFE710980068006810F4807F3E
:103C000009D0FFE710984FF48071416501208DF8CD
:103C1000470000F08BBC9DF83F00002809D1FFE76A
:103C20001098C06D00F01F00202101FA00F00C90E8
:103C300008E01098C06D00F01F00102101FA00F09C
:103C40000C90FFE71098816D0A91806D0830099003
:103C50002DE010980068006810F0200F09D0FFE7F1
:103C600010984FF48071416501208DF8470000F0F5
:103C70005DBC9DF83F00002809D1FFE71098C06D9A
:103C800000F01F00022101FA00F00C9008E01098EB
:103C9000C06D00F01F00042101FA00F00C90FFE756
:103CA0001098816D0A91806D04300990FFE7FFE75D
:103CB0000A9800680C99084240F09582FFE7109836
:103CC000006801211022C4F202029042049100F027
:103CD000A380FFE71098006801212822C4F20202A5
:103CE0009042049100F09880FFE71098006801214D
:103CF0004022C4F202029042049100F08D80FFE75E
:103D00001098006801215822C4F2020290420491E6
:103D100000F08280FFE71098006801217022C4F251
:103D200002029042049177D0FFE7109800680121C9
:103D30008822C4F20202904204916DD0FFE71098ED
:103D400000680121A022C4F202029042049163D0D3
:103D5000FFE7109800680121B822C4F202029042E5
:103D6000049159D0FFE710980068012140F21042F9
:103D7000C4F20202904204914ED0FFE7109800680E
:103D8000012140F22842C4F202029042049143D041
:103D9000FFE710980068012140F24042C4F202029D
:103DA0009042049138D0FFE710980068012140F25A
:103DB0005842C4F20202904204912DD0FFE71098BD
:103DC0000068012140F27042C4F202029042049164
:103DD00022D0FFE710980068012140F28842C4F227
:103DE00002029042049117D0FFE710980068012169
:103DF00040F2A042C4F20202904204910CD0FFE7CC
:103E0000109800684FF64831CBF6FD710844B0FABF
:103E100080F040090490FFE70498C00700285FD0B5
:103E2000FFE70A9800681099C96D01F01F0101228F
:103E300002FA01F108420FD0FFE71098416D41F0FE
:103E4000020141651098C06D00F01F00012101FAC8
:103E500000F009990860FFE70A9800681099C96D99
:103E600001F01F01042202FA01F108420FD0FFE71E
:103E70001098416D41F0040141651098C06D00F04B
:103E80001F00042101FA00F009990860FFE70A9871
:103E900000681099C96D01F01F01082202FA01F1B2
:103EA00008421CD0FFE71098416D41F001014165C7
:103EB0001098C06D00F01F00082101FA00F0099968
:103EC00008601098012180F83510FFE71098002154
:103ED00080F83410FFE701208DF8470026E324E046
:103EE0000A9800681099C96D01F01F01082202FAB2
:103EF00001F1084218D0FFE71098C06D00F01F00D4
:103F0000012101FA00F00A9A10601098416510989A
:103F100080F83510FFE71098002180F83410FFE793
:103F200001208DF8470001E3FFE70E9801300028DB
:103F30001BD0FFE702F018FFDDF82CE0A0EB0E002D
:103F4000DDF838E0704504D8FFE70E9800280BD163
:103F5000FFE71098202141651098FEF731FD0121FF
:103F60008DF847100390E1E2FFE710980068012107
:103F70001022C4F202029042029100F00381FFE796
:103F80001098006801212822C4F202029042029196
:103F900000F0F880FFE71098006801214022C4F289
:103FA00002029042029100F0ED80FFE71098006855
:103FB00001215822C4F202029042029100F0E280F4
:103FC000FFE71098006801217022C4F202029042BB
:103FD000029100F0D780FFE7109800680121882245
:103FE000C4F202029042029100F0CC80FFE71098E8
:103FF00000680121A022C4F202029042029100F066
:10400000C180FFE7109800680121B822C4F20202C3
:104010009042029100F0B680FFE7109800680121FD
:1040200040F21042C4F202029042029100F0AA80D3
:10403000FFE710980068012140F22842C4F2020212
:104040009042029100F09E80FFE7109800680121E5
:1040500040F24042C4F202029042029100F092808B
:10406000FFE710980068012140F25842C4F20202B2
:104070009042029100F08680FFE7109800680121CD
:1040800040F27042C4F20202904202917AD0FFE7FD
:1040900010980068012140F28842C4F20202904266
:1040A00002916FD0FFE710980068012140F2A04212
:1040B000C4F202029042029164D0FFE710980068B7
:1040C000012140F2B842C4F202029042029159D05A
:1040D000FFE710980068012145F20842C5F6020288
:1040E000904202914ED0FFE710980068012145F2FE
:1040F0001C42C5F602029042029143D0FFE710989D
:104100000068012145F23042C5F602029042029158
:1041100038D0FFE710980068012145F24442C5F607
:104120000202904202912DD0FFE710980068012111
:1041300045F25842C5F602029042029122D0FFE7B2
:1041400010980068012145F26C42C5F602029042C7
:10415000029117D0FFE710980068012145F28042D4
:10416000C5F60202904202910CD0FFE71098006859
:104170004AF66C31CAF2FD710844B0FA80F0400989
:104180000290FFE70298C00700282BD0FFE71098A5
:10419000C06E002813D0FFE71098006F00681099D8
:1041A000496F08420AD0FFE71098016F406F4860DE
:1041B0001098416D41F480614165FFE7FFE7109879
:1041C000406E00681099896E08420AD0FFE7109887
:1041D000416E806E48601098416D41F400714165F8
:1041E000FFE7FFE764E59DF83F00002840F0D2803C
:1041F000FFE71098006801211022C4F202029042E9
:10420000019100F0A380FFE71098006801212822A7
:10421000C4F202029042019100F09880FFE71098EA
:10422000006801214022C4F202029042019100F094
:104230008D80FFE71098006801215822C4F2020225
:104240009042019100F08280FFE710980068012100
:104250007022C4F202029042019177D0FFE71098D9
:10426000006801218822C4F20202904201916DD0BF
:10427000FFE7109800680121A022C4F202029042D8
:10428000019163D0FFE7109800680121B822C4F2C1
:1042900002029042019159D0FFE710980068012175
:1042A00040F21042C4F20202904201914ED0FFE768
:1042B00010980068012140F22842C4F202029042A4
:1042C000019143D0FFE710980068012140F240427D
:1042D000C4F202029042019138D0FFE710980068C2
:1042E000012140F25842C4F20202904201912DD0C5
:1042F000FFE710980068012140F27042C4F2020208
:104300009042019122D0FFE710980068012140F20D
:104310008842C4F202029042019117D0FFE7109840
:104320000068012140F2A042C4F2020290420191D1
:104330000CD0FFE7109800684FF64831CBF6FD71BE
:104340000844B0FA80F040090190FFE70198C007E7
:1043500000280AD0FFE71098C06D00F01F00302140
:1043600001FA00F00999086009E01098C06D00F0AA
:104370001F00022101FA00F009990860FFE7109878
:10438000012180F83510FFE71098002180F83410E3
:10439000FFE7C6E01098006801211022C4F2020273
:1043A0009042009100F0A380FFE71098006801217F
:1043B0002822C4F202029042009100F09880FFE7A8
:1043C0001098006801214022C4F20202904200913C
:1043D00000F08D80FFE71098006801215822C4F298
:1043E00002029042009100F08280FFE7109800687E
:1043F00001217022C4F202029042009177D0FFE7BF
:104400001098006801218822C4F2020290420091B3
:104410006DD0FFE7109800680121A022C4F20202CB
:104420009042009163D0FFE7109800680121B82204
:10443000C4F202029042009159D0FFE71098006840
:10444000012140F21042C4F20202904200914ED08B
:10445000FFE710980068012140F22842C4F20202EE
:104460009042009143D0FFE710980068012140F28C
:104470004042C4F202029042009138D0FFE7109807
:104480000068012140F25842C4F2020290420091B9
:104490002DD0FFE710980068012140F27042C4F26D
:1044A00002029042009122D0FFE71098006801219B
:1044B00040F28842C4F202029042009117D0FFE716
:1044C00010980068012140F2A042C4F2020290421A
:1044D00000910CD0FFE7109800684FF64831CBF6FA
:1044E000FD710844B0FA80F040090090FFE70098A1
:1044F000C00700280AD0FFE71098C06D00F01F0029
:10450000102101FA00F00999086009E01098C06DC7
:1045100000F01F00042101FA00F009990860FFE78C
:10452000FFE79DF837008DF84700FFE79DF847004B
:1045300012B080BD00000000B0B58EB09C4696461B
:104540000C4605460C900B910A92099300208DF8B9
:1045500023000C980028CDF81CC0CDF818E0059475
:10456000049504D1FFE701208DF837006EE1FFE7E5
:104570000C9890F83400012804D1FFE702208DF850
:10458000370063E10C98012180F83410FFE7FFE762
:104590000C9890F83500012840F04581FFE70C9811
:1045A000022180F835100C98002141650C980068B4
:1045B0001021C4F20201884200F08180FFE70C98CC
:1045C00000682821C4F20201884278D0FFE70C98E5
:1045D00000684021C4F20201884270D0FFE70C98C5
:1045E00000685821C4F20201884268D0FFE70C98A5
:1045F00000687021C4F20201884260D0FFE70C9885
:1046000000688821C4F20201884258D0FFE70C9864
:104610000068A021C4F20201884250D0FFE70C9844
:104620000068B821C4F20201884248D0FFE70C9824
:10463000006840F21041C4F2020188423FD0FFE717
:104640000C98006840F22841C4F20201884236D03A
:10465000FFE70C98006840F24041C4F20201884232
:104660002DD0FFE70C98006840F25841C4F20201D7
:10467000884224D0FFE70C98006840F27041C4F2F1
:10468000020188421BD0FFE70C98006840F2884185
:10469000C4F20201884212D0FFE70C98006840F291
:1046A000A041C4F20201884209D0FFE70C980068DB
:1046B00040F2B841C4F20201884209D1FFE70C98E8
:1046C0000068016821F001010A460160039208E0D8
:1046D0000C980068016821F001010A46016002920D
:1046E000FFE70C980B990A9A099BFDF771FC0C984F
:1046F00000681021C4F20201884200F08180FFE7C7
:104700000C9800682821C4F20201884278D0FFE7A3
:104710000C9800684021C4F20201884270D0FFE783
:104720000C9800685821C4F20201884268D0FFE763
:104730000C9800687021C4F20201884260D0FFE743
:104740000C9800688821C4F20201884258D0FFE723
:104750000C980068A021C4F20201884250D0FFE703
:104760000C980068B821C4F20201884248D0FFE7E3
:104770000C98006840F21041C4F2020188423FD018
:10478000FFE70C98006840F22841C4F20201884219
:1047900036D0FFE70C98006840F24041C4F20201B5
:1047A00088422DD0FFE70C98006840F25841C4F2CF
:1047B0000201884224D0FFE70C98006840F2704163
:1047C000C4F2020188421BD0FFE70C98006840F257
:1047D0008841C4F20201884212D0FFE70C980068B9
:1047E00040F2A041C4F20201884209D0FFE70C98D0
:1047F000006840F2B841C4F20201884209D1FFE7E3
:104800000C980068016841F001010A4601600192BC
:1048100008E00C980068016841F001010A46016057
:104820000092FFE70DE00C984FF400614165FFE74F
:104830000C98002180F83410FFE701208DF8230048
:10484000FFE79DF823008DF83700FFE79DF837005C
:104850000EB0B0BD00000000B0B590B09C469646CA
:104860000C4605460E900D910C920B9300208DF88E
:104870002B000E980028CDF824C0CDF820E0079436
:10488000069504D1FFE701208DF83F0079E3FFE7AB
:104890000E9890F83400012804D1FFE702208DF82B
:1048A0003F006EE30E98012180F83410FFE7FFE728
:1048B0000E9890F83500012840F05083FFE70E98DD
:1048C000022180F835100E98002141650E9800688D
:1048D0001021C4F20201884200F08180FFE70E98A7
:1048E00000682821C4F20201884278D0FFE70E98C0
:1048F00000684021C4F20201884270D0FFE70E98A0
:1049000000685821C4F20201884268D0FFE70E987F
:1049100000687021C4F20201884260D0FFE70E985F
:1049200000688821C4F20201884258D0FFE70E983F
:104930000068A021C4F20201884250D0FFE70E981F
:104940000068B821C4F20201884248D0FFE70E98FF
:10495000006840F21041C4F2020188423FD0FFE7F4
:104960000E98006840F22841C4F20201884236D015
:10497000FFE70E98006840F24041C4F2020188420D
:104980002DD0FFE70E98006840F25841C4F20201B2
:10499000884224D0FFE70E98006840F27041C4F2CC
:1049A000020188421BD0FFE70E98006840F2884160
:1049B000C4F20201884212D0FFE70E98006840F26C
:1049C000A041C4F20201884209D0FFE70E980068B6
:1049D00040F2B841C4F20201884209D1FFE70E98C3
:1049E0000068016821F001010A460160059208E0B3
:1049F0000E980068016821F001010A4601600492E6
:104A0000FFE70E980D990C9A0B9BFDF7E1FA0E98B3
:104A1000006801211022C4F202029042039100F0CA
:104A2000A380FFE70E98006801212822C4F2020249
:104A30009042039100F09880FFE70E9800680121F2
:104A40004022C4F202029042039100F08D80FFE701
:104A50000E98006801215822C4F20202904203918C
:104A600000F08280FFE70E98006801217022C4F2F6
:104A700002029042039177D0FFE70E98006801216F
:104A80008822C4F20202904203916DD0FFE70E9893
:104A900000680121A022C4F202029042039163D077
:104AA000FFE70E9800680121B822C4F2020290428A
:104AB000039159D0FFE70E980068012140F210429F
:104AC000C4F20202904203914ED0FFE70E980068B4
:104AD000012140F22842C4F202029042039143D0E5
:104AE000FFE70E980068012140F24042C4F2020242
:104AF0009042039138D0FFE70E980068012140F200
:104B00005842C4F20202904203912DD0FFE70E9862
:104B10000068012140F27042C4F202029042039107
:104B200022D0FFE70E980068012140F28842C4F2CB
:104B300002029042039117D0FFE70E98006801210E
:104B400040F2A042C4F20202904203910CD0FFE76F
:104B50000E9800684FF64831CBF6FD710844B0FA64
:104B600080F040090390FFE70398C007002816D0A3
:104B7000FFE70E98006800680B2161F344000E996E
:104B8000096808600E98006C002807D0FFE70E98AF
:104B90000068016841F008010160FFE715E00E9828
:104BA00000680068052161F343000E9909680860F8
:104BB0000E98006C002807D0FFE70E980068016887
:104BC00041F004010160FFE7FFE70E980068012152
:104BD0001022C4F202029042029100F00381FFE72A
:104BE0000E98006801212822C4F20202904202912C
:104BF00000F0F880FFE70E98006801214022C4F21F
:104C000002029042029100F0ED80FFE70E980068EA
:104C100001215822C4F202029042029100F0E28087
:104C2000FFE70E98006801217022C4F20202904250
:104C3000029100F0D780FFE70E98006801218822DA
:104C4000C4F202029042029100F0CC80FFE70E987D
:104C500000680121A022C4F202029042029100F0F9
:104C6000C180FFE70E9800680121B822C4F2020259
:104C70009042029100F0B680FFE70E980068012193
:104C800040F21042C4F202029042029100F0AA8067
:104C9000FFE70E980068012140F22842C4F20202A8
:104CA0009042029100F09E80FFE70E98006801217B
:104CB00040F24042C4F202029042029100F092801F
:104CC000FFE70E980068012140F25842C4F2020248
:104CD0009042029100F08680FFE70E980068012163
:104CE00040F27042C4F20202904202917AD0FFE791
:104CF0000E980068012140F28842C4F202029042FC
:104D000002916FD0FFE70E980068012140F2A042A7
:104D1000C4F202029042029164D0FFE70E9800684C
:104D2000012140F2B842C4F202029042029159D0ED
:104D3000FFE70E980068012145F20842C5F602021D
:104D4000904202914ED0FFE70E980068012145F293
:104D50001C42C5F602029042029143D0FFE70E9832
:104D60000068012145F23042C5F6020290420291EC
:104D700038D0FFE70E980068012145F24442C5F69D
:104D80000202904202912DD0FFE70E9800680121A7
:104D900045F25842C5F602029042029122D0FFE746
:104DA0000E980068012145F26C42C5F6020290425D
:104DB000029117D0FFE70E980068012145F280426A
:104DC000C5F60202904202910CD0FFE70E980068EF
:104DD0004AF66C31CAF2FD710844B0FA80F040091D
:104DE0000290FFE70298C00700281BD0FFE70E984B
:104DF000006E006810F4803F07D0FFE70E98006E49
:104E0000016841F480710160FFE70E98C06E0028D0
:104E100007D0FFE70E98C06E016841F48071016011
:104E2000FFE7FFE70E9800681021C4F202018842F4
:104E300000F08180FFE70E9800682821C4F202018B
:104E4000884278D0FFE70E9800684021C4F2020142
:104E5000884270D0FFE70E9800685821C4F2020122
:104E6000884268D0FFE70E9800687021C4F2020102
:104E7000884260D0FFE70E9800688821C4F20201E2
:104E8000884258D0FFE70E980068A021C4F20201C2
:104E9000884250D0FFE70E980068B821C4F20201A2
:104EA000884248D0FFE70E98006840F21041C4F2F3
:104EB000020188423FD0FFE70E98006840F2284187
:104EC000C4F20201884236D0FFE70E98006840F233
:104ED0004041C4F2020188422DD0FFE70E980068DD
:104EE00040F25841C4F20201884224D0FFE70E98F4
:104EF000006840F27041C4F2020188421BD0FFE713
:104F00000E98006840F28841C4F20201884212D033
:104F1000FFE70E98006840F2A041C4F20201884207
:104F200009D0FFE70E98006840F2B841C4F20201D0
:104F3000884209D1FFE70E980068016841F001013D
:104F40000A460160019208E00E980068016841F08D
:104F500001010A4601600092FFE70DE00E984FF450
:104F600000614165FFE70E98002180F83410FFE7EB
:104F700001208DF82B00FFE79DF82B008DF83F00F6
:104F8000FFE79DF83F0010B0B0BD0000000000003A
:104F900080B584B001460390009101F0E5FE0290D7
:104FA0000398019001980130002809D0FFE740F2F2
:104FB0000810C2F200400078019908440190FFE710
:104FC000FFE701F0D1FEDDF808E0A0EB0E00DDF810
:104FD00004E0704501D2FFE7F3E704B080BD0000B4
:104FE00080B588B013468C4686460690059104929B
:104FF000069890F898008DF80F009DF80F00012892
:105000000293CDF804C0CDF800E005D0FFE79DF88D
:105010000F0002285CD1FFE7059806990968896DA1
:10502000084207D1FFE706980068C16D41F0010111
:10503000C16515E0059806990968896D08400599CC
:10504000884207D1FFE706980068C16D41F0020170
:10505000C16504E0069800680321C165FFE7FFE72A
:105060009DF815008007002809D5FFE704980699E8
:105070000968D1F8E0201043C1F8E000FFE79DF88F
:1050800015004007002809D5FFE70498069909682C
:10509000D1F8E4201043C1F8E400FFE7FFE70598EA
:1050A0004FF6FF71C3F6CF710840069909684A6D43
:1050B0001043486505984AF61401C4F200010A68D5
:1050C00042EA90700860FFE700208DF81F000AE0B8
:1050D0000698D0F89C1041F00201C0F89C10012005
:1050E0008DF81F00FFE79DF81F0008B080BD00008D
:1050F000B0B592B09C4696460C4605460C900B9176
:105100000A9209930C9890F898008DF823000B9858
:1051100040680028CDF81CC0CDF818E0059404952F
:1051200001D1FFE700E0FFE79DF82300012805D04B
:10513000FFE79DF82300022860D1FFE7099890FA65
:10514000A0F00E900E98002804D1FFE720208DF8E3
:105150003F0005E00E98B0FA80F08DF83F00FFE7C1
:105160009DF83F000C990968D1F8C01001F47C113A
:10517000B0EB114F0BD3FFE70C98D0F89C1041F027
:105180002001C0F89C1001208DF8370041E00C98F8
:105190000068D0F8CC00099908420BD0FFE70C98C2
:1051A000D0F89C1041F04001C0F89C1001208DF80F
:1051B00037002EE00C980B990A9A099B93FAA3F3F7
:1051C0001093109B002B03900291019204D1FFE7F2
:1051D00020208DF8470005E01098B0FA80F08DF897
:1051E0004700FFE79DF8473003980299019AFDF7C1
:1051F00047FBFFE700208DF837000AE00C98D0F855
:105200009C1041F00201C0F89C1001208DF837007D
:10521000FFE79DF8370012B0B0BD000000000000AD
:1052200080B588B013468C46864606900591049258
:105230000598406800280293CDF804C0CDF800E03E
:1052400001D1FFE700E0FFE7069890F898000228F8
:1052500046D1FFE706980068D0F8C00010F07C5FE8
:105260000BD1FFE70698D0F89C1041F02001C0F860
:105270009C1001208DF81F003DE006980068D0F8D2
:10528000C40010F4001F0BD0FFE70698D0F89C1064
:1052900041F40071C0F89C1001208DF81F002AE035
:1052A00006980068D0F8C400C0F304400390069844
:1052B0000599049A039BFDF7E3FA0398012101FA8B
:1052C00000F0069A1268C2F8D000039801FA00F0C4
:1052D0000699C1F89400FFE700208DF81F000AE04E
:1052E0000698D0F89C1041F00801C0F89C100120ED
:1052F0008DF81F00FFE79DF81F0008B080BD00007B
:1053000084B00A460346039002910192009304B0D0
:10531000704700000000000089B00A46034607906D
:105320000691079890F898008DF80B009DF80B00F7
:1053300001280192009305D0FFE79DF80B00022899
:105340006AD1FFE70698C068072801D1FFE7FFE7A9
:105350000698006800282FD1FFE70698C068072844
:1053600001D0FFE7FFE70698C06807280CD1FFE7E8
:10537000069801698269C069090441EA0020104366
:1053800040F0605005900CE006988168C26803699F
:105390004069890741EAC26141EA03410843059037
:1053A000FFE70798C06E0699496800EB81000390FB
:1053B0000598039908602BE00698C068072801D07B
:1053C000FFE7FFE70698C168026942EA417105916B
:1053D000C068072804D1FFE706988069049006E0BA
:1053E00006988168406940EA81700490FFE7079859
:1053F000006F0699496800EBC10003900598039976
:105400000860039804300390049803990860FFE74C
:1054100000208DF823000AE00798D0F89C1041F096
:105420000201C0F89C1001208DF82300FFE79DF8D1
:10543000230009B07047000082B00146019000913E
:1054400002B070470000000084B00A460346039093
:1054500002910192009304B0704700000000000028
:10546000B0B58EB09C4696460C4605460C900B9106
:105470000A920993002005900C9890F898008DF8F6
:1054800013009DF813000228CDF80CC0CDF808E0F9
:105490000194009540F06181FFE70B98402852D1BC
:1054A000FFE70C980068D0F8A00010F4FE0F0BD1B5
:1054B000FFE70C98D0F89C1041F02001C0F89C1038
:1054C00001208DF8370053E10C980068D0F8A40053
:1054D00010F07F0F0BD1FFE70C98D0F89C1041F42F
:1054E0008071C0F89C1001208DF8370040E10C98C5
:1054F0000068D0F8A40000F080700121B1EB106FBB
:105500000DD1FFE70C980068D0F8A0000121B1EBA5
:10551000D07F03D1FFE701200590FFE7FFE70C985C
:105520000068D0F8A40000F47C50059901EB10202D
:1055300005900C98416C406F059A514300EB810037
:105540000890FFE771E00B98412852D1FFE70C98D3
:105550000068D0F8B00010F4FE0F0BD1FFE70C98F4
:10556000D0F89C1041F02001C0F89C1001208DF86B
:105570003700FDE00C980068D0F8B40010F07F0F01
:105580000BD1FFE70C98D0F89C1041F48071C0F863
:105590009C1001208DF83700EAE00C980068D0F8E4
:1055A000B40000F080700121B1EB106F0DD1FFE766
:1055B0000C980068D0F8B0000121B1EBD07F03D186
:1055C000FFE701200590FFE7FFE70C980068D0F89F
:1055D000B40000F47C50059901EB102005900C9864
:1055E000C16C806F059A514300EB81000890FFE782
:1055F0001AE00B980C99096D88420BD3FFE70C98C1
:10560000D0F89C1041F02001C0F89C1001208DF8CA
:105610003700ADE00C98416DC06F0B9A514300EB21
:1056200081000890FFE7FFE7FFE70898006800F0B7
:1056300080400A9948600A984068002807D1FFE72F
:1056400008980068C0F38A400A99086006E0089844
:10565000006820F060400A990860FFE70898006839
:1056600000F000500A9988600898006800F0004037
:105670000A990861089804300890089800880A99E7
:10568000C86108980068C0F303400A99C860089888
:10569000006800F480100A9948610898006800F4D6
:1056A00000100A99886108980068C0F306600A999A
:1056B000086208980068C00F0A9948620898043088
:1056C00008900898079000200690FFE706980A992E
:1056D000C96847F63402C0F60202515C88420AD219
:1056E000FFE707980699405C099A5054FFE706982F
:1056F00001300690EAE70B98402806D1FFE70598AD
:105700000C990968C1F8A80023E00B98412806D13C
:10571000FFE705980C990968C1F8B80018E00B98E4
:105720001F2809D8FFE70B98012101FA00F00C9916
:105730000968C1F898000AE00B9800F01F000121E9
:1057400001FA00F00C990968C1F89C00FFE7FFE737
:10575000FFE700208DF837000AE00C98D0F89C1085
:1057600041F00801C0F89C1001208DF83700FFE7D8
:105770009DF837000EB0B0BD83B00146029002988C
:105780000068D0F8C40000F03F000190019800913B
:1057900003B070470000000082B001460190009104
:1057A00002B070470000000080B596B00146159029
:1057B0004AF61000C4F200000068800714904AF610
:1057C0001400C4F200000068149A02EA8070149079
:1057D00015980068006D00F47040139015980068EB
:1057E000406D139A1040139015980068006D00F0FA
:1057F0000F00129015980068406D129A1040129098
:1058000015980068006D00F0F00011901598006880
:10581000406D119A1040119015980068006D00F0CD
:105820007150109015980068406D109A10401090BB
:1058300015980068006D00F060700F901598006872
:10584000406D0F9A10400F9015980068406D0590BC
:1058500015980068006D03909DF81500C00700289A
:10586000019118D0FFE79DF80D00C007002811D066
:10587000FFE7FFE7159800684FF4807101654AF66D
:105880001000C4F2000000210160FFE71598FFF747
:1058900083FFFFE7FFE79DF8150000F004000021FB
:1058A000B1EB900F28D0FFE79DF80D0000F0040049
:1058B0000021B1EB900F1ED0FFE715980068D0F8DB
:1058C000DC000D9015980068D0F8E4000D990840B0
:1058D0000D90FFE7159800684FF4806101654AF666
:1058E0001000C4F2000000210160FFE715980D9937
:1058F00000F0EAFEFFE7FFE71498002817D0FFE763
:10590000FFE714984FF6FF71C3F6CF710840159961
:10591000096808651498800F4AF61001C4F2000166
:105920000860FFE715981499FFF7EAFCFFE7139862
:10593000002817D0FFE7FFE713984FF6FF71C3F673
:10594000CF7108401599096808651398800F4AF6C9
:105950001001C4F200010860FFE71598139900F0E8
:10596000CBFEFFE71298002817D0FFE7FFE7129859
:105970004FF6FF71C3F6CF710840159909680865A5
:105980001298800F4AF61001C4F200010860FFE788
:105990001598129900F000FEFFE71198002817D023
:1059A000FFE7FFE711984FF6FF71C3F6CF7108408C
:1059B0001599096808651198800F4AF61001C4F21C
:1059C00000010860FFE71598119900F0F9FDFFE765
:1059D0009DF8150000F008000021B1EBD00F1BD09E
:1059E000FFE79DF80D0000F008000021B1EBD00F9B
:1059F00011D0FFE7FFE7159800684FF400610165DB
:105A00004AF61000C4F2000000210160FFE715987B
:105A100000F07EFEFFE7FFE79DF8150000F00200B2
:105A20000021B1EB500F28D0FFE79DF80D0000F0EA
:105A300002000021B1EB500F1ED0FFE7159800685F
:105A4000D0F8D8000E9015980068D0F8E0000E99B4
:105A500008400E90FFE7159800684FF4007101654B
:105A60004AF61000C4F2000000210160FFE715981B
:105A70000E9900F035FEFFE7FFE79DF8160000F0F5
:105A800008000021B1EBD00F1BD0FFE79DF80E00FE
:105A900000F008000021B1EBD00F11D0FFE7FFE7C5
:105AA000159800684FF4002101654AF61000C4F211
:105AB000000000210160FFE7159800F065FDFFE799
:105AC000FFE79DF81600C007002818D0FFE79DF8F3
:105AD0000E00C007002811D0FFE7FFE71598006807
