:020000040800F2
:10000000B07B002455040008C98B000859860008FD
:10001000C18B0008591C000871E3000800000000B3
:10002000000000000000000000000000F193000844
:10003000C11D000800000000E18F0008799400084D
:1000400073040008730400087304000873040008B4
:1000500073040008730400087304000873040008A4
:100060007304000873040008730400087304000894
:100070007304000873040008730400087304000884
:10008000730400087304000873040008111E0008BC
:10009000311E0008211E0008411E0008C91D00086D
:1000A0007304000873040008730400087304000854
:1000B0007304000873040008E19600087304000844
:1000C0007304000873040008730400087304000834
:1000D0007304000873040008730400087304000824
:1000E0007304000873040008000000007304000893
:1000F0007304000873040008730400087304000804
:1001000073040008730400087304000873040008F3
:100110007304000873040008F196000801970008B2
:1001200073040008730400087304000873040008D3
:1001300073040008730400087304000873040008C3
:1001400000000000000000000000000000000000AF
:1001500073040008730400087304000873040008A3
:100160007304000873040008730400087304000893
:1001700073040008418C00087304000800000000AC
:100180007304000873040008730400087304000873
:100190007304000873040008730400087304000863
:1001A00073040008730400087304000800000000D2
:1001B0007304000873040008730400087304000843
:1001C0007304000873040008000000000000000031
:1001D00000000000000000007304000800000000A0
:1001E000000000000000000000000000000000000F
:1001F0000000000000000000730400087304000801
:100200007304000873040008000000007304000871
:1002100073040008730400087304000873040008E2
:1002200073040008000000007304000800000000D0
:100230007304000873040008000000007304000841
:1002400073040008730400087304000873040008B2
:1002500073040008730400087304000873040008A2
:100260007304000873040008730400087304000892
:100270007304000873040008730400080000000001
:100280007304000873040008730400087304000872
:100290000000000073040008730400080000000060
:1002A00000000000730400087304000873040008D1
:1002B000730400087304000873040008511E00084A
:1002C000611E0008730400087304000800F002F8BF
:1002D00000F0B1F814A696E8000CB244B344DA4535
:1002E00001D100F0A8F8BAE80F000FA696E8300098
:1002F000A5EB040504EB0607AAEB0704A7F1010729
:100300004FEA15154FEA3414A4F10104AC4201D3AD
:1003100000F091F813F0010F18BFFB1A43F001032E
:1003200000F001F8DBE71847F05B0100105C01000A
:10033000103A24BF78C878C1FAD8520724BF30C811
:1003400030C144BF04680C60704700007047000073
:100350000023002400250026103A28BF78C1FBD8CE
:10036000520728BF30C148BF0B6070476E2900F0AC
:100370000F83702900F05384662915F09682652951
:1003800015F09382672915F09082612915F08F820C
:1003900003681B0A28BF41F08001692900F0BC8274
:1003A000642900F0B982752900F0B6826F2900F047
:1003B000E183782900F01F84E92900F07B83E42998
:1003C00000F07883F52900F07583EF2900F0DE83D3
:1003D000F82900F01E840368DB0928BF41F0800182
:1003E000632901F09181732901F09681E32901F0DD
:1003F000A181F32901F0A681002070471FB515F0F7
:1004000047FA9DE8030000F015FD01F027FA04000B
:100410000020002115F026FA401C60600020002119
:1004200015F00AFAE06000F09DF91FBD10B500203C
:1004300001F0BBF910BD01F0E3F91146FFF7DEFF53
:1004400011F0C2FB01F0DAFA03B4FFF7EFFF03BCCF
:1004500001F0CCF90A4880470A4880470A4800471B
:10046000FEE7FEE7FEE7FEE7FEE7FEE7FEE7FEE764
:10047000FEE7FEE705480649064A074B70470000BD
:10048000E91D000879950008CD020008B075002428
:10049000B07B0024B0770024B077002453EA020C2C
:1004A00000F069802DE9F04B4FF00006002B1FBFD4
:1004B000B3FA83F503FA05F424FA05F65E4012BF99
:1004C0001643B2FA82F502FA05F4C5F120051EBF03
:1004D00022FA05FC44EA0C04203556EA044C4FEAA3
:1004E000144418BF641C4FF000084FF000099042FC
:1004F00071EB030C39D3002919BFB1FA81F701FA66
:1005000007F6B0FA80F700FA07F6C7F120071EBF1A
:1005100020FA07FC46EA0C062037B6FBF4FCA7EBF2
:100520000507103F07F01F0BCBF120062CFA06F64B
:100530000CFA0BFB44BFB3460026202FA4BF5E4637
:100540004FF0000B5BEA060C08BF4FF0010B19EBF4
:100550000B0948EB0608ABFB027C06FB02CC0BFB4D
:1005600003CCC01B71EB0C01C1E70B4602464146B0
:100570004846BDE8F08B13B5084318BF4FF0FF3075
:100580000146AFF30080BDE81C4070477CB51D46B6
:1005900016460C00009007D04142A14202D32044ED
:1005A000401E01E04FF0FF30064B7B442A4669466F
:1005B0000190304600F005FA002C02D0009A00218C
:1005C00011707CBD3B0400000B460146184600F04C
:1005D000F5BB10B5431C02E010F8011B71B1810797
:1005E000FAD14FF0013202C88C1A8C4314EAC211BE
:1005F000F9D0C01A0A0603D0C01E10BDC01A10BD23
:100600000A0401D0801E10BD0902FCD0401E10BD9E
:10061000032A40F2308010F0030C00F0158011F82E
:10062000013BBCF1020F624498BF11F801CB00F806
:10063000013B38BF11F8013BA2F1040298BF00F85A
:1006400001CB38BF00F8013B11F0030300F0258017
:10065000083AC0F0088051F8043B083A51F804CB3E
:10066000A0E80810F5E7121D5CBF51F8043B40F804
:10067000043BAFF30080D20724BF11F8013B11F80F
:1006800001CB48BF11F8012B24BF00F8013B00F853
:1006900001CB48BF00F8012B704710B5203AC0F0DD
:1006A0000B80B1E81850A0E81850B1E81850A0E845
:1006B0001850203ABFF4F5AF5FEA027C24BFB1E8DE
:1006C0001850A0E8185044BF18C918C0BDE8104021
:1006D0005FEA827C24BF51F8043B40F8043B08BF2A
:1006E0007047D20728BF31F8023B48BF11F8012BF1
:1006F00028BF20F8023B48BF00F8012B704702F0EA
:10070000FF0343EA032242EA024200F002B84FF03C
:10071000000200B5134694469646203922BFA0E851
:100720000C50A0E80C50B1F12001BFF4F7AF09075D
:1007300028BFA0E80C5048BF0CC05DF804EB89004E
:1007400028BF40F8042B08BF704748BF20F8022B91
:1007500011F0804F18BF00F8012B704770477047A9
:100760007047000008487CB57844009007487844FA
:10077000009C0546019004E020460168084480473B
:10078000241DAC42F8D17CBDF8580100FA58010094
:1007900070B5064600F02AFB056806F10B0020F054
:1007A0000704B4429CBF002070BD2B466A68BAB1F2
:1007B0001068A04210D304F1080188423CBF506881
:1007C000586007D35168101941601168091B016016
:1007D00058601460101D70BD13465268002AE7D19E
:1007E0002146284600F012FB0028DED170BD70B50E
:1007F0000446051F00F0FAFA0068002C14BF446894
:1008000070BD002C18BFAC423CBF20466468F8D3D2
:1008100001680A18AA4218BF456003D12A68054634
:100820001144016028684119A1421CBF6C6070BD71
:100830006168696021680844286070BD10B500F0E7
:10084000DDFA006810BD10B5044600F0D7FA046068
:1008500010BD70B5044685690068C10601D5302613
:1008600000E02026C00707D070BDD4E90121304642
:100870009047206A401C20626D1EF6D570BD70B591
:10088000044685690078C00707D170BDD4E901210D
:1008900020209047206A401C20626D1EF6D570BD56
:1008A00009684A0501D540B27047C905FCD500B2B8
:1008B000704709684A0501D5C0B27047C905FCD523
:1008C00080B2704770B50C460546012A05D02878DD
:1008D000800600D5EA69002302E0012305E05B1CE5
:1008E000934202D2E05C0028F9D1A869E618C01A48
:1008F000A861286A184428622846FFF7AAFF04E086
:10090000D5E9012114F8010B9047B442F8D32846E9
:10091000FFF7B5FF70BD00002DE9F0410646002449
:1009200010687529314616A510D0FFF7B9FF0028C9
:1009300002DA404213A507E031688A0701D512A503
:1009400002E0490704D511A5012401E0FFF7B1FF3A
:1009500000210A2206F1240709E0B0FBF2FCB0FBFB
:10096000F2F302FB1C00303078541846491C002872
:10097000F3D123462A463046BDE8F04100F0D4BA10
:10098000000000002D0000002B00000020000000EF
:1009900011680268006A530501D508700AE0D305A2
:1009A00001D5088006E0130603D5C217C1E900028D
:1009B00000E008600120704701694A1C0261087864
:1009C000704700B58FB0CDE901310021059105498F
:1009D0007944CDE903101146684600F02BF90FB0B9
:1009E00000BD0000E5FFFFFFD1E900239A4202D2DB
:1009F000531C0B60107070472DE9FF5F15468A4647
:100A00000446DFF8AC80F8440027D8E900103E46E1
:100A1000CDE9001010E03AF816106A4602A800F07E
:100A200095FE411C07D02178890603D5E269391863
:100A300091420DD80744761C2078800602D5E069E3
:100A4000B84205DDAE42E6DB3AF816000028E2D1F6
:100A5000A069C01BA0612046FFF7FBFED8E900108B
:100A6000CDE90010002017E03AF818106A4602A8F5
:100A700000F06CFEB0F1FF3F81460BD000250DF178
:100A8000080B05E0D4E901211BF8050090476D1C17
:100A90004D45F7D308F10100B0428046E4DB206AFF
:100AA000384420622046FFF7EAFEBDE8FF9F0000C1
:100AB000AA4E01002DE9F0418046D21D22F0070226
:100AC0000025D2E90002F52915A614D0011E72F105
:100AD000000106DA0023D0EB030063EB020211A64B
:100AE00008E0D8F800108B0701D50FA602E04907EF
:100AF00001D50EA601251146002408F1240704E0C3
:100B000000F0CDF930323A55641C50EA0102F7D1B9
:100B10002B46324621464046BDE8F04100F004BA7B
:100B2000000000002D0000002B000000200000004D
:100B300030B4002100F1240408E002F00705D208D7
:100B4000303542EA4372DB086554491C52EA03051A
:100B5000F3D10468002310A2250708D504F020046F
:100B60000C4304D0C46901230CA2641EC46130BCD0
:100B700000F0DAB910B5044621461068FFF799FE77
:100B800002462046BDE810400023D1E7D21D22F0E6
:100B90000701D1E90023CBE700000000300000008E
:100BA000F0B40D460188090502D5214C7C4402E0D1
:100BB0001F4C7C440E34002100F1240608E002F0B2
:100BC0000F071209E75D42EA03721B097754491CBB
:100BD00052EA0307F3D102780023120704D5702DDF
:100BE00006D009B1022311342246F0BC00F09CB9B2
:100BF00001231034F8E770B504460D46214610680D
:100C0000FFF757FE024629462046BDE87040002304
:100C1000C6E7D21D22F00703D3E90023C0E703682B
:100C2000126843F0200303600823C3610023B7E781
:100C30000C4D01002DE9F05F894604464FF0000A93
:100C4000DFF874B1FB44C0F820A02046E168884773
:100C5000002874D0252806D0D4E901219047206AC5
:100C6000401C2062F1E700265F462046E168884785
:100C70002028054607DB312D05D2781910F8200C05
:100C800008B10643F1E7B00701D526F00406C4F821
:100C90001CA00027C4F818A02A2D09D0284614F05B
:100CA000C4FD38B304EB8708303DC8F8185019E08C
:100CB00059F8041B204604EB87029161E1688847DC
:100CC000012F054618D1E069002820DA26F0200619
:100CD0001DE0D8F8180000EB800005EB400030382C
:100CE000C8F818002046E1688847054614F09DFDC5
:100CF0000028EED1012F0AD02E2D08D12046E16820
:100D000088477F1C0546022F46F02006C4DBA069F9
:100D1000002803DA404246F00106A061F00701D046
:100D200026F010066C2D0BD0682D09D04C2D39D033
:100D30006A2D35D0742D35D07A2D33D016E038E0B9
:100D4000E1682F4620468847B842054609D16C2FF6
:100D500026D04FF48060E168064320468847054668
:100D600004E06C2F1AD04FF4807006430DB3A5F148
:100D70004100192802D8203546F400664A46294623
:100D8000204626604E46FFF7F1FA80B101280BD0CD
:100D9000F61D26F0070000F1080956E74020E4E7B9
:100DA0008020D8E70020D6E706F104094DE7284661
:100DB00052E7206ABDE8F09F9C4C01002DE9F0410C
:100DC000074615460E461020FFF7E2FC04000AD045
:100DD0006760C4E9026500F00DF8016821600460F5
:100DE0000020BDE8F0810120FBE7000000487047CB
:100DF000100100240048704740010024004870475B
:100E000008010024704770477047704738B50446A2
:100E10000A4600206946AFF30080002808BF38BDAD
:100E200002460099204600F01DFD012038BD01203A
:100E300000F0F4BDF8B5AFF30080054600200C4685
:100E40000C2000BF0646A819A0420DD932466946BB
:100E50000020AFF30080070008BF00F0DFFD00981E
:100E6000A04218BF0546C419FFF7C0FF056007463A
:100E7000F01D20F007004619284600F00AF8B44299
:100E800008BFF8BDA21B31463868BDE8F84000F045
:100E9000E9BC00210160416070470C20704730B50B
:100EA000B0F10A0271F100034FEA900E4EEA817E22
:100EB000B0EB0E0061EB91014FEA101E4EEA017E8D
:100EC00010EB0E0041EB11114FEA102E4EEA016EAD
:100ED00010EB0E0041EB11214FEA104E4EEA014E8D
:100EE00010EB0E0041EB1141401841F100014FEAB7
:100EF000D00040EA41704FEAD1014FEA810444EA50
:100F0000907410EB800544EB01046D1944EB04046C
:100F1000521BA3414FF0000348BF0A3200D530BD39
:100F2000401C41F1000130BD2DE9F0470D469946C6
:100F30009246044600F124080168880604D5E06959
:100F400021F01001216000E00120A84201DD471BD3
:100F500000E00027A1697A1902EB0900081AA061D4
:100F60002078C00602D42046FFF773FC002608E074
:100F7000D4E901211AF806009047206A401C761C2B
:100F800020624E45F4DB2078C0060AD52046FFF7E4
:100F900060FC06E0D4E9012130209047206A401C23
:100FA0002062381EA7F10107F4DC07E0D4E9012133
:100FB00018F805009047206A401C2062281EA5F101
:100FC0000105F3DC2046FFF75AFC2078000602D525
:100FD0000220BDE8F0870120FBE72DE9FF4F0C461A
:100FE0001E464FF0FF378BB0D2E90001DDF860807C
:100FF0000A908A46C1F30A5505B93D4600210846C4
:101000004FF00000BAF1000F00F4400005DA00EBE9
:1010100080004FF4400101EA50004FEA9059B9F1C5
:10102000010F00DDB9460A9850EA4A000ED044F696
:101030001050A5F2FF3545432F14B8F1000F1ED014
:101040007542291E1EDDC9F100021CE0B8F1010F36
:101050004FF0000001D0302103E0F24305E02154BD
:10106000401CB042FBDB30460022002121540B998A
:10107000C1F80880C1E900200FB0BDE8F08FBD1BAA
:101080006D1CDEE74A4600DA694206A800F044FC1F
:1010900006AB93E8070003AB83E8070050460A99C4
:1010A00013F0C5FF8DE80700A0F500501F38009031
:1010B0000398002D0ADD42F21F014A46084400232E
:1010C00003A90390684614F02FFA09E0A0F5005038
:1010D0004A461F38002303A90390684614F039FAE2
:1010E0008DE807000004000C03D04FF0FF304108EA
:1010F00000E01046B8F1000F03D000220092154620
:101100001EE0751E05D4FFF7CAFE303262556D1E13
:10111000F9D5B3460122084302D000227F1C04E027
:101120002078302801D100227F1E002A099784D020
:101130001DE0112D07DAFFF7B2FE303262556D1C4B
:1011400050EA0102F5D1084302D00098C8B10EE080
:101150000021681E05E0235C625C63542254401E3B
:10116000491C8142F7DBAB46A81B401E09900020BA
:1011700004F80B000B98099AC0F80880C0E9002B0E
:101180007AE711264FF0000857E72DE9F04F88461F
:101190000446D21D22F0070191B0D1E90001CDE94A
:1011A0000A0114F00DFB02460B98C00F01D02D2050
:1011B00007E02068810701D52B2002E0202101EA09
:1011C000C000032A099001D0072A05DB03464146E7
:1011D000204600F061FB0BE12078800601D5E06934
:1011E00000E00620B8F1650F814606D0B8F1660F21
:1011F00018D0B8F1670F70D131E00020B9F1110FAC
:10120000009001DB112301E009F101030AAA01A901
:101210000CA8FFF7E2FEDDE90C70002609F10105DC
:10122000834647E001204B4600904FF000470AAA52
:1012300001A90CA8FFF7D1FEDDE90DB00C995D46C0
:10124000002610B909F101000D18B9EB050003D40F
:10125000C0F1FF3609F10105A5EB09002BE0B9F15A
:10126000010F01DA4FF001090020B9F1110F0090D0
:10127000484601DD112300E003460AAA01A90CA893
:10128000FFF7ABFEDDE90C704D4600268346207863
:1012900000070AD4AB4500DA5D4601A8012D04DD44
:1012A000411911F8011C302907D04F4502DA17F116
:1012B000040F04DA012082460FE06D1EEEE7002FD6
:1012C00002DCED1B3E4403E0781CA84200DD7D1CDF
:1012D000B81B00F1010A4FF000472078000703D443
:1012E000AA4501DB4FF0FF3A0021B7F1004F0DF1A5
:1012F00043088DF8431024D002202B23002F01DA5D
:101300007F422D230A21021EA0F1010000DC5FB103
:1013100097FBF1FC97FBF1F201FB1C7C17460CF1EB
:10132000300C08F801CDEEE7A8F101000370218828
:10133000090501D5452100E06521A0F1010800F86B
:10134000011C09980FA9A1EB0807FF1D00B101209E
:10135000411901EBEA70A1693844081A401EA061E6
:101360002078C00602D42046FFF773FA099828B106
:10137000D4E901219047206A401C20622078C006F1
:1013800022D52046FFF765FA1EE0002E04DBB345A8
:1013900002DD01A8805D00E03020D4E90121904702
:1013A000206A401C2062761CAAF101005FEA000A54
:1013B0000AD100F053FAC0680168405CD4E9012109
:1013C0009047206A401C2062281EA5F10105DCDC44
:1013D00007E0D4E9012118F8010B9047206A401C6E
:1013E0002062381EA7F10107F3DC2046FFF747FA19
:1013F000032011B041E600002DE9F04F04460D46F0
:10140000D21D22F0070089B0D0E90097484639463E
:1014100014F0D6F90246F80F01D02D2307E020681A
:10142000810701D52B2302E0202101EAC0038DF8BA
:1014300020300BB1012000E00020032A824601D0B9
:10144000072A04DB2946204600F026FA3FE12078EF
:10145000800601D40D2500E0E569C7F30A560D2D7D
:1014600049DA00214FEA175B08464FF00000002FD1
:1014700000F4400007DA00EB80004FF4400100EB7D
:10148000D07001EA60008115012901DD4FF0FF31C4
:1014900000224FEA850CBCF1180F06D31346ACF1BD
:1014A00018004FF08052C24003E04FF4801323FA3B
:1014B0000CF30CF10C0CBCF1200F04D3ACF1200C9C
:1014C00009FA0CF001E007FA0CF000294FF000488F
:1014D00001DD18B90FE00ED140450CD319EB02091C
:1014E0005F4121B9404502D19F4329EA0209BBEB84
:1014F000175F00D0761C2088000502D57B48784411
:1015000002E07A487844193808AA302302F80A30F1
:10151000037C0AF10101002E0AF1020A53546A46C3
:1015200002DC4FF0300101E04FF031014FF00108D3
:101530008DF8001002D0A6F2FF3603E059EA470109
:1015400000D06B4E002D02DC2178090704D54FF046
:1015500002082E218DF80110C44600210BE0C7F3CC
:1015600003433F01C35C491C6D1E02F80830052986
:1015700008F1010801DA002DF1DC00210CE000EB9C
:101580001973491C1B786D1E082902F808304FEAB0
:10159000091908F1010801DA002DF0DC21688B0639
:1015A00002D516E0A8F10108E04505DD02EB0803CD
:1015B00013F8013C302BF5D0B8F1000F09DD02EB38
:1015C000080313F8013C2E2B03D1090701D4A8F11D
:1015D0000108002D05DD3E2102F808106D1E08F1FE
:1015E0000108407C002E02F8080008F1010804DA26
:1015F0002D20764202F8080002E02B2002F80800B5
:101600000A214FF47A70864208F101080BDB96FB41
:10161000F0F3303302F8083096FBF0F308F10108DC
:1016200000FB136601E0642E0CDB642096FBF0F3F4
:10163000303302F8083096FBF0F308F1010800FBA4
:10164000136601E00A2E06DB96FBF1F0303002F85B
:10165000080008F1010896FBF1F001FB1060303042
:1016600002F80800A16908F1010808EB050202EB85
:101670000A00081AA0612078C00602D42046FFF7AD
:10168000E8F8216A08AE01EB0A00206204E0D4E920
:10169000012116F8010B9047BAF1010AF7D2207820
:1016A000C00602D52046FFF7D4F86E4609E016F8CA
:1016B000010B3E280FD0D4E901219047206A401C3D
:1016C0002062B8F10108F2D22046FFF7D8F809B03D
:1016D0000320BDE8F08F206A2844206203E0D4E9AB
:1016E0000121302090476D1EEBD3F8E7064401003E
:1016F00002FCFFFF10B5436913B1AFF3008001E0B6
:10170000FFF7E0F8012010BD127800F124010A7003
:1017100000224A700122EDE711684FF0FF32E9E73D
:1017200010B5436913B1AFF3008001E0FFF764F92E
:10173000012010BD128800F1240182840022C2849D
:101740000122EDE711684FF0FF32E9E72DE9F041A2
:1017500016460C46054600F079F8036893F8010137
:10176000012807D0FF2C12D8185D80B101202C7001
:10177000BDE8F081D3F807013246214603F2071392
:10178000C7182846BC46BDE8F041002360474FF02B
:10179000FF30EDE710B5002000F039F9FEF746FE06
:1017A000BDE81040012000F021B82DE9F0410646C7
:1017B000FFF720FB8046454613E016B1E068B042D3
:1017C0000ED120682860D4E90101D8F8007088475C
:1017D0002046FFF70CF8D8F80000B842EBD100E043
:1017E00025462C68002CE8D1BDE8F081014918207D
:1017F000ABBEFEE726000200004870470801002447
:101800007546FFF7F9FFAE4605006946534620F0DE
:101810000700854618B020B5FEF72CFEBDE8204035
:101820004FF000064FF000074FF000084FF0000B9C
:10183000AC46ACE8C009ACE8C009ACE8C009ACE80B
:10184000C00921F007018D467047000010B500F077
:1018500005F8001D10BD00BF0D4001000048704795
:1018600028010024034640688C46002818BF88429F
:101870003CBF03464068F8D318681844884207D034
:101880000CF1030020F00700001D411A521A014616
:10189000081D0A60FEF7ABBF2DE9F0411F46044664
:1018A00003260168072A01F4006004DB08B116A5CD
:1018B00005E016A503E008B115A500E015A521F087
:1018C00010002060A069C01EA0610FB1401EA06181
:1018D0002046FEF7BEFF4FB1D4E9012138469047BC
:1018E000206A401C2062C01C206206E0206AFAE7E1
:1018F000D4E9012115F8010B9047761EF8D2204655
:10190000FEF7BDFFBDE8F0814E414E006E616E00F6
:10191000494E4600696E66002DE9F047814616463D
:101920008AB0354878440DC88DE80D0032487844B7
:10193000801C03AC0DC884E80D0041F69B300844C0
:10194000372190FBF1F290FBF1F5A5F1800501FB49
:1019500012041B3C02D56442012000E00020DFF8A5
:1019600098A080460027FA44AAF1BE0A0EE0E007DC
:101970000AD03246684607EB470101230AEB810192
:1019800013F0E7FD8DE8070064107F1C002CEED1FA
:10199000194F7F44AE3F19E0E80715D007EB04105C
:1019A0000DF1180A90E80E008AE80E00C068F042B7
:1019B00001D1981908903246012306A903A813F013
:1019C000C8FD03AB83E807006D10641C002DE3D154
:1019D0004FF0010332466946B8F1000F03A802D068
:1019E00013F0A2FD01E013F0B4FDC9E90001C9F84C
:1019F00008200AB0BDE8F0877040010010B5044629
:101A0000AFF300802046BDE81040FEF71DBD10B5C5
:101A100000F012F8BDE8104000F008B810B500F072
:101A200023F8BDE8104000F001B87047002801D04D
:101A3000FFF7DCBE7047000010B5002102A000F0E7
:101A400079F8012010BD0000534947414252543AF1
:101A50002041626E6F726D616C207465726D696E8B
:101A60006174696F6E00000010B5012805D0002177
:101A700003A000F05FF8012010BD09A1F8E7000005
:101A800053494752544D454D3A204F7574206F6667
:101A90002068656170206D656D6F727900000000CF
:101AA0003A2048656170206D656D6F727920636FB3
:101AB000727275707465640030B44FF0013C50F878
:101AC000042BCCFA52F451F8043BD51A20D1FCB9BE
:101AD00050F8042BCCFA52F451F8043BD51A17D124
:101AE000B4B950F8042BCCFA52F451F8043BD51A8F
:101AF0000ED16CB950F8042BCCFA52F451F8043BD7
:101B0000D51A05D1002CDAD030BC4FF00000704758
:101B100029BAB1FA81F111F01801D1F12000844005
:101B2000F2D1CA40CB4012F0FF0213F0FF0330BCE9
:101B3000D01A704770B505460C460A2000E06D1CAF
:101B400000F011F835B128780028F8D102E0641CC3
:101B500000F009F814B120780028F8D1BDE87040F1
:101B60000A20AFF3008008B569468DF80000032015
:101B7000ABBE08BD0000000080B58AB068460021F9
:101B800006914160016041F64420C2F2004003909A
:101B9000012305931A460CF023FE039806996A4622
:101BA000516011604FF080410791022308931A465B
:101BB0000CF016FE03980CF023FF059B069968466F
:101BC0004160016041F65C30C2F2004004900322A3
:101BD0000CF006FE0498069A0799089BEC46CCF890
:101BE0000420CCF8002004220CF0FAFD04980CF03C
:101BF00007FF059B069968464160016041F6744005
:101C0000C2F20040099005220CF0EAFD069A0799FD
:101C1000089B0998EC46CCF80420CCF8002006225A
:101C20000CF0DEFD09980CF0EBFE43F21810C2F246
:101C300000400DF079FF43F26410C2F200400DF055
:101C400073FF0AB080BD000080B582B0019001989A
:101C50000DF096FF02B080BDFFE7FEE70000000038
:101C600084B08DF80F000291ADF806209DF80F00AA
:101C70000146009123281DD80099DFE801F01213D6
:101C80001415161B1B1B1B1B1B1B1B1B1B1B1B1BB6
:101C90001B1B1B1B1B1B1B1B1B1B1B1B1B1B17189B
:101CA000191A08E007E006E005E004E003E002E0BE
:101CB00001E000E0FFE7002004B0704700000000F2
:101CC000002070470000000080B582B041F6F86047
:101CD000C2F20040009041F26C11C2F200410022B9
:101CE000019209F0B5F9009840F66C11C2F200417A
:101CF00009F08EF9019802B080BD000000000000DC
:101D000080B582B0019000910198009900220CF0FA
:101D1000BFFF02B080BD000080B584B00390029187
:101D2000039802990968FFF7EBFF039941F6F86001
:101D3000C2F20040019009F06BF9019809F00CF92A
:101D4000002004B080BD000083B0029001918DF8A6
:101D5000032000208DF802009DF9020003B07047B7
:101D600080B586B00490ADF80E1000208DF80D00FF
:101D700041F6F860C2F20040D0F8BC02029002982E
:101D8000D0F8140220B1FFE701208DF8170013E00E
:101D90000499BDF80E2041F6F860C2F200400190AF
:101DA00009F056F9019809F05FFA8DF80D009DF8D9
:101DB0000D008DF81700FFE79DF8170006B080BDF5
:101DC000704700000000000080B54FF4807001F003
:101DD0003BFC80BD0000000081B0EFF3108072B6C4
:101DE0000090FFE7FEE7000044F60C01C5F6020193
:101DF000086840F002000860FFE744F60400C5F6FA
:101E0000020000688004002801D4FFE7F5E770476E
:101E100080B542F2D410C2F2004000F051FD80BD06
:101E200080B542F2D410C2F2004000F049FD80BDFE
:101E300080B542F27420C2F2004000F041FD80BD46
:101E400080B542F27420C2F2004000F039FD80BD3E
:101E500080B542F21430C2F2004000F031FD80BD86
:101E600080B542F21430C2F2004000F029FD80BD7E
:101E700084B002900298406B009002980068D0F8FD
:101E800084004FF6FC718843009940EA8100029972
:101E90000968C1F8840002980068D0F8840020F432
:101EA0007F00029A1168926B40EA0240C1F88400F8
:101EB0000298816B00980844009002980068D0F85E
:101EC00088006FF38F00009940EA81000299096849
:101ED000C1F8880002980068D0F8880020F4FE005D
:101EE000029A1168D26B40EA0240C1F88800029859
:101EF000C16B009800EB4100009002980068D0F898
:101F0000A0006FF38F00009940EA810002990968F0
:101F1000C1F8A00002980068D0F8A00020F4FE00EC
:101F2000029A1168126C40EA0240C1F8A0000299BE
:101F3000086C496C009A00FB012000900298006830
:101F4000D0F8B0006FF38F00009940EA8100029949
:101F50000968C1F8B00002980068D0F8B00020F419
:101F6000FE00029A1168926C40EA0240C1F8B0008B
:101F70000299886CC96C009A00FB012000900298BD
:101F80000068D0F8AC006FF38F00009940EA810040
:101F900002990968C1F8AC000299086D496D009A70
:101FA00000FB0120009002980068D0F8F0006FF369
:101FB0008F00009940EA810002990968C1F8F00099
:101FC00002980068D0F8F00020F47C10029A1168A2
:101FD000926D40EA0240C1F8F0000298816D0098CD
:101FE00000EB4100009002980068D0F8C0006FF349
:101FF0008F00009940EA810002990968C1F8C00089
:1020000002980068D0F8C00020F47C10029A116891
:10201000D26D40EA0240C1F8C00002980068D0F8D2
:10202000C00020F07C50029A1168126E40EA0260F3
:10203000C1F8C00002994A6B4AF60040C4F20000A1
:1020400000EB8200C86602998A6BC86E00EB8200C2
:1020500008670299CA6B086F00EBC20048670299D3
:102060000A6C4B6C486F5A4300EB820088670299F8
:102070008A6CCB6C886F5A4300EB8200C867029968
:102080000A6D4B6DC86F5A4300EB8200C1F88000A7
:1020900002998A6DD1F8800000EBC200C1F884007B
:1020A0000299CA6D8B6ED1F884005A4300EB82000E
:1020B000C1F8880002990A6E8B6ED1F888005A43E5
:1020C00000EB8200C1F890000298D0F890004DF229
:1020D000FD31C4F2000188420FD3FFE70299D1F825
:1020E0009C0040F02000C1F89C000299032081F878
:1020F000980001208DF80F0017E00298C06E019043
:10210000FFE701980299D1F89010884208D2FFE7C2
:10211000019900200860FFE7019804300190F0E782
:10212000FFE700208DF80F00FFE79DF80F0004B0D7
:10213000704700000000000088B0079006910592EB
:1021400004930698406848B9FFE7069801688268DA
:102150000069104340EA8140039009E00698016855
:10216000826800691043084340F080400390FFE715
:102170000698D0F820C0C16842698369C06940EA06
:102180000C601843104340EA014002900798826EA9
:10219000D0F884000499514300EB8100019003982A
:1021A0000199086001980430019002980199086033
:1021B00001980430019000200090FFE700980699F4
:1021C000CA6845F6EC31C0F60101895C88420DD23F
:1021D000FFE705980099405801990860019804307C
:1021E0000190FFE7009804300090E7E708B07047DF
:1021F00080B584B04EF60000C1F6F170006803901F
:102200004EF60400C1F6F170006802904EF6080028
:10221000C1F6F17000680190019903980844039099
:10222000039888B1FFE7039840F2E001C2F2004151
:1022300000910231082206F013FA00990298123137
:10224000042206F00DFAFFE704B080BD0000000094
:1022500080B584B0039001F0E7FB029003980190F1
:102260000198013048B1FFE740F2FA00C2F20040A5
:102270000178019808440190FFE7FFE701F0D4FBE3
:102280000299401A0199884201D2FFE7F6E704B0AB
:1022900080BD00000000000085B003900291019213
:1022A000039890F898008DF803009DF8030001282A
:1022B00005D0FFE79DF8030002285DD1FFE70298F3
:1022C00003990968896D084207D1FFE703980168FF
:1022D000C86D40F00100C86515E0029803990968CF
:1022E000896D08400299884207D1FFE70398016889
:1022F000C86D40F00200C86504E00398016803203F
:10230000C865FFE7FFE79DF809008007002809D5A9
:10231000FFE7019A03980168D1F8E0001043C1F883
:10232000E000FFE79DF809004007002809D5FFE716
:10233000019A03980168D1F8E4001043C1F8E40061
:10234000FFE7FFE702984FF6FF71C3F6CF7100EA8F
:10235000010203980168486D10434865029A4AF6E5
:102360001401C4F20001086840EA92700860FFE7B7
:1023700000208DF813000AE00399D1F89C0040F08A
:102380000200C1F89C0001208DF81300FFE79DF8C2
:10239000130005B07047000080B586B0049003912B
:1023A00002920398406808B9FFE700E0FFE704984D
:1023B00090F89800022845D1FFE704980068D0F80B
:1023C000C00010F07C5F0BD1FFE70499D1F89C00AE
:1023D00040F02000C1F89C0001208DF817003CE07F
:1023E00004980068D0F8C400800200280BD5FFE7ED
:1023F0000499D1F89C0040F40070C1F89C000120C1
:102400008DF8170029E004980068D0F8C400C0F3E4
:102410000440019004980399029A019BFFF78CFEF7
:102420000199012000FA01F1049A1268C2F8D01053
:10243000019988400499C1F89400FFE700208DF8C5
:1024400017000AE00499D1F89C0040F00800C1F898
:102450009C0001208DF81700FFE79DF8170006B0DB
:1024600080BD00000000000082B00190009102B029
:10247000704700000000000087B0059004910598A7
:1024800090F898008DF803009DF80300012805D00E
:10249000FFE79DF8030002286AD1FFE70498C068AF
:1024A000072801D1FFE7FFE70498006878BBFFE742
:1024B0000498C068072801D0FFE7FFE70498C068C8
:1024C00007280CD1FFE7049A10699169D2690004CA
:1024D00040EA0220084340F0605003900CE0049969
:1024E0008868CB680A694969800740EAC36040EAA6
:1024F000024008430390FFE70598C06E04994968BD
:1025000000EB810001900398019908602CE0049889
:10251000C068072801D0FFE7FFE70498C168006999
:1025200040EA417003900498C068072804D1FFE78F
:1025300004988069029006E004988168406940EA46
:1025400081700290FFE70598006F0499496800EBDD
:10255000C10001900398019908600198043001902E
:10256000029801990860FFE700208DF81B000AE03F
:102570000599D1F89C0040F00200C1F89C000120B0
:102580008DF81B00FFE79DF81B0007B070470000A7
:1025900081B0009001B0704782B00190009102B00C
:1025A00070470000000000008AB008900791069272
:1025B000059300200190089890F898008DF803008A
:1025C0009DF80300022840F05C81FFE7079840284F
:1025D00051D1FFE708980068D0F8A00010F4FE0F72
:1025E0000BD1FFE70899D1F89C0040F02000C1F81A
:1025F0009C0001208DF827004EE108980068D0F873
:10260000A400400658B9FFE70899D1F89C0040F4AF
:102610008070C1F89C0001208DF827003CE10898EB
:102620000068D0F8A40000F080710120B0EB116FB9
:102630000DD1FFE708980068D0F8A0100120B0EB9A
:10264000D17F03D1FFE701200190FFE7FFE7089862
:102650000068D0F8A40000F47C51019800EB112030
:1026600001900898426C406F0199514300EB810042
:102670000490FFE770E00798412851D1FFE70898E0
:102680000068D0F8B00010F4FE0F0BD1FFE70899F6
:10269000D1F89C0040F02000C1F89C0001208DF88A
:1026A0002700F9E008980068D0F8B400400658B94F
:1026B000FFE70899D1F89C0040F48070C1F89C00B5
:1026C00001208DF82700E7E008980068D0F8B400F2
:1026D00000F080710120B0EB116F0DD1FFE7089879
:1026E0000068D0F8B0100120B0EBD17F03D1FFE734
:1026F00001200190FFE7FFE708980068D0F8B400D8
:1027000000F47C51019800EB112001900898C26CF4
:10271000806F0199514300EB81000490FFE71AE0BC
:1027200007980899096D88420BD3FFE70899D1F8FB
:102730009C0040F02000C1F89C0001208DF827008B
:10274000AAE00898426DC06F0799514300EB8100E1
:102750000490FFE7FFE7FFE70498006800F080407F
:10276000069948600698406838B9FFE70498006801
:10277000C0F38A400699086006E00498006820F0DB
:10278000604006990860FFE70498006800F0005078
:10279000069988600498006800F000400699086176
:1027A000049804300490049800880699C86104983D
:1027B0000068C0F303400699C8600498006800F4FC
:1027C0008010069948610498006800F4001006998A
:1027D000886104980068C0F306600699086204984E
:1027E0000068C00F06994862049804300490049869
:1027F000039000200290FFE702980699CA6845F608
:10280000EC31C0F60101895C88420AD2FFE70398E7
:10281000029A805C05998854FFE702980130029083
:10282000EAE70798402806D1FFE701980899096868
:10283000C1F8A80021E00798412806D1FFE70198D8
:1028400008990968C1F8B80016E007981F2808D849
:10285000FFE707990120884008990968C1F89800A6
:1028600009E0079800F01F010120884008990968D5
:10287000C1F89C00FFE7FFE7FFE700208DF8270085
:102880000AE00899D1F89C0040F00800C1F89C00CB
:1028900001208DF82700FFE79DF827000AB0704758
:1028A00082B0019001980068D0F8C40000F03F00A9
:1028B0000090009802B0704781B0009001B070475E
:1028C00080B594B013904AF61000C4F2000000687E
:1028D000800712904AF61400C4F2000001681298B2
:1028E00000EA8170129013980068006D00F4704047
:1028F000119013980068416D119808401190139839
:102900000068006D00F00F00109013980068416D92
:1029100010980840109013980068006D00F0F000C7
:102920000F9013980068416D0F9808400F9013980E
:102930000068006D00F071500E9013980068416DB2
:102940000E9808400E9013980068006D00F06070BB
:102950000D9013980068416D0D9808400D901398E4
:102960000068406D039013980068006D01909DF819
:102970000D00C007B8B1FFE79DF80500C00788B19A
:10298000FFE7FFE7139801684FF4807008654AF687
:102990001001C4F2000100200860FFE71398FFF760
:1029A0008BFFFFE7FFE79DF80D0000F0040100201A
:1029B000B0EB910F28D0FFE79DF8050000F004016F
:1029C0000020B0EB910F1ED0FFE713980068D0F8FD
:1029D000DC000B9013980068D0F8E4100B980840C6
:1029E0000B90FFE7139801684FF4806008654AF682
:1029F0001001C4F2000100200860FFE713980B9952
:102A000000F0FAFDFFE7FFE71298B8B1FFE7FFE734
:102A100012984FF6FF71C3F6CF71084013990968F9
:102A200008651298800F4AF61001C4F20001086090
:102A3000FFE713981299FFF717FDFFE71198B8B158
:102A4000FFE7FFE711984FF6FF71C3F6CF7108401B
:102A50001399096808651198800F4AF61001C4F2AD
:102A600000010860FFE71398119900F0D5FDFFE71A
:102A70001098B8B1FFE7FFE710984FF6FF71C3F663
:102A8000CF7108401399096808651098800F4AF6BD
:102A90001001C4F200010860FFE71398109900F0DC
:102AA0003BFDFFE70F98B8B1FFE7FFE70F984FF640
:102AB000FF71C3F6CF7108401399096808650F9834
:102AC000800F4AF61001C4F200010860FFE7139876
:102AD0000F9900F031FDFFE79DF80D0000F00801AF
:102AE0000020B0EBD10F1BD0FFE79DF8050000F0F0
:102AF00008010020B0EBD10F11D0FFE7FFE71398DA
:102B000001684FF4006008654AF61001C4F2000144
:102B100000200860FFE7139800F086FDFFE7FFE75D
:102B20009DF80D0000F002010020B0EB510F28D0FD
:102B3000FFE79DF8050000F002010020B0EB510F07
:102B40001ED0FFE713980068D0F8D8000C901398B7
:102B50000068D0F8E0100C9808400C90FFE713983C
:102B600001684FF4007008654AF61001C4F20001D4
:102B700000200860FFE713980C9900F045FDFFE77F
:102B8000FFE79DF80E0000F008010020B0EBD10F28
:102B90001BD0FFE79DF8060000F008010020B0EB15
:102BA000D10F11D0FFE7FFE7139801684FF4002021
:102BB00008654AF61001C4F2000100200860FFE732
:102BC000139800F0A5FCFFE7FFE79DF80E00C00793
:102BD000B8B1FFE79DF80600C00788B1FFE7FFE73F
:102BE000139801684FF4803008654AF61001C4F26A
:102BF000000100200860FFE7139800F0F9FCFFE7F0
:102C0000FFE79DF80E0000F004010020B0EB910FEB
:102C10001BD0FFE79DF8060000F004010020B0EB98
:102C2000910F11D0FFE7FFE7139801684FF4802060
:102C300008654AF61001C4F2000100200860FFE7B1
:102C4000139800F0D1FCFFE7FFE79DF80E0000F0BD
:102C500002010020B0EB510F1FD0FFE79DF80600E6
:102C600000F002010020B0EB510F15D0FFE7FFE7A5
:102C7000139801684FF4003008654AF61001C4F259
:102C8000000100200860FFE71399D1F89C0040F094
:102C90008000C1F89C00FFE7FFE70D98B8B1FFE79F
:102CA000FFE70D984FF6FF71C3F6CF7108401399F7
:102CB000096808650D98800F4AF61001C4F20001FA
:102CC0000860FFE713980D99FFF766FCFFE70E9881
:102CD000D0B1FFE7FFE70E984FF6FF71C3F6CF7153
:102CE00008401399096808650E98800F4AF610018C
:102CF000C4F200010860FFE70E9A1399D1F89C0016
:102D00001043C1F89C00FFE7139800684AF20001E5
:102D1000C4F20001884240F0B980FFE71398406890
:102D200080688007002800F0B080FFE713984068B3
:102D3000006A00F00F000A9013984068416A0A98F0
:102D400008400A9013984068006A00F0300009902B
:102D500013984068416A09980840099013984068A0
:102D6000006A00F4C070089013984068416A08989F
:102D70000840089013984068006A00F4FC400790EF
:102D800013984068416A0798084007901398406874
:102D9000006A00F4F020069013984068416A069893
:102DA0000840069013984068406A02901398406863
:102DB000006A00900A9848B1FFE70A981399496899
:102DC000086213980A9900F0F7FBFFE7099848B1E9
:102DD000FFE709981399496808621398099900F068
:102DE000FBFBFFE79DF8080000F040010020B0EB7E
:102DF000911F1FD0FFE79DF8000000F04001002068
:102E0000B0EB911F15D0FFE713984068C06B000C22
:102E1000059013984068C06B00F03F000490139831
:102E200041684020086213980599049A00F0CCFB91
:102E3000FFE7FFE7089848B1FFE70898139949684A
:102E400008621398089900F0AFFBFFE7079860B19C
:102E5000FFE70798139949680862079A1399D1F810
:102E60009C001043C1F89C00FFE7069860B1FFE7A3
:102E70000698139949680862069A1399D1F89C003C
:102E80001043C1F89C00FFE7FFE7FFE71398D0F875
:102E90009C0020B1FFE71398FFF77AFBFFE714B01F
:102EA00080BD00000000000080B598B0169045F687
:102EB000B011C0F6010101A84C22FDF7EEFB1698F7
:102EC00020B9FFE701208DF85F00D9E1169800686E
:102ED0004AF20001C4F20001884206D1FFE71699C8
:102EE000086800F580704860FFE716988068B0F5C4
:102EF000407F01D1FFE7FFE71698006C08B1FFE7BC
:102F0000FFE71698806C08B1FFE7FFE71698006DA1
:102F100008B1FFE7FFE71698006E08B1FFE7FFE78B
:102F20001699C86D096E084408B1FFE7FFE71698C7
:102F300090F8980040B9FFE71699002081F89900B1
:102F4000169800F0A1F9FFE716980168886920F04B
:102F50001000886100F068FD1590FFE71698006882
:102F600080690007002817D5FFE700F05DFD15997F
:102F7000401A0B280FD3FFE71699D1F89C0040F0B8
:102F80000100C1F89C001699032081F898000120E7
:102F90008DF85F0074E1E1E716980168886940F0F8
:102FA0000100886100F040FD1590FFE71698006869
:102FB0008069C007B8B9FFE700F036FD1599401ADF
:102FC0000B280FD3FFE71699D1F89C0040F00100C1
:102FD000C1F89C001699032081F8980001208DF813
:102FE0005F004DE1E2E716980168886940F0020051
:102FF00088611698007C012807D1FFE716980168C0
:10300000886920F04000886106E0169801688869A8
:1030100040F040008861FFE71698407C012807D106
:10302000FFE716980168886940F48040886106E0EF
:1030300016980168886920F480408861FFE7169837
:10304000807C012807D1FFE716980168886920F481
:103050008050886106E016980168886940F48050C5
:103060008861FFE716980068806920F44070169A1E
:10307000116892681043886116980168886920F089
:10308000A400886116980168086920F010000861A2
:103090001698C068012807D1FFE71698016888696B
:1030A00040F0040088612BE01698C06830B3FFE759
:1030B0001698C068022819D0FFE716980168886939
:1030C00040F08000886116980168086940F010009F
:1030D00008611698C068032807D1FFE716980168B1
:1030E000886940F020008861FFE706E016980168D3
:1030F000886940F020008861FFE700E0FFE7FFE714
:10310000169A116853699069D2F81CE0A0F1010C7D
:103110006FF0FF0000EB0E2040EA4C60126A013AAB
:1031200010430022CFF6FF7202EB03421043C86146
:1031300016988068B0F5407F1CD1FFE7169A116899
:10314000536A906AD2F82CE001386FF0FF0C0CEB58
:103150000E2C40EA0C00D2F830C06FF00F0202EBE8
:103160000C1210430022CFF6FF7202EB0342104311
:10317000C860FFE71698006E48B1FFE7169801682F
:10318000426ED1F8C0001043C1F8C000FFE71699A5
:10319000C86D096E084480B1FFE716980068D0F842
:1031A000C80020F00700169A1168936E01AA52F821
:1031B00023201043C1F8C800FFE71698006C80B1C7
:1031C000FFE716980068D0F8BC0020F00700169AB8
:1031D0001168536C01AA52F823201043C1F8BC00B7
:1031E000FFE71698806C88B1FFE716980068D0F862
:1031F000BC0020F07000169A1168D36C01AA52F836
:10320000232040EA0210C1F8BC00FFE71698006DC9
:1032100088B1FFE716980068D0F8BC0020F4E060A1
:10322000169A1168536D01AA52F8232040EA022031
:10323000C1F8BC00FFE7169800684AF20001C4F22A
:103240000001884207D1FFE716984168886820F09E
:1032500003008860FFE716990020C1F894001699D2
:10326000C1F89C001699012081F898001698FEF785
:10327000FFFD8DF853009DF853008DF85F00FFE7C8
:103280009DF85F0018B080BD80B5C6B045900020A5
:103290004490439042904190409012A8B821FDF78D
:1032A00036FA459800684AF20001C4F200018842EB
:1032B0005DD1FFE7002013904FF4004112912D9053
:1032C00012A802F009FA18B1FFE7FEF785FDFFE743
:1032D00040F24050C2F200400168013101600068D4
:1032E000012810D1FFE7FFE744F2EC40C5F60200E9
:1032F000016841F480710160006800F480701190F1
:103300001198FFE7FFE7FFE744F2E040C5F602004F
:10331000016841F008010160006800F008001090A9
:103320001098FFE7032040900220419000200A906F
:10333000429043900920449040F60040C5F60200B8
:1033400040A900F09DF90A9A1320089005210991DF
:1033500000F0C6FC089800F0B7FC09990A9A1520FD
:103360000B9000F0BDFC0B9800F0AEFCCDE0459852
:1033700000684AF20041C4F2000188425ED1FFE7D2
:10338000002013904FF4004112912D9012A802F0EA
:10339000A3F918B1FFE7FEF71FFDFFE740F2405029
:1033A000C2F200400168013101600068012810D1BB
:1033B000FFE7FFE744F2EC40C5F60200016841F484
:1033C00080710160006800F480700F900F98FFE733
:1033D000FFE7FFE744F2E040C5F60200016841F074
:1033E00002010160006800F002000E900E98FFE7F5
:1033F0004FF44050409002204190002006904290AF
:1034000043900920449040F20040C5F6020040A9D4
:1034100000F036F9069A142004900521059100F079
:103420005FFC049800F050FC0599069A162007905E
:1034300000F056FC079800F047FC65E045980068EE
:103440004DF20041C4F2000188425CD1FFE7002048
:1034500013904FF4004112912D9012A802F03CF904
:1034600018B1FFE7FEF7B8FCFFE740F24050C2F2A8
:1034700000400168013101600068012810D1FFE7B8
:10348000FFE744F2EC40C5F60200016841F48071A8
:103490000160006800F480700D900D98FFE7FFE771
:1034A000FFE744F2E040C5F60200016841F0200168
:1034B0000160006800F020000C900C98FFE7C0202D
:1034C000409002204190002102914291439144900A
:1034D00041F20040C5F6020040A900F0D1F8029A7E
:1034E0009F2000900521019100F0FAFB009800F068
:1034F000EBFB0199029AA020039000F0F1FB0398E6
:1035000000F0E2FBFFE7FFE7FFE746B080BD000009
:1035100081B0009001B0704780B582B001900091F9
:103520000098012805D1FFE7019840210BF088F9A8
:10353000FFE702B080BD000080B582B0019000912D
:103540000098102805D1FFE7019841210BF078F988
:10355000FFE702B080BD000082B00090009890F8B4
:103560009800012811D1FFE70099022081F8980006
:1035700000980168886920F00100886100990020A6
:10358000C1F89C008DF807000AE00099D1F89C0072
:1035900040F00400C1F89C0001208DF80700FFE70F
:1035A0009DF8070002B0704782B00190009102B010
:1035B000704700000000000082B00190009102B04E
:1035C000704700000000000083B00290019100925B
:1035D00003B070470000000082B00190009102B07B
:1035E000704700000000000081B0009001B07047FB
:1035F00081B0009001B0704782B00190009102B09C
:10360000704700000000000082B00190009102B0FD
:10361000704700000000000082B00190009102B0ED
:10362000704700000000000081B0009001B07047BA
:1036300080B582B0ADF80600BDF806000DF01CFDA7
:1036400002B080BD0000000080B582B0ADF8060079
:103650008820C5F600000068BDF8061008420BD0AF
:10366000FFE7BDF806008821C5F600010860BDF837
:103670000600FFF7DDFFFFE702B080BD000000009D
:103680008FB00E900D9100200C908020C5F60000A8
:103690000990FFE70D9800680C99C840002800F0D9
:1036A000C181FFE70D9800680C9A01219140084004
:1036B0000B900B98002800F0B181FFE70D9840684F
:1036C00000F00300012807D0FFE70D98406800F0E4
:1036D000030002282FD1FFE70E9880680A900C980B
:1036E0004100032000FA01F10A9888430A900D98DE
:1036F000C0680C99490000FA01F10A9808430A9041
:103700000A980E9988600E9840680A900C990120DA
:1037100000FA01F10A9888430A900D984068C0F3B6
:1037200000100C9900FA01F10A9808430A900A98CF
:103730000E994860FFE70D98406800F003000328E9
:1037400018D0FFE70E98C0680A900C98410003203B
:1037500000FA01F10A9888430A900D9880680C9944
:10376000490000FA01F10A9808430A900A980E9954
:10377000C860FFE70D98406800F00300022826D1DA
:10378000FFE70E980C996FF0030202EA510108441A
:10379000006A0A900C9800F0070081000F2000FAE0
:1037A00001F10A9888430A900D9800690C9901F07C
:1037B0000701890000FA01F10A9808430A900A9863
:1037C0000E990C9B02EA530211440862FFE70E981F
:1037D00000680A900C984100032000FA01F10A9851
:1037E00088430A900D98406800F003000C99490046
:1037F00000FA01F10A9808430A900A980E990860A5
:103800000D9880798007002800F00781FFE7FFE727
:1038100044F2F440C5F60200016841F00201016083
:10382000006800F0020008900898FFE70C9820F06C
:10383000030040F20841C5F6000140580A900C9878
:1038400000F0030081000F2000FA01F10A9888437C
:103850000A900E980021C5F60201884203D1FFE7C5
:10386000002007906CE00E9840F20041C5F602017E
:10387000884203D1FFE7012006905EE00E9840F6F3
:103880000001C5F60201884203D1FFE7022005903E
:1038900050E00E9840F60041C5F60201884203D17F
:1038A000FFE70320049042E00E9841F20001C5F6C4
:1038B0000201884203D1FFE70420039034E00E9810
:1038C00041F20041C5F60201884203D1FFE705201D
:1038D000029026E00E9841F60001C5F602018842EA
:1038E00003D1FFE70620019018E00E9841F6004151
:1038F000C5F60201884203D1FFE7072000900AE0E5
:103900000E9942F20042C5F602020A20914208BF17
:1039100009200090FFE700980190FFE701980290CE
:10392000FFE702980390FFE703980490FFE70498ED
:103930000590FFE705980690FFE706980790FFE7D8
:1039400007980C9901F00301890000FA01F10A9827
:1039500008430A900A980C9921F0030140F20842AA
:10396000C5F6000288504FF0B04000680A900B99ED
:103970000A9888430A900D988079C006002805D5DA
:10398000FFE70B990A9808430A90FFE70A984FF05F
:10399000B04108600420C5F6000000680A900B9949
:1039A0000A9888430A900D9880798006002805D5EA
:1039B000FFE70B990A9808430A90FFE70A98042149
:1039C000C5F600010860099840680A900B990A98AA
:1039D00088430A900D9880798007002805D5FFE775
:1039E0000B990A9808430A90FFE70A9809994860DA
:1039F000099800680A900B990A9888430A900D98D4
:103A00008079C00728B1FFE70B990A9808430A900C
:103A1000FFE70A9809990860FFE7FFE70C98013073
:103A20000C9037E60FB0704746F6C050C2F2004027
:103A3000006870470000000040F2FA00C2F2004047
:103A4000027846F6C051C2F200410868104408608E
:103A5000704700000000000080B582B0032000F035
:103A600057F903F015F944F21842C5F6020211683D
:103A7000C1F3032345F6DC31C0F60101CB5C03F052
:103A80001F03D84000900098126802F00F02895C72
:103A900001F01F01C84040F22801C2F20041086055
:103AA000009840F22401C2F2004108600F2000F0AB
:103AB00013F820B1FFE701208DF8070005E000F0C2
:103AC000E7F800208DF80700FFE79DF8070002B037
:103AD00080BD00000000000080B590B00E900E98F0
:103AE0000F2810D8FFE70E9936200090002200F032
:103AF000F7F8009800F0E8F80E9840F2FC01C2F2E6
:103B00000041086003E001208DF83F004EE0FFE730
:103B100044F2E840C5F60200016841F0100101607E
:103B2000006800F0100001900198FFE706A802A9C4
:103B300003F016F80B980490049820B9FFE703F0FF
:103B40007FF8059004E003F07BF840000590FFE764
:103B500005984DF68361C4F21B31A0FB01014FF0C3
:103B6000FF3000EB9140039042F6E400C2F20040C7
:103B700041F20001C4F20001016040F2E731C1608E
:103B80000399416000210161816003F0E5FF48B9BC
:103B9000FFE742F6E400C2F2004004F07DF88DF841
:103BA0003F0003E001208DF83F00FFE79DF83F0054
:103BB00010B080BD0000000010B581B000900098EA
:103BC00040784EF69851CEF2000108604EF6A051B2
:103BD000CEF20001086820F00100086000984068FB
:103BE0004EF69C52CEF200021060DDF800E09EF826
:103BF0000C0000079EF80B2040EA02609EF80020AF
:103C00009EF808309EF809C09EF80A4040EAC44079
:103C10009EF80D4040EA84409EF80E4040EA444041
:103C20009EF80FE040EA0E4040EA0C2040EA4300D4
:103C30001043086001B010BDBFF35F8F4EF62451F2
:103C4000CEF20001086820F4803008604EF69451EE
:103C5000CEF2000100200860704700000000000064
:103C600081B00090009840F001004EF69451CEF2E1
:103C7000000108604EF62451CEF20001086840F4BD
:103C800080300860BFF34F8FBFF36F8F01B0704774
:103C900080B582B0FFE744F2F440C5F60200016847
:103CA00041F002010160006800F0020001900198FB
:103CB000FFE76FF001000F21002200F011F802B0C1
:103CC00080BD00000000000080B582B0ADF80600A5
:103CD000BDF906000DF0FCFC02B080BD0000000044
:103CE00080B586B0ADF81600049103920DF008FD82
:103CF0000290BDF91600019002980499039A04F00D
:103D000067FF014601980DF003FD06B080BD00007D
:103D100080B582B0019001980DF042FD02B080BDE7
:103D200082B0019001980068009001990120C1F8CB
:103D3000D8040199002081F8CC04009A916941F0DF
:103D400000619161009A516D0323C1F20003194390
:103D5000516502B07047000082B001908DF80310E9
:103D600002B070470000000082B00190ADF8021070
:103D7000BDF80200019909684862002002B070474E
:103D800084B003908DF80B10ADF8082003980068FC
:103D9000406A00909DF80B0048B9FFE7BDF8081095
:103DA000009840EA014003990968886233E003986B
:103DB0000068816A009800EB1140009000208DF8A7
:103DC0000700FFE79DF807009DF80B1001398842B6
:103DD00013D2FFE7039800689DF8071000EB8100FD
:103DE000D0F80411009800EB11400090FFE79DF817
:103DF000070001308DF80700E4E7BDF808100098CF
:103E000040EA0140039909689DF80B2001EB82010B
:103E1000C1F80001FFE7002004B070470000000077
:103E200080B582B001900198D0F8E00408F004F960
:103E300002B080BD0000000080B582B001908DF816
:103E40000310019AD2F8E0049DF8031001EBC103BE
:103E500002EB8302126A07F04BFF02B080BD000044
:103E600080B582B001908DF80310019AD2F8E00479
:103E70009DF8031001EBC10302EB8302D2F860222C
:103E800007F0FEFF02B080BD80B582B001900198BE
:103E9000D0F8E00408F0D8F802B080BD00000000BF
:103EA00080B584B003908DF80B109DF80B000006D0
:103EB00000280CD5FFE703989DF80B1001F00F01C7
:103EC00001EBC10100EB8100143001900CE003987C
:103ED0009DF80B1001F00F0101EBC10100EB810017
:103EE00000F515700190FFE703980068019909F04B
:103EF0005FFE8DF80A009DF80A0004B080BD000046
:103F000080B584B002908DF807109DF80700000678
:103F100000280FD5FFE702989DF8071001F00F0168
:103F200001EBC10100EB81001430009000990120E9
:103F300048700FE002989DF8071001F00F0101EBA7
:103F4000C10100EB810000F5157000900099002080
:103F50004870FFE79DF8070000F00F000099087017
:103F6000FFE7029890F89404012804D1FFE70220AB
:103F70008DF80F0014E00299012081F89404FFE706
:103F8000FFE702980068009909F002F9FFE702993B
:103F9000002081F89404FFE700208DF80F00FFE770
:103FA0009DF80F0004B080BD80B584B002908DF8FC
:103FB00007109DF8070000F00F0002990979884268
:103FC00004D9FFE701208DF80F004DE09DF80700B0
:103FD000000600280FD5FFE702989DF8071001F0B2
:103FE0000F0101EBC10100EB81001430009000993A
:103FF000012048700FE002989DF8071001F00F01B2
:1040000001EBC10100EB810000F5157000900099F3
:1040100000204870FFE70099002088709DF8070095
:1040200000F00F0000990870FFE7029890F89404E0
:10403000012804D1FFE702208DF80F0014E0029957
:10404000012081F89404FFE7FFE7029800680099D7
:1040500009F00EFBFFE70299002081F89404FFE7C6
:1040600000208DF80F00FFE79DF80F0004B080BD21
:1040700082B001908DF8031001989DF8031001F0B3
:104080000F0101EBC10100EB8100D0F8680202B022
:10409000704700000000000080B586B004908DF8E5
:1040A0000F10ADF80C208DF80B3000208DF80A00B1
:1040B0009DF80F00000600280FD5FFE704989DF833
:1040C0000F1001F00F0101EBC10100EB8100143072
:1040D00001900199012048700FE004989DF80F109D
:1040E00001F00F0101EBC10100EB810000F515703B
:1040F0000190019900204870FFE79DF80F0000F043
:104100000F0001990870BDF80C006FF3DF200199D2
:1041100088609DF80B00019908710198407820B1E2
:10412000FFE7019908784883FFE79DF80B00022814
:1041300004D1FFE7019900204871FFE7FFE70498E9
:1041400090F89404012804D1FFE702208DF81700AD
:1041500015E00499012081F89404FFE7FFE7049833
:104160000068019908F0D8FEFFE70499002081F863
:104170009404FFE79DF80A008DF81700FFE79DF80B
:10418000170006B080BD000080B586B005908DF8A0
:1041900013100392029305989DF8131001F00F017C
:1041A00001EBC10100EB810000F51570019003984F
:1041B0000199C8600298019908610199002048613D
:1041C000019948709DF8130000F00F0001990870E4
:1041D00005988079012804D1FFE703980199C86107
:1041E000FFE7059A10680199927909F0E5FA002035
:1041F00006B080BD0000000080B584B002908DF84C
:1042000007109DF8070000F00F0002990979884215
:1042100004D9FFE701208DF80F0058E09DF8070052
:10422000000600280FD5FFE702989DF8071001F05F
:104230000F0101EBC10100EB8100143000900099E7
:10424000012048700DE002989DF8071001EBC101B4
:1042500000EB810000F51570009000990020487077
:10426000FFE70099012088709DF8070000F00F001B
:1042700000990870FFE7029890F89404012804D18F
:10428000FFE702208DF80F0021E00299012081F85C
:104290009404FFE7FFE702980068009909F038FAF4
:1042A0009DF80700000740B9FFE7029A106891796E
:1042B00002F29C4209F08CF9FFE7FFE70299002027
:1042C00081F89404FFE700208DF80F00FFE79DF8C8
:1042D0000F0004B080BD000080B586B005908DF859
:1042E00013100392029305989DF8131001F00F012B
:1042F00001EBC10100EB810014300190039801999A
:10430000C8600298019908610199002048610199EB
:10431000012048709DF8130000F00F00019908700B
:1043200005988079012804D1FFE703980199C861B5
:10433000FFE7059A10680199927909F03DFA00208B
:1043400006B080BD0000000080B58CB00B900B98CB
:1043500000680A900A9809900B98006809F068FDB7
:10436000002840F03484FFE70B98006809F0D0FD86
:1043700010B9FFE700F02BBC0998D0F80808C0F38B
:104380000D200B99C1F8D4040B98006809F0C0FD0A
:104390008007002807D5FFE70B980168486900F0FF
:1043A00002004861FFE70B98006809F0B1FDC00604
:1043B000002862D5FFE70B980168886920F010009B
:1043C00088610A98006A02900B98029901F00F0127
:1043D00001EBC10100EB810000F515700890029817
:1043E00000F4F0110220B0EB514F23D1FFE7BDF8EC
:1043F000080047F6F07108421BD0FFE70A980899B9
:10440000C968029AC2F30A1209F092FD029847F6AF
:10441000F07100EA0103089AD06800EB1310D06035
:10442000029800EA01020899486900EB12104861FD
:10443000FFE71BE0029800F4F0110620B0EB514FAB
:1044400012D1FFE70A980B9901F29C41082209F06A
:104450006FFD029847F6F07100EA01020899486979
:1044600000EB1210486100E0FFE7FFE70B980168DE
:10447000886940F010008861FFE70B98006809F038
:1044800047FD0003002840F1A680FFE700200490CC
:104490000B98006809F0E8FC0690FFE706980028F2
:1044A00000F09880FFE79DF81800C007002800F092
:1044B0008A80FFE70B9800689DF8101009F010FD46
:1044C00005909DF81400C00760B1FFE709980499B2
:1044D00000EB41110120C1F8080B0B98049904F07E
:1044E000FFFBFFE79DF81400000700280CD5FFE74D
:1044F0000998049900EB41110820C1F8080B0B98AA
:10450000049904F0A5FBFFE79DF81400C0060028FD
:1045100008D5FFE70998049900EB41111020C1F874
:10452000080BFFE79DF81400800700282DD5FFE752
:104530000A9840690006002808D5FFE70999D1F8D4
:10454000040840F48060C1F80408FFE70B98049960
:1045500001EBC10100EB810000F51570089008988F
:10456000C078012809D1FFE708990020C8700B988E
:104570009DF8101000F040FBFFE70998049900EB4C
:1045800041110220C1F8080BFFE79DF814008006D6
:10459000002808D5FFE70998049900EB4111202075
:1045A000C1F8080BFFE79DF815008006002809D523
:1045B000FFE70998049900EB41114FF40050C1F84E
:1045C000080BFFE7FFE704980130049006984008C5
:1045D000069063E7FFE70B98006809F099FC400339
:1045E000002840F1C680FFE70B98006809F028FC1E
:1045F000069000200490FFE70698002800F0B8809D
:10460000FFE79DF81800C007002800F0AA80FFE728
:104610000B9800689DF8101009F03AFC05909DF881
:104620001400C00700283ED0FFE7049800F00F01F7
:10463000012000FA01F10391039B099AD2F8341882
:104640009943C2F834180999049A01EB4211C1F850
:1046500008090B98807901281FD1FFE70B9804996E
:1046600001EBC10100EB8101CA69086A10440862CC
:10467000049888B9FFE70B98049901EBC10100EB9E
:104680008100406A40B9FFE70B99086801F29C423B
:10469000012108F09DFFFFE7FFE70B989DF8101040
:1046A000FFF7CAFBFFE79DF814000007002808D5B4
:1046B000FFE70998049900EB41110820C1F80809A7
:1046C000FFE79DF81400C006002808D5FFE7099809
:1046D000049900EB41111020C1F80809FFE79DF88B
:1046E00014004006002808D5FFE70998049900EB5C
:1046F00041114020C1F80809FFE79DF81400800728
:10470000002822D5FFE70A98049909F029FB0B98A5
:10471000049901EBC10100EB810014300890089866
:10472000C078012809D1FFE708990020C8700B98CC
:104730009DF8101000F050FAFFE70998049900EB7B
:1047400041110220C1F80809FFE79DF81400000696
:10475000002805D5FFE70B98049904F0A5FBFFE7B7
:10476000FFE704980130049006984008069043E75C
:10477000FFE70B98006809F0CBFBC00F00B3FFE721
:104780000999D1F8040820F00100C1F804080B9839
:1047900090F8CC04012808D1FFE70B98002180F89D
:1047A000CC140B98FFF7D8FA03E00B9800F0BCFB91
:1047B000FFE70B980168486900F000404861FFE797
:1047C0000B98006809F0A4FB0005002811D5FFE74D
:1047D0000998D0F80808C00720B1FFE70B9800F04F
:1047E00037FCFFE70B980168486900F400604861F6
:1047F000FFE70B98006809F08BFB0001002820D52B
:10480000FFE70B980168486900F0006048610B9869
:1048100090F8CC0480B9FFE70B98012180F8CC1404
:104820000B980068406DC0F383000B9AC2F8D00467
:104830000B98FFF791FA03E00B9800F009FCFFE7F3
:10484000FFE70B98006809F063FBC004002840F103
:104850008680FFE70999D1F8040820F00100C1F82B
:1048600004080B980068102109F07AFA00200790DC
:10487000FFE707980B990979884231D2FFE7099839
:10488000079900EB41114FF67F30C1F808090999EB
:10489000079A01EB4212D2F8001921F40011C2F874
:1048A00000190999079A01EB4211C1F8080B099800
:1048B000079900EB4111D1F8000B20F40010C1F86A
:1048C000000B0998079900EB4111D1F8000B40F05B
:1048D0000060C1F8000BFFE7079801300790C8E7B8
:1048E0000999D1F81C0840F00110C1F81C080B9878
:1048F000C07B78B1FFE70999D1F8840840F00B003C
:10490000C1F884080999D1F8440840F00B00C1F8B7
:1049100044080FE00999D1F8140842F22B02104321
:10492000C1F814080999D1F8100840F00B00C1F83B
:104930001008FFE70999D1F8000820F4FE60C1F8DB
:1049400000080B9A1068917902F29C4208F040FE30
:104950000B980168486900F480504861FFE70B98A4
:10496000006809F0D5FA800400281FD5FFE70B98EE
:10497000006808F041FB0B98006809F031FA0B99C8
:10498000C8710B980068019002F02EF90146019859
:104990000B9AD27909F0C8FB0B9800F099FA0B98A2
:1049A0000168486900F400504861FFE70B9800680F
:1049B00009F0AEFA000700280AD5FFE70B9800F0CF
:1049C000BFFA0B980168486900F008004861FFE7EA
:1049D0000B98006809F09CFA0006002825D5FFE72F
:1049E0000A99886920F08000886101200490FFE71F
:1049F00004980B990979884216D2FFE70B9804991D
:104A000001EBC10100EB810090F85702012806D1AB
:104A1000FFE70B989DF81010FFF742FAFFE7FFE75A
:104A2000049801300490E3E7FFE70B98006809F071
:104A30006FFAC00200283CD5FFE701200490FFE791
:104A400004980B99097988422CD2FFE709980499B8
:104A500000EB4110D0F8000902900B98049901EB8B
:104A6000C10100EB8100007E012816D1FFE79DF80F
:104A70000B000006002810D5FFE70B98049901EB06
:104A8000C10100EB81010120C8750B989DF8101041
:104A900041F08001FFF704FAFFE7FFE704980130D7
:104AA0000490CDE70B980168486900F480104861D4
:104AB000FFE70B98006809F02BFA8002002856D512
:104AC000FFE701200490FFE704980B9909798842D9
:104AD00046D2FFE70998049900EB4110D0F8000B8B
:104AE00002900B98049901EBC10100EB810090F852
:104AF000580201282FD1FFE79DF80B00000600287F
:104B000029D5FFE7029800F480310B98D0F8D4043F
:104B100000F00100B0EB114F1DD1FFE70B98049995
:104B200001EBC10100EB8101012081F857020A99D4
:104B3000886940F0800088610A9840690006002872
:104B400008D4FFE70999D1F8040840F40070C1F8CF
:104B5000040805E0FFE7FFE7049801300490B3E79D
:104B60000B980168486900F400104861FFE70B9852
:104B7000006809F0CDF9400000280AD5FFE70B983E
:104B8000FFF74EF90B980168486900F080404861D2
:104B9000FFE70B98006809F0BBF94007002815D51E
:104BA000FFE70B980068406802909DF808004007F6
:104BB000002804D5FFE70B98FFF766F9FFE7029A94
:104BC0000B980168486810434860FFE7FFE70CB0A6
:104BD00080BD00000000000080B582B001908DF81B
:104BE00003100198D0F8E0049DF8031007F0D0FA04
:104BF00002B080BD0000000080B582B001908DF849
:104C000003100198D0F8E0049DF8031007F0F8FABB
:104C100002B080BD0000000080B58CB00A900A98F8
:104C200020B9FFE701208DF82F000EE10A9890F8D7
:104C3000950440B9FFE70A99002081F894040A9886
:104C400000F00AF9FFE70A99032081F895040A9811
:104C5000006808F0B1FC0A9B1868197C8DF82010D8
:104C600059689A68DB680793069205910599069A38
:104C7000079BDDF820C0EE46CEF800C008F0D4F95E
:104C800040B1FFE70A99022081F8950401208DF8D0
:104C90002F00DAE00A980068002109F0A5F940B178
:104CA000FFE70A99022081F8950401208DF82F0072
:104CB000CBE000208DF82700FFE79DF827000A9938
:104CC0000979884241DAFFE70A989DF8271001EB3D
:104CD000C10100EB8101012048759DF827000A9968
:104CE00000EBC00201EB820108759DF827000A99CC
:104CF00000EBC00201EB8201C8850A989DF82710DD
:104D000001EBC10100EB8101002008760A999DF8B2
:104D1000272002EBC20201EB8201C8610A999DF8CB
:104D2000272002EBC20201EB820108620A999DF87A
:104D3000272002EBC20201EB82014862FFE79DF8E7
:104D4000270001308DF82700B7E700208DF82700F5
:104D5000FFE79DF827000A99097988423EDAFFE7C4
:104D60000A989DF8271001EBC10100EB810100209A
:104D700081F855029DF827100A9A01EBC10302EB56
:104D8000830282F854120A999DF8272002EBC2028E
:104D900001EB820181F858020A999DF8272002EB65
:104DA000C20201EB8201C1F85C020A999DF827203A
:104DB00002EBC20201EB8201C1F860020A999DF880
:104DC000272002EBC20201EB8201C1F86402FFE777
:104DD0009DF8270001308DF82700BAE70A9B186874
:104DE000197C8DF8101059689A68DB680393029259
:104DF00001910199029A039BDDF810C0EE46CEF8AE
:104E000000C008F091FA40B1FFE70A99022081F84A
:104E1000950401208DF82F0017E00A9900204874AE
:104E20000A99012081F895040A98007B012804D191
:104E3000FFE70A98FEF774FFFFE70A98006808F09A
:104E40005BFA00208DF82F00FFE79DF82F000CB0D3
:104E500080BD00000000000080B5B2B0319002A813
:104E6000B821FBF754FC319800680021C4F204011A
:104E700088422BD1FFE7002003904FF4802002905E
:104E80004FF44010239002A800F026FC18B1FFE771
:104E9000FCF7A2FFFFE700F04FF9FFE744F2D8402C
:104EA000C5F60200016841F000710160006800F081
:104EB000007001900198FFE74D200090052100222D
:104EC000FEF70EFF0098FEF7FFFEFFE732B080BD51
:104ED00080B582B0019001208DF803000198C0795F
:104EE00020B9FFE700208DF803000CE00198C0799D
:104EF000022804D1FFE701208DF8030002E0FCF74F
:104F00006BFFFFE7FFE70198D0F8E0049DF803107E
:104F100007F07EFA0198D0F8E00407F0F5F902B046
:104F200080BD00000000000080B582B001900198B3
:104F3000D0F8E00407F038FA02B080BD00000000AD
:104F400080B582B001900198D0F8E00407F040FAF3
:104F500002B080BD0000000080B584B002908DF8E2
:104F60000710FFE7029890F89404012804D1FFE7A6
:104F700002208DF80F0019E00299012081F89404B5
:104F8000FFE7FFE79DF80700029948740298006860
:104F90009DF8071009F098F8FFE70299002081F8C2
:104FA0009404FFE700208DF80F00FFE79DF80F0045
:104FB00004B080BD0000000080B582B0019001996E
:104FC000D1F8E00401F29C4107F04EFA02B080BD36
:104FD00080B584B00290029800680190FFE70298C3
:104FE00090F89404012804D1FFE702208DF80F0007
:104FF00028E00299012081F89404FFE7FFE7019877
:10500000C068400600280BD5FFE70298407B0128C6
:1050100006D1FFE70199886B40F480308863FFE791
:105020000298006808F054FE0298006808F04CF9F5
:10503000FFE70299002081F89404FFE700208DF833
:105040000F00FFE79DF80F0004B080BD00000000D6
:1050500080B582B001900198D0F8E00407F08CFA96
:1050600001980168D1F8000E40F00100C1F8000E6F
:105070000198C07A48B1FFE74EF61051CEF2000118
:10508000086840F006000860FFE702B080BD00003D
:1050900080B584B0029044F60C00C5F602000068AA
:1050A00000F004010020B0EB910F13D1FFE744F6AC
:1050B0000C00C5F60200006800F007000299884263
:1050C00004D0FFE701208DF80F002EE000208DF8BE
:1050D0000F002AE044F60C01C5F60201086820F032
:1050E0000700029A10430860FEF79EFC0190FFE75C
:1050F00044F60400C5F60200006800F400510020E8
:10510000B0EB513F0DD1FFE7FEF78EFC0199401A3D
:10511000B0F57A7F04D9FFE701208DF80F0004E095
:10512000E6E700208DF80F00FFE79DF80F0004B0C0
:1051300080BD00000000000044F60C01C5F602012D
:10514000086840F0807008607047000000000000B0
:1051500080B501F049FD44F22041C5F6020109681D
:10516000C1F3021245F6DC31C0F60101895C01F0A1
:105170001F01C84080BD000088B0079044F228405D
:10518000C5F60200016801F0030106910068C0F352
:105190000530059044F22C40C5F602000068C0F3CB
:1051A00000100490049844F23C41C5F602010968DD
:1051B00089B2C908484300EE100AB8EE400A8DEDE6
:1051C000020A0598002800F01B81FFE7069800906E
:1051D00048B1FFE70098012869D0FFE7009802284E
:1051E00000F08980ABE044F20040C5F602000068A0
:1051F00000F020010020B0EB511F33D0FFE744F254
:105200000040C5F602000068C0F3C10149F2000089
:10521000C0F2D030C84003909DED030AB8EE400ABA
:105220009DED051AB8EE411A80EE010A44F23840AD
:10523000C5F6020000686FF35F2001EE100AB8EEB9
:10524000411A9DED022A9FED743A82EE032A31EE57
:10525000021AB7EE002A31EE021A20EE010A8DED95
:10526000010A23E09DED050AB8EE401A9FED6C0A95
:1052700080EE010A44F23840C5F6020000686FF380
:105280005F2001EE100AB8EE411A9DED022A9FED53
:10529000623A82EE032A31EE021AB7EE002A31EEAC
:1052A000021A20EE010A8DED010AFFE76BE09DED89
:1052B000050AB8EE401A9FED590A80EE010A44F241
:1052C0003840C5F6020000686FF35F2001EE100A57
:1052D000B8EE411A9DED022A9FED4F3A82EE032A65
:1052E00031EE021AB7EE002A31EE021A20EE010A60
:1052F0008DED010A47E09DED050AB8EE401A9FEDDD
:10530000450A80EE010A44F23840C5F60200006802
:105310006FF35F2001EE100AB8EE411A9DED022AEC
:105320009FED3D3A82EE032A31EE021AB7EE002AD3
:1053300031EE021A20EE010A8DED010A23E09DED07
:10534000050AB8EE401A9FED350A80EE010A44F2D4
:105350003840C5F6020000686FF35F2001EE100AC6
:10536000B8EE411A9DED022A9FED2B3A82EE032AF8
:1053700031EE021AB7EE002A31EE021A20EE010ACF
:105380008DED010AFFE79DED010A44F23840C5F6B4
:105390000200016889B2490A01EE101AB8EE411AFA
:1053A000B7EE002A31EE021A80EE010A0799BCEE30
:1053B000C00A81ED000A9DED010A0168C1F30641B2
:1053C00001EE101AB8EE411A31EE021A80EE010A0F
:1053D0000799BCEEC00A81ED010A9DED010A006843
:1053E000C0F3066001EE100AB8EE411A31EE021A5F
:1053F00080EE010A0798BCEEC00A80ED020A07E0C1
:105400000799002008600799486007998860FFE7BE
:1054100008B0704720BCBE4B000000460024744A10
:105420000024744C0000000088B0079044F228402B
:10543000C5F60200016801F0030106910068C0F39F
:105440000550059044F22C40C5F602000068C0F3F8
:1054500000200490049844F24441C5F60201096812
:1054600089B2C908484300EE100AB8EE400A8DED33
:10547000020A0598002800F01B81FFE706980090BB
:1054800048B1FFE70098012869D0FFE7009802289B
:1054900000F08980ABE044F20040C5F602000068ED
:1054A00000F020010020B0EB511F33D0FFE744F2A1
:1054B0000040C5F602000068C0F3C10149F20000D7
:1054C000C0F2D030C84003909DED030AB8EE400A08
:1054D0009DED051AB8EE411A80EE010A44F24040F3
:1054E000C5F6020000686FF35F2001EE100AB8EE07
:1054F000411A9DED022A9FED743A82EE032A31EEA5
:10550000021AB7EE002A31EE021A20EE010A8DEDE2
:10551000010A23E09DED050AB8EE401A9FED6C0AE2
:1055200080EE010A44F24040C5F6020000686FF3C5
:105530005F2001EE100AB8EE411A9DED022A9FEDA0
:10554000623A82EE032A31EE021AB7EE002A31EEF9
:10555000021A20EE010A8DED010AFFE76BE09DEDD6
:10556000050AB8EE401A9FED590A80EE010A44F28E
:105570004040C5F6020000686FF35F2001EE100A9C
:10558000B8EE411A9DED022A9FED4F3A82EE032AB2
:1055900031EE021AB7EE002A31EE021A20EE010AAD
:1055A0008DED010A47E09DED050AB8EE401A9FED2A
:1055B000450A80EE010A44F24040C5F60200006848
:1055C0006FF35F2001EE100AB8EE411A9DED022A3A
:1055D0009FED3D3A82EE032A31EE021AB7EE002A21
:1055E00031EE021A20EE010A8DED010A23E09DED55
:1055F000050AB8EE401A9FED350A80EE010A44F222
:105600004040C5F6020000686FF35F2001EE100A0B
:10561000B8EE411A9DED022A9FED2B3A82EE032A45
:1056200031EE021AB7EE002A31EE021A20EE010A1C
:105630008DED010AFFE79DED010A44F24040C5F6F9
:105640000200016889B2490A01EE101AB8EE411A47
:10565000B7EE002A31EE021A80EE010A0799BCEE7D
:10566000C00A81ED000A9DED010A0168C1F30641FF
:1056700001EE101AB8EE411A31EE021A80EE010A5C
:105680000799BCEEC00A81ED010A9DED010A006890
:10569000C0F3066001EE100AB8EE411A31EE021AAC
:1056A00080EE010A0798BCEEC00A80ED020A07E00E
:1056B0000799002008600799486007998860FFE70C
:1056C00008B0704720BCBE4B000000460024744A5E
:1056D0000024744C0000000080B59AB0189000209F
:1056E0008DF857008DF856001898C07800070028EC
:1056F00048D5FFE71898406E149078B1FFE71498EA
:10570000B0F5801F13D0FFE71498B0F5001F16D036
:10571000FFE71498B0F5401F19D019E044F22C416E
:10572000C5F60201086840F40030086014E01898DB
:105730000830022103F088FC8DF857000CE018981F
:105740002830022103F068FD8DF8570004E003E0E3
:1057500001208DF85700FFE79DF8570060B9FFE77B
:1057600044F25041C5F60201086820F44010189A2E
:10577000526E1043086004E09DF857008DF8560003
:10578000FFE7FFE718984078C007002840D0FFE700
:105790001898806D1390042820D81399DFE801F041
:1057A000030C141C1D0044F22C41C5F602010868CC
:1057B00040F40030086015E018980830002103F02C
:1057C00043FC8DF857000DE018982830002103F0B5
:1057D00023FD8DF8570005E004E003E001208DF87B
:1057E0005700FFE79DF8570060B9FFE744F25041CA
:1057F000C5F60201086820F00700189A926D104360
:10580000086004E09DF857008DF85600FFE7FFE7B9
:10581000189840784007002856D5FFE71898D0F828
:10582000A4001290C8B1FFE71298B0F5001F1DD078
:10583000FFE71298B0F5800F20D0FFE71298B0F57F
:10584000C00F23D0FFE71298B0F5000F1FD0FFE77D
:105850001298B0F5200F1BD01BE044F22C41C5F686
:105860000201086840F40030086016E0189808301B
:10587000002103F0E9FB8DF857000EE0189828305E
:10588000002103F0C9FC8DF8570006E005E004E0B4
:1058900003E001208DF85700FFE79DF8570068B935
:1058A000FFE744F25841C5F60201086820F46000A1
:1058B000189AD2F8A4201043086004E09DF857001D
:1058C0008DF85600FFE7FFE718984078000700289A
:1058D00056D5FFE71898D0F8A8001190C8B1FFE797
:1058E0001198B0F1807F1DD0FFE71198B0F1007FD3
:1058F00020D0FFE71198B0F1407F23D0FFE7119847
:10590000B0F1806F1FD0FFE71198B0F1A06F1BD0EE
:105910001BE044F22C41C5F60201086840F4003057
:10592000086016E018980830002103F08DFB8DF810
:1059300057000EE018982830002103F06DFC8DF818
:10594000570006E005E004E003E001208DF8570071
:10595000FFE79DF8570068B9FFE744F25841C5F6E4
:105960000201086820F0E060189AD2F8A8201043DD
:10597000086004E09DF857008DF85600FFE7FFE748
:105980001898C078800700283ED5FFE71898C06CAB
:105990001090F0B1FFE71098102808D0FFE710989A
:1059A00020280DD0FFE71098302811D012E044F2E3
:1059B0002C41C5F60201086840F4003008600DE093
:1059C00018980830022103F03FFB8DF8570005E0DE
:1059D00004E003E001208DF85700FFE79DF8570031
:1059E00060B9FFE744F24C41C5F60201086820F0B7
:1059F0003000189AD26C1043086004E09DF85700FC
:105A00008DF85600FFE7FFE718984078C006002899
:105A10004ED5FFE71898C06D0F90A0B1FFE70F9823
:105A2000B0F5805F18D0FFE70F98B0F5005F1BD08E
:105A3000FFE70F98B0F5405F1ED0FFE70F98B0F575
:105A4000804F1AD01AE044F22C41C5F602010868D2
:105A500040F40030086015E018980830002103F089
:105A6000F3FA8DF857000DE018982830002103F064
:105A7000D3FB8DF8570005E004E003E001208DF82A
:105A80005700FFE79DF8570060B9FFE744F2504127
:105A9000C5F60201086820F4E040189AD26D104360
:105AA000086004E09DF857008DF85600FFE7FFE717
:105AB00018984078800600284CD5FFE71898006EAB
:105AC0000E90C8B1FFE70E98B0F5803F15D0FFE704
:105AD0000E98B0F5003F18D0FFE70E98B0F5403FA4
