:020000040800F2
:10000000680801244904000861600008595C000880
:1000100059600008A91A0008218B000800000000A0
:100020000000000000000000000000003163000834
:10003000E11B0008000000008160000869630008FF
:1000400067040008670400086704000867040008E4
:1000500067040008670400086704000867040008D4
:1000600067040008670400086704000867040008C4
:1000700067040008670400086704000867040008B4
:10008000670400086704000867040008211C0008D2
:10009000411C0008311C0008511C0008E91B000825
:1000A0006704000867040008670400086704000884
:1000B0006704000867040008216500086704000859
:1000C0006704000867040008670400086704000864
:1000D0006704000867040008670400086704000854
:1000E00067040008670400080000000067040008B7
:1000F0006704000867040008670400086704000834
:100100006704000867040008670400086704000823
:1001100067040008670400083165000841650008AD
:100120006704000867040008670400086704000803
:1001300067040008670400086704000867040008F3
:1001400000000000000000000000000000000000AF
:1001500067040008670400086704000867040008D3
:1001600067040008670400086704000867040008C3
:1001700067040008696000086704000800000000C8
:1001800067040008670400086704000867040008A3
:100190006704000867040008670400086704000893
:1001A00067040008670400086704000800000000F6
:1001B0006704000867040008670400086704000873
:1001C0006704000867040008000000000000000049
:1001D00000000000000000006704000800000000AC
:1001E000000000000000000000000000000000000F
:1001F0000000000000000000670400086704000819
:100200006704000867040008000000006704000895
:100210006704000867040008670400086704000812
:1002200067040008000000006704000800000000E8
:100230006704000867040008000000006704000865
:1002400067040008670400086704000867040008E2
:1002500067040008670400086704000867040008D2
:1002600067040008670400086704000867040008C2
:100270006704000867040008670400080000000025
:1002800067040008670400086704000867040008A2
:100290000000000067040008670400080000000078
:1002A00000000000670400086704000867040008F5
:1002B000670400086704000867040008611C000860
:1002C000711C0008670400086704000800F002F8C9
:1002D00000F0AAF814A696E8000CB244B344DA453C
:1002E00001D100F0A1F8BAE80F000FA696E830009F
:1002F000A5EB040504EB0607AAEB0704A7F1010729
:100300004FEA15154FEA3414A4F10104AC4201D3AD
:1003100000F08AF813F0010F18BFFB1A43F0010335
:1003200000F001F8DBE7184774F5000094F50000D1
:10033000103A24BF78C878C1FAD8520724BF30C811
:1003400030C144BF04680C60704700007047000073
:100350000023002400250026103A28BF78C1FBD8CE
:10036000520728BF30C148BF0B6070476E2900F0AC
:10037000F582702900F0398466290EF0D48365294E
:100380000EF0D18367290EF0CE8361290EF0CD8364
:1003900003681B0A28BF41F08001692900F0A2828E
:1003A000642900F09F82752900F09C826F2900F07B
:1003B000C783782900F00584E92900F06183E429E6
:1003C00000F05E83F52900F05B83EF2900F0C48321
:1003D000F82900F004840368DB0928BF41F080019C
:1003E000632901F00D81732901F01281E32901F0E5
:1003F0001D81F32901F02281002070471FB50EF006
:1004000085FB01F087F90400002000210EF068FB55
:10041000401C6060002000210EF04CFBE06000F00A
:10042000B7F91FBD10B510BD01F046F91146FFF731
:10043000E5FF0BF0FDFD01F023FA03B4FFF7F2FF37
:1004400003BC01F02FF900000A4880470A488047A2
:100450000A480047FEE7FEE7FEE7FEE7FEE7FEE7A5
:10046000FEE7FEE7FEE7FEE705480649064A074BBA
:1004700070470000011C000849640008CD02000814
:100480006802012468080124680401246804012426
:1004900053EA020C00F069802DE9F04B4FF00006A2
:1004A000002B1FBFB3FA83F503FA05F424FA05F60F
:1004B0005E4012BF1643B2FA82F502FA05F4C5F1A6
:1004C00020051EBF22FA05FC44EA0C04203556EA3A
:1004D000044C4FEA144418BF641C4FF000084FF05E
:1004E0000009904271EB030C39D3002919BFB1FA0E
:1004F00081F701FA07F6B0FA80F700FA07F6C7F1BC
:1005000020071EBF20FA07FC46EA0C062037B6FB80
:10051000F4FCA7EB0507103F07F01F0BCBF12006FB
:100520002CFA06F60CFA0BFB44BFB3460026202F2C
:10053000A4BF5E464FF0000B5BEA060C08BF4FF00D
:10054000010B19EB0B0948EB0608ABFB027C06FB21
:1005500002CC0BFB03CCC01B71EB0C01C1E70B46BB
:10056000024641464846BDE8F08B13B5084318BF24
:100570004FF0FF300146AFF30080BDE81C407047EC
:100580007CB51D4616460C00009007D04142A142A2
:1005900002D32044401E01E04FF0FF30064B7B4465
:1005A0002A4669460190304600F0F1F9002C02D04D
:1005B000009A002111707CBD1304000010B5431C8B
:1005C00002E010F8011B71B18107FAD14FF001323E
:1005D00002C88C1A8C4314EAC211F9D0C01A0A0658
:1005E00003D0C01E10BDC01A10BD0A0401D0801E69
:1005F00010BD0902FCD0401E10BD032A40F230801D
:1006000010F0030C00F0158011F8013BBCF1020F53
:10061000624498BF11F801CB00F8013B38BF11F8D4
:10062000013BA2F1040298BF00F801CB38BF00F8EB
:10063000013B11F0030300F02580083AC0F0088068
:1006400051F8043B083A51F804CBA0E80810F5E74C
:10065000121D5CBF51F8043B40F8043BAFF300802F
:10066000D20724BF11F8013B11F801CB48BF11F8A4
:10067000012B24BF00F8013B00F801CB48BF00F874
:10068000012B704710B5203AC0F00B80B1E818502C
:10069000A0E81850B1E81850A0E81850203ABFF46C
:1006A000F5AF5FEA027C24BFB1E81850A0E818500B
:1006B00044BF18C918C0BDE810405FEA827C24BF5F
:1006C00051F8043B40F8043B08BF7047D20728BFED
:1006D00031F8023B48BF11F8012B28BF20F8023B3C
:1006E00048BF00F8012B704702F0FF0343EA0322E2
:1006F00042EA024200F024B84FF000020429C0F0A0
:10070000128010F0030C00F01B80CCF1040CBCF143
:10071000020F18BF00F8012BA8BF20F8022BA1EB95
:100720000C0100F00DB85FEAC17C24BF00F8012B7A
:1007300000F8012B48BF00F8012B70474FF0000272
:1007400000B5134694469646203922BFA0E80C50C7
:10075000A0E80C50B1F12001BFF4F7AF090728BFA2
:10076000A0E80C5048BF0CC05DF804EB890028BF1E
:1007700040F8042B08BF704748BF20F8022B11F047
:10078000804F18BF00F8012B7047704770477047C3
:1007900008487CB57844009007487844009C05469A
:1007A000019004E02046016808448047241DAC42C3
:1007B000F8D17CBD50F200004EF2000070B5044646
:1007C000051F00F0E1FA0068002C14BF446870BDFA
:1007D000002C18BFAC423CBF20466468F8D30168C7
:1007E0000A18AA4218BF456003D12A680546114479
:1007F000016028684119A1421CBF6C6070BD61682E
:10080000696021680844286070BD10B500F0C0FA26
:10081000006810BD10B5044600F0BAFA046010BDBF
:1008200070B5044685690068C10601D5302600E030
:100830002026C00707D070BDD4E90121304690477B
:10084000206A401C20626D1EF6D570BD70B504464E
:1008500085690078C00707D170BDD4E90121202047
:100860009047206A401C20626D1EF6D570BD096855
:100870004A0501D540B27047C905FCD500B27047A2
:1008800009684A0501D5C0B27047C905FCD580B2D8
:10089000704770B50C460546012A05D028788006B9
:1008A00000D5EA69002302E0012305E05B1C9342C6
:1008B00002D2E05C0028F9D1A869E618C01AA86144
:1008C000286A184428622846FFF7AAFF04E0D5E901
:1008D000012114F8010B9047B442F8D32846FFF7E2
:1008E000B5FF70BD2DE9F04106460024106875295A
:1008F000314616A510D0FFF7BAFF002802DA4042B1
:1009000013A507E031688A0701D512A502E049075F
:1009100004D511A5012401E0FFF7B2FF00210A224E
:1009200006F1240709E0B0FBF2FCB0FBF2F302FB96
:100930001C00303078541846491C0028F3D1234657
:100940002A463046BDE8F04100F06BBA00000000D6
:100950002D0000002B00000020000000116802683C
:10096000006A530501D508700AE0D30501D5088057
:1009700006E0130603D5C217C1E9000200E00860D3
:100980000120704701694A1C02610878704700B570
:100990008FB0CDE901310021059105497944CDE9B8
:1009A00003101146684600F02BF90FB000BD00009F
:1009B000E5FFFFFFD1E900239A4202D2531C0B60EE
:1009C000107070472DE9FF5F15468A460446DFF830
:1009D000AC80F8440027D8E900103E46CDE900106D
:1009E00010E03AF816106A4602A800F02BFE411CEF
:1009F00007D02178890603D5E269391891420DD8CC
:100A00000744761C2078800602D5E069B84205DDEF
:100A1000AE42E6DB3AF816000028E2D1A069C01B1E
:100A2000A0612046FFF7FCFED8E90010CDE90010D8
:100A3000002017E03AF818106A4602A800F002FEFB
:100A4000B0F1FF3F81460BD000250DF1080B05E00A
:100A5000D4E901211BF8050090476D1C4D45F7D3E3
:100A600008F10100B0428046E4DB206A384420628D
:100A70002046FFF7EBFEBDE8FF9F00005AE10000B3
:100A80002DE9F0418046D21D22F007020025D2E96F
:100A90000002F52915A614D0011E72F1000106DA34
:100AA0000023D0EB030063EB020211A608E0D8F8A4
:100AB00000108B0701D50FA602E0490701D50EA64D
:100AC00001251146002408F1240704E000F064F930
:100AD00030323A55641C50EA0102F7D12B463246B7
:100AE00021464046BDE8F04100F09BB900000000FF
:100AF0002D0000002B0000002000000030B4002179
:100B000000F1240408E002F00705D208303542EA7B
:100B10004372DB086554491C52EA0305F3D10468AB
:100B2000002310A2250708D504F020040C4304D0AC
:100B3000C46901230CA2641EC46130BC00F071B909
:100B400010B5044621461068FFF79AFE024620467B
:100B5000BDE810400023D1E7D21D22F00701D1E902
:100B60000023CBE70000000030000000F0B40D4689
:100B70000188090502D5214C7C4402E01F4C7C44CD
:100B80000E34002100F1240608E002F00F071209DC
:100B9000E75D42EA03721B097754491C52EA0307D6
:100BA000F3D102780023120704D5702D06D009B1C5
:100BB000022311342246F0BC00F033B90123103473
:100BC000F8E770B504460D4621461068FFF758FE59
:100BD000024629462046BDE870400023C6E7D21DE4
:100BE00022F00703D3E90023C0E70368126843F04B
:100BF000200303600823C3610023B7E7BCDF0000C4
:100C00002DE9F05F894604464FF0000ADFF874B121
:100C1000FB44C0F820A02046E1688847002874D033
:100C2000252806D0D4E901219047206A401C206283
:100C3000F1E700265F462046E16888472028054600
:100C400007DB312D05D2781910F8200C08B10643C6
:100C5000F1E7B00701D526F00406C4F81CA0002770
:100C6000C4F818A02A2D09D028460DF01CFF38B36F
:100C700004EB8708303DC8F8185019E059F8041BF8
:100C8000204604EB87029161E1688847012F054601
:100C900018D1E069002820DA26F020061DE0D8F8F7
:100CA000180000EB800005EB40003038C8F8180051
:100CB0002046E168884705460DF0F5FE0028EED194
:100CC000012F0AD02E2D08D12046E16888477F1CCD
:100CD0000546022F46F02006C4DBA069002803DA8F
:100CE000404246F00106A061F00701D026F0100650
:100CF0006C2D0BD0682D09D04C2D39D06A2D35D0F4
:100D0000742D35D07A2D33D016E038E0E1682F46C7
:100D100020468847B842054609D16C2F26D04FF4AB
:100D20008060E168064320468847054604E06C2F52
:100D30001AD04FF4807006430DB3A5F14100192875
:100D400002D8203546F400664A46294620462660E9
:100D50004E46FFF70BFB80B101280BD0F61D26F0A5
:100D6000070000F1080956E74020E4E78020D8E7B3
:100D70000020D6E706F104094DE7284652E7206A2D
:100D8000BDE8F09F4CDF00000048704708010024D8
:100D9000004870470001002430B5B0F10A0271F13B
:100DA00000034FEA900E4EEA817EB0EB0E0061EB3D
:100DB00091014FEA101E4EEA017E10EB0E0041EB4E
:100DC00011114FEA102E4EEA016E10EB0E0041EBAE
:100DD00011214FEA104E4EEA014E10EB0E0041EB8E
:100DE0001141401841F100014FEAD00040EA417042
:100DF0004FEAD1014FEA810444EA907410EB800578
:100E000044EB01046D1944EB0404521BA3414FF061
:100E1000000348BF0A3200D530BD401C41F100013B
:100E200030BD2DE9F0470D4699469246044600F143
:100E300024080168880604D5E06921F010012160CA
:100E400000E00120A84201DD471B00E00027A16966
:100E50007A1902EB0900081AA0612078C00602D4B2
:100E60002046FFF7DDFC002608E0D4E901211AF84E
:100E700006009047206A401C761C20624E45F4DB39
:100E80002078C0060AD52046FFF7CAFC06E0D4E960
:100E9000012130209047206A401C2062381EA7F1B3
:100EA0000107F4DC07E0D4E9012118F805009047B8
:100EB000206A401C2062281EA5F10105F3DC2046B3
:100EC000FFF7C4FC2078000602D50220BDE8F087B9
:100ED0000120FBE72DE9FF4F0C461E464FF0FF3780
:100EE0008BB0D2E90001DDF860800A908A46C1F338
:100EF0000A5505B93D46002108464FF00000BAF1F9
:100F0000000F00F4400005DA00EB80004FF44001D0
:100F100001EA50004FEA9059B9F1010F00DDB946DE
:100F20000A9850EA4A000ED044F61050A5F2FF3558
:100F300045432F14B8F1000F1ED07542291E1EDD47
:100F4000C9F100021CE0B8F1010F4FF0000001D020
:100F5000302103E0F24305E02154401CB042FBDBAA
:100F600030460022002121540B99C1F80880C1E9C4
:100F700000200FB0BDE8F08FBD1B6D1CDEE74A46B8
:100F800000DA694206A800F009FC06AB93E8070006
:100F900003AB83E8070050460A990DF087F98DE806
:100FA0000700A0F500501F3800900398002D0ADDBF
:100FB00042F21F014A460844002303A903906846F1
:100FC0000DF0F0FB09E0A0F500504A461F38002361
:100FD00003A9039068460DF0FAFB8DE807000004B2
:100FE000000C03D04FF0FF30410800E01046B8F18C
:100FF000000F03D00022009215461EE0751E05D496
:10100000FFF7CAFE303262556D1EF9D5B346012294
:10101000084302D000227F1C04E02078302801D150
:1010200000227F1E002A099784D01DE0112D07DAC7
:10103000FFF7B2FE303262556D1C50EA0102F5D165
:10104000084302D00098C8B10EE00021681E05E0F8
:10105000235C625C63542254401E491C8142F7DBCE
:10106000AB46A81B401E0990002004F80B000B980B
:10107000099AC0F80880C0E9002B7AE711264FF0E2
:10108000000857E72DE9F04F88460446D21D22F0AC
:10109000070191B0D1E90001CDE90A010DF0CEFCC4
:1010A00002460B98C00F01D02D2007E02068810771
:1010B00001D52B2002E0202101EAC000032A09907B
:1010C00001D0072A05DB03464146204600F026FBF7
:1010D0000BE12078800601D5E06900E00620B8F138
:1010E000650F814606D0B8F1660F18D0B8F1670FCA
:1010F00070D131E00020B9F1110F009001DB112314
:1011000001E009F101030AAA01A90CA8FFF7E2FE18
:10111000DDE90C70002609F10105834647E0012056
:101120004B4600904FF000470AAA01A90CA8FFF710
:10113000D1FEDDE90DB00C995D46002610B909F12C
:1011400001000D18B9EB050003D4C0F1FF3609F119
:101150000105A5EB09002BE0B9F1010F01DA4FF011
:1011600001090020B9F1110F0090484601DD11235B
:1011700000E003460AAA01A90CA8FFF7ABFEDDE9CF
:101180000C704D4600268346207800070AD4AB45F4
:1011900000DA5D4601A8012D04DD411911F8011C9A
:1011A000302907D04F4502DA17F1040F04DA012085
:1011B00082460FE06D1EEEE7002F02DCED1B3E4481
:1011C00003E0781CA84200DD7D1CB81B00F1010A79
:1011D0004FF000472078000703D4AA4501DB4FF009
:1011E000FF3A0021B7F1004F0DF143088DF843108D
:1011F00024D002202B23002F01DA7F422D230A2145
:10120000021EA0F1010000DC5FB197FBF1FC97FB2F
:10121000F1F201FB1C7C17460CF1300C08F801CDF3
:10122000EEE7A8F1010003702188090501D54521E9
:1012300000E06521A0F1010800F8011C09980FA940
:10124000A1EB0807FF1D00B10120411901EBEA7075
:10125000A1693844081A401EA0612078C00602D453
:101260002046FFF7DDFA099828B1D4E9012190471B
:10127000206A401C20622078C00622D52046FFF755
:10128000CFFA1EE0002E04DBB34502DD01A8805D2D
:1012900000E03020D4E901219047206A401C206200
:1012A000761CAAF101005FEA000A0AD100F032FAC6
:1012B000C0680168405CD4E901219047206A401C65
:1012C0002062281EA5F10105DCDC07E0D4E901213C
:1012D00018F8010B9047206A401C2062381EA7F1C5
:1012E0000107F3DC2046FFF7B1FA032011B041E615
:1012F0002DE9F04F04460D46D21D22F0070089B0BB
:10130000D0E90097484639460DF098FB0246F80FA1
:1013100001D02D2307E02068810701D52B2302E0AF
:10132000202101EAC0038DF820300BB1012000E03C
:101330000020032A824601D0072A04DB29462046E2
:1013400000F0ECF93FE12078800601D40D2500E0A3
:10135000E569C7F30A560D2D49DA00214FEA175BFC
:1013600008464FF00000002F00F4400007DA00EBC1
:1013700080004FF4400100EBD07001EA600081155D
:10138000012901DD4FF0FF3100224FEA850CBCF14D
:10139000180F06D31346ACF118004FF08052C2402C
:1013A00003E04FF4801323FA0CF30CF10C0CBCF1A6
:1013B000200F04D3ACF1200C09FA0CF001E007FA7D
:1013C0000CF000294FF0004801DD18B90FE00ED1F4
:1013D00040450CD319EB02095F4121B9404502D1C8
:1013E0009F4329EA0209BBEB175F00D0761C2088D7
:1013F000000502D57B48784402E07A4878441938E1
:1014000008AA302302F80A30037C0AF10101002EF9
:101410000AF1020A53546A4602DC4FF0300101E03F
:101420004FF031014FF001088DF8001002D0A6F204
:10143000FF3603E059EA470100D06B4E002D02DC75
:101440002178090704D54FF002082E218DF80110EC
:10145000C44600210BE0C7F303433F01C35C491CB2
:101460006D1E02F80830052908F1010801DA002D87
:10147000F1DC00210CE000EB1973491C1B786D1E98
:10148000082902F808304FEA091908F1010801DAC1
:10149000002DF0DC21688B0602D516E0A8F10108CA
:1014A000E04505DD02EB080313F8013C302BF5D0D5
:1014B000B8F1000F09DD02EB080313F8013C2E2BF5
:1014C00003D1090701D4A8F10108002D05DD3E2153
:1014D00002F808106D1E08F10108407C002E02F889
:1014E000080008F1010804DA2D20764202F808000D
:1014F00002E02B2002F808000A214FF47A7086429D
:1015000008F101080BDB96FBF0F3303302F80830EA
:1015100096FBF0F308F1010800FB136601E0642E6E
:101520000CDB642096FBF0F3303302F8083096FBB6
:10153000F0F308F1010800FB136601E00A2E06DB58
:1015400096FBF1F0303002F8080008F1010896FB34
:10155000F1F001FB1060303002F80800A16908F1D9
:10156000010808EB050202EB0A00081AA0612078C6
:10157000C00602D42046FFF753F9216A08AE01EBFA
:101580000A00206204E0D4E9012116F8010B90471B
:10159000BAF1010AF7D22078C00602D52046FFF73B
:1015A0003FF96E4609E016F8010B3E280FD0D4E94A
:1015B00001219047206A401C2062B8F10108F2D254
:1015C0002046FFF743F909B00320BDE8F08F206AF9
:1015D0002844206203E0D4E90121302090476D1EA9
:1015E000EBD3F8E78AD7000002FCFFFF10B5436990
:1015F00013B1AFF3008001E0FFF74BF9012010BDFC
:10160000127800F124010A7000224A700122EDE7ED
:1016100011684FF0FF32E9E710B5436913B1AFF33A
:10162000008001E0FFF7CEF9012010BD128800F123
:10163000240182840022C2840122EDE711684FF068
:10164000FF32E9E72DE9F04116460C46054600F069
:1016500059F8036893F80101012807D0FF2C12D82C
:10166000185D80B101202C70BDE8F081D3F807012E
:101670003246214603F20713C7182846BC46BDE888
:10168000F041002360474FF0FF30EDE710B5002038
:1016900000F0FFF8FEF7C6FEBDE81040012000F0A4
:1016A00001B8000001491820ABBEFEE72600020089
:1016B00000487047000100247546FFF7F9FFAE4669
:1016C00005006946534620F00700854618B020B54E
:1016D000FEF7CAFEBDE820404FF000064FF00007BD
:1016E0004FF000084FF0000BAC46ACE8C009ACE886
:1016F000C009ACE8C009ACE8C00921F007018D467B
:101700007047000010B500F005F8001D10BD00BFC7
:10171000D1D3000000487047200100242DE9F0419A
:101720001F46044603260168072A01F4006004DB13
:1017300008B116A505E016A503E008B115A500E05F
:1017400015A521F010002060A069C01EA0610FB196
:10175000401EA0612046FFF763F84FB1D4E9012194
:1017600038469047206A401C2062C01C206206E078
:10177000206AFAE7D4E9012115F8010B9047761E9B
:10178000F8D22046FFF762F8BDE8F0814E414E00E6
:101790006E616E00494E4600696E66002DE9F047A5
:1017A000814616468AB0354878440DC88DE80D004C
:1017B00032487844801C03AC0DC884E80D0041F623
:1017C0009B300844372190FBF1F290FBF1F5A5F135
:1017D000800501FB12041B3C02D56442012000E09D
:1017E0000020DFF898A080460027FA44AAF1BE0A3C
:1017F0000EE0E0070AD03246684607EB47010123B6
:101800000AEB81010CF0E3FF8DE8070064107F1CF8
:10181000002CEED1194F7F44AE3F19E0E80715D0F8
:1018200007EB04100DF1180A90E80E008AE80E008C
:10183000C068F04201D1981908903246012306A9E8
:1018400003A80CF0C4FF03AB83E807006D10641C11
:10185000002DE3D14FF0010332466946B8F1000F85
:1018600003A802D00CF09EFF01E00CF0B0FFC9E924
:101870000001C9F808200AB0BDE8F08768D400006C
:1018800010B50446AFF300802046BDE81040FEF7D7
:10189000D4BD10B500F00AF8BDE8104000F001B862
:1018A0007047002801D0FFF7FDBE704710B500213A
:1018B00002A000F053F8012010BD00005349474139
:1018C0004252543A2041626E6F726D616C207465B1
:1018D000726D696E6174696F6E0000000000000037
:1018E00030B44FF0013C50F8042BCCFA52F451F8CC
:1018F000043BD51A20D1FCB950F8042BCCFA52F491
:1019000051F8043BD51A17D1B4B950F8042BCCFACE
:1019100052F451F8043BD51A0ED16CB950F8042B8F
:10192000CCFA52F451F8043BD51A05D1002CDAD088
:1019300030BC4FF00000704729BAB1FA81F111F0C4
:101940001801D1F120008440F2D1CA40CB4012F0FE
:10195000FF0213F0FF0330BCD01A704770B5054684
:101960000C460A2000E06D1C00F011F835B1287813
:101970000028F8D102E0641C00F009F814B12078C6
:101980000028F8D1BDE870400A20AFF3008008B508
:1019900069468DF800000320ABBE08BD00000000C2
:1019A000B0B582B041F6E0240021C2F20044012229
:1019B0000123204600250095019507F0E5FA4FF038
:1019C00080410222022320460095019507F0DCFAAF
:1019D000204607F041FB41F6F8340021C2F20044F2
:1019E0000322012320460095019507F0CDFA4FF020
:1019F00080410422022320460095019507F0C4FA95
:101A0000204607F029FB41F610540021C2F20044A1
:101A10000522012320460095019507F0B5FA4FF005
:101A200080410622022320460095019507F0ACFA7A
:101A3000204607F011FB4BF6D050C2F2004008F0F0
:101A4000B7F84BF61C60C2F2004002B0BDE8B040EF
:101A500008F0AEB80000000041F62421C2F20041B7
:101A60000978002908BF7047B0B541F62824C2F2B2
:101A7000004400BF22685368834204D0013904F156
:101A80000404F7D10DE0108958B1002502EB850060
:101A9000C0680168896888472268013510898542D5
:101AA000F4D3BDE8B0407047FEE70000000000003E
:101AB0000020704700000000002070470000000078
:101AC00010B542F28C1441F20C21C2F20044C2F271
:101AD00000410022204605F05FFB40F60C21204625
:101AE000C2F2004105F048FB002010BD00000000DC
:101AF00040293DD8F0B581B041F61C26C2F200461F
:101B0000336893B3B3F86023B3F86253571B6FEA9B
:101B1000050407F2FF1788BF1719BAB28A4224D307
:101B20000246C5F5007084B28C4210D22B440F1AC5
:101B300003F5B070154611462246FEF75EFD366885
:101B40002919BAB206F5B070FEF757FD09E0581929
:101B50000C4600F5B07011462246FEF74EFD2F19D7
:101B600036686FF35F27A6F8627301B0BDE8F040F6
:101B70007047000000000000B0B509680446FFF798
:101B8000B7FF42F28C152146C2F20045284605F007
:101B9000F3FA284605F0CCFA0020B0BD00000000A2
:101BA000002070470000000042F28C12C2F2004296
:101BB000D2F8BC22D2F81422002A1CBF01207047A0
:101BC00010B542F28C140A46C2F200440146204687
:101BD00005F0E2FA2046BDE8104005F055BB0000D4
:101BE00070470000000000004FF4807000F038BF24
:101BF000EFF3108072B600BFFEE7000000000000A7
:101C000044F60C00C5F60200016841F002010160D3
:101C100050F8081C8904FBD5704700000000000044
:101C200042F26840C2F2004000F012BA0000000028
:101C300042F26840C2F2004000F00ABA0000000020
:101C400042F20850C2F2004000F002BA0000000068
:101C500042F20850C2F2004000F0FAB90000000061
:101C600042F2A850C2F2004000F0F2B900000000B9
:101C700042F2A850C2F2004000F0EAB900000000B1
:101C8000F0B5D1E900C4D1F808E00D692CB14EEAF5
:101C90000C04254345F0804C03E045EA8C4444EABB
:101CA0000E0C856ED0F88470D1E907466B438D69C0
:101CB00044EA0660D1F814E0CC68054307EB8300E2
:101CC00045EA0E0647F823C046EA04434360CB6862
:101CD000002B08BFF0BD4FF2480C08300132002342
:101CE000C0F6000CD71857F8017CC750CF680433F2
:101CF0001CF80770BB42F5D3F0BD000000000000E7
:101D0000B0B5044600F08CFF40F2F6010546C2F281
:101D10000041621C097818BF0C4400BF00F080FF2E
:101D2000401BA042FAD3B0BD90F89830013B012B84
:101D30000BD80068836D0B420CD0836D0B408B4237
:101D40000CD1C36D43F0020309E000F19C010120B6
:101D5000022221E0C36D43F0010300E00323C365C9
:101D60008B0504D5D0F8E0301343C0F8E0304B05C4
:101D700004D5D0F8E4301A43C0F8E4204FF6FF72DF
:101D8000436DC3F6CF720A401A4342658A0F4AF682
:101D900014010020C4F200010B681A430A60704766
:101DA00090F89830022B1BD1B0B50368D3F8C0501F
:101DB00015F07C5F1CD0D3F8C450AD021DD4D3F80D
:101DC000C4300546C3F304442346FFF759FF28688F
:101DD0000121A140C0F8D0100020C5F89410B0BD7A
:101DE000D0F89C1041F00801C0F89C100120704709
:101DF000D0F89C1041F0200103E0D0F89C1041F491
:101E00000071C0F89C100120B0BD0000000000006F
:101E1000704700000000000090F89820013A012A65
:101E20000BD880B50A68002ACA680ED00B69072A49
:101E300043EA427E16D18B6919E0D0F89C1041F03C
:101E40000201C0F89C1001207047072A18D10A69C6
:101E5000D1E906C3120442EA032242EA0C0242F02C
:101E6000605217E0D1F808C04B6943EA8C73006FE9
:101E7000496800EBC10240F831E05360002080BDAA
:101E80008B68D1E904CE9B0743EAC26242EA0C4266
:101E900042EA0E024968C06E40F82120002080BD51
:101EA00070470000000000007047000000000000C4
:101EB00070B590F89850022D11D1402914D10468C2
:101EC000D4F8A05015F4FE0F2BD0D4F8A4506D0612
:101ED0002CD0D4F8A450ED0130D4002531E0D0F856
:101EE0009C1041F0080125E041290FD10468D4F885
:101EF000B05015F4FE0F14D0D4F8B4506D0615D0C0
:101F0000D4F8B450ED0126D4002527E0056D8D42AC
:101F100007D900F17C04D0F854E04FF0000C0D46D6
:101F200026E0D0F89C1041F0200103E0D0F89C108E
:101F300041F48071C0F89C10012070BDD4F8A0500D
:101F4000ED0FD4F8A440C4F3052404EB050E00F112
:101F50007404456C0BE0D4F8B050ED0FD4F8B440E5
:101F6000C4F3052404EB050E00F17804C56CF446B7
:101F700005FB0EFE256855F82E4014F08044546091
:101F800055F82E4024F0604608BFC4F38A46166018
:101F900055F82E4004F00054946005EB8E0455F87B
:101FA0002E6006F000461661A688D661E68816F017
:101FB0000F06D660666806F480165661666806F4F9
:101FC00000169661E67906F07F06166266684FEAAB
:101FD000D67656620ED04FF2480E04F10805002462
:101FE000C0F6000E2E5D1E550134D6681EF8066040
:101FF000B442F7D3402904D10068C0F8A8C000203B
:1020000070BD412904D10068C0F8B8C0002070BD7F
:102010001F2907D80068012202FA01F1C0F89810C0
:10202000002070BD006801F01F01012202FA01F1D9
:10203000C0F89C10002070BD0068D0F8C40000F00B
:102040003F007047000000007047000000000000E3
:102050002DE9F04F87B004464AF61000C4F20000A4
:1020600001684AF61400C4F20000026820680A40C1
:10207000D0F850B0D0F85490056D466D036D0293C2
:10208000436D0193036D0693436D0593036D0493B4
:10209000436D0393D0F854A0D0F850805FEACA5340
:1020A00010D518F480710DD04FF4807101654AF697
:1020B00010010020C4F20001174608602046FFF717
:1020C000C3FF3A460BEA090B4AF610095FEA4A5089
:1020D000C4F200094FEA82771AD518F4806017D04D
:1020E00020689146D0F8DC10D0F8E42011404FF47D
:1020F000806202654AF61002C4F2000200201060FD
:10210000204600F049FC4A464AF61009C4F200098C
:1021100005EA06050BF4704657B1206800210165F9
:1021200002F00300C9F8000020463946FFF770FEB0
:10213000DDE9011000EA010705F00F0546B120684E
:10214000314606650020C9F80000204600F02CFC4E
:1021500007F0F00645B12068294605650020C9F85A
:102160000000204600F0D4FB46B1206831460665E9
:102170000020C9F80000204600F0D2FB5FEA0A50B8
:102180000CD518F4006009D020684FF40061016597
:102190000020C9F80000204600F00AFC5FEA8A50DF
:1021A00011D518F400700ED02068D0F8D810D0F8EF
:1021B000E02011404FF4007202650020C9F80000D1
:1021C000204600F0EDFB5FEA0A300CD518F4002041
:1021D00009D020684FF4002101650020C9F80000F3
:1021E000204600F091FB5FEACA300CD518F480302D
:1021F00009D020684FF4803101650020C9F8000043
:10220000204600F0C5FB5FEA4A30DDE9031000EA32
:1022100001050CD518F4802009D020684FF48021E6
:1022200001650020C9F80000204600F0ADFB5FEA20
:102230008A30DDE9051000EA010005F060710FD574
:1022400018F400320CD022684FF4003313650022DA
:10225000C9F80020D4F89C2042F08002C4F89C20E9
:1022600000F0715539B1206801650020C9F80000FF
:102270002046FFF719FE4DB1206805650020C9F81A
:102280000000D4F89C002843C4F89C002068A9F5FD
:102290000161884209D0D4F89C00002868D020460B
:1022A00007B0BDE8F04FFFF7FBBD606881688907A4
:1022B000F1D0016A426A036A476A114003EA0702E1
:1022C00002F03005D0F82080D0F82490D0F820B06B
:1022D000466A026A069211F00F01426A0592D0F82E
:1022E00024A0026A049203D00162204600F040FB61
:1022F00008EA09072DB1606829460562204600F00A
:102300003FFB5FEA4A6006EA0B0607F4C0750ED58C
:10231000049810F040000AD060684023C16BC26B83
:10232000090C02F03F020362204600F025FBDDE9C4
:10233000051000EA010706F4FC462DB16068294645
:102340000562204600F010FB07F4F02036B161680A
:102350000E62D4F89C103143C4F89C1000289AD027
:1023600061680862D4F89C100843C4F89C0092E7A6
:1023700007B0BDE8F08F000040B32DE9F04F83B007
:102380004AF200080446C4F200080068404502D141
:1023900008F58070606094F8980028B9002084F8EF
:1023A0009900204600F0CCF92068816921F01001E5
:1023B000816100F035FC054620688169090707D571
:1023C00000F02EFC401B0B28F6D312E001207047D2
:1023D000816941F00101816100F022FC054600BFE6
:1023E00020688169C90711D100F01AFC401B0B2835
:1023F000F6D30120D4F89C100843C4F89C000320B5
:1024000084F89800012003B0BDE8F08F816941F0A5
:1024100002018161217C826922F04002012918BFFA
:1024200040328261617C826922F48042012908BFC6
:1024300002F580428261A17C826922F480520129E6
:1024400018BF02F580528261816921F44073D4E99A
:1024500002120B438361836923F0A4038361036940
:1024600023F0100303619AB1012A0DD0022A09D08A
:102470008369032A43F080038361036943F01002F8
:10248000026105D1202200E0042283691A4382619F
:10249000D4E90572E369561E6FF0FF02256A02EB6C
:1024A0000323B1F5407F43EA4663A5F1010646EAFE
:1024B000030640F20003CFF6FF7303EB074746EA3B
:1024C0000701C16110D1D4E90B65D4E90917013FB7
:1024D00002EB06226FF00F063A4306EB05173A436C
:1024E00003EB01411143C160236E2BB1616ED0F843
:1024F000C0201143C0F8C010E16DCDE90113D942ED
:102500004EF62C41C0F6000109D0D0F8C820A36EC9
:1025100022F0070251F823301A43C0F8C820D4F83B
:1025200040C0BCF1000F09D0D0F8BC20636C22F091
:10253000070251F823301A43C0F8BC20D4F848B041
:10254000BBF1000F0AD0D0F8BC20E36C22F070027F
:1025500051F8233042EA0312C0F8BC20D4F850A04E
:10256000BAF1000F0AD0D0F8BC20636D22F4E0620B
:1025700051F8231042EA0121C0F8BC10404504D1B3
:1025800061688A6822F003028A600021C4F894100E
:10259000C4F89C10012184F8981004F13409D0F893
:1025A00084104FF6FC729143656C99E80C0200951B
:1025B00041EA8201C0F88410D0F8841021F47F0130
:1025C00041EA0341C0F884109918D0F888306FF3BD
:1025D0008F0343EA8103C0F88830D0F8883023F4B1
:1025E000FE0343EA0943C0F8883001EB4903D0F801
:1025F000A0606FF38F0646EA8306C0F8A060D0F8AB
:10260000A06026F4FE0646EA0C46C0F8A06005FB72
:102610000C36D0F8B0306FF38F0343EA8603C0F86E
:10262000B030D0F8B03023F4FE0343EA0B43C0F8D7
:10263000B030E36CD0F8AC506FF38F0503FB0B6642
:1026400045EA8605C0F8AC50D4F8548008FB0A650A
:10265000D0F8F0606FF38F0646EA8506C0F8F060A8
:10266000D0F8F0E0A66D2EF47C1747EA0647C0F8D4
:10267000F070F70007EB8507D0F8C0506FF38F05B7
:102680002F43C0F8C070D0F8C070009DDDF804E0A2
:1026900027F47C1705FB0CFC4AF2000547EA0E47BD
:1026A000C0F8C070C4F2000503FB0BC305F540671A
:1026B000D0F8C05007EB820207EB810125F07C5770
:1026C000029D47EA0567C0F8C07001EBC90008FB2E
:1026D0000A372167A16E00EB8C0C606700EB830367
:1026E000E266C4E91EC30EFB01F300EB87006943F9
:1026F000C4F8800000EBC600C4F8840000EB83003F
:10270000C4F8880000EB81004DF2FC31C4F20001F6
:10271000C4F89000884201D920206BE6824208D29A
:10272000002000BF42F8040BD4F890108A42F9D37D
:1027300069E6002003B0BDE8F08F00000000000053
:10274000B0B5B6B0044602A8B8210025CDE934558D
:10275000CDE932553195FDF7F1FF4DF2004120688A
:10276000C4F2000188427BD04AF20041C4F2000169
:1027700088423ED04AF20001C4F20001884240F093
:10278000BE80002003901D9002A84FF400410291EA
:1027900001F08EFB08B1FFF72BFA40F2385144F2FA
:1027A000E040C2F20041C5F602000A68002A02F1C8
:1027B00001020A6008D1C16841F48071C160C1683A
:1027C00001F48071019101990168152441F008011B
:1027D00001600068132500F00800019001980320B3
:1027E000319040F20040C5F60200092100F500607A
:1027F0006CE0002003901D9002A84FF4004102916C
:1028000001F056FB08B1FFF7F3F940F2385144F2FA
:10281000E040C2F20041C5F602000A68002A02F157
:1028200001020A6008D1C16841F48071C160C168C9
:1028300001F48071019101990168162441F00201AF
:1028400001600068142500F00200019001984FF427
:102850004050319040F200400921C5F6020035E0B9
:102860004FF40040029002A803951D9501F020FB53
:1028700008B1FFF7BDF940F2385144F2E040C2F22E
:102880000041C5F602000A68002A02F101020A604E
:1028900008D1C16841F48071C160C16801F48071E0
:1028A000019101990168A02441F0200101600068B4
:1028B0009F2500F0200001900198C020319040F247
:1028C0000040C5F60200022100F58050359131A983
:1028D000022232920022CDE9332200F0CDF8052108
:1028E0000022284600F0B8FA284600F0A1FA052197
:1028F0000022204600F0B0FA204600F099FA36B0E7
:10290000B0BD0000000000007047000000000000A3
:10291000012918BF7047402106F052BB000000009B
:10292000102918BF7047412106F04ABB0000000083
:1029300090F8981001290CD1022180F898100168B4
:102940008A6922F001028A610021C0F89C100020EF
:102950007047D0F89C1041F00401C0F89C10012091
:1029600070470000000000007047000000000000F9
:1029700070470000000000007047000000000000E9
:1029800070470000000000007047000000000000D9
:1029900070470000000000007047000000000000C9
:1029A00070470000000000007047000000000000B9
:1029B000704700000000000041F6B821C2F200415B
:1029C0000988814249D141F6B220C2F20040007824
:1029D000002842D0B0B541F6CC25C2F200452868A7
:1029E00008F0CAFC044608F0DBFCA4F2B73140F260
:1029F0004A42286041F6D8209142C2F2004014D8E1
:102A00000178072913D8B4F5FA6F41F6982228BF48
:102A10004FF4FA64C2F20042B4F57A7F98BF4FF4E3
:102A20007A7422F81140013100E000210170007831
:102A30000828BDE8B04018BF704741F6982141F61C
:102A4000BA220020C2F20041C2F2004231F8103036
:102A500022F8103001300828F8D17047000000003B
:102A60008821C5F600010A68024208BF7047086065
:102A7000FFF7A2BF000000002DE9F04F83B00E6801
:102A8000002E00F0C78000F1264742F2004507F112
:102A9000FF77C5F602050A22A8424FEAB72500F1E2
:102AA000200308BF09220093082D38BF4FEAB72240
:102AB000002400274FF0000A01920AE00AF1010AFF
:102AC0000E6836FA0AF207F1020704F1040400F076
:102AD000A180012202FA0AFB16EA0B08EED0D1F817
:102AE0000490032209F0030EAEF10106012E02FA52
:102AF00007F610D8D0F808C0CD682CEA0602BD4011
:102B00002A438260C9F30015426822EA0B0205FAE3
:102B10000AF52A434260BEF1030F1FD0C2688D68D8
:102B2000B243BD40BEF1020F42EA0502C26015D1B8
:102B30006FF00302009D02EA5A0B04F01C030F22FF
:102B400055F80BC002FA03FED1F810902CEA0E0CD7
:102B500009FA03F343EA0C0345F80B3002684B68AB
:102B6000B24303F00306BE4013F4403F42EA0602BC
:102B70000260A3D044F2F44340F2084CC5F60203CD
:102B8000C5F6000C0F251A6842F002021A601A6896
:102B900002F0020202922AF00302029B04F00C03EC
:102BA00052F80C609D40AE43019D05FA03F3334398
:102BB00042F80C304FF0B04CDCF800204B6842EA91
:102BC0000806DD0258BF22EA08069D02CCF8006024
:102BD00040F2040CC5F6000CDCF8002042EA0806BE
:102BE00058BF22EA08069D03CCF80060DCF880207C
:102BF00042EA080658BF22EA0806DB03CCF88060E8
:102C0000DCF87C2042EA080658BF22EA0806CCF825
:102C10007C6053E703B0BDE8F08F000000000000C7
:102C20004FF67820C2F200400068704700000000B4
:102C300040F2F6004FF67821C2F20040C2F20041A5
:102C400000780A6810440860704700000000000027
:102C500080B5032000F030F901F0BAFF44F21841CA
:102C60004EF68443C5F60201C0F600030A68C2F3BB
:102C700003229A5C096801F00F0102F01F02595CFF
:102C8000D04040F22402C2F2004201F01F0120FABB
:102C900001F1116040F22001C2F2004108600F20F2
:102CA00000F00AF800281CBF012080BD00F0A8F841
:102CB000002080BD000000000F2847D8B0B58AB0C2
:102CC0000446362000222146002500F0C5F83620B3
:102CD00000F0AEF840F2F800C2F20040046044F2A6
:102CE000E840C5F60200016841F01001016000688B
:102CF00001A900F010000290029802A801F0B4FEB1
:102D0000079C002C18BF012401F002FF4DF68361DF
:102D1000A040C4F21B3141F20002A0FB010142F6C7
:102D20007830C2F200404FF0FF33C4F2000202607C
:102D300003EB9141C0E9011540F2E731C0E9031509
:102D400002F036FB20B101200AB0B0BD012070476F
:102D500042F67830C2F2004002F096FB0AB0B0BDF5
:102D600010B54EF6A05E4378CEF2000E90F800C08B
:102D70004EF8083CDEF8003023F00103CEF80030B6
:102D800043684EF8043C037BC27A817A447B120686
:102D900042EA0372837B42EAC141C27B41EA844139
:102DA000447A41EA4341007A41EA024141EA04217E
:102DB00041EA400040EA0C00CEF8000010BD0000DF
:102DC0004EF62450CEF20000BFF35F8F016821F46D
:102DD00080310160002101677047000000000000A1
:102DE0004EF6245140F00100CEF200010867086859
:102DF00040F480300860BFF34F8FBFF36F8F704790
:102E000081B044F2F4400022C5F60200016841F0AE
:102E10000201016000680F2100F0020000906FF0D5
:102E20000100009B01B000F017B800000000000096
:102E3000002848BF704700F01F01012202FA01F18B
:102E40004EF20012C0F34A10CEF2000242F82010F7
:102E5000704700000000000070B54EF60C5C4FF0AB
:102E6000FF36CEF2000C00F1604505F56445DCF854
:102E70000030C3F3022E8EF00703042B28BF042377
:102E8000BEF1030406FA03F321EA030100F00F0385
:102E900038BF0024043B0028634406FA04F048BF0E
:102EA00003F10C05A14022EA00000843000128704C
:102EB00070BD0000000000004EF60C514FF6FF03FD
:102EC000CEF200010A681A4060F30A2242F08060E4
:102ED00040F0FD700860704701680122C0F8D824F6
:102EE000002280F8CC24886940F000608861486D39
:102EF00040F08052002042F003024A657047000013
:102F00007047000000000000026800205162704716
:102F1000B0B5D0F800E0DEF82400D1B1DEF82830FA
:102F2000B1F1010C00EB13430BD05FFA8CF10EF5FD
:102F30008070002450F8045F01348C4203EB154389
:102F4000F8D30EEB8C0043EA0241C0F804110020D4
:102F5000B0BD40EA0240CEF828000020B0BD00001D
:102F6000D0F8E00404F0E4BB01EBC10200EB820204
:102F7000D0F8E004126A04F047BB00000000000033
:102F800001EBC10200EB8202D0F8E004D2F860222B
:102F900004F092BB00000000D0F8E00404F0CCBBC9
:102FA00010B501F00F0E0A464FFA82FCD2090EEB63
:102FB000CE01BCF1000F00EB810303F5157148BF92
:102FC00003F1140190F894344A70012B81F800E069
:102FD00001D1022010BD012280F894240268044629
:102FE000104605F00DF9002084F8940410BD00008F
:102FF000B0B5037901F00F029A4201D90120B0BDAA
:103000004CB202EBC2038C46002C00EB830303F5A9
:1030100015714FEADC1448BF03F1140190F89434A1
:103020004C700024012B8C700A7001D10220B0BDBD
:10303000012280F8942402680546104605F06CFAD7
:10304000204685F89444B0BD01F00F0101EBC101A9
:1030500000EB8100D0F8680270470000000000001B
:10306000B0B501F00F0E8C464FFA8CF40EEBCE018A
:10307000002C6FF3DF2200EB810505F5157148BFC9
:1030800005F114015FEADC154D7081F800E08A60FB
:103090000B7118BFA1F81AE0022B01D100224A716E
:1030A00090F89424012A01D10220B0BD012280F8B9
:1030B000942402680446104604F0C2FF002084F8FD
:1030C0009404B0BD0000000080B501F00F0C0CEBC3
:1030D000CC0100EB810E0021CEE998238379CEF854
:1030E00068128EF855120EF51571012B8EF854C228
:1030F00008BFCA6100681A4605F056FA002080BD74
:10310000B0B5027901F00F0494424FF001022CD8BF
:103110004FFA81FC01EBC10304EBC405BCF1000FC5
:1031200000EB830303F5157300EB850548BF05F13C
:10313000140390F89454C9095970012D9A701C70A9
:1031400001D10220B0BD012180F894140546006829
:10315000194605F009FA2CB9A979286805F29C42AC
:1031600005F0AAF9002285F894241046B0BD0000AD
:1031700080B501F00F0C90F806E00CEBCC01BEF12D
:10318000010F00EB810101F814CF4FF0000C0B612F
:103190004FF00103CA60C1F814C04B7008BFCA6188
:1031A0000068724605F000FA002080BD00000000B3
:1031B0002DE9F04F87B005688246284605F074FB7C
:1031C00010B107B0BDE8F08FDAF8000005F09CFB05
:1031D0000028F6D0D5F80808C0F30D20CAF8D404AA
:1031E000DAF8000005F090FB800705D5DAF800005A
:1031F000416901F00201416105F500600590DAF8CE
:10320000000005F081FBC006069536D5DAF800000F
:10321000816921F0100181612C6A04F00F0000EB3C
:10322000C001C4F343400AEB8101062801F515757E
:1032300011D002281AD147F6F07014EA000615D012
:103240003409E9680698224605F062FBE86800EB5D
:103250001610E86007E00AF29C410822069805F083
:1032600057FBC4F30A14686920446861DAF8000067
:10327000816941F010018161069DDAF8000005F0D6
:1032800043FB000340F1F280DAF8000005F018FB80
:10329000002800F0EB8006464FF4306800244FF021
:1032A000000B0AF29C40049009E000BF0BF1010BF7
:1032B000760808F1200804F1240400F0D780F00714
:1032C000F4D05FFA8BF9DAF80000494605F014FBF8
:1032D0000746C0075FD005EB080001218160DAF8DE
:1032E000000008EB0001036C8A689AF80650012D73
:1032F00025D1150732D4950600F1B08043F20B05B5
:10330000C4F65475AB42069D02D312F400422FD18D
:103310000AEB0402D2F8743209696FF3DF41A3EBC0
:103320000101C2F8681294BBD2F86432002B00F09D
:103330009B80D2F860020844C2F8600227E043F2A2
:103340000B05C4F65475FF35AB4217D11004069D2A
:103350000ED490061BD52020886018E043F20B00A5
:10336000069DC4F65470834215D312F4004012D067
:103370004FF40040886038070FD437E0069D34B919
:10338000DAF8641219B90021049A05F095F850464C
:103390004946FFF7F5FD380728D505EB0800082159
:1033A000816043F20B01DAF80000C4F65471056C39
:1033B00040448D42816805D311F400411CBF4FF495
:1033C00000418160504600F0C3FB43F20B00C4F69D
:1033D00054708542069D09D39AF80600012805D14C
:1033E000DAF800000121049A05F066F8F80607D41F
:1033F000B8070BD4B80624D4B8047FF557AF27E03C
:1034000005EB080010218160B807F3D56869000654
:1034100004D50599486840F4806048600AEB0400D0
:1034200090F85712012906D1002180F85712504612
:10343000494600F0A9FA05EB080002218160B806B0
:10344000DAD505EB080020218160B8047FF52EAFA6
:1034500005EB08004FF40051816027E720208860C9
:10346000069D380799D4C1E701218DE7DAF80000FD
:1034700005F04AFA400340F1DC80DAF8000005F07C
:1034800017FA002800F0D5800646069800F5106966
:103490000AF1140B00270AF29C400290CDE903B90F
:1034A00005E000BF760807F1010700F0C280F007D1
:1034B000F8D0FDB2DAF80000294605F009FA044612
:1034C000C0070BD1200733D4E00637D460063BD4C5
:1034D000A0073FD42006E5D555E000BF059B07F0C7
:1034E0000F004FF0010C09EB47120CFA00F0596B7A
:1034F00021EA00005863C2F808C09AF806000128C3
:1035000010D107EBC7000BEB8000D0E90212114489
:10351000C1603FB9006928B9DAF800000121029AB8
:1035200004F0CAFF50462946FFF71EFD2007CBD501
:1035300009EB471008218160E006C7D509EB471069
:10354000102181606006C3D509EB471040218160DE
:10355000A007BFD50698394605F072F907EBC700FA
:103560000BEB800010F8031F012905D10021017029
:103570005046294600F004FA09EB47100221816009
:1035800020067FF58FAF07EBC7000BEB8008D8E96B
:1035900004108142FFF486AFDAF80040081AD8F828
:1035A0000810884238BF014604EB47100331D0F8B9
:1035B000182992B2B2EB910F28D300F5106900BF21
:1035C000D8E90410814221D9081A9AF80620D8E9CE
:1035D00002B1584538BF8346009220461FFA8BF34C
:1035E0002A4605F089FAD8F80C00D8F81410584487
:1035F000C8F80C0001EB0B00C8F814000BF1030035
:10360000D9F8181089B2B1EB900FD9D2D8E90401DA
:103610008842DDE903B93FF645AF07F00F0001210D
:1036200001FA00F0D4F8341821EA0000C4F8340894
:1036300038E7DAF8000005F067F9B0F1FF3F069CC3
:1036400019DC0599486820F0010048609AF8CC041C
:10365000012807D100208AF8CC0400215046FFF74A
:103660004FFC02E0504600F057FADAF800004169DA
:1036700001F000414161DAF8000005F045F900056C
:103680000CD505988068C00702D0504600F088FA33
:10369000DAF80000416901F400614161DAF80000E4
:1036A00005F032F9000117D5DAF80000416901F0A0
:1036B000006141619AF8CC1419B1504600F070FADB
:1036C0000AE001218AF8CC14406DC0F38300CAF8E7
:1036D000D0045046FFF714FCDAF8000005F014F9A6
:1036E000C00453D50599486820F001004860DAF815
:1036F0000000102105F0A4F89AF80400D8B104F5F0
:1037000010614FF67F3200BF8A6001380B6823F4E6
:1037100000130B60C1F80822D1F8003223F4001323
:10372000C1F80032D1F8003243F00063C1F8003232
:1037300001F12001E8D1059F84214422F86940F07D
:103740000110F8619AF80F0000284FF00B0008BF35
:10375000142104BF42F22B0010227B5818437850EA
:10376000B85840F00B00B85038680AF29C4220F478
:10377000FE6038609AF80610DAF8000004F09CFE4B
:10378000DAF80000416901F480514161DAF8000083
:1037900005F0BAF880041CD5DAF8000004F094FCB7
:1037A000DAF8000005F070F88AF80700DAF800404F
:1037B00001F086F99AF807200146204605F014F931
:1037C000504600F095F9DAF80000416901F4005123
:1037D0004161DAF8000005F097F8000708D5504677
:1037E00000F09EF9DAF80000416901F0080141613A
:1037F000DAF8000005F088F800062AD506998869ED
:1038000020F0800088619AF80400022821D30AF58C
:1038100015740AF11405012640F27B2706E000BF6B
:103820009AF8040001362437864212D21AF80700AB
:103830000128F5D106F00F00320600EBC00005EBC1
:10384000800158BF04EB8001DAF8000004F0A8FF03
:10385000E6E7DAF8000005F057F8C0022FD59AF82D
:103860000400022825D306980AF1140400F5126515
:103870000AF13B064FF00108012706E09AF8040020
:10388000013720352436874213D228687178012900
:10389000F4D1B0F1FF3FF1DC07F00F0086F80080B3
:1038A00000EBC00004EB8001DAF8000004F078FFC0
:1038B000E4E7DAF80000416901F480114161DAF8C7
:1038C000000005F021F8800233D59AF80410069D17
:1038D000022928D305F5326001390AF51F72012348
:1038E00006E000BF013900F1200002F124021AD0E5
:1038F00007681678012EF5D1B7F1FF3FF2DCDAF850
:10390000D46486EA1747FF07ECD102F8013CAF699F
:1039100047F08007AF616F693F06E3D405994868B7
:1039200040F400704860DAF80000416901F40011C9
:103930004161DAF8000004F0E7FF400008D5504686
:10394000FFF70EFBDAF80000416901F080414161A8
:10395000DAF8000004F0D8FF40077FF532ACDAF85F
:1039600000004468600702D55046FFF715FBDAF8FF
:10397000000041682143416007B0BDE8F08F0000BE
:10398000D0F8E00403F040BFD0F8E00403F054BFE7
:10399000002862D010B582B0044690F8950428B98A
:1039A000002084F89404204600F06AF8032084F88C
:1039B0009504206804F078FDD4E9000194F810C063
:1039C000D4E90223CDF800C004F08EFB00283ED1DC
:1039D0002068002104F0C0FFC8BB207960B300EB71
:1039E000C00000214FEA800E4FF0010C002300229E
:1039F000E01824339E450275C28502F1010280F869
:103A000015C00176C16101624162F1D1002100223D
:103A1000002300BFA0182432964580F8543203F1E9
:103A2000010380F8551280F85812C0F85C12C0F8F3
:103A30006012C0F86412EDD1D4E9000194F810C00E
:103A4000D4E90223CDF800C004F03AFC38B10220DA
:103A500084F89504012002B010BD012070470020B9
:103A60006074012084F89504207B012802D120464F
:103A7000FFF732FA206804F013FC002002B010BDFA
:103A800010B5B0B0044602A8B821FCF757FE0021DB
:103A90002068C4F20401884201D030B010BD00207B
:103AA00003904FF4802002904FF44010239002A81E
:103AB00000F0FEF908B1FEF79BF800F0B1F844F20F
:103AC000D8400022C5F60200016841F00071016093
:103AD0000068052100F00070019001984D20FFF76B
:103AE000BBF94D20FFF7A4F930B010BD0000000075
:103AF00010B5C179044621B1022901D0FEF778F84A
:103B00000121D4F8E00403F023FFD4F8E004BDE879
:103B1000104003F0D1BE0000D0F8E00403F0FCBE7A
:103B2000D0F8E00403F004BF90F89424012A01D1F6
:103B30000220704710B5012280F894244174044695
:103B40000268104604F03CFF002084F8940410BD85
:103B5000D0F8E02400F29C41104603F011BF0000B1
:103B600010B5044690F89404012801D1022010BD3C
:103B70002068012184F89414C168490606D5617B48
:103B8000012903D1816B41F48031816304F050FE3F
:103B9000206804F075FB002084F8940410BD000038
:103BA00010B50446D0F8E00403F042FF2068D0F8D6
:103BB000001E41F00101C0F8001EE07A002808BF95
:103BC00010BD4EF61050CEF20000016841F0060123
:103BD000016010BD00000000B0B544F60C05C5F64C
:103BE000020529684907296805D401F00701081A68
:103BF00018BF0120B0BD21F0070108432860FFF77E
:103C00000FF8044655F8080C800407D4FFF708F8AD
:103C1000001BB0F57A7FF5D90120B0BD0020B0BD02
:103C200044F60C00C5F60200016841F080710160A5
:103C3000704700000000000080B500F041FF44F232
:103C400020414EF68442C5F60201C0F60002096822
:103C5000C1F30211515C01F01F01C84080BD00009A
:103C600080B544F2384EC5F6020E5EF8103C5EF8A0
:103C7000101C5EF80C2CC1F3053CDEF80410BCF1FE
:103C8000000F15D0C908D20601EAE2716FF35F3167
:103C900000EE101A03F003010229B8EE400A0CD01E
:103CA00071B95EF8381C89060DD49FED351A18E0FD
:103CB00000218160C0E9001180BD9FED301A10E045
:103CC0009FED2D1A0DE05EF8381C49F20002C0F29B
:103CD000D032C1F3C10122FA01F101EE101AB8EE9F
:103CE000411ADEF800109FED273A6FF35F2102EED4
:103CF000101ADEF80010C1F34621B8EE422A00EE99
:103D0000032A00EE10CAB7EE003AB8EE400A81EE80
:103D1000000A32EE031A02EE101AB8EE422A20EE22
:103D2000010A32EE031A80EE011ABCEEC11A80EDD0
:103D3000001ADEF80010C1F3064101EE101AB8EEC9
:103D4000411A31EE031A80EE011ABCEEC11A80ED61
:103D5000011ADEF80010C1F3066101EE101AB8EE88
:103D6000411A31EE031A80EE010ABCEEC00A10EED1
:103D7000101A816080BD00BF0024744A20BCBE4B75
:103D80000024744C0000003980B544F2404EC5F662
:103D9000020E5EF8183C5EF8181C5EF8142CC1F395
:103DA000055CDEF80410BCF1000F15D0C908D2057F
:103DB00001EAE2716FF35F3100EE101A03F00301C4
:103DC0000229B8EE400A0CD071B95EF8401C890691
:103DD0000DD49FED351A18E000218160C0E9001173
:103DE00080BD9FED301A10E09FED2D1A0DE05EF8BA
:103DF000401C49F20002C0F2D032C1F3C10122FAE4
:103E000001F101EE101AB8EE411ADEF800109FED34
:103E1000273A6FF35F2102EE101ADEF80010C1F3AB
:103E20004621B8EE422A00EE032A00EE10CAB7EE91
:103E3000003AB8EE400A81EE000A32EE031A02EEB2
:103E4000101AB8EE422A20EE010A32EE031A80EE72
:103E5000011ABCEEC11A80ED001ADEF80010C1F3A1
:103E6000064101EE101AB8EE411A31EE031A80EE47
:103E7000011ABCEEC11A80ED011ADEF80010C1F380
:103E8000066101EE101AB8EE411A31EE031A80EE07
:103E9000010ABCEEC00A10EE101A816080BD00BF9E
:103EA0000024744A20BCBE4B0024744C000000392E
:103EB0002DE9F04381B00446C07844F22C49000754
:103EC000C5F6020901D4002520E0606E4FEA3050AB
:103ED000032835D80025DFE800F0020A1C22D9F8B3
:103EE000000040F40030C9F80000D5B906E004F144
:103EF0000800022102F0F8F8054695B9D9F8240027
:103F0000616E20F440100843C9F824004FF0000807
:103F100008E004F12800022102F076F90546002DA0
:103F2000ECD0A8466078C0071ED0A06D04283ED80B
:103F3000DFE800F02B340A0303006DB1A84613E05C
:103F40000125002DEDD1D9E704F12800002102F070
:103F50005BF90546002DF1D1D9F82400A16D20F0C0
:103F600007000843C9F824006078400747D5D4F813
:103F7000A4004FEA705005282CD8DFE800F01C2F71
:103F80002503030395B3A84639E0D9F8000040F4AF
:103F90000030C9F80000002DD0D1DDE704F10800A1
:103FA000002102F0A1F80546002DC7D1D4E7012574
:103FB000002DC3D1D0E7D9F8000040F40030C9F893
:103FC0000000002DDFD111E004F12800002102F0F3
:103FD0001BF908E00125002DD5D107E004F1080008
:103FE000002102F081F80546002DCCD1D9F82C0033
:103FF000D4F8A41020F460000843C9F82C006078BD
:10400000000731D5D4F8A8004FEA3060052816D84B
:10401000DFE800F006190F030303E5B1A84623E02B
:10402000D9F8000040F40030C9F80000002DF5D1A7
:1040300011E004F12800002102F0E6F808E0012573
:10404000002DEBD107E004F10800002102F04CF84C
:104050000546002DE2D1D9F82C00D4F8A81020F0A4
:10406000E0600843C9F82C00E07880071BD5E06CBD
:104070004FEA301003282FD8DFE800F002052502B0
:104080004DB1A8460FE0D9F8000040F40030C9F85F
:104090000000002DF5D1D9F82000E16C20F03000AF
:1040A0000843C9F820006078C00629D5E06D4FEAC2
:1040B0003030042849D8DFE800F0363F130303000E
:1040C000B5B1A8461CE004F10800022102F00CF88A
:1040D0000546002DD5D1DEE70125002DD1D1DAE747
:1040E00004F12800002102F08FF80546002DE8D1E8
:1040F000D9F82400E16D20F4E0400843C9F8240019
:104100006078800639D5206E4FEA3040052829D8DE
:10411000DFE800F025031F25252504F10800012113
:1041200001F0E2FF1AE0D9F8000040F40030C9F8CD
:104130000000002DC5D1DBE704F10800002101F0EB
:10414000D3FF0546002DBCD1D2E70125002DB8D103
:10415000CEE704F12800012102F056F8054625B10A
:10416000A8460AE00125002DFAD1D9F82400216ED5
:1041700020F4E0200843C9F824006078400625D5E3
:10418000D4F8AC004FEA3070052813D8DFE800F00F
:104190000F03090F0F0F04F10800012101F0A4FF24
:1041A00004E004F12800012102F02EF8054625B1B3
:1041B000A8460BE00125002DFAD1D9F82C00D4F83F
:1041C000AC1020F0E0400843C9F82C0060780006ED
:1041D00020D5E06ED8B1B0F1005F12D0B0F1805FB1
:1041E00026D1D9F8000040F40030C9F8000085B9A4
:1041F000D9F82400E16E20F040500843C9F82400AB
:1042000008E004F10800012101F06EFF0546002DD1
:10421000EED0A846E078C0071ED0A06C032800F2BC
:104220008080DFE800F0020974026DB1A84613E057
:104230000125002DEDD1DBE7D9F8000040F4003076
:10424000C9F80000002DF1D1D9F82000A16C20F0B0
:1042500003000843C9F82000A078400644D5D9F8E7
:10426000D40340F48070C9F8D403FEF7D9FC0646A5
:10427000D9F8D403C00505D4FEF7D2FC801B65280D
:10428000F6D303257DBBD9F84410D4F8B0004140E3
:1042900011F4407F11D0D9F84410D9F8442042F4E9
:1042A0008032C9F84420D9F8442021F4407122F426
:1042B0008032C9F84420C9F84410B0F5807F0FD18E
:1042C000FEF7AEFC064641F2893700BFD9F844003C
:1042D000800705D4FEF7A4FC801BB842F6D3032563
:1042E000002D00F07A82A8462078C00732D0A06F57
:1042F0004FEAF000052822D8DFE800F01E03181E60
:104300001E1E04F10800012101F0EEFE13E004F18D
:104310000800022101F0E8FE0546002D7FF486AF7B
:1043200092E70125002D7FF481AF8DE704F128008D
:10433000012101F069FF054625B1A8460AE00125E3
:10434000002DFAD1D9F82800A16F20F038000843D9
:10435000C9F828002078800721D5606F052813D878
:10436000DFE800F00F03090F0F0F04F1080001212F
:1043700001F0BAFE04E004F12800012101F044FF3D
:10438000054625B1A8460AE00125002DFAD1D9F845
:104390002800616F20F007000843C9F82800207842
:1043A000400723D5D4F89000052813D8DFE800F0A3
:1043B0000F03090F0F0F04F10800012101F094FE13
:1043C00004E004F12800012101F01EFF054625B19B
:1043D000A8460BE00125002DFAD1D9F82C00D4F81D
:1043E000901020F007000843C9F82C0020788006C0
:1043F00025D5D4F88C004FEA3070052813D8DFE8B3
:1044000000F00F03090F0F0F04F10800002101F065
:104410006BFE04E004F12800022101F0F5FE0546E0
:1044200025B1A8460BE00125002DFAD1D9F82800C6
:10443000D4F88C1020F0E0400843C9F82800207818
:10444000400625D5D4F898004FEAB020052813D8A7
:10445000DFE800F00F03090F0F0F04F1080000213F
:1044600001F042FE04E004F12800022101F0CCFE3C
:10447000054625B1A8460BE00125002DFAD1D9F853
:104480002C00D4F8981020F4E0500843C9F82C0010
:104490002078000625D5D4F89C004FEA7030052816
:1044A00013D8DFE800F00F03090F0F0F04F1080025
:1044B000002101F019FE04E004F12800022101F0BE
:1044C000A3FE054625B1A8460BE00125002DFAD133
:1044D000D9F82C00D4F89C1020F460400843C9F8A7
:1044E0002C002078000716D5D4F88000B0F5805F46
:1044F00008D104F12800022101F086FE002818BF2F
:104500004FF00108D9F82800D4F8801020F440506A
:104510000843C9F828002078C00616D5D4F89400BE
:10452000B0F5807F08D104F12800022101F06CFE73
:10453000002818BF4FF00108D9F82C00D4F89410C7
:1045400020F440700843C9F82C00A078000724D557
:10455000D4F8A000B0F5003F1CD0B0F5803F13D0D8
:10456000002840F0E58004F10800002101F0BCFDC6
:1045700005468DB9D9F82C00D4F8A01020F44030AD
:104580000843C9F82C0008E004F12800022101F0DA
:104590003BFE0546002DEDD0A846A078400725D566
:1045A000D4F88400B0F5401F1DD0B0F5001F14D022
:1045B000B0F5801F40F0C180D9F8000040F4003011
:1045C000C9F800008DB9D9F82800D4F8841020F477
:1045D00040100843C9F8280008E004F12800012130
:1045E00001F012FE0546002DEDD0A846A078C007C8
:1045F0001FD0206DB0F5803F0BD0002840F0938095
:10460000D9F8000040F40030C9F800004DB1A846C8
:104610000FE004F10800022101F066FD0546002DBF
:10462000F5D1D9F82000216D20F480300843C9F875
:104630002000E078800608D504F12800022101F06E
:10464000E3FD002818BF4FF00108D4E900108A03E9
:1046500040F18280E26F6FF0010303EB3223022B03
:104660000AD34FEA32233BB1012B6BD1D9F800308A
:1046700043F40033C9F80030002D66D0CA026ED46E
:104680008A0277D44A0000F18080CA0F40F08D8002
:10469000090200F19580C00707D004F1080000214D
:1046A00001F022FD002818BF05462079800707D5B4
:1046B00004F10800012101F017FD002818BF05468C
:1046C0002079400707D504F10800022101F00CFD14
:1046D000002818BF05462079000707D504F12800F7
:1046E000002101F091FD002818BF05462079C00681
:1046F00007D504F12800012101F086FD002818BF2C
:1047000005462079800607D504F12800022101F032
:104710007BFD002818BF0125002D18BF0125284664
:1047200001B0BDE8F0830125002D7FF470AF78E77C
:104730000125002D7FF430AF1CE70125002D7FF40B
:1047400054AF40E70125002D98D1D9F8283023F443
:1047500040731A43C9F828204546CA0290D5D9F8B3
:104760002420236F22F000421A43C9F824208A0231
:104770007FF588AFD9F82420A36E22F080721A4307
:10478000C9F824204A007FF580AF59F81C2C22F488
:10479000004249F81C2CD4F8B42059F81C3C1A43A8
:1047A00049F81C2CCA0F3FF473AFD9F82020636D71
:1047B00022F040521A43C9F8202009027FF56BAF5E
:1047C000D9F82810D4F8882021F440011143C9F801
:1047D0002810C0077FF461AF67E74FF6CF73D4F8B6
:1047E000B00059F81C2CC0F2FF0300F4407122F411
:1047F0007C5203EA1013B1F5407F08BF1A436FF3F0
:104800001F3049F81C2CD9F844100843C9F844005B
:104810006AE50000000000002DE9F04381B00028A7
:1048200000F0F88042F200080446C5F200288946EC
:10483000D8F8000000F00F0088420ED2D8F800002F
:1048400020F00F0040EA0900C8F80000D8F8000086
:1048500000F00F00484540F0DD80206844F2184722
:104860004107C5F602070AD521693A6802F07002CD
:10487000914204D93A6822F070021143396001076D
:104880000AD561697A6802F07002914204D97A68A7
:1048900022F0700211437960C1060AD5A1697A68D5
:1048A00002F4E062914204D97A6822F4E062114392
:1048B000796081060AD5E169BA6802F07002914216
:1048C00004D9BA6822F070021143B96081070AD591
:1048D000E1683A6802F00F02914204D93A6822F086
:1048E0000F0211433960C00740F0808020688107C3
:1048F0000AD5E1683A6802F00F02914204D23A68A0
:1049000022F00F0211433960D8F8001001F00F01B6
:1049100049450DD9D8F8001021F00F0141EA0901ED
:10492000C8F80010D8F8001001F00F01494571D106
:1049300041070AD521693A6802F07002914204D217
:104940003A6822F070021143396001070AD56169A3
:104950007A6802F07002914204D27A6822F0700202
:1049600011437960C1060AD5A1697A6802F4E06250
:10497000914204D27A6822F4E062114379608006A1
:104980000AD5E069B96801F07001884204D2B968BB
:1049900021F070010843B86000F01AF939684EF64A
:1049A0008442C0F60002C1F30321515C3B6803F06E
:1049B0000F0301F01F01D25C20FA01F102F01F0089
:1049C00040F22402C2F2004221FA00F0106040F2EC
:1049D000F80040F22002C2F20040C2F20042006839
:1049E000116001B0BDE8F043FEF766B9386820F405
:1049F0007061D4E9010211433960012857F8181C8D
:104A00000CD0032804D0022828D1890302D507E05E
:104A1000890105D4012001B0BDE8F083C905F9D5AD
:104A200057F8081C21F00701084347F8080CFEF767
:104A3000F7F8064641F2883557F8080C616800F02F
:104A40003800B0EBC10F3FF451AFFEF7E9F8801B1F
:104A5000A842F1D9032001B0BDE8F0834907D9D5B8
:104A6000DEE70000000000003F22026044F218422E
:104A7000C5F6020252F8083C03F0070343601368CE
:104A800003F470638360136803F00F03C36013685B
:104A900003F070030361536803F0700343615368CC
:104AA00003F4E0638361926802F07002C26142F233
:104AB0000000C5F20020006800F00F000860704799
:104AC00080B500F085F844F218414EF68443C5F6EF
:104AD0000201C0F600030A68C2F303229A5C096867
:104AE00001F00F0102F01F02595C20FA02F201F0FE
:104AF0001F0040F22401C2F2004122FA00F00860D7
:104B000040F22001C2F200410A6080BD00000000B6
:104B100080B500F05DF844F2184C4EF68443C5F6BB
:104B2000020CC0F60003DCF80020C2F303229A5CFA
:104B3000DCF8001001F00F0102F01F02595CD040B8
:104B400040F22402C2F2004201F01F0120FA01F1FA
:104B5000116040F22002C2F200421060DCF8040052
:104B6000C0F30210185C00F01F0021FA00F080BDB5
:104B700080B500F02DF844F2184C4EF68443C5F68B
:104B8000020CC0F60003DCF80020C2F303229A5C9A
:104B9000DCF8001001F00F0102F01F02595CD04058
:104BA00040F22402C2F2004201F01F0120FA01F19A
:104BB000116040F22002C2F200421060DCF80400F2
:104BC000C0F30220185C00F01F0021FA00F080BD45
:104BD00044F20041C5F602010869C0F3C20003288F
:104BE00014D002280DD080BB0868800649F200006E
:104BF000C0F2D03058BF70470968C1F3C101C84046
:104C0000704747F64000C0F27D1070478A6A886A94
:104C1000C0F3051CC86ABCF1000F4B6B1AD000F042
:104C20000100404200EAD3006FF35F3000EE100A4B
:104C300002F003000228B8EE400A0DD078B90868E7
:104C400080060FD49FED231A19E040F60010C0F241
:104C50003D007047002070479FED1D1A0FE09FED4B
:104C60001B1A0CE0086849F20002C0F2D032C0F30F
:104C7000C10022FA00F001EE100AB8EE411A086BEA
:104C80009FED153A6FF35F2002EE100A086BC0F338
:104C90004620B8EE422A013000EE032A00EE10CA88
:104CA000B7EE003AB8EE400A81EE000A32EE031A7F
:104CB00020EE010A01EE100AB8EE411A80EE010A58
:104CC000BCEEC00A10EE100A704700BF0024744A00
:104CD00020BCBE4B0024744C0000003900000000D2
:104CE0002DE9F04381B0002800F0978180460078DC
:104CF00044F20049C007C5F6020954D0D9F81000A3
:104D000000F03801D9F82800102905D018290CD155
:104D100000F00300022808D1D9F8000080033ED536
:104D2000D8F80400D8BB01272CE0D8F80450D9F8F3
:104D300000002DB1B5F5A02F0BD0B5F5803F0ED0FA
:104D400020F48030C9F80000D9F8000020F4802059
:104D500007E040F48020C9F80000D9F8000040F4D2
:104D60008030C9F80000FDF75BFF002D054612D02A
:104D7000D9F80000800312D4FDF752FF401B6428CD
:104D8000F6D90327002070B98CE100BFFDF748FF7A
:104D9000401B6428F5D8D9F800008003F6D4012020
:104DA000002800F07F8198F8000080076AD5D9F8C4
:104DB000100010F03801D9F828001DD0182908BFBC
:104DC0005FEA807018D0D8F80C00D9F800100028DD
:104DD00040D021F019010843C9F80000FDF720FF79
:104DE000054600BFD9F80000400727D4FDF718FF9B
:104DF000401B0228F6D91EE0D9F80000400704D570
:104E0000D8F80C00002800F0AC81D9F80000D8F8E0
:104E10000C1020F019000843C9F80000FDF700FF4E
:104E2000054600BFD9F80000400707D4FDF7F8FE9B
:104E3000401B0228F6D90327002420E0D9F80400FB
:104E4000D8F8101020F0FE40012440EA0160C9F8B3
:104E5000040014E021F00100C9F80000FDF7E0FEB5
:104E600005460126D9F8000010F0040086EA9004F7
:104E700005D0FDF7D5FE401B0228F3D90327002CEF
:104E800000F0108198F80000C00656D5D9F810003F
:104E900000F03801D9F82800082905D0182917D1C1
:104EA00000F00300012813D1D9F80000C00503D594
:104EB000D8F81C0080283BD1D9F80C00D8F8201075
:104EC00020F07C50012440EA0160C9F80C0031E078
:104ED000D8F81C000028D9F8000012D040F080005B
:104EE000C9F80000FDF79CFE054600BFD9F8000098
:104EF000C005E1D4FDF794FE401B0228F6D9032734
:104F000017E020F08000C9F80000FDF789FE054693
:104F1000012600BFD9F8000010F4807086EA102442
:104F200008D0FDF77DFE401B0228F3D9032701E0DE
:104F300001270024002C00F0B58098F8000000073D
:104F40006DD498F80000800600F1818098F8000088
:104F5000400700F19480D8F82440002C5BD0D9F8A9
:104F6000100000F03800182840F0D980012CD9F842
:104F70002810D9F8300050D001F00302D8F82830BA
:104F80009A424AD1C1F30511D8F82C20914244D15C
:104F90000146D8F830206FF35F21013A91423CD1AD
:104FA000C0F34622D8F8341001398A4235D1C0F313
:104FB0000642D8F8381001398A422ED1C0F3066073
:104FC000D8F83C100139884227D1D9F83400D8F8F4
:104FD0004810C0F3CC0081421DD0D9F82C0020F03D
:104FE0000100C9F82C00FDF71BFE0546FDF718FE71
:104FF000A842FBD0D9F834004FF6F871D8F8482011
:10500000884340EAC200C9F83400D9F82C0040F0C7
:105010000100C9F82C00002744E0012742E0D8F83D
:1050200014000028D9F8740040D040F00100C9F8FD
:105030007400FDF7F5FD0546D9F8740080073FF5CB
:1050400080AFFDF7EDFD401B0228F5D929E0D8F827
:1050500018000028D9F800004DD040F48050C9F85D
:105060000000FDF7DDFD0546D9F8000080043FF59E
:105070006DAFFDF7D5FD401B0228F5D911E0D9F839
:10508000000440F48070C9F80004FDF7C9FD05462E
:10509000D9F80004C0051CD4FDF7C2FD401B6428EC
:1050A000F6D90327F8B201B0BDE8F08320F0010083
:1050B000C9F87400FDF7B4FD05460327D9F874005C
:1050C00080077FF53EAFFDF7ABFD401B0228F5D909
:1050D000E8E7D8F80850D9F870001DB1052D42D086
:1050E000012D46D020F00100C9F87000D9F87000F9
:1050F00020F004003FE020F48050C9F80000FDF7E4
:105100008FFD0546032700BFD9F8000080047FF516
:105110001DAFFDF785FD401B0228F5D9C2E7D9F880
:10512000000020F08070C9F80000FDF779FD022C26
:1051300005464FF0030709D1D9F8000080013CD59E
:10514000FDF76EFD401B0228F6D9ABE7D9F8000049
:1051500080017FF560AFFDF763FD401B0228F5D9A4
:10516000A0E7012768E640F00400C9F87000D9F80C
:10517000700040F00100C9F87000FDF751FD002DEE
:10518000054641F288344FF0030711D0D9F870007A
:1051900080073FF5E0AEFDF743FD401BA042F5D987
:1051A00080E700BFFDF73CFD401BA0423FF67AAF11
:1051B000D9F870008007F5D4CDE608F12807D9F8B2
:1051C000280040F2F33188438ECF0843591E40EA4D
:1051D00002104FF47E426FF35F21C9F8280002EB02
:1051E00047204FF4FE0280B2D8F83C300844D8F88B
:1051F000381002EB01414FF0FE4201F4FE0102EBD8
:105200000362084402F0FE410844C9F83000D9F8AE
:105210002C004FF6F87120F00100C9F82C00D9F8E5
:105220003400D8F84820884340EAC200C9F8340066
:10523000D9F82C00D8F8401020F00C000843C9F829
:105240002C00D9F82C00D8F8441020F002000843B4
:10525000C9F82C00D9F82C0040F48030C9F82C0093
:10526000D9F82C0040F40030C9F82C00D9F82C00F3
:1052700040F48020C9F82C00D9F82C0040F001003F
:10528000C9F82C00D9F8000040F08070C9F800007F
:10529000FDF7C6FC04460327D9F8000080013FF55E
:1052A000BAAEFDF7BDFC001B0228F5D9FAE60000F6
:1052B0007047000000000000704700000000000080
:1052C000704700000000000090F83C20012A4FF0D9
:1052D000020269D0B0B5012380F83C3080F83D204F
:1052E00040F2004C0268C4F2010C42F48063634552
:1052F0005368D2F808E002BF23F470034C682343DC
:105300004DF6FF740D68C4F2000423F07003A2424E
:1053100043EA0503536014DC40F2FF73C4F2000358
:105320009A4222DD40F60003C4F200039A422ED0D6
:1053300040F60043C4F200039A4228D041F600032D
:1053400021E04FF6FF73C4F200039A4213DD0023FD
:10535000C4F201039A421AD044F20003C4F20103DA
:105360009A4214D0624512D016E0B2F1804F0ED0AE
:1053700040F2004307E04EF20003C4F200039A42F9
:1053800005D04EF20043C4F200039A4204D12EF03D
:1053900080038968194391600022012180F83D1043
:1053A00080F83C20BDE8B040104670470000000087
:1053B00060B310B5044690F83D0028B9002084F889
:1053C0003C00204600F024F8022084F83D002068CC
:1053D000211D01F0BDF8012084F8480084F83E004A
:1053E00084F83F0084F8400084F8410084F84200CB
:1053F00084F8430084F8440084F8450084F84600AB
:1054000084F8470084F83D00002010BD012070475B
:1054100010B582B041F200410068C4F20001884238
:1054200014D040F60001C4F20001884227D144F2B2
:10543000E8401E24C5F60200016841F00401016045
:10544000006800F00400019001980DE044F2E8408B
:105450003724C5F60200016841F0200101600068B0
:1054600000F0200000900098052100222046FDF762
:10547000F3FC204602B0BDE81040FDF7D9BC02B0F5
:1054800010BD00000000000090F83D10012922D15D
:10549000022180F83D1001684DF6FF70C4F2000053
:1054A0008142C86840F00100C86016DC40F2FF701D
:1054B000C4F20000814228DD40F60000C4F2000082
:1054C000814234D040F60040C4F2000081422ED028
:1054D00041F6000027E0012070474FF6FF70C4F24C
:1054E0000000814217DD0020C4F2010081421ED07D
:1054F00044F20000C4F20100814218D040F20040A2
:10550000C4F20100814212D01DE0B1F1804F0ED0F3
:1055100040F2004007E04EF20000C4F20000814279
:1055200005D04EF20040C4F2000081420BD10722A8
:105530008868C0F2010202400020062A18BFB2F5B6
:10554000803F00D17047086840F0010008600020EB
:10555000704700000000000090F83C20012A4FF046
:10556000020200F0A78080B5012380F83C3080F86B
:105570003D208822D0F800C0CFF6CE72DCF808308B
:105580001A40CCF808200B686F2B0CDDB3F1101F0C
:1055900034DAB3F5005F69DA702B00F0AF80B3F551
:1055A000805F7ED0D0E02F2B32DD4F2B37DC302BCD
:1055B0006BD0402B40F0C880D1F804E0C968DCF81B
:1055C0002030DCF8202022F00102CCF82020DCF88A
:1055D000182022F0F00242EA011123F00A02CCF86E
:1055E000181042EA0E01CCF820104FF68872DCF851
:1055F0000810CFF6CF721140473150E02F21C0F292
:1056000010018B4237DCB3F1101F3ED0202138E06F
:10561000002B18BF102B38D0202B36D094E0502B05
:105620004AD0602B40F09080D1F804E0C968DCF8E3
:105630002030DCF8202022F01002CCF82020DCF80A
:10564000182022F4704242EA013123F0A002CCF883
:10565000181042EA0E11CCF820104FF68872DCF8D0
:105660000810CFF6CF721140673118E059D0B3F56A
:10567000801F0AD068E03021C0F210018B4204D0B4
:105680004021C0F210018B425ED14FF68872DCF8E7
:105690000810CFF6CF721140194341F00701CCF842
:1056A00008100022012180F83D10002180F83C10F4
:1056B000BDE8804010467047D1F804E0C968DCF8C6
:1056C0002030DCF8202022F00102CCF82020DCF889
:1056D000182022F0F00242EA011123F00A02CCF86D
:1056E000181042EA0E01CCF820104FF68872DCF850
:1056F0000810CFF6CF7211405731D0E701F1040EF8
:105700009EE80C40DCF808101A4321F47F4142EA7D
:105710000E221143CCF80810DCF8081041F0770194
:10572000BDE701F1040E9EE80C40DCF808101A43B6
:1057300021F47F4142EA0E221143CCF80810DCF834
:10574000081041F48041AAE70122ABE70000000005
:105750007047000000000000F0B581B0044600680A
:10576000C5680669B10716D515F0020113D06FF0B0
:1057700002010161012121778069800703D0204661
:10578000FFF7E6FF05E0204600F09AF8204600F01B
:105790009BF800202077700718D515F0040015D06D
:1057A00020686FF00401016102212177806910F403
:1057B000407F03D02046FFF7CBFF05E0204600F0F6
:1057C0007FF8204600F080F800202077300717D5BA
:1057D00015F0080014D020686FF008010161042161
:1057E0002177C069800703D02046FFF7B1FF05E0AD
:1057F000204600F065F8204600F066F8002020778B
:10580000F00618D515F0100015D020686FF01001C3
:10581000016108212177C06910F4407F03D0204640
:10582000FFF796FF05E0204600F04AF8204600F01A
:105830004BF800202077F00718BF15F0010006D0C4
:1058400020686FF001010161204600F041F805F089
:10585000800716F4025F18BF002F02D1F00509D4AB
:1058600010E020686FF4025101612046FFF724FD2B
:10587000F00507D537B120686FF4807101612046CB
:10588000FFF716FD700609D515F0400006D0206818
:105890006FF040010161204600F02AF8B0060CD5F7
:1058A00015F0200009D020686FF02001016120462A
:1058B00001B0BDE8F040FFF703BD01B0F0BD00004E
:1058C000704700000000000070470000000000006A
:1058D00010B50446FCF7C0F841F200012068C4F29C
:1058E0000001884218BF10BDBDE81040FDF7A0B907
:1058F000704700000000000090F88410012901D1D9
:10590000022070472421C0F8881001680A680B68DB
:1059100022F0005223F001030B60002343660A606B
:105920002021C0F8881080F88430002070470000E3
:1059300090F88420012A01D102207047B0B50123DC
:1059400080F884302422C0F888200268D0F864E00F
:10595000BEF1000FD2F800C0146824F001041460F6
:10596000946824F0606441EA040191601BD091685E
:105970004FF2580E9368C0F6000E5B0F4FF26005B1
:10598000C1F34261C0F600051EF80340EB5C240140
:10599000B4FBF3F3A0F86A301EF80130695C1B0118
:1059A000B3FBF1F301E0A0F86A30A0F868302021E1
:1059B000C2F800C0C0F88810002180F884100020D0
:1059C000B0BD00000000000090F88420012A01D141
:1059D00002207047B0B5012380F884302422C0F83B
:1059E00088200268D0F864E0BEF1000FD2F800C051
:1059F000146824F001041460946824F0604441EABF
:105A0000040191601BD091684FF2580E9368C0F664
:105A1000000E5B0F4FF26005C1F34261C0F6000556
:105A20001EF80340EB5C2401B4FBF3F3A0F86A30EA
:105A30001EF80130695C1B01B3FBF1F301E0A0F833
:105A40006A30A0F868302021C2F800C0C0F8881081
:105A5000002180F884100020B0BD0000000000008C
:105A600010B5D8B10446D0F8880028B9002084F8D1
:105A70008400204600F028F82420C4F8880020681C
:105A8000A16A0268002922F00101016002D02046CB
:105A900000F00EFE204600F0DBFE08B1012010BD34
:105AA0002068416821F490414160816821F02A0119
:105AB0008160016841F0010101602046BDE81040AD
:105AC00000F066BE00000000B0B5B6B0044602A803
:105AD000B8210025CDE93455CDE932553195FAF795
